{
  "contractName": "AntiCheat",
  "abi": [
    {
      "inputs": [],
      "stateMutability": "nonpayable",
      "type": "constructor"
    },
    {
      "inputs": [],
      "name": "session_handler",
      "outputs": [
        {
          "internalType": "contract SessionHandler",
          "name": "",
          "type": "address"
        }
      ],
      "stateMutability": "view",
      "type": "function",
      "constant": true
    },
    {
      "inputs": [
        {
          "internalType": "string",
          "name": "session_id",
          "type": "string"
        },
        {
          "internalType": "string",
          "name": "key",
          "type": "string"
        },
        {
          "internalType": "int256[]",
          "name": "data",
          "type": "int256[]"
        }
      ],
      "name": "validate_and_update_session_int_data",
      "outputs": [],
      "stateMutability": "nonpayable",
      "type": "function"
    },
    {
      "inputs": [
        {
          "internalType": "string",
          "name": "session_id",
          "type": "string"
        },
        {
          "internalType": "string",
          "name": "key",
          "type": "string"
        },
        {
          "internalType": "string[]",
          "name": "data",
          "type": "string[]"
        }
      ],
      "name": "validate_and_update_session_string_data",
      "outputs": [],
      "stateMutability": "nonpayable",
      "type": "function"
    },
    {
      "inputs": [
        {
          "internalType": "string",
          "name": "session_id",
          "type": "string"
        },
        {
          "internalType": "string",
          "name": "player_id",
          "type": "string"
        },
        {
          "internalType": "string",
          "name": "key",
          "type": "string"
        },
        {
          "internalType": "int256[]",
          "name": "data",
          "type": "int256[]"
        }
      ],
      "name": "validate_and_update_player_int_data",
      "outputs": [],
      "stateMutability": "nonpayable",
      "type": "function"
    },
    {
      "inputs": [
        {
          "internalType": "string",
          "name": "session_id",
          "type": "string"
        },
        {
          "internalType": "string",
          "name": "player_id",
          "type": "string"
        },
        {
          "internalType": "string",
          "name": "key",
          "type": "string"
        },
        {
          "internalType": "string[]",
          "name": "data",
          "type": "string[]"
        }
      ],
      "name": "validate_and_update_player_string_data",
      "outputs": [],
      "stateMutability": "nonpayable",
      "type": "function"
    }
  ],
  "bytecode": "0x608060405234801561001057600080fd5b5060405161001d9061007e565b604051809103906000f080158015610039573d6000803e3d6000fd5b506000806101000a81548173ffffffffffffffffffffffffffffffffffffffff021916908373ffffffffffffffffffffffffffffffffffffffff16021790555061008c565b61519a806200220583390190565b612169806200009c6000396000f3fe608060405234801561001057600080fd5b50600436106100575760003560e01c806325e72d581461005c578063612d7d61146100785780638d7009ca146100945780639a5759f7146100b0578063d55acf45146100cc575b600080fd5b61007660048036038101906100719190610faa565b6100ea565b005b610092600480360381019061008d9190611132565b610393565b005b6100ae60048036038101906100a991906111d9565b61063c565b005b6100ca60048036038101906100c591906112b0565b6109d7565b005b6100d4610d2e565b6040516100e19190611406565b60405180910390f35b60008060009054906101000a900473ffffffffffffffffffffffffffffffffffffffff1673ffffffffffffffffffffffffffffffffffffffff16637cd5f0a5856040518263ffffffff1660e01b815260040161014691906114a0565b602060405180830381865afa158015610163573d6000803e3d6000fd5b505050506040513d601f19601f820116820180604052508101906101879190611500565b905073__ValidationLib_________________________63171728028273ffffffffffffffffffffffffffffffffffffffff16635e9cbc54866040518263ffffffff1660e01b81526004016101dc91906114a0565b600060405180830381865afa1580156101f9573d6000803e3d6000fd5b505050506040513d6000823e3d601f19601f820116820180604052508101906102229190611709565b846040518363ffffffff1660e01b8152600401610240929190611959565b602060405180830381865af415801561025d573d6000803e3d6000fd5b505050506040513d601f19601f8201168201806040525081019061028191906119c8565b610320578073ffffffffffffffffffffffffffffffffffffffff166307da68f56040518163ffffffff1660e01b8152600401600060405180830381600087803b1580156102cd57600080fd5b505af11580156102e1573d6000803e3d6000fd5b505050506040517f08c379a000000000000000000000000000000000000000000000000000000000815260040161031790611a41565b60405180910390fd5b8073ffffffffffffffffffffffffffffffffffffffff16633b45d0a884846040518363ffffffff1660e01b815260040161035b929190611af7565b600060405180830381600087803b15801561037557600080fd5b505af1158015610389573d6000803e3d6000fd5b5050505050505050565b60008060009054906101000a900473ffffffffffffffffffffffffffffffffffffffff1673ffffffffffffffffffffffffffffffffffffffff16637cd5f0a5856040518263ffffffff1660e01b81526004016103ef91906114a0565b602060405180830381865afa15801561040c573d6000803e3d6000fd5b505050506040513d601f19601f820116820180604052508101906104309190611500565b905073__ValidationLib_________________________6347f8be808273ffffffffffffffffffffffffffffffffffffffff16634298b5c8866040518263ffffffff1660e01b815260040161048591906114a0565b600060405180830381865afa1580156104a2573d6000803e3d6000fd5b505050506040513d6000823e3d601f19601f820116820180604052508101906104cb9190611c97565b846040518363ffffffff1660e01b81526004016104e9929190611ea8565b602060405180830381865af4158015610506573d6000803e3d6000fd5b505050506040513d601f19601f8201168201806040525081019061052a91906119c8565b6105c9578073ffffffffffffffffffffffffffffffffffffffff166307da68f56040518163ffffffff1660e01b8152600401600060405180830381600087803b15801561057657600080fd5b505af115801561058a573d6000803e3d6000fd5b505050506040517f08c379a00000000000000000000000000000000000000000000000000000000081526004016105c090611a41565b60405180910390fd5b8073ffffffffffffffffffffffffffffffffffffffff16633f5b5bcf84846040518363ffffffff1660e01b8152600401610604929190611fc3565b600060405180830381600087803b15801561061e57600080fd5b505af1158015610632573d6000803e3d6000fd5b5050505050505050565b6000815103610680576040517f08c379a000000000000000000000000000000000000000000000000000000000815260040161067790612046565b60405180910390fd5b60008060009054906101000a900473ffffffffffffffffffffffffffffffffffffffff1673ffffffffffffffffffffffffffffffffffffffff16637cd5f0a5866040518263ffffffff1660e01b81526004016106dc91906114a0565b602060405180830381865afa1580156106f9573d6000803e3d6000fd5b505050506040513d601f19601f8201168201806040525081019061071d9190611500565b905060008060009054906101000a900473ffffffffffffffffffffffffffffffffffffffff1673ffffffffffffffffffffffffffffffffffffffff1663b53a900187876040518363ffffffff1660e01b815260040161077d929190612066565b602060405180830381865afa15801561079a573d6000803e3d6000fd5b505050506040513d601f19601f820116820180604052508101906107be9190611500565b905073__ValidationLib_________________________6347f8be808373ffffffffffffffffffffffffffffffffffffffff16634298b5c8876040518263ffffffff1660e01b815260040161081391906114a0565b600060405180830381865afa158015610830573d6000803e3d6000fd5b505050506040513d6000823e3d601f19601f820116820180604052508101906108599190611c97565b856040518363ffffffff1660e01b8152600401610877929190611ea8565b602060405180830381865af4158015610894573d6000803e3d6000fd5b505050506040513d601f19601f820116820180604052508101906108b891906119c8565b610962578173ffffffffffffffffffffffffffffffffffffffff1663405504fa826040518263ffffffff1660e01b81526004016108f591906120ac565b600060405180830381600087803b15801561090f57600080fd5b505af1158015610923573d6000803e3d6000fd5b505050506040517f08c379a000000000000000000000000000000000000000000000000000000000815260040161095990612113565b60405180910390fd5b8073ffffffffffffffffffffffffffffffffffffffff16633f5b5bcf85856040518363ffffffff1660e01b815260040161099d929190611fc3565b600060405180830381600087803b1580156109b757600080fd5b505af11580156109cb573d6000803e3d6000fd5b50505050505050505050565b60008060009054906101000a900473ffffffffffffffffffffffffffffffffffffffff1673ffffffffffffffffffffffffffffffffffffffff16637cd5f0a5866040518263ffffffff1660e01b8152600401610a3391906114a0565b602060405180830381865afa158015610a50573d6000803e3d6000fd5b505050506040513d601f19601f82011682018060405250810190610a749190611500565b905060008060009054906101000a900473ffffffffffffffffffffffffffffffffffffffff1673ffffffffffffffffffffffffffffffffffffffff1663b53a900187876040518363ffffffff1660e01b8152600401610ad4929190612066565b602060405180830381865afa158015610af1573d6000803e3d6000fd5b505050506040513d601f19601f82011682018060405250810190610b159190611500565b905073__ValidationLib_________________________63171728028373ffffffffffffffffffffffffffffffffffffffff16635e9cbc54876040518263ffffffff1660e01b8152600401610b6a91906114a0565b600060405180830381865afa158015610b87573d6000803e3d6000fd5b505050506040513d6000823e3d601f19601f82011682018060405250810190610bb09190611709565b856040518363ffffffff1660e01b8152600401610bce929190611959565b602060405180830381865af4158015610beb573d6000803e3d6000fd5b505050506040513d601f19601f82011682018060405250810190610c0f91906119c8565b610cb9578173ffffffffffffffffffffffffffffffffffffffff1663405504fa826040518263ffffffff1660e01b8152600401610c4c91906120ac565b600060405180830381600087803b158015610c6657600080fd5b505af1158015610c7a573d6000803e3d6000fd5b505050506040517f08c379a0000000000000000000000000000000000000000000000000000000008152600401610cb090612113565b60405180910390fd5b8073ffffffffffffffffffffffffffffffffffffffff16633b45d0a885856040518363ffffffff1660e01b8152600401610cf4929190611af7565b600060405180830381600087803b158015610d0e57600080fd5b505af1158015610d22573d6000803e3d6000fd5b50505050505050505050565b60008054906101000a900473ffffffffffffffffffffffffffffffffffffffff1681565b6000604051905090565b600080fd5b600080fd5b600080fd5b600080fd5b6000601f19601f8301169050919050565b7f4e487b7100000000000000000000000000000000000000000000000000000000600052604160045260246000fd5b610db982610d70565b810181811067ffffffffffffffff82111715610dd857610dd7610d81565b5b80604052505050565b6000610deb610d52565b9050610df78282610db0565b919050565b600067ffffffffffffffff821115610e1757610e16610d81565b5b610e2082610d70565b9050602081019050919050565b82818337600083830152505050565b6000610e4f610e4a84610dfc565b610de1565b905082815260208101848484011115610e6b57610e6a610d6b565b5b610e76848285610e2d565b509392505050565b600082601f830112610e9357610e92610d66565b5b8135610ea3848260208601610e3c565b91505092915050565b600067ffffffffffffffff821115610ec757610ec6610d81565b5b602082029050602081019050919050565b600080fd5b6000819050919050565b610ef081610edd565b8114610efb57600080fd5b50565b600081359050610f0d81610ee7565b92915050565b6000610f26610f2184610eac565b610de1565b90508083825260208201905060208402830185811115610f4957610f48610ed8565b5b835b81811015610f725780610f5e8882610efe565b845260208401935050602081019050610f4b565b5050509392505050565b600082601f830112610f9157610f90610d66565b5b8135610fa1848260208601610f13565b91505092915050565b600080600060608486031215610fc357610fc2610d5c565b5b600084013567ffffffffffffffff811115610fe157610fe0610d61565b5b610fed86828701610e7e565b935050602084013567ffffffffffffffff81111561100e5761100d610d61565b5b61101a86828701610e7e565b925050604084013567ffffffffffffffff81111561103b5761103a610d61565b5b61104786828701610f7c565b9150509250925092565b600067ffffffffffffffff82111561106c5761106b610d81565b5b602082029050602081019050919050565b600061109061108b84611051565b610de1565b905080838252602082019050602084028301858111156110b3576110b2610ed8565b5b835b818110156110fa57803567ffffffffffffffff8111156110d8576110d7610d66565b5b8086016110e58982610e7e565b855260208501945050506020810190506110b5565b5050509392505050565b600082601f83011261111957611118610d66565b5b813561112984826020860161107d565b91505092915050565b60008060006060848603121561114b5761114a610d5c565b5b600084013567ffffffffffffffff81111561116957611168610d61565b5b61117586828701610e7e565b935050602084013567ffffffffffffffff81111561119657611195610d61565b5b6111a286828701610e7e565b925050604084013567ffffffffffffffff8111156111c3576111c2610d61565b5b6111cf86828701611104565b9150509250925092565b600080600080608085870312156111f3576111f2610d5c565b5b600085013567ffffffffffffffff81111561121157611210610d61565b5b61121d87828801610e7e565b945050602085013567ffffffffffffffff81111561123e5761123d610d61565b5b61124a87828801610e7e565b935050604085013567ffffffffffffffff81111561126b5761126a610d61565b5b61127787828801610e7e565b925050606085013567ffffffffffffffff81111561129857611297610d61565b5b6112a487828801611104565b91505092959194509250565b600080600080608085870312156112ca576112c9610d5c565b5b600085013567ffffffffffffffff8111156112e8576112e7610d61565b5b6112f487828801610e7e565b945050602085013567ffffffffffffffff81111561131557611314610d61565b5b61132187828801610e7e565b935050604085013567ffffffffffffffff81111561134257611341610d61565b5b61134e87828801610e7e565b925050606085013567ffffffffffffffff81111561136f5761136e610d61565b5b61137b87828801610f7c565b91505092959194509250565b600073ffffffffffffffffffffffffffffffffffffffff82169050919050565b6000819050919050565b60006113cc6113c76113c284611387565b6113a7565b611387565b9050919050565b60006113de826113b1565b9050919050565b60006113f0826113d3565b9050919050565b611400816113e5565b82525050565b600060208201905061141b60008301846113f7565b92915050565b600081519050919050565b600082825260208201905092915050565b60005b8381101561145b578082015181840152602081019050611440565b60008484015250505050565b600061147282611421565b61147c818561142c565b935061148c81856020860161143d565b61149581610d70565b840191505092915050565b600060208201905081810360008301526114ba8184611467565b905092915050565b60006114cd82611387565b9050919050565b6114dd816114c2565b81146114e857600080fd5b50565b6000815190506114fa816114d4565b92915050565b60006020828403121561151657611515610d5c565b5b6000611524848285016114eb565b91505092915050565b600067ffffffffffffffff82111561154857611547610d81565b5b602082029050602081019050919050565b600080fd5b600080fd5b60008151905061157281610ee7565b92915050565b600061158b61158684610dfc565b610de1565b9050828152602081018484840111156115a7576115a6610d6b565b5b6115b284828561143d565b509392505050565b600082601f8301126115cf576115ce610d66565b5b81516115df848260208601611578565b91505092915050565b6000604082840312156115fe576115fd611559565b5b6116086040610de1565b9050600061161884828501611563565b600083015250602082015167ffffffffffffffff81111561163c5761163b61155e565b5b611648848285016115ba565b60208301525092915050565b60006116676116628461152d565b610de1565b9050808382526020820190506020840283018581111561168a57611689610ed8565b5b835b818110156116d157805167ffffffffffffffff8111156116af576116ae610d66565b5b8086016116bc89826115e8565b8552602085019450505060208101905061168c565b5050509392505050565b600082601f8301126116f0576116ef610d66565b5b8151611700848260208601611654565b91505092915050565b60006020828403121561171f5761171e610d5c565b5b600082015167ffffffffffffffff81111561173d5761173c610d61565b5b611749848285016116db565b91505092915050565b600081519050919050565b600082825260208201905092915050565b6000819050602082019050919050565b61178781610edd565b82525050565b600082825260208201905092915050565b60006117a982611421565b6117b3818561178d565b93506117c381856020860161143d565b6117cc81610d70565b840191505092915050565b60006040830160008301516117ef600086018261177e565b5060208301518482036020860152611807828261179e565b9150508091505092915050565b600061182083836117d7565b905092915050565b6000602082019050919050565b600061184082611752565b61184a818561175d565b93508360208202850161185c8561176e565b8060005b8581101561189857848403895281516118798582611814565b945061188483611828565b925060208a01995050600181019050611860565b50829750879550505050505092915050565b600081519050919050565b600082825260208201905092915050565b6000819050602082019050919050565b60006118e2838361177e565b60208301905092915050565b6000602082019050919050565b6000611906826118aa565b61191081856118b5565b935061191b836118c6565b8060005b8381101561194c57815161193388826118d6565b975061193e836118ee565b92505060018101905061191f565b5085935050505092915050565b600060408201905081810360008301526119738185611835565b9050818103602083015261198781846118fb565b90509392505050565b60008115159050919050565b6119a581611990565b81146119b057600080fd5b50565b6000815190506119c28161199c565b92915050565b6000602082840312156119de576119dd610d5c565b5b60006119ec848285016119b3565b91505092915050565b7f53657373696f6e20666c61676765640000000000000000000000000000000000600082015250565b6000611a2b600f8361142c565b9150611a36826119f5565b602082019050919050565b60006020820190508181036000830152611a5a81611a1e565b9050919050565b600082825260208201905092915050565b611a7b81610edd565b82525050565b6000611a8d8383611a72565b60208301905092915050565b6000611aa4826118aa565b611aae8185611a61565b9350611ab9836118c6565b8060005b83811015611aea578151611ad18882611a81565b9750611adc836118ee565b925050600181019050611abd565b5085935050505092915050565b60006040820190508181036000830152611b118185611467565b90508181036020830152611b258184611a99565b90509392505050565b600067ffffffffffffffff821115611b4957611b48610d81565b5b602082029050602081019050919050565b600060408284031215611b7057611b6f611559565b5b611b7a6040610de1565b9050600082015167ffffffffffffffff811115611b9a57611b9961155e565b5b611ba6848285016115ba565b600083015250602082015167ffffffffffffffff811115611bca57611bc961155e565b5b611bd6848285016115ba565b60208301525092915050565b6000611bf5611bf084611b2e565b610de1565b90508083825260208201905060208402830185811115611c1857611c17610ed8565b5b835b81811015611c5f57805167ffffffffffffffff811115611c3d57611c3c610d66565b5b808601611c4a8982611b5a565b85526020850194505050602081019050611c1a565b5050509392505050565b600082601f830112611c7e57611c7d610d66565b5b8151611c8e848260208601611be2565b91505092915050565b600060208284031215611cad57611cac610d5c565b5b600082015167ffffffffffffffff811115611ccb57611cca610d61565b5b611cd784828501611c69565b91505092915050565b600081519050919050565b600082825260208201905092915050565b6000819050602082019050919050565b60006040830160008301518482036000860152611d29828261179e565b91505060208301518482036020860152611d43828261179e565b9150508091505092915050565b6000611d5c8383611d0c565b905092915050565b6000602082019050919050565b6000611d7c82611ce0565b611d868185611ceb565b935083602082028501611d9885611cfc565b8060005b85811015611dd45784840389528151611db58582611d50565b9450611dc083611d64565b925060208a01995050600181019050611d9c565b50829750879550505050505092915050565b600081519050919050565b600082825260208201905092915050565b6000819050602082019050919050565b6000611e1e838361179e565b905092915050565b6000602082019050919050565b6000611e3e82611de6565b611e488185611df1565b935083602082028501611e5a85611e02565b8060005b85811015611e965784840389528151611e778582611e12565b9450611e8283611e26565b925060208a01995050600181019050611e5e565b50829750879550505050505092915050565b60006040820190508181036000830152611ec28185611d71565b90508181036020830152611ed68184611e33565b90509392505050565b600082825260208201905092915050565b600082825260208201905092915050565b6000611f0c82611421565b611f168185611ef0565b9350611f2681856020860161143d565b611f2f81610d70565b840191505092915050565b6000611f468383611f01565b905092915050565b6000611f5982611de6565b611f638185611edf565b935083602082028501611f7585611e02565b8060005b85811015611fb15784840389528151611f928582611f3a565b9450611f9d83611e26565b925060208a01995050600181019050611f79565b50829750879550505050505092915050565b60006040820190508181036000830152611fdd8185611467565b90508181036020830152611ff18184611f4e565b90509392505050565b7f4461746120697320656d70747900000000000000000000000000000000000000600082015250565b6000612030600d8361142c565b915061203b82611ffa565b602082019050919050565b6000602082019050818103600083015261205f81612023565b9050919050565b600060408201905081810360008301526120808185611467565b905081810360208301526120948184611467565b90509392505050565b6120a6816114c2565b82525050565b60006020820190506120c1600083018461209d565b92915050565b7f506c6179657220666c6167676564000000000000000000000000000000000000600082015250565b60006120fd600e8361142c565b9150612108826120c7565b602082019050919050565b6000602082019050818103600083015261212c816120f0565b905091905056fea2646970667358221220ea34ad93ddd6871200def0858b17d00de87fa5aa49d27b070b455868658b9e4164736f6c63430008110033608060405234801561001057600080fd5b5061517a806100206000396000f3fe60806040523480156200001157600080fd5b50600436106200005e5760003560e01c80630fd9c1f814620000635780637cd5f0a5146200009957806386f4df5e14620000cf578063b53a900114620000ef578063ffaf79021462000125575b600080fd5b6200008160048036038101906200007b9190620007f8565b62000145565b6040516200009091906200088e565b60405180910390f35b620000b76004803603810190620000b19190620007f8565b62000206565b604051620000c691906200088e565b60405180910390f35b620000ed6004803603810190620000e79190620008ab565b620002c7565b005b6200010d6004803603810190620001079190620008ab565b62000461565b6040516200011c91906200088e565b60405180910390f35b6200014360048036038101906200013d9190620007f8565b6200054c565b005b6000806001836040516200015a9190620009a9565b908152602001604051809103902060009054906101000a900473ffffffffffffffffffffffffffffffffffffffff169050600073ffffffffffffffffffffffffffffffffffffffff168173ffffffffffffffffffffffffffffffffffffffff1603620001fd576040517f08c379a0000000000000000000000000000000000000000000000000000000008152600401620001f49062000a23565b60405180910390fd5b80915050919050565b6000806000836040516200021b9190620009a9565b908152602001604051809103902060009054906101000a900473ffffffffffffffffffffffffffffffffffffffff169050600073ffffffffffffffffffffffffffffffffffffffff168173ffffffffffffffffffffffffffffffffffffffff1603620002be576040517f08c379a0000000000000000000000000000000000000000000000000000000008152600401620002b59062000a95565b60405180910390fd5b80915050919050565b600073ffffffffffffffffffffffffffffffffffffffff16600182604051620002f19190620009a9565b908152602001604051809103902060009054906101000a900473ffffffffffffffffffffffffffffffffffffffff1673ffffffffffffffffffffffffffffffffffffffff16146200034157600080fd5b60006200034e8362000206565b9050600082604051620003619062000666565b6200036d919062000af8565b604051809103906000f0801580156200038a573d6000803e3d6000fd5b50905080600184604051620003a09190620009a9565b908152602001604051809103902060006101000a81548173ffffffffffffffffffffffffffffffffffffffff021916908373ffffffffffffffffffffffffffffffffffffffff1602179055508173ffffffffffffffffffffffffffffffffffffffff166396a043d5826040518263ffffffff1660e01b81526004016200042791906200088e565b600060405180830381600087803b1580156200044257600080fd5b505af115801562000457573d6000803e3d6000fd5b5050505050505050565b6000806200046f8462000206565b905060006200047e8462000145565b90508173ffffffffffffffffffffffffffffffffffffffff166357884749826040518263ffffffff1660e01b8152600401620004bb91906200088e565b602060405180830381865afa158015620004d9573d6000803e3d6000fd5b505050506040513d601f19601f82011682018060405250810190620004ff919062000b59565b62000541576040517f08c379a0000000000000000000000000000000000000000000000000000000008152600401620005389062000bdb565b60405180910390fd5b809250505092915050565b600073ffffffffffffffffffffffffffffffffffffffff16600082604051620005769190620009a9565b908152602001604051809103902060009054906101000a900473ffffffffffffffffffffffffffffffffffffffff1673ffffffffffffffffffffffffffffffffffffffff1614620005c657600080fd5b600081604051620005d79062000674565b620005e3919062000af8565b604051809103906000f08015801562000600573d6000803e3d6000fd5b50905080600083604051620006169190620009a9565b908152602001604051809103902060006101000a81548173ffffffffffffffffffffffffffffffffffffffff021916908373ffffffffffffffffffffffffffffffffffffffff1602179055505050565b611f1b8062000bfe83390190565b61262c8062002b1983390190565b6000604051905090565b600080fd5b600080fd5b600080fd5b600080fd5b6000601f19601f8301169050919050565b7f4e487b7100000000000000000000000000000000000000000000000000000000600052604160045260246000fd5b620006eb82620006a0565b810181811067ffffffffffffffff821117156200070d576200070c620006b1565b5b80604052505050565b60006200072262000682565b9050620007308282620006e0565b919050565b600067ffffffffffffffff821115620007535762000752620006b1565b5b6200075e82620006a0565b9050602081019050919050565b82818337600083830152505050565b6000620007916200078b8462000735565b62000716565b905082815260208101848484011115620007b057620007af6200069b565b5b620007bd8482856200076b565b509392505050565b600082601f830112620007dd57620007dc62000696565b5b8135620007ef8482602086016200077a565b91505092915050565b6000602082840312156200081157620008106200068c565b5b600082013567ffffffffffffffff81111562000832576200083162000691565b5b6200084084828501620007c5565b91505092915050565b600073ffffffffffffffffffffffffffffffffffffffff82169050919050565b6000620008768262000849565b9050919050565b620008888162000869565b82525050565b6000602082019050620008a560008301846200087d565b92915050565b60008060408385031215620008c557620008c46200068c565b5b600083013567ffffffffffffffff811115620008e657620008e562000691565b5b620008f485828601620007c5565b925050602083013567ffffffffffffffff81111562000918576200091762000691565b5b6200092685828601620007c5565b9150509250929050565b600081519050919050565b600081905092915050565b60005b838110156200096657808201518184015260208101905062000949565b60008484015250505050565b60006200097f8262000930565b6200098b81856200093b565b93506200099d81856020860162000946565b80840191505092915050565b6000620009b7828462000972565b915081905092915050565b600082825260208201905092915050565b7f506c6179657220444e4500000000000000000000000000000000000000000000600082015250565b600062000a0b600a83620009c2565b915062000a1882620009d3565b602082019050919050565b6000602082019050818103600083015262000a3e81620009fc565b9050919050565b7f53657373696f6e20444e45000000000000000000000000000000000000000000600082015250565b600062000a7d600b83620009c2565b915062000a8a8262000a45565b602082019050919050565b6000602082019050818103600083015262000ab08162000a6e565b9050919050565b600062000ac48262000930565b62000ad08185620009c2565b935062000ae281856020860162000946565b62000aed81620006a0565b840191505092915050565b6000602082019050818103600083015262000b14818462000ab7565b905092915050565b60008115159050919050565b62000b338162000b1c565b811462000b3f57600080fd5b50565b60008151905062000b538162000b28565b92915050565b60006020828403121562000b725762000b716200068c565b5b600062000b828482850162000b42565b91505092915050565b7f506c61796572206e6f7420416374697665000000000000000000000000000000600082015250565b600062000bc3601183620009c2565b915062000bd08262000b8b565b602082019050919050565b6000602082019050818103600083015262000bf68162000bb4565b905091905056fe60806040523480156200001157600080fd5b5060405162001f1b38038062001f1b8339818101604052810190620000379190620001e3565b80600490816200004891906200047f565b505062000566565b6000604051905090565b600080fd5b600080fd5b600080fd5b600080fd5b6000601f19601f8301169050919050565b7f4e487b7100000000000000000000000000000000000000000000000000000000600052604160045260246000fd5b620000b9826200006e565b810181811067ffffffffffffffff82111715620000db57620000da6200007f565b5b80604052505050565b6000620000f062000050565b9050620000fe8282620000ae565b919050565b600067ffffffffffffffff8211156200012157620001206200007f565b5b6200012c826200006e565b9050602081019050919050565b60005b83811015620001595780820151818401526020810190506200013c565b60008484015250505050565b60006200017c620001768462000103565b620000e4565b9050828152602081018484840111156200019b576200019a62000069565b5b620001a884828562000139565b509392505050565b600082601f830112620001c857620001c762000064565b5b8151620001da84826020860162000165565b91505092915050565b600060208284031215620001fc57620001fb6200005a565b5b600082015167ffffffffffffffff8111156200021d576200021c6200005f565b5b6200022b84828501620001b0565b91505092915050565b600081519050919050565b7f4e487b7100000000000000000000000000000000000000000000000000000000600052602260045260246000fd5b600060028204905060018216806200028757607f821691505b6020821081036200029d576200029c6200023f565b5b50919050565b60008190508160005260206000209050919050565b60006020601f8301049050919050565b600082821b905092915050565b600060088302620003077fffffffffffffffffffffffffffffffffffffffffffffffffffffffffffffffff82620002c8565b620003138683620002c8565b95508019841693508086168417925050509392505050565b6000819050919050565b6000819050919050565b6000620003606200035a62000354846200032b565b62000335565b6200032b565b9050919050565b6000819050919050565b6200037c836200033f565b620003946200038b8262000367565b848454620002d5565b825550505050565b600090565b620003ab6200039c565b620003b881848462000371565b505050565b5b81811015620003e057620003d4600082620003a1565b600181019050620003be565b5050565b601f8211156200042f57620003f981620002a3565b6200040484620002b8565b8101602085101562000414578190505b6200042c6200042385620002b8565b830182620003bd565b50505b505050565b600082821c905092915050565b6000620004546000198460080262000434565b1980831691505092915050565b60006200046f838362000441565b9150826002028217905092915050565b6200048a8262000234565b67ffffffffffffffff811115620004a657620004a56200007f565b5b620004b282546200026e565b620004bf828285620003e4565b600060209050601f831160018114620004f75760008415620004e2578287015190505b620004ee858262000461565b8655506200055e565b601f1984166200050786620002a3565b60005b8281101562000531578489015182556001820191506020850194506020810190506200050a565b868310156200055157848901516200054d601f89168262000441565b8355505b6001600288020188555050505b505050505050565b6119a580620005766000396000f3fe608060405234801561001057600080fd5b50600436106100935760003560e01c8063682fead511610066578063682fead5146101305780638702a84814610160578063a20612ec14610190578063af640d0f146101ac578063df1cb17c146101ca57610093565b80633b45d0a8146100985780633f5b5bcf146100b45780634298b5c8146100d05780635e9cbc5414610100575b600080fd5b6100b260048036038101906100ad9190610d18565b6101e6565b005b6100ce60048036038101906100c99190610e71565b61021d565b005b6100ea60048036038101906100e59190610ee9565b610254565b6040516100f791906110b7565b60405180910390f35b61011a60048036038101906101159190610ee9565b6103f5565b60405161012791906111e7565b60405180910390f35b61014a60048036038101906101459190610ee9565b61050e565b60405161015791906112cb565b60405180910390f35b61017a60048036038101906101759190610ee9565b61064f565b604051610187919061139c565b60405180910390f35b6101aa60048036038101906101a591906113be565b61070e565b005b6101b46107f8565b6040516101c19190611493565b60405180910390f35b6101e460048036038101906101df91906114b5565b610886565b005b806000836040516101f79190611598565b9081526020016040518091039020908051906020019061021892919061097c565b505050565b8060018360405161022e9190611598565b9081526020016040518091039020908051906020019061024f9291906109c9565b505050565b60606003826040516102669190611598565b9081526020016040518091039020805480602002602001604051908101604052809291908181526020016000905b828210156103ea57838290600052602060002090600202016040518060400160405290816000820180546102c7906115de565b80601f01602080910402602001604051908101604052809291908181526020018280546102f3906115de565b80156103405780601f1061031557610100808354040283529160200191610340565b820191906000526020600020905b81548152906001019060200180831161032357829003601f168201915b50505050508152602001600182018054610359906115de565b80601f0160208091040260200160405190810160405280929190818152602001828054610385906115de565b80156103d25780601f106103a7576101008083540402835291602001916103d2565b820191906000526020600020905b8154815290600101906020018083116103b557829003601f168201915b50505050508152505081526020019060010190610294565b505050509050919050565b60606002826040516104079190611598565b9081526020016040518091039020805480602002602001604051908101604052809291908181526020016000905b82821015610503578382906000526020600020906002020160405180604001604052908160008201548152602001600182018054610472906115de565b80601f016020809104026020016040519081016040528092919081815260200182805461049e906115de565b80156104eb5780601f106104c0576101008083540402835291602001916104eb565b820191906000526020600020905b8154815290600101906020018083116104ce57829003601f168201915b50505050508152505081526020019060010190610435565b505050509050919050565b606060006001836040516105229190611598565b9081526020016040518091039020805480602002602001604051908101604052809291908181526020016000905b828210156105fc57838290600052602060002001805461056f906115de565b80601f016020809104026020016040519081016040528092919081815260200182805461059b906115de565b80156105e85780601f106105bd576101008083540402835291602001916105e8565b820191906000526020600020905b8154815290600101906020018083116105cb57829003601f168201915b505050505081526020019060010190610550565b5050505090506000815103610646576040517f08c379a000000000000000000000000000000000000000000000000000000000815260040161063d9061165b565b60405180910390fd5b80915050919050565b6060600080836040516106629190611598565b90815260200160405180910390208054806020026020016040519081016040528092919081815260200182805480156106ba57602002820191906000526020600020905b8154815260200190600101908083116106a6575b505050505090506000815103610705576040517f08c379a00000000000000000000000000000000000000000000000000000000081526004016106fc9061165b565b60405180910390fd5b80915050919050565b73__ValidationLib_________________________630cba4347826040518263ffffffff1660e01b815260040161074591906116c5565b60006040518083038186803b15801561075d57600080fd5b505af4158015610771573d6000803e3d6000fd5b505050506002836040516107859190611598565b908152602001604051809103902060405180604001604052808481526020018381525090806001815401808255809150506001900390600052602060002090600202016000909190919091506000820151816000015560208201518160010190816107f0919061189d565b505050505050565b60048054610805906115de565b80601f0160208091040260200160405190810160405280929190818152602001828054610831906115de565b801561087e5780601f106108535761010080835404028352916020019161087e565b820191906000526020600020905b81548152906001019060200180831161086157829003601f168201915b505050505081565b73__ValidationLib_________________________63fb04d8ce826040518263ffffffff1660e01b81526004016108bd91906116c5565b60006040518083038186803b1580156108d557600080fd5b505af41580156108e9573d6000803e3d6000fd5b505050506003836040516108fd9190611598565b90815260200160405180910390206040518060400160405280848152602001838152509080600181540180825580915050600190039060005260206000209060020201600090919091909150600082015181600001908161095e919061189d565b506020820151816001019081610974919061189d565b505050505050565b8280548282559060005260206000209081019282156109b8579160200282015b828111156109b757825182559160200191906001019061099c565b5b5090506109c59190610a22565b5090565b828054828255906000526020600020908101928215610a11579160200282015b82811115610a10578251829081610a00919061189d565b50916020019190600101906109e9565b5b509050610a1e9190610a3f565b5090565b5b80821115610a3b576000816000905550600101610a23565b5090565b5b80821115610a5f5760008181610a569190610a63565b50600101610a40565b5090565b508054610a6f906115de565b6000825580601f10610a815750610aa0565b601f016020900490600052602060002090810190610a9f9190610aa3565b5b50565b5b80821115610abc576000816000905550600101610aa4565b5090565b6000604051905090565b600080fd5b600080fd5b600080fd5b600080fd5b6000601f19601f8301169050919050565b7f4e487b7100000000000000000000000000000000000000000000000000000000600052604160045260246000fd5b610b2782610ade565b810181811067ffffffffffffffff82111715610b4657610b45610aef565b5b80604052505050565b6000610b59610ac0565b9050610b658282610b1e565b919050565b600067ffffffffffffffff821115610b8557610b84610aef565b5b610b8e82610ade565b9050602081019050919050565b82818337600083830152505050565b6000610bbd610bb884610b6a565b610b4f565b905082815260208101848484011115610bd957610bd8610ad9565b5b610be4848285610b9b565b509392505050565b600082601f830112610c0157610c00610ad4565b5b8135610c11848260208601610baa565b91505092915050565b600067ffffffffffffffff821115610c3557610c34610aef565b5b602082029050602081019050919050565b600080fd5b6000819050919050565b610c5e81610c4b565b8114610c6957600080fd5b50565b600081359050610c7b81610c55565b92915050565b6000610c94610c8f84610c1a565b610b4f565b90508083825260208201905060208402830185811115610cb757610cb6610c46565b5b835b81811015610ce05780610ccc8882610c6c565b845260208401935050602081019050610cb9565b5050509392505050565b600082601f830112610cff57610cfe610ad4565b5b8135610d0f848260208601610c81565b91505092915050565b60008060408385031215610d2f57610d2e610aca565b5b600083013567ffffffffffffffff811115610d4d57610d4c610acf565b5b610d5985828601610bec565b925050602083013567ffffffffffffffff811115610d7a57610d79610acf565b5b610d8685828601610cea565b9150509250929050565b600067ffffffffffffffff821115610dab57610daa610aef565b5b602082029050602081019050919050565b6000610dcf610dca84610d90565b610b4f565b90508083825260208201905060208402830185811115610df257610df1610c46565b5b835b81811015610e3957803567ffffffffffffffff811115610e1757610e16610ad4565b5b808601610e248982610bec565b85526020850194505050602081019050610df4565b5050509392505050565b600082601f830112610e5857610e57610ad4565b5b8135610e68848260208601610dbc565b91505092915050565b60008060408385031215610e8857610e87610aca565b5b600083013567ffffffffffffffff811115610ea657610ea5610acf565b5b610eb285828601610bec565b925050602083013567ffffffffffffffff811115610ed357610ed2610acf565b5b610edf85828601610e43565b9150509250929050565b600060208284031215610eff57610efe610aca565b5b600082013567ffffffffffffffff811115610f1d57610f1c610acf565b5b610f2984828501610bec565b91505092915050565b600081519050919050565b600082825260208201905092915050565b6000819050602082019050919050565b600081519050919050565b600082825260208201905092915050565b60005b83811015610f98578082015181840152602081019050610f7d565b60008484015250505050565b6000610faf82610f5e565b610fb98185610f69565b9350610fc9818560208601610f7a565b610fd281610ade565b840191505092915050565b60006040830160008301518482036000860152610ffa8282610fa4565b915050602083015184820360208601526110148282610fa4565b9150508091505092915050565b600061102d8383610fdd565b905092915050565b6000602082019050919050565b600061104d82610f32565b6110578185610f3d565b93508360208202850161106985610f4e565b8060005b858110156110a557848403895281516110868582611021565b945061109183611035565b925060208a0199505060018101905061106d565b50829750879550505050505092915050565b600060208201905081810360008301526110d18184611042565b905092915050565b600081519050919050565b600082825260208201905092915050565b6000819050602082019050919050565b61110e81610c4b565b82525050565b600060408301600083015161112c6000860182611105565b50602083015184820360208601526111448282610fa4565b9150508091505092915050565b600061115d8383611114565b905092915050565b6000602082019050919050565b600061117d826110d9565b61118781856110e4565b935083602082028501611199856110f5565b8060005b858110156111d557848403895281516111b68582611151565b94506111c183611165565b925060208a0199505060018101905061119d565b50829750879550505050505092915050565b600060208201905081810360008301526112018184611172565b905092915050565b600081519050919050565b600082825260208201905092915050565b6000819050602082019050919050565b60006112418383610fa4565b905092915050565b6000602082019050919050565b600061126182611209565b61126b8185611214565b93508360208202850161127d85611225565b8060005b858110156112b9578484038952815161129a8582611235565b94506112a583611249565b925060208a01995050600181019050611281565b50829750879550505050505092915050565b600060208201905081810360008301526112e58184611256565b905092915050565b600081519050919050565b600082825260208201905092915050565b6000819050602082019050919050565b60006113258383611105565b60208301905092915050565b6000602082019050919050565b6000611349826112ed565b61135381856112f8565b935061135e83611309565b8060005b8381101561138f5781516113768882611319565b975061138183611331565b925050600181019050611362565b5085935050505092915050565b600060208201905081810360008301526113b6818461133e565b905092915050565b6000806000606084860312156113d7576113d6610aca565b5b600084013567ffffffffffffffff8111156113f5576113f4610acf565b5b61140186828701610bec565b935050602061141286828701610c6c565b925050604084013567ffffffffffffffff81111561143357611432610acf565b5b61143f86828701610bec565b9150509250925092565b600082825260208201905092915050565b600061146582610f5e565b61146f8185611449565b935061147f818560208601610f7a565b61148881610ade565b840191505092915050565b600060208201905081810360008301526114ad818461145a565b905092915050565b6000806000606084860312156114ce576114cd610aca565b5b600084013567ffffffffffffffff8111156114ec576114eb610acf565b5b6114f886828701610bec565b935050602084013567ffffffffffffffff81111561151957611518610acf565b5b61152586828701610bec565b925050604084013567ffffffffffffffff81111561154657611545610acf565b5b61155286828701610bec565b9150509250925092565b600081905092915050565b600061157282610f5e565b61157c818561155c565b935061158c818560208601610f7a565b80840191505092915050565b60006115a48284611567565b915081905092915050565b7f4e487b7100000000000000000000000000000000000000000000000000000000600052602260045260246000fd5b600060028204905060018216806115f657607f821691505b602082108103611609576116086115af565b5b50919050565b7f4b657920444e4500000000000000000000000000000000000000000000000000600082015250565b6000611645600783611449565b91506116508261160f565b602082019050919050565b6000602082019050818103600083015261167481611638565b9050919050565b600082825260208201905092915050565b600061169782610f5e565b6116a1818561167b565b93506116b1818560208601610f7a565b6116ba81610ade565b840191505092915050565b600060208201905081810360008301526116df818461168c565b905092915050565b60008190508160005260206000209050919050565b60006020601f8301049050919050565b600082821b905092915050565b6000600883026117497fffffffffffffffffffffffffffffffffffffffffffffffffffffffffffffffff8261170c565b611753868361170c565b95508019841693508086168417925050509392505050565b6000819050919050565b6000819050919050565b600061179a6117956117908461176b565b611775565b61176b565b9050919050565b6000819050919050565b6117b48361177f565b6117c86117c0826117a1565b848454611719565b825550505050565b600090565b6117dd6117d0565b6117e88184846117ab565b505050565b5b8181101561180c576118016000826117d5565b6001810190506117ee565b5050565b601f82111561185157611822816116e7565b61182b846116fc565b8101602085101561183a578190505b61184e611846856116fc565b8301826117ed565b50505b505050565b600082821c905092915050565b600061187460001984600802611856565b1980831691505092915050565b600061188d8383611863565b9150826002028217905092915050565b6118a682610f5e565b67ffffffffffffffff8111156118bf576118be610aef565b5b6118c982546115de565b6118d4828285611810565b600060209050601f83116001811461190757600084156118f5578287015190505b6118ff8582611881565b865550611967565b601f198416611915866116e7565b60005b8281101561193d57848901518255600182019150602085019450602081019050611918565b8683101561195a5784890151611956601f891682611863565b8355505b6001600288020188555050505b50505050505056fea2646970667358221220a2973490d693570a0b3f165c49fe551aa4266d453216db8ca3fbeb5f9309018264736f6c6343000811003360806040526000600660006101000a81548160ff021916908360028111156200002d576200002c6200007e565b5b02179055503480156200003f57600080fd5b506040516200262c3803806200262c833981810160405281019062000065919062000240565b8060049081620000769190620004dc565b5050620005c3565b7f4e487b7100000000000000000000000000000000000000000000000000000000600052602160045260246000fd5b6000604051905090565b600080fd5b600080fd5b600080fd5b600080fd5b6000601f19601f8301169050919050565b7f4e487b7100000000000000000000000000000000000000000000000000000000600052604160045260246000fd5b6200011682620000cb565b810181811067ffffffffffffffff82111715620001385762000137620000dc565b5b80604052505050565b60006200014d620000ad565b90506200015b82826200010b565b919050565b600067ffffffffffffffff8211156200017e576200017d620000dc565b5b6200018982620000cb565b9050602081019050919050565b60005b83811015620001b657808201518184015260208101905062000199565b60008484015250505050565b6000620001d9620001d38462000160565b62000141565b905082815260208101848484011115620001f857620001f7620000c6565b5b6200020584828562000196565b509392505050565b600082601f830112620002255762000224620000c1565b5b815162000237848260208601620001c2565b91505092915050565b600060208284031215620002595762000258620000b7565b5b600082015167ffffffffffffffff8111156200027a5762000279620000bc565b5b62000288848285016200020d565b91505092915050565b600081519050919050565b7f4e487b7100000000000000000000000000000000000000000000000000000000600052602260045260246000fd5b60006002820490506001821680620002e457607f821691505b602082108103620002fa57620002f96200029c565b5b50919050565b60008190508160005260206000209050919050565b60006020601f8301049050919050565b600082821b905092915050565b600060088302620003647fffffffffffffffffffffffffffffffffffffffffffffffffffffffffffffffff8262000325565b62000370868362000325565b95508019841693508086168417925050509392505050565b6000819050919050565b6000819050919050565b6000620003bd620003b7620003b18462000388565b62000392565b62000388565b9050919050565b6000819050919050565b620003d9836200039c565b620003f1620003e882620003c4565b84845462000332565b825550505050565b600090565b62000408620003f9565b62000415818484620003ce565b505050565b5b818110156200043d5762000431600082620003fe565b6001810190506200041b565b5050565b601f8211156200048c57620004568162000300565b620004618462000315565b8101602085101562000471578190505b62000489620004808562000315565b8301826200041a565b50505b505050565b600082821c905092915050565b6000620004b16000198460080262000491565b1980831691505092915050565b6000620004cc83836200049e565b9150826002028217905092915050565b620004e78262000291565b67ffffffffffffffff811115620005035762000502620000dc565b5b6200050f8254620002cb565b6200051c82828562000441565b600060209050601f8311600181146200055457600084156200053f578287015190505b6200054b8582620004be565b865550620005bb565b601f198416620005648662000300565b60005b828110156200058e5784890151825560018201915060208501945060208101905062000567565b86831015620005ae5784890151620005aa601f8916826200049e565b8355505b6001600288020188555050505b505050505050565b61205980620005d36000396000f3fe608060405234801561001057600080fd5b50600436106101005760003560e01c8063682fead511610097578063af640d0f11610066578063af640d0f146102a9578063be9a6555146102c7578063df1cb17c146102d1578063e6dbf46c146102ed57610100565b8063682fead5146102115780638702a8481461024157806396a043d514610271578063a20612ec1461028d57610100565b8063405504fa116100d3578063405504fa146101655780634298b5c81461018157806357884749146101b15780635e9cbc54146101e157610100565b806307da68f51461010557806319d037621461010f5780633b45d0a81461012d5780633f5b5bcf14610149575b600080fd5b61010d61031d565b005b61011761034a565b6040516101249190610f64565b60405180910390f35b610147600480360381019061014291906111d7565b610388565b005b610163600480360381019061015e9190611330565b6103bf565b005b61017f600480360381019061017a9190611406565b6103f6565b005b61019b60048036038101906101969190611433565b610513565b6040516101a89190611601565b60405180910390f35b6101cb60048036038101906101c69190611406565b6106b4565b6040516101d89190610f64565b60405180910390f35b6101fb60048036038101906101f69190611433565b610722565b6040516102089190611731565b60405180910390f35b61022b60048036038101906102269190611433565b61083b565b6040516102389190611815565b60405180910390f35b61025b60048036038101906102569190611433565b61097c565b60405161026891906118e6565b60405180910390f35b61028b60048036038101906102869190611406565b610a3b565b005b6102a760048036038101906102a29190611908565b610aa6565b005b6102b1610b90565b6040516102be91906119dd565b60405180910390f35b6102cf610c1e565b005b6102eb60048036038101906102e691906119ff565b610c4b565b005b61030760048036038101906103029190611406565b610d41565b6040516103149190611b1d565b60405180910390f35b6002600660006101000a81548160ff0219169083600281111561034357610342611aa6565b5b0217905550565b6000600160028111156103605761035f611aa6565b5b600660009054906101000a900460ff16600281111561038257610381611aa6565b5b14905090565b806000836040516103999190611b74565b908152602001604051809103902090805190602001906103ba929190610e05565b505050565b806001836040516103d09190611b74565b908152602001604051809103902090805190602001906103f1929190610e52565b505050565b60028081111561040957610408611aa6565b5b600560008373ffffffffffffffffffffffffffffffffffffffff1673ffffffffffffffffffffffffffffffffffffffff16815260200190815260200160002060009054906101000a900460ff16600281111561046857610467611aa6565b5b146104a8576040517f08c379a000000000000000000000000000000000000000000000000000000000815260040161049f90611bd7565b60405180910390fd5b6001600560008373ffffffffffffffffffffffffffffffffffffffff1673ffffffffffffffffffffffffffffffffffffffff16815260200190815260200160002060006101000a81548160ff0219169083600281111561050b5761050a611aa6565b5b021790555050565b60606003826040516105259190611b74565b9081526020016040518091039020805480602002602001604051908101604052809291908181526020016000905b828210156106a9578382906000526020600020906002020160405180604001604052908160008201805461058690611c26565b80601f01602080910402602001604051908101604052809291908181526020018280546105b290611c26565b80156105ff5780601f106105d4576101008083540402835291602001916105ff565b820191906000526020600020905b8154815290600101906020018083116105e257829003601f168201915b5050505050815260200160018201805461061890611c26565b80601f016020809104026020016040519081016040528092919081815260200182805461064490611c26565b80156106915780601f1061066657610100808354040283529160200191610691565b820191906000526020600020905b81548152906001019060200180831161067457829003601f168201915b50505050508152505081526020019060010190610553565b505050509050919050565b6000806106c083610d41565b90506002808111156106d5576106d4611aa6565b5b8160028111156106e8576106e7611aa6565b5b14801561071a57506000600281111561070457610703611aa6565b5b81600281111561071757610716611aa6565b5b14155b915050919050565b60606002826040516107349190611b74565b9081526020016040518091039020805480602002602001604051908101604052809291908181526020016000905b8282101561083057838290600052602060002090600202016040518060400160405290816000820154815260200160018201805461079f90611c26565b80601f01602080910402602001604051908101604052809291908181526020018280546107cb90611c26565b80156108185780601f106107ed57610100808354040283529160200191610818565b820191906000526020600020905b8154815290600101906020018083116107fb57829003601f168201915b50505050508152505081526020019060010190610762565b505050509050919050565b6060600060018360405161084f9190611b74565b9081526020016040518091039020805480602002602001604051908101604052809291908181526020016000905b8282101561092957838290600052602060002001805461089c90611c26565b80601f01602080910402602001604051908101604052809291908181526020018280546108c890611c26565b80156109155780601f106108ea57610100808354040283529160200191610915565b820191906000526020600020905b8154815290600101906020018083116108f857829003601f168201915b50505050508152602001906001019061087d565b5050505090506000815103610973576040517f08c379a000000000000000000000000000000000000000000000000000000000815260040161096a90611ca3565b60405180910390fd5b80915050919050565b60606000808360405161098f9190611b74565b90815260200160405180910390208054806020026020016040519081016040528092919081815260200182805480156109e757602002820191906000526020600020905b8154815260200190600101908083116109d3575b505050505090506000815103610a32576040517f08c379a0000000000000000000000000000000000000000000000000000000008152600401610a2990611ca3565b60405180910390fd5b80915050919050565b6002600560008373ffffffffffffffffffffffffffffffffffffffff1673ffffffffffffffffffffffffffffffffffffffff16815260200190815260200160002060006101000a81548160ff02191690836002811115610a9e57610a9d611aa6565b5b021790555050565b73__ValidationLib_________________________630cba4347826040518263ffffffff1660e01b8152600401610add9190611d0d565b60006040518083038186803b158015610af557600080fd5b505af4158015610b09573d6000803e3d6000fd5b50505050600283604051610b1d9190611b74565b90815260200160405180910390206040518060400160405280848152602001838152509080600181540180825580915050600190039060005260206000209060020201600090919091909150600082015181600001556020820151816001019081610b889190611ee5565b505050505050565b60048054610b9d90611c26565b80601f0160208091040260200160405190810160405280929190818152602001828054610bc990611c26565b8015610c165780601f10610beb57610100808354040283529160200191610c16565b820191906000526020600020905b815481529060010190602001808311610bf957829003601f168201915b505050505081565b6001600660006101000a81548160ff02191690836002811115610c4457610c43611aa6565b5b0217905550565b73__ValidationLib_________________________63fb04d8ce826040518263ffffffff1660e01b8152600401610c829190611d0d565b60006040518083038186803b158015610c9a57600080fd5b505af4158015610cae573d6000803e3d6000fd5b50505050600383604051610cc29190611b74565b908152602001604051809103902060405180604001604052808481526020018381525090806001815401808255809150506001900390600052602060002090600202016000909190919091506000820151816000019081610d239190611ee5565b506020820151816001019081610d399190611ee5565b505050505050565b60008073ffffffffffffffffffffffffffffffffffffffff168273ffffffffffffffffffffffffffffffffffffffff1603610db1576040517f08c379a0000000000000000000000000000000000000000000000000000000008152600401610da890612003565b60405180910390fd5b600560008373ffffffffffffffffffffffffffffffffffffffff1673ffffffffffffffffffffffffffffffffffffffff16815260200190815260200160002060009054906101000a900460ff169050919050565b828054828255906000526020600020908101928215610e41579160200282015b82811115610e40578251825591602001919060010190610e25565b5b509050610e4e9190610eab565b5090565b828054828255906000526020600020908101928215610e9a579160200282015b82811115610e99578251829081610e899190611ee5565b5091602001919060010190610e72565b5b509050610ea79190610ec8565b5090565b5b80821115610ec4576000816000905550600101610eac565b5090565b5b80821115610ee85760008181610edf9190610eec565b50600101610ec9565b5090565b508054610ef890611c26565b6000825580601f10610f0a5750610f29565b601f016020900490600052602060002090810190610f289190610f2c565b5b50565b5b80821115610f45576000816000905550600101610f2d565b5090565b60008115159050919050565b610f5e81610f49565b82525050565b6000602082019050610f796000830184610f55565b92915050565b6000604051905090565b600080fd5b600080fd5b600080fd5b600080fd5b6000601f19601f8301169050919050565b7f4e487b7100000000000000000000000000000000000000000000000000000000600052604160045260246000fd5b610fe682610f9d565b810181811067ffffffffffffffff8211171561100557611004610fae565b5b80604052505050565b6000611018610f7f565b90506110248282610fdd565b919050565b600067ffffffffffffffff82111561104457611043610fae565b5b61104d82610f9d565b9050602081019050919050565b82818337600083830152505050565b600061107c61107784611029565b61100e565b90508281526020810184848401111561109857611097610f98565b5b6110a384828561105a565b509392505050565b600082601f8301126110c0576110bf610f93565b5b81356110d0848260208601611069565b91505092915050565b600067ffffffffffffffff8211156110f4576110f3610fae565b5b602082029050602081019050919050565b600080fd5b6000819050919050565b61111d8161110a565b811461112857600080fd5b50565b60008135905061113a81611114565b92915050565b600061115361114e846110d9565b61100e565b9050808382526020820190506020840283018581111561117657611175611105565b5b835b8181101561119f578061118b888261112b565b845260208401935050602081019050611178565b5050509392505050565b600082601f8301126111be576111bd610f93565b5b81356111ce848260208601611140565b91505092915050565b600080604083850312156111ee576111ed610f89565b5b600083013567ffffffffffffffff81111561120c5761120b610f8e565b5b611218858286016110ab565b925050602083013567ffffffffffffffff81111561123957611238610f8e565b5b611245858286016111a9565b9150509250929050565b600067ffffffffffffffff82111561126a57611269610fae565b5b602082029050602081019050919050565b600061128e6112898461124f565b61100e565b905080838252602082019050602084028301858111156112b1576112b0611105565b5b835b818110156112f857803567ffffffffffffffff8111156112d6576112d5610f93565b5b8086016112e389826110ab565b855260208501945050506020810190506112b3565b5050509392505050565b600082601f83011261131757611316610f93565b5b813561132784826020860161127b565b91505092915050565b6000806040838503121561134757611346610f89565b5b600083013567ffffffffffffffff81111561136557611364610f8e565b5b611371858286016110ab565b925050602083013567ffffffffffffffff81111561139257611391610f8e565b5b61139e85828601611302565b9150509250929050565b600073ffffffffffffffffffffffffffffffffffffffff82169050919050565b60006113d3826113a8565b9050919050565b6113e3816113c8565b81146113ee57600080fd5b50565b600081359050611400816113da565b92915050565b60006020828403121561141c5761141b610f89565b5b600061142a848285016113f1565b91505092915050565b60006020828403121561144957611448610f89565b5b600082013567ffffffffffffffff81111561146757611466610f8e565b5b611473848285016110ab565b91505092915050565b600081519050919050565b600082825260208201905092915050565b6000819050602082019050919050565b600081519050919050565b600082825260208201905092915050565b60005b838110156114e25780820151818401526020810190506114c7565b60008484015250505050565b60006114f9826114a8565b61150381856114b3565b93506115138185602086016114c4565b61151c81610f9d565b840191505092915050565b6000604083016000830151848203600086015261154482826114ee565b9150506020830151848203602086015261155e82826114ee565b9150508091505092915050565b60006115778383611527565b905092915050565b6000602082019050919050565b60006115978261147c565b6115a18185611487565b9350836020820285016115b385611498565b8060005b858110156115ef57848403895281516115d0858261156b565b94506115db8361157f565b925060208a019950506001810190506115b7565b50829750879550505050505092915050565b6000602082019050818103600083015261161b818461158c565b905092915050565b600081519050919050565b600082825260208201905092915050565b6000819050602082019050919050565b6116588161110a565b82525050565b6000604083016000830151611676600086018261164f565b506020830151848203602086015261168e82826114ee565b9150508091505092915050565b60006116a7838361165e565b905092915050565b6000602082019050919050565b60006116c782611623565b6116d1818561162e565b9350836020820285016116e38561163f565b8060005b8581101561171f5784840389528151611700858261169b565b945061170b836116af565b925060208a019950506001810190506116e7565b50829750879550505050505092915050565b6000602082019050818103600083015261174b81846116bc565b905092915050565b600081519050919050565b600082825260208201905092915050565b6000819050602082019050919050565b600061178b83836114ee565b905092915050565b6000602082019050919050565b60006117ab82611753565b6117b5818561175e565b9350836020820285016117c78561176f565b8060005b8581101561180357848403895281516117e4858261177f565b94506117ef83611793565b925060208a019950506001810190506117cb565b50829750879550505050505092915050565b6000602082019050818103600083015261182f81846117a0565b905092915050565b600081519050919050565b600082825260208201905092915050565b6000819050602082019050919050565b600061186f838361164f565b60208301905092915050565b6000602082019050919050565b600061189382611837565b61189d8185611842565b93506118a883611853565b8060005b838110156118d95781516118c08882611863565b97506118cb8361187b565b9250506001810190506118ac565b5085935050505092915050565b600060208201905081810360008301526119008184611888565b905092915050565b60008060006060848603121561192157611920610f89565b5b600084013567ffffffffffffffff81111561193f5761193e610f8e565b5b61194b868287016110ab565b935050602061195c8682870161112b565b925050604084013567ffffffffffffffff81111561197d5761197c610f8e565b5b611989868287016110ab565b9150509250925092565b600082825260208201905092915050565b60006119af826114a8565b6119b98185611993565b93506119c98185602086016114c4565b6119d281610f9d565b840191505092915050565b600060208201905081810360008301526119f781846119a4565b905092915050565b600080600060608486031215611a1857611a17610f89565b5b600084013567ffffffffffffffff811115611a3657611a35610f8e565b5b611a42868287016110ab565b935050602084013567ffffffffffffffff811115611a6357611a62610f8e565b5b611a6f868287016110ab565b925050604084013567ffffffffffffffff811115611a9057611a8f610f8e565b5b611a9c868287016110ab565b9150509250925092565b7f4e487b7100000000000000000000000000000000000000000000000000000000600052602160045260246000fd5b60038110611ae657611ae5611aa6565b5b50565b6000819050611af782611ad5565b919050565b6000611b0782611ae9565b9050919050565b611b1781611afc565b82525050565b6000602082019050611b326000830184611b0e565b92915050565b600081905092915050565b6000611b4e826114a8565b611b588185611b38565b9350611b688185602086016114c4565b80840191505092915050565b6000611b808284611b43565b915081905092915050565b7f506c61796572206e6f7420416374697665000000000000000000000000000000600082015250565b6000611bc1601183611993565b9150611bcc82611b8b565b602082019050919050565b60006020820190508181036000830152611bf081611bb4565b9050919050565b7f4e487b7100000000000000000000000000000000000000000000000000000000600052602260045260246000fd5b60006002820490506001821680611c3e57607f821691505b602082108103611c5157611c50611bf7565b5b50919050565b7f4b657920444e4500000000000000000000000000000000000000000000000000600082015250565b6000611c8d600783611993565b9150611c9882611c57565b602082019050919050565b60006020820190508181036000830152611cbc81611c80565b9050919050565b600082825260208201905092915050565b6000611cdf826114a8565b611ce98185611cc3565b9350611cf98185602086016114c4565b611d0281610f9d565b840191505092915050565b60006020820190508181036000830152611d278184611cd4565b905092915050565b60008190508160005260206000209050919050565b60006020601f8301049050919050565b600082821b905092915050565b600060088302611d917fffffffffffffffffffffffffffffffffffffffffffffffffffffffffffffffff82611d54565b611d9b8683611d54565b95508019841693508086168417925050509392505050565b6000819050919050565b6000819050919050565b6000611de2611ddd611dd884611db3565b611dbd565b611db3565b9050919050565b6000819050919050565b611dfc83611dc7565b611e10611e0882611de9565b848454611d61565b825550505050565b600090565b611e25611e18565b611e30818484611df3565b505050565b5b81811015611e5457611e49600082611e1d565b600181019050611e36565b5050565b601f821115611e9957611e6a81611d2f565b611e7384611d44565b81016020851015611e82578190505b611e96611e8e85611d44565b830182611e35565b50505b505050565b600082821c905092915050565b6000611ebc60001984600802611e9e565b1980831691505092915050565b6000611ed58383611eab565b9150826002028217905092915050565b611eee826114a8565b67ffffffffffffffff811115611f0757611f06610fae565b5b611f118254611c26565b611f1c828285611e58565b600060209050601f831160018114611f4f5760008415611f3d578287015190505b611f478582611ec9565b865550611faf565b601f198416611f5d86611d2f565b60005b82811015611f8557848901518255600182019150602085019450602081019050611f60565b86831015611fa25784890151611f9e601f891682611eab565b8355505b6001600288020188555050505b505050505050565b7f506c6179657220444e4500000000000000000000000000000000000000000000600082015250565b6000611fed600a83611993565b9150611ff882611fb7565b602082019050919050565b6000602082019050818103600083015261201c81611fe0565b905091905056fea26469706673582212203233f589f369a991e31de671e45563dff3a97dad7252270c90e3d7b213e29d3964736f6c63430008110033a2646970667358221220d149515ec0b367f69e5ad0fe704b8ed2142c064eac1cf14b980f40c2f37e622764736f6c63430008110033",
  "immutableReferences": {},
  "source": "// SPDX-License-Identifier: MIT\npragma solidity >=0.4.22 <0.9.0;\nimport \"./Session.sol\";\nimport \"./Player.sol\";\nimport \"./SessionHandler.sol\";\nimport \"./ValidationLib.sol\";\n\ncontract AntiCheat {\n    SessionHandler public session_handler;\n\n    constructor() {\n        session_handler = new SessionHandler();\n    }\n\n    function validate_and_update_session_int_data(\n        string memory session_id,\n        string memory key,\n        int[] memory data\n    ) public {\n        Session session = Session(session_handler.get_session(session_id));\n        if (!ValidationLib.validate_int(\n            session.get_int_validation_rules(key), data)\n        ) {\n            session.stop();\n            revert(\"Session flagged\");\n        }\n        session.update_int_data(key, data);\n    }\n\n    function validate_and_update_session_string_data(\n        string memory session_id,\n        string memory key,\n        string[] memory data\n    ) public {\n        Session session = Session(session_handler.get_session(session_id));\n        if (!ValidationLib.validate_string(\n            session.get_string_validation_rules(key), data)\n        ) {\n            session.stop();\n            revert(\"Session flagged\");\n        }\n        session.update_string_data(key, data);\n    }\n\n    function validate_and_update_player_int_data(\n        string memory session_id,\n        string memory player_id,\n        string memory key,\n        int[] memory data\n    ) public {\n        Session session = Session(session_handler.get_session(session_id));\n        address player_addr = session_handler.get_player_in_session(session_id, player_id);\n        if (!ValidationLib.validate_int(\n            session.get_int_validation_rules(key), data)\n        ) {\n            session.remove_player(player_addr);\n            revert(\"Player flagged\");\n        }\n        Player(player_addr).update_int_data(key, data);\n    }\n\n    function validate_and_update_player_string_data(\n        string memory session_id,\n        string memory player_id,\n        string memory key,\n        string[] memory data\n    ) public {\n        if (data.length == 0) {\n            revert(\"Data is empty\");\n        }\n        Session session = Session(session_handler.get_session(session_id));\n        address player_addr = session_handler.get_player_in_session(session_id, player_id);\n        if (!ValidationLib.validate_string(\n            session.get_string_validation_rules(key), data)\n        ) {\n            session.remove_player(player_addr);\n            revert(\"Player flagged\");\n        }\n        Player(player_addr).update_string_data(key, data);\n    }\n\n}\n",
  "sourcePath": "/mnt/d/documents/blockchain-testing/BC_Anticheat/contracts/AntiCheat.sol",
  "compiler": {
    "name": "solc",
    "version": "0.8.17+commit.8df45f5f.Emscripten.clang"
  },
  "schemaVersion": "3.4.11",
  "updatedAt": "2023-03-18T22:04:06.985Z",
  "networkType": "ethereum",
  "devdoc": {
    "kind": "dev",
    "methods": {},
    "version": 1
  },
  "userdoc": {
    "kind": "user",
    "methods": {},
    "version": 1
  }
}