{
  "contractName": "AntiCheat",
  "abi": [
    {
      "inputs": [],
      "stateMutability": "nonpayable",
      "type": "constructor"
    },
    {
      "inputs": [],
      "name": "session_handler",
      "outputs": [
        {
          "internalType": "contract SessionHandler",
          "name": "",
          "type": "address"
        }
      ],
      "stateMutability": "view",
      "type": "function",
      "constant": true
    },
    {
      "inputs": [
        {
          "internalType": "string",
          "name": "session_id",
          "type": "string"
        },
        {
          "internalType": "string",
          "name": "player_id",
          "type": "string"
        },
        {
          "internalType": "string",
          "name": "key",
          "type": "string"
        },
        {
          "internalType": "int256[]",
          "name": "data",
          "type": "int256[]"
        }
      ],
      "name": "validate_and_update_session_int_data",
      "outputs": [],
      "stateMutability": "nonpayable",
      "type": "function"
    },
    {
      "inputs": [
        {
          "internalType": "string",
          "name": "session_id",
          "type": "string"
        },
        {
          "internalType": "string",
          "name": "player_id",
          "type": "string"
        },
        {
          "internalType": "string",
          "name": "key",
          "type": "string"
        },
        {
          "internalType": "bool[]",
          "name": "data",
          "type": "bool[]"
        }
      ],
      "name": "validate_and_update_session_bool_data",
      "outputs": [],
      "stateMutability": "nonpayable",
      "type": "function"
    },
    {
      "inputs": [
        {
          "internalType": "string",
          "name": "session_id",
          "type": "string"
        },
        {
          "internalType": "string",
          "name": "player_id",
          "type": "string"
        },
        {
          "internalType": "string",
          "name": "key",
          "type": "string"
        },
        {
          "internalType": "string[]",
          "name": "data",
          "type": "string[]"
        }
      ],
      "name": "validate_and_update_session_string_data",
      "outputs": [],
      "stateMutability": "nonpayable",
      "type": "function"
    }
  ],
  "bytecode": "0x608060405234801561001057600080fd5b5060405161001d9061007e565b604051809103906000f080158015610039573d6000803e3d6000fd5b506000806101000a81548173ffffffffffffffffffffffffffffffffffffffff021916908373ffffffffffffffffffffffffffffffffffffffff16021790555061008c565b6146a9806200234283390190565b6122a6806200009c6000396000f3fe608060405234801561001057600080fd5b506004361061004c5760003560e01c806321edee0d146100515780632f6d30e11461006d578063b62d9f3114610089578063d55acf45146100a5575b600080fd5b61006b60048036038101906100669190610d40565b6100c3565b005b61008760048036038101906100829190610ef8565b610418565b005b6100a3600480360381019061009e91906110c8565b61076d565b005b6100ad610ac2565b6040516100ba919061121e565b60405180910390f35b60008060009054906101000a900473ffffffffffffffffffffffffffffffffffffffff1673ffffffffffffffffffffffffffffffffffffffff16637cd5f0a5866040518263ffffffff1660e01b815260040161011f91906112b8565b602060405180830381865afa15801561013c573d6000803e3d6000fd5b505050506040513d601f19601f820116820180604052508101906101609190611318565b905060008060009054906101000a900473ffffffffffffffffffffffffffffffffffffffff1673ffffffffffffffffffffffffffffffffffffffff16630fd9c1f8866040518263ffffffff1660e01b81526004016101be91906112b8565b602060405180830381865afa1580156101db573d6000803e3d6000fd5b505050506040513d601f19601f820116820180604052508101906101ff9190611318565b905073__ValidationLib_________________________63a1ba9eee8373ffffffffffffffffffffffffffffffffffffffff16637ba1a6ac876040518263ffffffff1660e01b815260040161025491906112b8565b600060405180830381865afa158015610271573d6000803e3d6000fd5b505050506040513d6000823e3d601f19601f8201168201806040525081019061029a9190611521565b856040518363ffffffff1660e01b81526004016102b8929190611771565b602060405180830381865af41580156102d5573d6000803e3d6000fd5b505050506040513d601f19601f820116820180604052508101906102f991906117a8565b6103a3578173ffffffffffffffffffffffffffffffffffffffff1663405504fa826040518263ffffffff1660e01b815260040161033691906117e4565b600060405180830381600087803b15801561035057600080fd5b505af1158015610364573d6000803e3d6000fd5b505050506040517f08c379a000000000000000000000000000000000000000000000000000000000815260040161039a9061184b565b60405180910390fd5b8173ffffffffffffffffffffffffffffffffffffffff1663d9ac7bb585856040518363ffffffff1660e01b81526004016103de929190611901565b600060405180830381600087803b1580156103f857600080fd5b505af115801561040c573d6000803e3d6000fd5b50505050505050505050565b60008060009054906101000a900473ffffffffffffffffffffffffffffffffffffffff1673ffffffffffffffffffffffffffffffffffffffff16637cd5f0a5866040518263ffffffff1660e01b815260040161047491906112b8565b602060405180830381865afa158015610491573d6000803e3d6000fd5b505050506040513d601f19601f820116820180604052508101906104b59190611318565b905060008060009054906101000a900473ffffffffffffffffffffffffffffffffffffffff1673ffffffffffffffffffffffffffffffffffffffff16630fd9c1f8866040518263ffffffff1660e01b815260040161051391906112b8565b602060405180830381865afa158015610530573d6000803e3d6000fd5b505050506040513d601f19601f820116820180604052508101906105549190611318565b905073__ValidationLib_________________________63236dbbb58373ffffffffffffffffffffffffffffffffffffffff16630c882d68876040518263ffffffff1660e01b81526004016105a991906112b8565b600060405180830381865afa1580156105c6573d6000803e3d6000fd5b505050506040513d6000823e3d601f19601f820116820180604052508101906105ef9190611aa1565b856040518363ffffffff1660e01b815260040161060d929190611cb2565b602060405180830381865af415801561062a573d6000803e3d6000fd5b505050506040513d601f19601f8201168201806040525081019061064e91906117a8565b6106f8578173ffffffffffffffffffffffffffffffffffffffff1663405504fa826040518263ffffffff1660e01b815260040161068b91906117e4565b600060405180830381600087803b1580156106a557600080fd5b505af11580156106b9573d6000803e3d6000fd5b505050506040517f08c379a00000000000000000000000000000000000000000000000000000000081526004016106ef9061184b565b60405180910390fd5b8173ffffffffffffffffffffffffffffffffffffffff166345057e7385856040518363ffffffff1660e01b8152600401610733929190611dcd565b600060405180830381600087803b15801561074d57600080fd5b505af1158015610761573d6000803e3d6000fd5b50505050505050505050565b60008060009054906101000a900473ffffffffffffffffffffffffffffffffffffffff1673ffffffffffffffffffffffffffffffffffffffff16637cd5f0a5866040518263ffffffff1660e01b81526004016107c991906112b8565b602060405180830381865afa1580156107e6573d6000803e3d6000fd5b505050506040513d601f19601f8201168201806040525081019061080a9190611318565b905060008060009054906101000a900473ffffffffffffffffffffffffffffffffffffffff1673ffffffffffffffffffffffffffffffffffffffff16630fd9c1f8866040518263ffffffff1660e01b815260040161086891906112b8565b602060405180830381865afa158015610885573d6000803e3d6000fd5b505050506040513d601f19601f820116820180604052508101906108a99190611318565b905073__ValidationLib_________________________63a74f91a88373ffffffffffffffffffffffffffffffffffffffff1663552cf791876040518263ffffffff1660e01b81526004016108fe91906112b8565b600060405180830381865afa15801561091b573d6000803e3d6000fd5b505050506040513d6000823e3d601f19601f820116820180604052508101906109449190611f66565b856040518363ffffffff1660e01b815260040161096292919061216c565b602060405180830381865af415801561097f573d6000803e3d6000fd5b505050506040513d601f19601f820116820180604052508101906109a391906117a8565b610a4d578173ffffffffffffffffffffffffffffffffffffffff1663405504fa826040518263ffffffff1660e01b81526004016109e091906117e4565b600060405180830381600087803b1580156109fa57600080fd5b505af1158015610a0e573d6000803e3d6000fd5b505050506040517f08c379a0000000000000000000000000000000000000000000000000000000008152600401610a449061184b565b60405180910390fd5b8173ffffffffffffffffffffffffffffffffffffffff16632b81363385856040518363ffffffff1660e01b8152600401610a88929190612239565b600060405180830381600087803b158015610aa257600080fd5b505af1158015610ab6573d6000803e3d6000fd5b50505050505050505050565b60008054906101000a900473ffffffffffffffffffffffffffffffffffffffff1681565b6000604051905090565b600080fd5b600080fd5b600080fd5b600080fd5b6000601f19601f8301169050919050565b7f4e487b7100000000000000000000000000000000000000000000000000000000600052604160045260246000fd5b610b4d82610b04565b810181811067ffffffffffffffff82111715610b6c57610b6b610b15565b5b80604052505050565b6000610b7f610ae6565b9050610b8b8282610b44565b919050565b600067ffffffffffffffff821115610bab57610baa610b15565b5b610bb482610b04565b9050602081019050919050565b82818337600083830152505050565b6000610be3610bde84610b90565b610b75565b905082815260208101848484011115610bff57610bfe610aff565b5b610c0a848285610bc1565b509392505050565b600082601f830112610c2757610c26610afa565b5b8135610c37848260208601610bd0565b91505092915050565b600067ffffffffffffffff821115610c5b57610c5a610b15565b5b602082029050602081019050919050565b600080fd5b60008115159050919050565b610c8681610c71565b8114610c9157600080fd5b50565b600081359050610ca381610c7d565b92915050565b6000610cbc610cb784610c40565b610b75565b90508083825260208201905060208402830185811115610cdf57610cde610c6c565b5b835b81811015610d085780610cf48882610c94565b845260208401935050602081019050610ce1565b5050509392505050565b600082601f830112610d2757610d26610afa565b5b8135610d37848260208601610ca9565b91505092915050565b60008060008060808587031215610d5a57610d59610af0565b5b600085013567ffffffffffffffff811115610d7857610d77610af5565b5b610d8487828801610c12565b945050602085013567ffffffffffffffff811115610da557610da4610af5565b5b610db187828801610c12565b935050604085013567ffffffffffffffff811115610dd257610dd1610af5565b5b610dde87828801610c12565b925050606085013567ffffffffffffffff811115610dff57610dfe610af5565b5b610e0b87828801610d12565b91505092959194509250565b600067ffffffffffffffff821115610e3257610e31610b15565b5b602082029050602081019050919050565b6000610e56610e5184610e17565b610b75565b90508083825260208201905060208402830185811115610e7957610e78610c6c565b5b835b81811015610ec057803567ffffffffffffffff811115610e9e57610e9d610afa565b5b808601610eab8982610c12565b85526020850194505050602081019050610e7b565b5050509392505050565b600082601f830112610edf57610ede610afa565b5b8135610eef848260208601610e43565b91505092915050565b60008060008060808587031215610f1257610f11610af0565b5b600085013567ffffffffffffffff811115610f3057610f2f610af5565b5b610f3c87828801610c12565b945050602085013567ffffffffffffffff811115610f5d57610f5c610af5565b5b610f6987828801610c12565b935050604085013567ffffffffffffffff811115610f8a57610f89610af5565b5b610f9687828801610c12565b925050606085013567ffffffffffffffff811115610fb757610fb6610af5565b5b610fc387828801610eca565b91505092959194509250565b600067ffffffffffffffff821115610fea57610fe9610b15565b5b602082029050602081019050919050565b6000819050919050565b61100e81610ffb565b811461101957600080fd5b50565b60008135905061102b81611005565b92915050565b600061104461103f84610fcf565b610b75565b9050808382526020820190506020840283018581111561106757611066610c6c565b5b835b81811015611090578061107c888261101c565b845260208401935050602081019050611069565b5050509392505050565b600082601f8301126110af576110ae610afa565b5b81356110bf848260208601611031565b91505092915050565b600080600080608085870312156110e2576110e1610af0565b5b600085013567ffffffffffffffff811115611100576110ff610af5565b5b61110c87828801610c12565b945050602085013567ffffffffffffffff81111561112d5761112c610af5565b5b61113987828801610c12565b935050604085013567ffffffffffffffff81111561115a57611159610af5565b5b61116687828801610c12565b925050606085013567ffffffffffffffff81111561118757611186610af5565b5b6111938782880161109a565b91505092959194509250565b600073ffffffffffffffffffffffffffffffffffffffff82169050919050565b6000819050919050565b60006111e46111df6111da8461119f565b6111bf565b61119f565b9050919050565b60006111f6826111c9565b9050919050565b6000611208826111eb565b9050919050565b611218816111fd565b82525050565b6000602082019050611233600083018461120f565b92915050565b600081519050919050565b600082825260208201905092915050565b60005b83811015611273578082015181840152602081019050611258565b60008484015250505050565b600061128a82611239565b6112948185611244565b93506112a4818560208601611255565b6112ad81610b04565b840191505092915050565b600060208201905081810360008301526112d2818461127f565b905092915050565b60006112e58261119f565b9050919050565b6112f5816112da565b811461130057600080fd5b50565b600081519050611312816112ec565b92915050565b60006020828403121561132e5761132d610af0565b5b600061133c84828501611303565b91505092915050565b600067ffffffffffffffff8211156113605761135f610b15565b5b602082029050602081019050919050565b600080fd5b600080fd5b60008151905061138a81610c7d565b92915050565b60006113a361139e84610b90565b610b75565b9050828152602081018484840111156113bf576113be610aff565b5b6113ca848285611255565b509392505050565b600082601f8301126113e7576113e6610afa565b5b81516113f7848260208601611390565b91505092915050565b60006040828403121561141657611415611371565b5b6114206040610b75565b905060006114308482850161137b565b600083015250602082015167ffffffffffffffff81111561145457611453611376565b5b611460848285016113d2565b60208301525092915050565b600061147f61147a84611345565b610b75565b905080838252602082019050602084028301858111156114a2576114a1610c6c565b5b835b818110156114e957805167ffffffffffffffff8111156114c7576114c6610afa565b5b8086016114d48982611400565b855260208501945050506020810190506114a4565b5050509392505050565b600082601f83011261150857611507610afa565b5b815161151884826020860161146c565b91505092915050565b60006020828403121561153757611536610af0565b5b600082015167ffffffffffffffff81111561155557611554610af5565b5b611561848285016114f3565b91505092915050565b600081519050919050565b600082825260208201905092915050565b6000819050602082019050919050565b61159f81610c71565b82525050565b600082825260208201905092915050565b60006115c182611239565b6115cb81856115a5565b93506115db818560208601611255565b6115e481610b04565b840191505092915050565b60006040830160008301516116076000860182611596565b506020830151848203602086015261161f82826115b6565b9150508091505092915050565b600061163883836115ef565b905092915050565b6000602082019050919050565b60006116588261156a565b6116628185611575565b93508360208202850161167485611586565b8060005b858110156116b05784840389528151611691858261162c565b945061169c83611640565b925060208a01995050600181019050611678565b50829750879550505050505092915050565b600081519050919050565b600082825260208201905092915050565b6000819050602082019050919050565b60006116fa8383611596565b60208301905092915050565b6000602082019050919050565b600061171e826116c2565b61172881856116cd565b9350611733836116de565b8060005b8381101561176457815161174b88826116ee565b975061175683611706565b925050600181019050611737565b5085935050505092915050565b6000604082019050818103600083015261178b818561164d565b9050818103602083015261179f8184611713565b90509392505050565b6000602082840312156117be576117bd610af0565b5b60006117cc8482850161137b565b91505092915050565b6117de816112da565b82525050565b60006020820190506117f960008301846117d5565b92915050565b7f466c616767656400000000000000000000000000000000000000000000000000600082015250565b6000611835600783611244565b9150611840826117ff565b602082019050919050565b6000602082019050818103600083015261186481611828565b9050919050565b600082825260208201905092915050565b61188581610c71565b82525050565b6000611897838361187c565b60208301905092915050565b60006118ae826116c2565b6118b8818561186b565b93506118c3836116de565b8060005b838110156118f45781516118db888261188b565b97506118e683611706565b9250506001810190506118c7565b5085935050505092915050565b6000604082019050818103600083015261191b818561127f565b9050818103602083015261192f81846118a3565b90509392505050565b600067ffffffffffffffff82111561195357611952610b15565b5b602082029050602081019050919050565b60006040828403121561197a57611979611371565b5b6119846040610b75565b9050600082015167ffffffffffffffff8111156119a4576119a3611376565b5b6119b0848285016113d2565b600083015250602082015167ffffffffffffffff8111156119d4576119d3611376565b5b6119e0848285016113d2565b60208301525092915050565b60006119ff6119fa84611938565b610b75565b90508083825260208201905060208402830185811115611a2257611a21610c6c565b5b835b81811015611a6957805167ffffffffffffffff811115611a4757611a46610afa565b5b808601611a548982611964565b85526020850194505050602081019050611a24565b5050509392505050565b600082601f830112611a8857611a87610afa565b5b8151611a988482602086016119ec565b91505092915050565b600060208284031215611ab757611ab6610af0565b5b600082015167ffffffffffffffff811115611ad557611ad4610af5565b5b611ae184828501611a73565b91505092915050565b600081519050919050565b600082825260208201905092915050565b6000819050602082019050919050565b60006040830160008301518482036000860152611b3382826115b6565b91505060208301518482036020860152611b4d82826115b6565b9150508091505092915050565b6000611b668383611b16565b905092915050565b6000602082019050919050565b6000611b8682611aea565b611b908185611af5565b935083602082028501611ba285611b06565b8060005b85811015611bde5784840389528151611bbf8582611b5a565b9450611bca83611b6e565b925060208a01995050600181019050611ba6565b50829750879550505050505092915050565b600081519050919050565b600082825260208201905092915050565b6000819050602082019050919050565b6000611c2883836115b6565b905092915050565b6000602082019050919050565b6000611c4882611bf0565b611c528185611bfb565b935083602082028501611c6485611c0c565b8060005b85811015611ca05784840389528151611c818582611c1c565b9450611c8c83611c30565b925060208a01995050600181019050611c68565b50829750879550505050505092915050565b60006040820190508181036000830152611ccc8185611b7b565b90508181036020830152611ce08184611c3d565b90509392505050565b600082825260208201905092915050565b600082825260208201905092915050565b6000611d1682611239565b611d208185611cfa565b9350611d30818560208601611255565b611d3981610b04565b840191505092915050565b6000611d508383611d0b565b905092915050565b6000611d6382611bf0565b611d6d8185611ce9565b935083602082028501611d7f85611c0c565b8060005b85811015611dbb5784840389528151611d9c8582611d44565b9450611da783611c30565b925060208a01995050600181019050611d83565b50829750879550505050505092915050565b60006040820190508181036000830152611de7818561127f565b90508181036020830152611dfb8184611d58565b90509392505050565b600067ffffffffffffffff821115611e1f57611e1e610b15565b5b602082029050602081019050919050565b600081519050611e3f81611005565b92915050565b600060408284031215611e5b57611e5a611371565b5b611e656040610b75565b90506000611e7584828501611e30565b600083015250602082015167ffffffffffffffff811115611e9957611e98611376565b5b611ea5848285016113d2565b60208301525092915050565b6000611ec4611ebf84611e04565b610b75565b90508083825260208201905060208402830185811115611ee757611ee6610c6c565b5b835b81811015611f2e57805167ffffffffffffffff811115611f0c57611f0b610afa565b5b808601611f198982611e45565b85526020850194505050602081019050611ee9565b5050509392505050565b600082601f830112611f4d57611f4c610afa565b5b8151611f5d848260208601611eb1565b91505092915050565b600060208284031215611f7c57611f7b610af0565b5b600082015167ffffffffffffffff811115611f9a57611f99610af5565b5b611fa684828501611f38565b91505092915050565b600081519050919050565b600082825260208201905092915050565b6000819050602082019050919050565b611fe481610ffb565b82525050565b60006040830160008301516120026000860182611fdb565b506020830151848203602086015261201a82826115b6565b9150508091505092915050565b60006120338383611fea565b905092915050565b6000602082019050919050565b600061205382611faf565b61205d8185611fba565b93508360208202850161206f85611fcb565b8060005b858110156120ab578484038952815161208c8582612027565b94506120978361203b565b925060208a01995050600181019050612073565b50829750879550505050505092915050565b600081519050919050565b600082825260208201905092915050565b6000819050602082019050919050565b60006120f58383611fdb565b60208301905092915050565b6000602082019050919050565b6000612119826120bd565b61212381856120c8565b935061212e836120d9565b8060005b8381101561215f57815161214688826120e9565b975061215183612101565b925050600181019050612132565b5085935050505092915050565b600060408201905081810360008301526121868185612048565b9050818103602083015261219a818461210e565b90509392505050565b600082825260208201905092915050565b6121bd81610ffb565b82525050565b60006121cf83836121b4565b60208301905092915050565b60006121e6826120bd565b6121f081856121a3565b93506121fb836120d9565b8060005b8381101561222c57815161221388826121c3565b975061221e83612101565b9250506001810190506121ff565b5085935050505092915050565b60006040820190508181036000830152612253818561127f565b9050818103602083015261226781846121db565b9050939250505056fea26469706673582212200756c5402d772b13e156a66a900d641fcb59e370e9bafea2507e256957ca93b464736f6c63430008110033608060405234801561001057600080fd5b50614689806100206000396000f3fe60806040523480156200001157600080fd5b5060043610620000525760003560e01c80630fd9c1f814620000575780637cd5f0a5146200008d57806386f4df5e14620000c3578063ffaf790214620000e3575b600080fd5b6200007560048036038101906200006f91906200070b565b62000103565b604051620000849190620007a1565b60405180910390f35b620000ab6004803603810190620000a591906200070b565b62000204565b604051620000ba9190620007a1565b60405180910390f35b620000e16004803603810190620000db9190620007be565b620002c5565b005b620001016004803603810190620000fb91906200070b565b6200045f565b005b600080600183604051620001189190620008bc565b908152602001604051809103902060009054906101000a900473ffffffffffffffffffffffffffffffffffffffff169050600073ffffffffffffffffffffffffffffffffffffffff168173ffffffffffffffffffffffffffffffffffffffff1603620001bb576040517f08c379a0000000000000000000000000000000000000000000000000000000008152600401620001b29062000936565b60405180910390fd5b600183604051620001cd9190620008bc565b908152602001604051809103902060009054906101000a900473ffffffffffffffffffffffffffffffffffffffff16915050919050565b600080600083604051620002199190620008bc565b908152602001604051809103902060009054906101000a900473ffffffffffffffffffffffffffffffffffffffff169050600073ffffffffffffffffffffffffffffffffffffffff168173ffffffffffffffffffffffffffffffffffffffff1603620002bc576040517f08c379a0000000000000000000000000000000000000000000000000000000008152600401620002b390620009a8565b60405180910390fd5b80915050919050565b600073ffffffffffffffffffffffffffffffffffffffff16600182604051620002ef9190620008bc565b908152602001604051809103902060009054906101000a900473ffffffffffffffffffffffffffffffffffffffff1673ffffffffffffffffffffffffffffffffffffffff16146200033f57600080fd5b60006200034c8362000204565b90506000826040516200035f9062000579565b6200036b919062000a0b565b604051809103906000f08015801562000388573d6000803e3d6000fd5b509050806001846040516200039e9190620008bc565b908152602001604051809103902060006101000a81548173ffffffffffffffffffffffffffffffffffffffff021916908373ffffffffffffffffffffffffffffffffffffffff1602179055508173ffffffffffffffffffffffffffffffffffffffff166396a043d5826040518263ffffffff1660e01b8152600401620004259190620007a1565b600060405180830381600087803b1580156200044057600080fd5b505af115801562000455573d6000803e3d6000fd5b5050505050505050565b600073ffffffffffffffffffffffffffffffffffffffff16600082604051620004899190620008bc565b908152602001604051809103902060009054906101000a900473ffffffffffffffffffffffffffffffffffffffff1673ffffffffffffffffffffffffffffffffffffffff1614620004d957600080fd5b600081604051620004ea9062000587565b620004f6919062000a0b565b604051809103906000f08015801562000513573d6000803e3d6000fd5b50905080600083604051620005299190620008bc565b908152602001604051809103902060006101000a81548173ffffffffffffffffffffffffffffffffffffffff021916908373ffffffffffffffffffffffffffffffffffffffff1602179055505050565b610c7b8062000a3083390190565b612fa980620016ab83390190565b6000604051905090565b600080fd5b600080fd5b600080fd5b600080fd5b6000601f19601f8301169050919050565b7f4e487b7100000000000000000000000000000000000000000000000000000000600052604160045260246000fd5b620005fe82620005b3565b810181811067ffffffffffffffff8211171562000620576200061f620005c4565b5b80604052505050565b60006200063562000595565b9050620006438282620005f3565b919050565b600067ffffffffffffffff821115620006665762000665620005c4565b5b6200067182620005b3565b9050602081019050919050565b82818337600083830152505050565b6000620006a46200069e8462000648565b62000629565b905082815260208101848484011115620006c357620006c2620005ae565b5b620006d08482856200067e565b509392505050565b600082601f830112620006f057620006ef620005a9565b5b8135620007028482602086016200068d565b91505092915050565b6000602082840312156200072457620007236200059f565b5b600082013567ffffffffffffffff811115620007455762000744620005a4565b5b6200075384828501620006d8565b91505092915050565b600073ffffffffffffffffffffffffffffffffffffffff82169050919050565b600062000789826200075c565b9050919050565b6200079b816200077c565b82525050565b6000602082019050620007b8600083018462000790565b92915050565b60008060408385031215620007d857620007d76200059f565b5b600083013567ffffffffffffffff811115620007f957620007f8620005a4565b5b6200080785828601620006d8565b925050602083013567ffffffffffffffff8111156200082b576200082a620005a4565b5b6200083985828601620006d8565b9150509250929050565b600081519050919050565b600081905092915050565b60005b83811015620008795780820151818401526020810190506200085c565b60008484015250505050565b6000620008928262000843565b6200089e81856200084e565b9350620008b081856020860162000859565b80840191505092915050565b6000620008ca828462000885565b915081905092915050565b600082825260208201905092915050565b7f506c61796572206e6f7420666f756e642e000000000000000000000000000000600082015250565b60006200091e601183620008d5565b91506200092b82620008e6565b602082019050919050565b6000602082019050818103600083015262000951816200090f565b9050919050565b7f53657373696f6e206e6f7420666f756e642e0000000000000000000000000000600082015250565b600062000990601283620008d5565b91506200099d8262000958565b602082019050919050565b60006020820190508181036000830152620009c38162000981565b9050919050565b6000620009d78262000843565b620009e38185620008d5565b9350620009f581856020860162000859565b62000a0081620005b3565b840191505092915050565b6000602082019050818103600083015262000a278184620009ca565b90509291505056fe60806040523480156200001157600080fd5b5060405162000c7b38038062000c7b8339818101604052810190620000379190620001e3565b80600090816200004891906200047f565b505062000566565b6000604051905090565b600080fd5b600080fd5b600080fd5b600080fd5b6000601f19601f8301169050919050565b7f4e487b7100000000000000000000000000000000000000000000000000000000600052604160045260246000fd5b620000b9826200006e565b810181811067ffffffffffffffff82111715620000db57620000da6200007f565b5b80604052505050565b6000620000f062000050565b9050620000fe8282620000ae565b919050565b600067ffffffffffffffff8211156200012157620001206200007f565b5b6200012c826200006e565b9050602081019050919050565b60005b83811015620001595780820151818401526020810190506200013c565b60008484015250505050565b60006200017c620001768462000103565b620000e4565b9050828152602081018484840111156200019b576200019a62000069565b5b620001a884828562000139565b509392505050565b600082601f830112620001c857620001c762000064565b5b8151620001da84826020860162000165565b91505092915050565b600060208284031215620001fc57620001fb6200005a565b5b600082015167ffffffffffffffff8111156200021d576200021c6200005f565b5b6200022b84828501620001b0565b91505092915050565b600081519050919050565b7f4e487b7100000000000000000000000000000000000000000000000000000000600052602260045260246000fd5b600060028204905060018216806200028757607f821691505b6020821081036200029d576200029c6200023f565b5b50919050565b60008190508160005260206000209050919050565b60006020601f8301049050919050565b600082821b905092915050565b600060088302620003077fffffffffffffffffffffffffffffffffffffffffffffffffffffffffffffffff82620002c8565b620003138683620002c8565b95508019841693508086168417925050509392505050565b6000819050919050565b6000819050919050565b6000620003606200035a62000354846200032b565b62000335565b6200032b565b9050919050565b6000819050919050565b6200037c836200033f565b620003946200038b8262000367565b848454620002d5565b825550505050565b600090565b620003ab6200039c565b620003b881848462000371565b505050565b5b81811015620003e057620003d4600082620003a1565b600181019050620003be565b5050565b601f8211156200042f57620003f981620002a3565b6200040484620002b8565b8101602085101562000414578190505b6200042c6200042385620002b8565b830182620003bd565b50505b505050565b600082821c905092915050565b6000620004546000198460080262000434565b1980831691505092915050565b60006200046f838362000441565b9150826002028217905092915050565b6200048a8262000234565b67ffffffffffffffff811115620004a657620004a56200007f565b5b620004b282546200026e565b620004bf828285620003e4565b600060209050601f831160018114620004f75760008415620004e2578287015190505b620004ee858262000461565b8655506200055e565b601f1984166200050786620002a3565b60005b8281101562000531578489015182556001820191506020850194506020810190506200050a565b868310156200055157848901516200054d601f89168262000441565b8355505b6001600288020188555050505b505050505050565b61070580620005766000396000f3fe608060405234801561001057600080fd5b50600436106100575760003560e01c80632441d9da1461005c578063724ced2a14610078578063a840db69146100a8578063af640d0f146100c4578063b7a9e200146100e2575b600080fd5b610076600480360381019061007191906103ee565b610112565b005b610092600480360381019061008d919061044a565b610139565b60405161009f91906104ae565b60405180910390f35b6100c260048036038101906100bd91906104f5565b61016e565b005b6100cc6101a8565b6040516100d991906105d0565b60405180910390f35b6100fc60048036038101906100f7919061044a565b610236565b6040516101099190610601565b60405180910390f35b806002836040516101239190610658565b9081526020016040518091039020819055505050565b600060018260405161014b9190610658565b908152602001604051809103902060009054906101000a900460ff169050919050565b8060018360405161017f9190610658565b908152602001604051809103902060006101000a81548160ff0219169083151502179055505050565b600080546101b59061069e565b80601f01602080910402602001604051908101604052809291908181526020018280546101e19061069e565b801561022e5780601f106102035761010080835404028352916020019161022e565b820191906000526020600020905b81548152906001019060200180831161021157829003601f168201915b505050505081565b60006002826040516102489190610658565b9081526020016040518091039020549050919050565b6000604051905090565b600080fd5b600080fd5b600080fd5b600080fd5b6000601f19601f8301169050919050565b7f4e487b7100000000000000000000000000000000000000000000000000000000600052604160045260246000fd5b6102c58261027c565b810181811067ffffffffffffffff821117156102e4576102e361028d565b5b80604052505050565b60006102f761025e565b905061030382826102bc565b919050565b600067ffffffffffffffff8211156103235761032261028d565b5b61032c8261027c565b9050602081019050919050565b82818337600083830152505050565b600061035b61035684610308565b6102ed565b90508281526020810184848401111561037757610376610277565b5b610382848285610339565b509392505050565b600082601f83011261039f5761039e610272565b5b81356103af848260208601610348565b91505092915050565b6000819050919050565b6103cb816103b8565b81146103d657600080fd5b50565b6000813590506103e8816103c2565b92915050565b6000806040838503121561040557610404610268565b5b600083013567ffffffffffffffff8111156104235761042261026d565b5b61042f8582860161038a565b9250506020610440858286016103d9565b9150509250929050565b6000602082840312156104605761045f610268565b5b600082013567ffffffffffffffff81111561047e5761047d61026d565b5b61048a8482850161038a565b91505092915050565b60008115159050919050565b6104a881610493565b82525050565b60006020820190506104c3600083018461049f565b92915050565b6104d281610493565b81146104dd57600080fd5b50565b6000813590506104ef816104c9565b92915050565b6000806040838503121561050c5761050b610268565b5b600083013567ffffffffffffffff81111561052a5761052961026d565b5b6105368582860161038a565b9250506020610547858286016104e0565b9150509250929050565b600081519050919050565b600082825260208201905092915050565b60005b8381101561058b578082015181840152602081019050610570565b60008484015250505050565b60006105a282610551565b6105ac818561055c565b93506105bc81856020860161056d565b6105c58161027c565b840191505092915050565b600060208201905081810360008301526105ea8184610597565b905092915050565b6105fb816103b8565b82525050565b600060208201905061061660008301846105f2565b92915050565b600081905092915050565b600061063282610551565b61063c818561061c565b935061064c81856020860161056d565b80840191505092915050565b60006106648284610627565b915081905092915050565b7f4e487b7100000000000000000000000000000000000000000000000000000000600052602260045260246000fd5b600060028204905060018216806106b657607f821691505b6020821081036106c9576106c861066f565b5b5091905056fea26469706673582212206e5899ae94b6c16307d7323641c905fefe15f905ed7c2077e485aa480d568a9264736f6c6343000811003360806040526000600260006101000a81548160ff021916908360028111156200002d576200002c6200007e565b5b02179055503480156200003f57600080fd5b5060405162002fa938038062002fa9833981810160405281019062000065919062000240565b8060009081620000769190620004dc565b5050620005c3565b7f4e487b7100000000000000000000000000000000000000000000000000000000600052602160045260246000fd5b6000604051905090565b600080fd5b600080fd5b600080fd5b600080fd5b6000601f19601f8301169050919050565b7f4e487b7100000000000000000000000000000000000000000000000000000000600052604160045260246000fd5b6200011682620000cb565b810181811067ffffffffffffffff82111715620001385762000137620000dc565b5b80604052505050565b60006200014d620000ad565b90506200015b82826200010b565b919050565b600067ffffffffffffffff8211156200017e576200017d620000dc565b5b6200018982620000cb565b9050602081019050919050565b60005b83811015620001b657808201518184015260208101905062000199565b60008484015250505050565b6000620001d9620001d38462000160565b62000141565b905082815260208101848484011115620001f857620001f7620000c6565b5b6200020584828562000196565b509392505050565b600082601f830112620002255762000224620000c1565b5b815162000237848260208601620001c2565b91505092915050565b600060208284031215620002595762000258620000b7565b5b600082015167ffffffffffffffff8111156200027a5762000279620000bc565b5b62000288848285016200020d565b91505092915050565b600081519050919050565b7f4e487b7100000000000000000000000000000000000000000000000000000000600052602260045260246000fd5b60006002820490506001821680620002e457607f821691505b602082108103620002fa57620002f96200029c565b5b50919050565b60008190508160005260206000209050919050565b60006020601f8301049050919050565b600082821b905092915050565b600060088302620003647fffffffffffffffffffffffffffffffffffffffffffffffffffffffffffffffff8262000325565b62000370868362000325565b95508019841693508086168417925050509392505050565b6000819050919050565b6000819050919050565b6000620003bd620003b7620003b18462000388565b62000392565b62000388565b9050919050565b6000819050919050565b620003d9836200039c565b620003f1620003e882620003c4565b84845462000332565b825550505050565b600090565b62000408620003f9565b62000415818484620003ce565b505050565b5b818110156200043d5762000431600082620003fe565b6001810190506200041b565b5050565b601f8211156200048c57620004568162000300565b620004618462000315565b8101602085101562000471578190505b62000489620004808562000315565b8301826200041a565b50505b505050565b600082821c905092915050565b6000620004b16000198460080262000491565b1980831691505092915050565b6000620004cc83836200049e565b9150826002028217905092915050565b620004e78262000291565b67ffffffffffffffff811115620005035762000502620000dc565b5b6200050f8254620002cb565b6200051c82828562000441565b600060209050601f8311600181146200055457600084156200053f578287015190505b6200054b8582620004be565b865550620005bb565b601f198416620005648662000300565b60005b828110156200058e5784890151825560018201915060208501945060208101905062000567565b86831015620005ae5784890151620005aa601f8916826200049e565b8355505b6001600288020188555050505b505050505050565b6129d680620005d36000396000f3fe608060405234801561001057600080fd5b506004361061012c5760003560e01c806382aa4866116100ad578063c8534a3311610071578063c8534a3314610319578063d925e94814610349578063d9ac7bb514610365578063df9f72e314610381578063e6dbf46c1461039d5761012c565b806382aa48661461027557806396a043d5146102a5578063af640d0f146102c1578063b3df77d9146102df578063be9a65551461030f5761012c565b80632b813633116100f45780632b813633146101c1578063405504fa146101dd57806345057e73146101f9578063552cf791146102155780637ba1a6ac146102455761012c565b806307da68f5146101315780630c882d681461013b578063104483ce1461016b57806319d2eb1d146101875780632014e5d1146101a3575b600080fd5b6101396103cd565b005b610155600480360381019061015091906114f8565b6103f9565b60405161016291906116c6565b60405180910390f35b61018560048036038101906101809190611720565b61059a565b005b6101a1600480360381019061019c9190611a4d565b61069c565b005b6101ab6106c2565b6040516101b89190611b91565b60405180910390f35b6101db60048036038101906101d69190611bac565b610700565b005b6101f760048036038101906101f29190611c82565b610737565b005b610213600480360381019061020e9190611caf565b610853565b005b61022f600480360381019061022a91906114f8565b61088a565b60405161023c9190611e35565b60405180910390f35b61025f600480360381019061025a91906114f8565b6109a3565b60405161026c9190611f65565b60405180910390f35b61028f600480360381019061028a91906114f8565b610acd565b60405161029c9190612036565b60405180910390f35b6102bf60048036038101906102ba9190611c82565b610b8d565b005b6102c9610bf8565b6040516102d691906120a2565b60405180910390f35b6102f960048036038101906102f491906114f8565b610c86565b6040516103069190612173565b60405180910390f35b610317610d6b565b005b610333600480360381019061032e91906114f8565b610d98565b6040516103409190612257565b60405180910390f35b610363600480360381019061035e9190612279565b610ed9565b005b61037f600480360381019061037a9190612320565b610fcf565b005b61039b60048036038101906103969190612398565b611006565b005b6103b760048036038101906103b29190611c82565b6110f0565b6040516103c4919061249a565b60405180910390f35b60028060006101000a81548160ff021916908360028111156103f2576103f1612423565b5b0217905550565b606060088260405161040b91906124f1565b9081526020016040518091039020805480602002602001604051908101604052809291908181526020016000905b8282101561058f578382906000526020600020906002020160405180604001604052908160008201805461046c90612537565b80601f016020809104026020016040519081016040528092919081815260200182805461049890612537565b80156104e55780601f106104ba576101008083540402835291602001916104e5565b820191906000526020600020905b8154815290600101906020018083116104c857829003601f168201915b505050505081526020016001820180546104fe90612537565b80601f016020809104026020016040519081016040528092919081815260200182805461052a90612537565b80156105775780601f1061054c57610100808354040283529160200191610577565b820191906000526020600020905b81548152906001019060200180831161055a57829003601f168201915b50505050508152505081526020019060010190610439565b505050509050919050565b73__ValidationLib_________________________63c464e37c826040518263ffffffff1660e01b81526004016105d191906125b2565b60006040518083038186803b1580156105e957600080fd5b505af41580156105fd573d6000803e3d6000fd5b5050505060078360405161061191906124f1565b90815260200160405180910390206040518060400160405280841515815260200183815250908060018154018082558091505060019003906000526020600020906002020160009091909190915060008201518160000160006101000a81548160ff0219169083151502179055506020820151816001019081610694919061278a565b505050505050565b6106a68684610700565b6106b08583610fcf565b6106ba8482610853565b505050505050565b6000600160028111156106d8576106d7612423565b5b600260009054906101000a900460ff1660028111156106fa576106f9612423565b5b14905090565b8060048360405161071191906124f1565b908152602001604051809103902090805190602001906107329291906111b4565b505050565b60028081111561074a57610749612423565b5b600160008373ffffffffffffffffffffffffffffffffffffffff1673ffffffffffffffffffffffffffffffffffffffff16815260200190815260200160002060009054906101000a900460ff1660028111156107a9576107a8612423565b5b146107e9576040517f08c379a00000000000000000000000000000000000000000000000000000000081526004016107e0906128a8565b60405180910390fd5b60018060008373ffffffffffffffffffffffffffffffffffffffff1673ffffffffffffffffffffffffffffffffffffffff16815260200190815260200160002060006101000a81548160ff0219169083600281111561084b5761084a612423565b5b021790555050565b8060058360405161086491906124f1565b90815260200160405180910390209080519060200190610885929190611201565b505050565b606060068260405161089c91906124f1565b9081526020016040518091039020805480602002602001604051908101604052809291908181526020016000905b8282101561099857838290600052602060002090600202016040518060400160405290816000820154815260200160018201805461090790612537565b80601f016020809104026020016040519081016040528092919081815260200182805461093390612537565b80156109805780601f1061095557610100808354040283529160200191610980565b820191906000526020600020905b81548152906001019060200180831161096357829003601f168201915b505050505081525050815260200190600101906108ca565b505050509050919050565b60606007826040516109b591906124f1565b9081526020016040518091039020805480602002602001604051908101604052809291908181526020016000905b82821015610ac257838290600052602060002090600202016040518060400160405290816000820160009054906101000a900460ff16151515158152602001600182018054610a3190612537565b80601f0160208091040260200160405190810160405280929190818152602001828054610a5d90612537565b8015610aaa5780601f10610a7f57610100808354040283529160200191610aaa565b820191906000526020600020905b815481529060010190602001808311610a8d57829003601f168201915b505050505081525050815260200190600101906109e3565b505050509050919050565b60606000600483604051610ae191906124f1565b9081526020016040518091039020805480602002602001604051908101604052809291908181526020018280548015610b3957602002820191906000526020600020905b815481526020019060010190808311610b25575b505050505090506000815103610b84576040517f08c379a0000000000000000000000000000000000000000000000000000000008152600401610b7b90612914565b60405180910390fd5b80915050919050565b6002600160008373ffffffffffffffffffffffffffffffffffffffff1673ffffffffffffffffffffffffffffffffffffffff16815260200190815260200160002060006101000a81548160ff02191690836002811115610bf057610bef612423565b5b021790555050565b60008054610c0590612537565b80601f0160208091040260200160405190810160405280929190818152602001828054610c3190612537565b8015610c7e5780601f10610c5357610100808354040283529160200191610c7e565b820191906000526020600020905b815481529060010190602001808311610c6157829003601f168201915b505050505081565b60606000600383604051610c9a91906124f1565b9081526020016040518091039020805480602002602001604051908101604052809291908181526020018280548015610d1757602002820191906000526020600020906000905b82829054906101000a900460ff16151581526020019060010190602082600001049283019260010382029150808411610ce15790505b505050505090506000815103610d62576040517f08c379a0000000000000000000000000000000000000000000000000000000008152600401610d5990612914565b60405180910390fd5b80915050919050565b6001600260006101000a81548160ff02191690836002811115610d9157610d90612423565b5b0217905550565b60606000600583604051610dac91906124f1565b9081526020016040518091039020805480602002602001604051908101604052809291908181526020016000905b82821015610e86578382906000526020600020018054610df990612537565b80601f0160208091040260200160405190810160405280929190818152602001828054610e2590612537565b8015610e725780601f10610e4757610100808354040283529160200191610e72565b820191906000526020600020905b815481529060010190602001808311610e5557829003601f168201915b505050505081526020019060010190610dda565b5050505090506000815103610ed0576040517f08c379a0000000000000000000000000000000000000000000000000000000008152600401610ec790612914565b60405180910390fd5b80915050919050565b73__ValidationLib_________________________63fb04d8ce826040518263ffffffff1660e01b8152600401610f1091906125b2565b60006040518083038186803b158015610f2857600080fd5b505af4158015610f3c573d6000803e3d6000fd5b50505050600883604051610f5091906124f1565b908152602001604051809103902060405180604001604052808481526020018381525090806001815401808255809150506001900390600052602060002090600202016000909190919091506000820151816000019081610fb1919061278a565b506020820151816001019081610fc7919061278a565b505050505050565b80600383604051610fe091906124f1565b9081526020016040518091039020908051906020019061100192919061125a565b505050565b73__ValidationLib_________________________630cba4347826040518263ffffffff1660e01b815260040161103d91906125b2565b60006040518083038186803b15801561105557600080fd5b505af4158015611069573d6000803e3d6000fd5b5050505060068360405161107d91906124f1565b908152602001604051809103902060405180604001604052808481526020018381525090806001815401808255809150506001900390600052602060002090600202016000909190919091506000820151816000015560208201518160010190816110e8919061278a565b505050505050565b60008073ffffffffffffffffffffffffffffffffffffffff168273ffffffffffffffffffffffffffffffffffffffff1614611160576040517f08c379a000000000000000000000000000000000000000000000000000000000815260040161115790612980565b60405180910390fd5b600160008373ffffffffffffffffffffffffffffffffffffffff1673ffffffffffffffffffffffffffffffffffffffff16815260200190815260200160002060009054906101000a900460ff169050919050565b8280548282559060005260206000209081019282156111f0579160200282015b828111156111ef5782518255916020019190600101906111d4565b5b5090506111fd9190611300565b5090565b828054828255906000526020600020908101928215611249579160200282015b82811115611248578251829081611238919061278a565b5091602001919060010190611221565b5b509050611256919061131d565b5090565b82805482825590600052602060002090601f016020900481019282156112ef5791602002820160005b838211156112c057835183826101000a81548160ff0219169083151502179055509260200192600101602081600001049283019260010302611283565b80156112ed5782816101000a81549060ff02191690556001016020816000010492830192600103026112c0565b505b5090506112fc9190611341565b5090565b5b80821115611319576000816000905550600101611301565b5090565b5b8082111561133d5760008181611334919061135e565b5060010161131e565b5090565b5b8082111561135a576000816000905550600101611342565b5090565b50805461136a90612537565b6000825580601f1061137c575061139b565b601f01602090049060005260206000209081019061139a9190611341565b5b50565b6000604051905090565b600080fd5b600080fd5b600080fd5b600080fd5b6000601f19601f8301169050919050565b7f4e487b7100000000000000000000000000000000000000000000000000000000600052604160045260246000fd5b611405826113bc565b810181811067ffffffffffffffff82111715611424576114236113cd565b5b80604052505050565b600061143761139e565b905061144382826113fc565b919050565b600067ffffffffffffffff821115611463576114626113cd565b5b61146c826113bc565b9050602081019050919050565b82818337600083830152505050565b600061149b61149684611448565b61142d565b9050828152602081018484840111156114b7576114b66113b7565b5b6114c2848285611479565b509392505050565b600082601f8301126114df576114de6113b2565b5b81356114ef848260208601611488565b91505092915050565b60006020828403121561150e5761150d6113a8565b5b600082013567ffffffffffffffff81111561152c5761152b6113ad565b5b611538848285016114ca565b91505092915050565b600081519050919050565b600082825260208201905092915050565b6000819050602082019050919050565b600081519050919050565b600082825260208201905092915050565b60005b838110156115a757808201518184015260208101905061158c565b60008484015250505050565b60006115be8261156d565b6115c88185611578565b93506115d8818560208601611589565b6115e1816113bc565b840191505092915050565b6000604083016000830151848203600086015261160982826115b3565b9150506020830151848203602086015261162382826115b3565b9150508091505092915050565b600061163c83836115ec565b905092915050565b6000602082019050919050565b600061165c82611541565b611666818561154c565b9350836020820285016116788561155d565b8060005b858110156116b457848403895281516116958582611630565b94506116a083611644565b925060208a0199505060018101905061167c565b50829750879550505050505092915050565b600060208201905081810360008301526116e08184611651565b905092915050565b60008115159050919050565b6116fd816116e8565b811461170857600080fd5b50565b60008135905061171a816116f4565b92915050565b600080600060608486031215611739576117386113a8565b5b600084013567ffffffffffffffff811115611757576117566113ad565b5b611763868287016114ca565b93505060206117748682870161170b565b925050604084013567ffffffffffffffff811115611795576117946113ad565b5b6117a1868287016114ca565b9150509250925092565b600067ffffffffffffffff8211156117c6576117c56113cd565b5b602082029050602081019050919050565b600080fd5b6000819050919050565b6117ef816117dc565b81146117fa57600080fd5b50565b60008135905061180c816117e6565b92915050565b6000611825611820846117ab565b61142d565b90508083825260208201905060208402830185811115611848576118476117d7565b5b835b81811015611871578061185d88826117fd565b84526020840193505060208101905061184a565b5050509392505050565b600082601f8301126118905761188f6113b2565b5b81356118a0848260208601611812565b91505092915050565b600067ffffffffffffffff8211156118c4576118c36113cd565b5b602082029050602081019050919050565b60006118e86118e3846118a9565b61142d565b9050808382526020820190506020840283018581111561190b5761190a6117d7565b5b835b818110156119345780611920888261170b565b84526020840193505060208101905061190d565b5050509392505050565b600082601f830112611953576119526113b2565b5b81356119638482602086016118d5565b91505092915050565b600067ffffffffffffffff821115611987576119866113cd565b5b602082029050602081019050919050565b60006119ab6119a68461196c565b61142d565b905080838252602082019050602084028301858111156119ce576119cd6117d7565b5b835b81811015611a1557803567ffffffffffffffff8111156119f3576119f26113b2565b5b808601611a0089826114ca565b855260208501945050506020810190506119d0565b5050509392505050565b600082601f830112611a3457611a336113b2565b5b8135611a44848260208601611998565b91505092915050565b60008060008060008060c08789031215611a6a57611a696113a8565b5b600087013567ffffffffffffffff811115611a8857611a876113ad565b5b611a9489828a016114ca565b965050602087013567ffffffffffffffff811115611ab557611ab46113ad565b5b611ac189828a016114ca565b955050604087013567ffffffffffffffff811115611ae257611ae16113ad565b5b611aee89828a016114ca565b945050606087013567ffffffffffffffff811115611b0f57611b0e6113ad565b5b611b1b89828a0161187b565b935050608087013567ffffffffffffffff811115611b3c57611b3b6113ad565b5b611b4889828a0161193e565b92505060a087013567ffffffffffffffff811115611b6957611b686113ad565b5b611b7589828a01611a1f565b9150509295509295509295565b611b8b816116e8565b82525050565b6000602082019050611ba66000830184611b82565b92915050565b60008060408385031215611bc357611bc26113a8565b5b600083013567ffffffffffffffff811115611be157611be06113ad565b5b611bed858286016114ca565b925050602083013567ffffffffffffffff811115611c0e57611c0d6113ad565b5b611c1a8582860161187b565b9150509250929050565b600073ffffffffffffffffffffffffffffffffffffffff82169050919050565b6000611c4f82611c24565b9050919050565b611c5f81611c44565b8114611c6a57600080fd5b50565b600081359050611c7c81611c56565b92915050565b600060208284031215611c9857611c976113a8565b5b6000611ca684828501611c6d565b91505092915050565b60008060408385031215611cc657611cc56113a8565b5b600083013567ffffffffffffffff811115611ce457611ce36113ad565b5b611cf0858286016114ca565b925050602083013567ffffffffffffffff811115611d1157611d106113ad565b5b611d1d85828601611a1f565b9150509250929050565b600081519050919050565b600082825260208201905092915050565b6000819050602082019050919050565b611d5c816117dc565b82525050565b6000604083016000830151611d7a6000860182611d53565b5060208301518482036020860152611d9282826115b3565b9150508091505092915050565b6000611dab8383611d62565b905092915050565b6000602082019050919050565b6000611dcb82611d27565b611dd58185611d32565b935083602082028501611de785611d43565b8060005b85811015611e235784840389528151611e048582611d9f565b9450611e0f83611db3565b925060208a01995050600181019050611deb565b50829750879550505050505092915050565b60006020820190508181036000830152611e4f8184611dc0565b905092915050565b600081519050919050565b600082825260208201905092915050565b6000819050602082019050919050565b611e8c816116e8565b82525050565b6000604083016000830151611eaa6000860182611e83565b5060208301518482036020860152611ec282826115b3565b9150508091505092915050565b6000611edb8383611e92565b905092915050565b6000602082019050919050565b6000611efb82611e57565b611f058185611e62565b935083602082028501611f1785611e73565b8060005b85811015611f535784840389528151611f348582611ecf565b9450611f3f83611ee3565b925060208a01995050600181019050611f1b565b50829750879550505050505092915050565b60006020820190508181036000830152611f7f8184611ef0565b905092915050565b600081519050919050565b600082825260208201905092915050565b6000819050602082019050919050565b6000611fbf8383611d53565b60208301905092915050565b6000602082019050919050565b6000611fe382611f87565b611fed8185611f92565b9350611ff883611fa3565b8060005b838110156120295781516120108882611fb3565b975061201b83611fcb565b925050600181019050611ffc565b5085935050505092915050565b600060208201905081810360008301526120508184611fd8565b905092915050565b600082825260208201905092915050565b60006120748261156d565b61207e8185612058565b935061208e818560208601611589565b612097816113bc565b840191505092915050565b600060208201905081810360008301526120bc8184612069565b905092915050565b600081519050919050565b600082825260208201905092915050565b6000819050602082019050919050565b60006120fc8383611e83565b60208301905092915050565b6000602082019050919050565b6000612120826120c4565b61212a81856120cf565b9350612135836120e0565b8060005b8381101561216657815161214d88826120f0565b975061215883612108565b925050600181019050612139565b5085935050505092915050565b6000602082019050818103600083015261218d8184612115565b905092915050565b600081519050919050565b600082825260208201905092915050565b6000819050602082019050919050565b60006121cd83836115b3565b905092915050565b6000602082019050919050565b60006121ed82612195565b6121f781856121a0565b935083602082028501612209856121b1565b8060005b85811015612245578484038952815161222685826121c1565b9450612231836121d5565b925060208a0199505060018101905061220d565b50829750879550505050505092915050565b6000602082019050818103600083015261227181846121e2565b905092915050565b600080600060608486031215612292576122916113a8565b5b600084013567ffffffffffffffff8111156122b0576122af6113ad565b5b6122bc868287016114ca565b935050602084013567ffffffffffffffff8111156122dd576122dc6113ad565b5b6122e9868287016114ca565b925050604084013567ffffffffffffffff81111561230a576123096113ad565b5b612316868287016114ca565b9150509250925092565b60008060408385031215612337576123366113a8565b5b600083013567ffffffffffffffff811115612355576123546113ad565b5b612361858286016114ca565b925050602083013567ffffffffffffffff811115612382576123816113ad565b5b61238e8582860161193e565b9150509250929050565b6000806000606084860312156123b1576123b06113a8565b5b600084013567ffffffffffffffff8111156123cf576123ce6113ad565b5b6123db868287016114ca565b93505060206123ec868287016117fd565b925050604084013567ffffffffffffffff81111561240d5761240c6113ad565b5b612419868287016114ca565b9150509250925092565b7f4e487b7100000000000000000000000000000000000000000000000000000000600052602160045260246000fd5b6003811061246357612462612423565b5b50565b600081905061247482612452565b919050565b600061248482612466565b9050919050565b61249481612479565b82525050565b60006020820190506124af600083018461248b565b92915050565b600081905092915050565b60006124cb8261156d565b6124d581856124b5565b93506124e5818560208601611589565b80840191505092915050565b60006124fd82846124c0565b915081905092915050565b7f4e487b7100000000000000000000000000000000000000000000000000000000600052602260045260246000fd5b6000600282049050600182168061254f57607f821691505b60208210810361256257612561612508565b5b50919050565b600082825260208201905092915050565b60006125848261156d565b61258e8185612568565b935061259e818560208601611589565b6125a7816113bc565b840191505092915050565b600060208201905081810360008301526125cc8184612579565b905092915050565b60008190508160005260206000209050919050565b60006020601f8301049050919050565b600082821b905092915050565b6000600883026126367fffffffffffffffffffffffffffffffffffffffffffffffffffffffffffffffff826125f9565b61264086836125f9565b95508019841693508086168417925050509392505050565b6000819050919050565b6000819050919050565b600061268761268261267d84612658565b612662565b612658565b9050919050565b6000819050919050565b6126a18361266c565b6126b56126ad8261268e565b848454612606565b825550505050565b600090565b6126ca6126bd565b6126d5818484612698565b505050565b5b818110156126f9576126ee6000826126c2565b6001810190506126db565b5050565b601f82111561273e5761270f816125d4565b612718846125e9565b81016020851015612727578190505b61273b612733856125e9565b8301826126da565b50505b505050565b600082821c905092915050565b600061276160001984600802612743565b1980831691505092915050565b600061277a8383612750565b9150826002028217905092915050565b6127938261156d565b67ffffffffffffffff8111156127ac576127ab6113cd565b5b6127b68254612537565b6127c18282856126fd565b600060209050601f8311600181146127f457600084156127e2578287015190505b6127ec858261276e565b865550612854565b601f198416612802866125d4565b60005b8281101561282a57848901518255600182019150602085019450602081019050612805565b868310156128475784890151612843601f891682612750565b8355505b6001600288020188555050505b505050505050565b7f506c61796572206973206e6f74204163746976652e0000000000000000000000600082015250565b6000612892601583612058565b915061289d8261285c565b602082019050919050565b600060208201905081810360008301526128c181612885565b9050919050565b7f526571756573746564206b657920646f6573206e6f742065786973742e000000600082015250565b60006128fe601d83612058565b9150612909826128c8565b602082019050919050565b6000602082019050818103600083015261292d816128f1565b9050919050565b7f506c61796572206164647265737320646f6573206e6f742065786973742e0000600082015250565b600061296a601e83612058565b915061297582612934565b602082019050919050565b600060208201905081810360008301526129998161295d565b905091905056fea26469706673582212209aa5cf8c2c9af618b273f86ca7b240a3cd3670dc160a7a3de52dbb29078c85b264736f6c63430008110033a26469706673582212205c425dd66c584ec752c653d7f3b0fbac71edda20974f535aec599140397fb76564736f6c63430008110033",
  "immutableReferences": {},
  "source": "// SPDX-License-Identifier: MIT\npragma solidity >=0.4.22 <0.9.0;\nimport \"./Session.sol\";\nimport \"./Player.sol\";\nimport \"./SessionHandler.sol\";\nimport \"./ValidationLib.sol\";\n\ncontract AntiCheat {\n    SessionHandler public session_handler;\n\n    constructor() {\n        session_handler = new SessionHandler();\n    }\n\n    function validate_and_update_session_int_data(\n        string memory session_id,\n        string memory player_id,\n        string memory key,\n        int[] memory data\n    ) public {\n        Session session = Session(session_handler.get_session(session_id));\n        Player player = Player(session_handler.get_player(player_id));\n        if (!ValidationLib.validate_int(\n            session.get_session_int_validation_rules(key), data)\n        ) {\n            session.remove_player(address(player));\n            revert(\"Flagged\");\n        }\n        session.update_session_int_data(key, data);\n    }\n\n    function validate_and_update_session_bool_data(\n        string memory session_id,\n        string memory player_id,\n        string memory key,\n        bool[] memory data\n    ) public {\n        Session session = Session(session_handler.get_session(session_id));\n        Player player = Player(session_handler.get_player(player_id));\n        if (!ValidationLib.validate_bool(\n            session.get_session_bool_validation_rules(key), data)\n        ) {\n            session.remove_player(address(player));\n            revert(\"Flagged\");\n        }\n        session.update_session_bool_data(key, data);\n    }\n\n    function validate_and_update_session_string_data(\n        string memory session_id,\n        string memory player_id,\n        string memory key,\n        string[] memory data\n    ) public {\n        Session session = Session(session_handler.get_session(session_id));\n        Player player = Player(session_handler.get_player(player_id));\n        if (!ValidationLib.validate_string(\n            session.get_session_string_validation_rules(key), data)\n        ) {\n            session.remove_player(address(player));\n            revert(\"Flagged\");\n        }\n        session.update_session_string_data(key, data);\n    }\n\n}\n",
  "sourcePath": "/mnt/d/documents/blockchain-testing/BC_Anticheat/contracts/AntiCheat.sol",
  "compiler": {
    "name": "solc",
    "version": "0.8.17+commit.8df45f5f.Emscripten.clang"
  },
  "schemaVersion": "3.4.11",
  "updatedAt": "2023-03-15T06:32:55.908Z",
  "networkType": "ethereum",
  "devdoc": {
    "kind": "dev",
    "methods": {},
    "version": 1
  },
  "userdoc": {
    "kind": "user",
    "methods": {},
    "version": 1
  }
}