{
  "contractName": "AntiCheat",
  "abi": [
    {
      "inputs": [],
      "stateMutability": "nonpayable",
      "type": "constructor"
    },
    {
      "inputs": [],
      "name": "session_handler",
      "outputs": [
        {
          "internalType": "contract SessionHandler",
          "name": "",
          "type": "address"
        }
      ],
      "stateMutability": "view",
      "type": "function",
      "constant": true
    },
    {
      "inputs": [
        {
          "internalType": "string",
          "name": "session_id",
          "type": "string"
        },
        {
          "internalType": "string",
          "name": "key",
          "type": "string"
        },
        {
          "internalType": "int256[]",
          "name": "data",
          "type": "int256[]"
        }
      ],
      "name": "validate_and_update_session_int_data",
      "outputs": [],
      "stateMutability": "nonpayable",
      "type": "function"
    },
    {
      "inputs": [
        {
          "internalType": "string",
          "name": "session_id",
          "type": "string"
        },
        {
          "internalType": "string",
          "name": "key",
          "type": "string"
        },
        {
          "internalType": "string[]",
          "name": "data",
          "type": "string[]"
        }
      ],
      "name": "validate_and_update_session_string_data",
      "outputs": [],
      "stateMutability": "nonpayable",
      "type": "function"
    }
  ],
  "bytecode": "0x608060405234801561001057600080fd5b5060405161001d9061007e565b604051809103906000f080158015610039573d6000803e3d6000fd5b506000806101000a81548173ffffffffffffffffffffffffffffffffffffffff021916908373ffffffffffffffffffffffffffffffffffffffff16021790555061008c565b614d9880620017de83390190565b611742806200009c6000396000f3fe608060405234801561001057600080fd5b50600436106100415760003560e01c806325e72d5814610046578063612d7d6114610062578063d55acf451461007e575b600080fd5b610060600480360381019061005b919061086a565b61009c565b005b61007c600480360381019061007791906109f2565b610345565b005b6100866105ee565b6040516100939190610b18565b60405180910390f35b60008060009054906101000a900473ffffffffffffffffffffffffffffffffffffffff1673ffffffffffffffffffffffffffffffffffffffff16637cd5f0a5856040518263ffffffff1660e01b81526004016100f89190610bb2565b602060405180830381865afa158015610115573d6000803e3d6000fd5b505050506040513d601f19601f820116820180604052508101906101399190610c12565b905073__ValidationLib_________________________63171728028273ffffffffffffffffffffffffffffffffffffffff16635e9cbc54866040518263ffffffff1660e01b815260040161018e9190610bb2565b600060405180830381865afa1580156101ab573d6000803e3d6000fd5b505050506040513d6000823e3d601f19601f820116820180604052508101906101d49190610e1b565b846040518363ffffffff1660e01b81526004016101f292919061106b565b602060405180830381865af415801561020f573d6000803e3d6000fd5b505050506040513d601f19601f8201168201806040525081019061023391906110da565b6102d2578073ffffffffffffffffffffffffffffffffffffffff166307da68f56040518163ffffffff1660e01b8152600401600060405180830381600087803b15801561027f57600080fd5b505af1158015610293573d6000803e3d6000fd5b505050506040517f08c379a00000000000000000000000000000000000000000000000000000000081526004016102c990611153565b60405180910390fd5b8073ffffffffffffffffffffffffffffffffffffffff16633b45d0a884846040518363ffffffff1660e01b815260040161030d929190611209565b600060405180830381600087803b15801561032757600080fd5b505af115801561033b573d6000803e3d6000fd5b5050505050505050565b60008060009054906101000a900473ffffffffffffffffffffffffffffffffffffffff1673ffffffffffffffffffffffffffffffffffffffff16637cd5f0a5856040518263ffffffff1660e01b81526004016103a19190610bb2565b602060405180830381865afa1580156103be573d6000803e3d6000fd5b505050506040513d601f19601f820116820180604052508101906103e29190610c12565b905073__ValidationLib_________________________6347f8be808273ffffffffffffffffffffffffffffffffffffffff16634298b5c8866040518263ffffffff1660e01b81526004016104379190610bb2565b600060405180830381865afa158015610454573d6000803e3d6000fd5b505050506040513d6000823e3d601f19601f8201168201806040525081019061047d91906113a9565b846040518363ffffffff1660e01b815260040161049b9291906115ba565b602060405180830381865af41580156104b8573d6000803e3d6000fd5b505050506040513d601f19601f820116820180604052508101906104dc91906110da565b61057b578073ffffffffffffffffffffffffffffffffffffffff166307da68f56040518163ffffffff1660e01b8152600401600060405180830381600087803b15801561052857600080fd5b505af115801561053c573d6000803e3d6000fd5b505050506040517f08c379a000000000000000000000000000000000000000000000000000000000815260040161057290611153565b60405180910390fd5b8073ffffffffffffffffffffffffffffffffffffffff16633f5b5bcf84846040518363ffffffff1660e01b81526004016105b69291906116d5565b600060405180830381600087803b1580156105d057600080fd5b505af11580156105e4573d6000803e3d6000fd5b5050505050505050565b60008054906101000a900473ffffffffffffffffffffffffffffffffffffffff1681565b6000604051905090565b600080fd5b600080fd5b600080fd5b600080fd5b6000601f19601f8301169050919050565b7f4e487b7100000000000000000000000000000000000000000000000000000000600052604160045260246000fd5b61067982610630565b810181811067ffffffffffffffff8211171561069857610697610641565b5b80604052505050565b60006106ab610612565b90506106b78282610670565b919050565b600067ffffffffffffffff8211156106d7576106d6610641565b5b6106e082610630565b9050602081019050919050565b82818337600083830152505050565b600061070f61070a846106bc565b6106a1565b90508281526020810184848401111561072b5761072a61062b565b5b6107368482856106ed565b509392505050565b600082601f83011261075357610752610626565b5b81356107638482602086016106fc565b91505092915050565b600067ffffffffffffffff82111561078757610786610641565b5b602082029050602081019050919050565b600080fd5b6000819050919050565b6107b08161079d565b81146107bb57600080fd5b50565b6000813590506107cd816107a7565b92915050565b60006107e66107e18461076c565b6106a1565b9050808382526020820190506020840283018581111561080957610808610798565b5b835b81811015610832578061081e88826107be565b84526020840193505060208101905061080b565b5050509392505050565b600082601f83011261085157610850610626565b5b81356108618482602086016107d3565b91505092915050565b6000806000606084860312156108835761088261061c565b5b600084013567ffffffffffffffff8111156108a1576108a0610621565b5b6108ad8682870161073e565b935050602084013567ffffffffffffffff8111156108ce576108cd610621565b5b6108da8682870161073e565b925050604084013567ffffffffffffffff8111156108fb576108fa610621565b5b6109078682870161083c565b9150509250925092565b600067ffffffffffffffff82111561092c5761092b610641565b5b602082029050602081019050919050565b600061095061094b84610911565b6106a1565b9050808382526020820190506020840283018581111561097357610972610798565b5b835b818110156109ba57803567ffffffffffffffff81111561099857610997610626565b5b8086016109a5898261073e565b85526020850194505050602081019050610975565b5050509392505050565b600082601f8301126109d9576109d8610626565b5b81356109e984826020860161093d565b91505092915050565b600080600060608486031215610a0b57610a0a61061c565b5b600084013567ffffffffffffffff811115610a2957610a28610621565b5b610a358682870161073e565b935050602084013567ffffffffffffffff811115610a5657610a55610621565b5b610a628682870161073e565b925050604084013567ffffffffffffffff811115610a8357610a82610621565b5b610a8f868287016109c4565b9150509250925092565b600073ffffffffffffffffffffffffffffffffffffffff82169050919050565b6000819050919050565b6000610ade610ad9610ad484610a99565b610ab9565b610a99565b9050919050565b6000610af082610ac3565b9050919050565b6000610b0282610ae5565b9050919050565b610b1281610af7565b82525050565b6000602082019050610b2d6000830184610b09565b92915050565b600081519050919050565b600082825260208201905092915050565b60005b83811015610b6d578082015181840152602081019050610b52565b60008484015250505050565b6000610b8482610b33565b610b8e8185610b3e565b9350610b9e818560208601610b4f565b610ba781610630565b840191505092915050565b60006020820190508181036000830152610bcc8184610b79565b905092915050565b6000610bdf82610a99565b9050919050565b610bef81610bd4565b8114610bfa57600080fd5b50565b600081519050610c0c81610be6565b92915050565b600060208284031215610c2857610c2761061c565b5b6000610c3684828501610bfd565b91505092915050565b600067ffffffffffffffff821115610c5a57610c59610641565b5b602082029050602081019050919050565b600080fd5b600080fd5b600081519050610c84816107a7565b92915050565b6000610c9d610c98846106bc565b6106a1565b905082815260208101848484011115610cb957610cb861062b565b5b610cc4848285610b4f565b509392505050565b600082601f830112610ce157610ce0610626565b5b8151610cf1848260208601610c8a565b91505092915050565b600060408284031215610d1057610d0f610c6b565b5b610d1a60406106a1565b90506000610d2a84828501610c75565b600083015250602082015167ffffffffffffffff811115610d4e57610d4d610c70565b5b610d5a84828501610ccc565b60208301525092915050565b6000610d79610d7484610c3f565b6106a1565b90508083825260208201905060208402830185811115610d9c57610d9b610798565b5b835b81811015610de357805167ffffffffffffffff811115610dc157610dc0610626565b5b808601610dce8982610cfa565b85526020850194505050602081019050610d9e565b5050509392505050565b600082601f830112610e0257610e01610626565b5b8151610e12848260208601610d66565b91505092915050565b600060208284031215610e3157610e3061061c565b5b600082015167ffffffffffffffff811115610e4f57610e4e610621565b5b610e5b84828501610ded565b91505092915050565b600081519050919050565b600082825260208201905092915050565b6000819050602082019050919050565b610e998161079d565b82525050565b600082825260208201905092915050565b6000610ebb82610b33565b610ec58185610e9f565b9350610ed5818560208601610b4f565b610ede81610630565b840191505092915050565b6000604083016000830151610f016000860182610e90565b5060208301518482036020860152610f198282610eb0565b9150508091505092915050565b6000610f328383610ee9565b905092915050565b6000602082019050919050565b6000610f5282610e64565b610f5c8185610e6f565b935083602082028501610f6e85610e80565b8060005b85811015610faa5784840389528151610f8b8582610f26565b9450610f9683610f3a565b925060208a01995050600181019050610f72565b50829750879550505050505092915050565b600081519050919050565b600082825260208201905092915050565b6000819050602082019050919050565b6000610ff48383610e90565b60208301905092915050565b6000602082019050919050565b600061101882610fbc565b6110228185610fc7565b935061102d83610fd8565b8060005b8381101561105e5781516110458882610fe8565b975061105083611000565b925050600181019050611031565b5085935050505092915050565b600060408201905081810360008301526110858185610f47565b90508181036020830152611099818461100d565b90509392505050565b60008115159050919050565b6110b7816110a2565b81146110c257600080fd5b50565b6000815190506110d4816110ae565b92915050565b6000602082840312156110f0576110ef61061c565b5b60006110fe848285016110c5565b91505092915050565b7f53657373696f6e20666c61676765640000000000000000000000000000000000600082015250565b600061113d600f83610b3e565b915061114882611107565b602082019050919050565b6000602082019050818103600083015261116c81611130565b9050919050565b600082825260208201905092915050565b61118d8161079d565b82525050565b600061119f8383611184565b60208301905092915050565b60006111b682610fbc565b6111c08185611173565b93506111cb83610fd8565b8060005b838110156111fc5781516111e38882611193565b97506111ee83611000565b9250506001810190506111cf565b5085935050505092915050565b600060408201905081810360008301526112238185610b79565b9050818103602083015261123781846111ab565b90509392505050565b600067ffffffffffffffff82111561125b5761125a610641565b5b602082029050602081019050919050565b60006040828403121561128257611281610c6b565b5b61128c60406106a1565b9050600082015167ffffffffffffffff8111156112ac576112ab610c70565b5b6112b884828501610ccc565b600083015250602082015167ffffffffffffffff8111156112dc576112db610c70565b5b6112e884828501610ccc565b60208301525092915050565b600061130761130284611240565b6106a1565b9050808382526020820190506020840283018581111561132a57611329610798565b5b835b8181101561137157805167ffffffffffffffff81111561134f5761134e610626565b5b80860161135c898261126c565b8552602085019450505060208101905061132c565b5050509392505050565b600082601f8301126113905761138f610626565b5b81516113a08482602086016112f4565b91505092915050565b6000602082840312156113bf576113be61061c565b5b600082015167ffffffffffffffff8111156113dd576113dc610621565b5b6113e98482850161137b565b91505092915050565b600081519050919050565b600082825260208201905092915050565b6000819050602082019050919050565b6000604083016000830151848203600086015261143b8282610eb0565b915050602083015184820360208601526114558282610eb0565b9150508091505092915050565b600061146e838361141e565b905092915050565b6000602082019050919050565b600061148e826113f2565b61149881856113fd565b9350836020820285016114aa8561140e565b8060005b858110156114e657848403895281516114c78582611462565b94506114d283611476565b925060208a019950506001810190506114ae565b50829750879550505050505092915050565b600081519050919050565b600082825260208201905092915050565b6000819050602082019050919050565b60006115308383610eb0565b905092915050565b6000602082019050919050565b6000611550826114f8565b61155a8185611503565b93508360208202850161156c85611514565b8060005b858110156115a857848403895281516115898582611524565b945061159483611538565b925060208a01995050600181019050611570565b50829750879550505050505092915050565b600060408201905081810360008301526115d48185611483565b905081810360208301526115e88184611545565b90509392505050565b600082825260208201905092915050565b600082825260208201905092915050565b600061161e82610b33565b6116288185611602565b9350611638818560208601610b4f565b61164181610630565b840191505092915050565b60006116588383611613565b905092915050565b600061166b826114f8565b61167581856115f1565b93508360208202850161168785611514565b8060005b858110156116c357848403895281516116a4858261164c565b94506116af83611538565b925060208a0199505060018101905061168b565b50829750879550505050505092915050565b600060408201905081810360008301526116ef8185610b79565b905081810360208301526117038184611660565b9050939250505056fea264697066735822122015a19ebf0adac7f125923cb590b2af5b609b09279bb1ee0d2d6207eb781a1e1364736f6c63430008110033608060405234801561001057600080fd5b50614d78806100206000396000f3fe60806040523480156200001157600080fd5b5060043610620000525760003560e01c80630fd9c1f814620000575780637cd5f0a5146200008d57806386f4df5e14620000c3578063ffaf790214620000e3575b600080fd5b6200007560048036038101906200006f91906200070b565b62000103565b604051620000849190620007a1565b60405180910390f35b620000ab6004803603810190620000a591906200070b565b62000204565b604051620000ba9190620007a1565b60405180910390f35b620000e16004803603810190620000db9190620007be565b620002c5565b005b620001016004803603810190620000fb91906200070b565b6200045f565b005b600080600183604051620001189190620008bc565b908152602001604051809103902060009054906101000a900473ffffffffffffffffffffffffffffffffffffffff169050600073ffffffffffffffffffffffffffffffffffffffff168173ffffffffffffffffffffffffffffffffffffffff1603620001bb576040517f08c379a0000000000000000000000000000000000000000000000000000000008152600401620001b29062000936565b60405180910390fd5b600183604051620001cd9190620008bc565b908152602001604051809103902060009054906101000a900473ffffffffffffffffffffffffffffffffffffffff16915050919050565b600080600083604051620002199190620008bc565b908152602001604051809103902060009054906101000a900473ffffffffffffffffffffffffffffffffffffffff169050600073ffffffffffffffffffffffffffffffffffffffff168173ffffffffffffffffffffffffffffffffffffffff1603620002bc576040517f08c379a0000000000000000000000000000000000000000000000000000000008152600401620002b390620009a8565b60405180910390fd5b80915050919050565b600073ffffffffffffffffffffffffffffffffffffffff16600182604051620002ef9190620008bc565b908152602001604051809103902060009054906101000a900473ffffffffffffffffffffffffffffffffffffffff1673ffffffffffffffffffffffffffffffffffffffff16146200033f57600080fd5b60006200034c8362000204565b90506000826040516200035f9062000579565b6200036b919062000a0b565b604051809103906000f08015801562000388573d6000803e3d6000fd5b509050806001846040516200039e9190620008bc565b908152602001604051809103902060006101000a81548173ffffffffffffffffffffffffffffffffffffffff021916908373ffffffffffffffffffffffffffffffffffffffff1602179055508173ffffffffffffffffffffffffffffffffffffffff166396a043d5826040518263ffffffff1660e01b8152600401620004259190620007a1565b600060405180830381600087803b1580156200044057600080fd5b505af115801562000455573d6000803e3d6000fd5b5050505050505050565b600073ffffffffffffffffffffffffffffffffffffffff16600082604051620004899190620008bc565b908152602001604051809103902060009054906101000a900473ffffffffffffffffffffffffffffffffffffffff1673ffffffffffffffffffffffffffffffffffffffff1614620004d957600080fd5b600081604051620004ea9062000587565b620004f6919062000a0b565b604051809103906000f08015801562000513573d6000803e3d6000fd5b50905080600083604051620005299190620008bc565b908152602001604051809103902060006101000a81548173ffffffffffffffffffffffffffffffffffffffff021916908373ffffffffffffffffffffffffffffffffffffffff1602179055505050565b611e1c8062000a3083390190565b6124f7806200284c83390190565b6000604051905090565b600080fd5b600080fd5b600080fd5b600080fd5b6000601f19601f8301169050919050565b7f4e487b7100000000000000000000000000000000000000000000000000000000600052604160045260246000fd5b620005fe82620005b3565b810181811067ffffffffffffffff8211171562000620576200061f620005c4565b5b80604052505050565b60006200063562000595565b9050620006438282620005f3565b919050565b600067ffffffffffffffff821115620006665762000665620005c4565b5b6200067182620005b3565b9050602081019050919050565b82818337600083830152505050565b6000620006a46200069e8462000648565b62000629565b905082815260208101848484011115620006c357620006c2620005ae565b5b620006d08482856200067e565b509392505050565b600082601f830112620006f057620006ef620005a9565b5b8135620007028482602086016200068d565b91505092915050565b6000602082840312156200072457620007236200059f565b5b600082013567ffffffffffffffff811115620007455762000744620005a4565b5b6200075384828501620006d8565b91505092915050565b600073ffffffffffffffffffffffffffffffffffffffff82169050919050565b600062000789826200075c565b9050919050565b6200079b816200077c565b82525050565b6000602082019050620007b8600083018462000790565b92915050565b60008060408385031215620007d857620007d76200059f565b5b600083013567ffffffffffffffff811115620007f957620007f8620005a4565b5b6200080785828601620006d8565b925050602083013567ffffffffffffffff8111156200082b576200082a620005a4565b5b6200083985828601620006d8565b9150509250929050565b600081519050919050565b600081905092915050565b60005b83811015620008795780820151818401526020810190506200085c565b60008484015250505050565b6000620008928262000843565b6200089e81856200084e565b9350620008b081856020860162000859565b80840191505092915050565b6000620008ca828462000885565b915081905092915050565b600082825260208201905092915050565b7f506c6179657220444e4500000000000000000000000000000000000000000000600082015250565b60006200091e600a83620008d5565b91506200092b82620008e6565b602082019050919050565b6000602082019050818103600083015262000951816200090f565b9050919050565b7f53657373696f6e20444e45000000000000000000000000000000000000000000600082015250565b600062000990600b83620008d5565b91506200099d8262000958565b602082019050919050565b60006020820190508181036000830152620009c38162000981565b9050919050565b6000620009d78262000843565b620009e38185620008d5565b9350620009f581856020860162000859565b62000a0081620005b3565b840191505092915050565b6000602082019050818103600083015262000a278184620009ca565b90509291505056fe60806040523480156200001157600080fd5b5060405162001e1c38038062001e1c8339818101604052810190620000379190620001e3565b80600490816200004891906200047f565b505062000566565b6000604051905090565b600080fd5b600080fd5b600080fd5b600080fd5b6000601f19601f8301169050919050565b7f4e487b7100000000000000000000000000000000000000000000000000000000600052604160045260246000fd5b620000b9826200006e565b810181811067ffffffffffffffff82111715620000db57620000da6200007f565b5b80604052505050565b6000620000f062000050565b9050620000fe8282620000ae565b919050565b600067ffffffffffffffff8211156200012157620001206200007f565b5b6200012c826200006e565b9050602081019050919050565b60005b83811015620001595780820151818401526020810190506200013c565b60008484015250505050565b60006200017c620001768462000103565b620000e4565b9050828152602081018484840111156200019b576200019a62000069565b5b620001a884828562000139565b509392505050565b600082601f830112620001c857620001c762000064565b5b8151620001da84826020860162000165565b91505092915050565b600060208284031215620001fc57620001fb6200005a565b5b600082015167ffffffffffffffff8111156200021d576200021c6200005f565b5b6200022b84828501620001b0565b91505092915050565b600081519050919050565b7f4e487b7100000000000000000000000000000000000000000000000000000000600052602260045260246000fd5b600060028204905060018216806200028757607f821691505b6020821081036200029d576200029c6200023f565b5b50919050565b60008190508160005260206000209050919050565b60006020601f8301049050919050565b600082821b905092915050565b600060088302620003077fffffffffffffffffffffffffffffffffffffffffffffffffffffffffffffffff82620002c8565b620003138683620002c8565b95508019841693508086168417925050509392505050565b6000819050919050565b6000819050919050565b6000620003606200035a62000354846200032b565b62000335565b6200032b565b9050919050565b6000819050919050565b6200037c836200033f565b620003946200038b8262000367565b848454620002d5565b825550505050565b600090565b620003ab6200039c565b620003b881848462000371565b505050565b5b81811015620003e057620003d4600082620003a1565b600181019050620003be565b5050565b601f8211156200042f57620003f981620002a3565b6200040484620002b8565b8101602085101562000414578190505b6200042c6200042385620002b8565b830182620003bd565b50505b505050565b600082821c905092915050565b6000620004546000198460080262000434565b1980831691505092915050565b60006200046f838362000441565b9150826002028217905092915050565b6200048a8262000234565b67ffffffffffffffff811115620004a657620004a56200007f565b5b620004b282546200026e565b620004bf828285620003e4565b600060209050601f831160018114620004f75760008415620004e2578287015190505b620004ee858262000461565b8655506200055e565b601f1984166200050786620002a3565b60005b8281101562000531578489015182556001820191506020850194506020810190506200050a565b868310156200055157848901516200054d601f89168262000441565b8355505b6001600288020188555050505b505050505050565b6118a680620005766000396000f3fe608060405234801561001057600080fd5b50600436106100935760003560e01c8063682fead511610066578063682fead5146101305780638702a84814610160578063a20612ec14610190578063af640d0f146101ac578063df1cb17c146101ca57610093565b80633b45d0a8146100985780633f5b5bcf146100b45780634298b5c8146100d05780635e9cbc5414610100575b600080fd5b6100b260048036038101906100ad9190610c85565b6101e6565b005b6100ce60048036038101906100c99190610dde565b61021d565b005b6100ea60048036038101906100e59190610e56565b610254565b6040516100f79190611024565b60405180910390f35b61011a60048036038101906101159190610e56565b6103f5565b6040516101279190611154565b60405180910390f35b61014a60048036038101906101459190610e56565b61050e565b6040516101579190611238565b60405180910390f35b61017a60048036038101906101759190610e56565b610605565b6040516101879190611309565b60405180910390f35b6101aa60048036038101906101a5919061132b565b61067b565b005b6101b4610765565b6040516101c19190611400565b60405180910390f35b6101e460048036038101906101df9190611422565b6107f3565b005b806000836040516101f79190611505565b908152602001604051809103902090805190602001906102189291906108e9565b505050565b8060018360405161022e9190611505565b9081526020016040518091039020908051906020019061024f929190610936565b505050565b60606003826040516102669190611505565b9081526020016040518091039020805480602002602001604051908101604052809291908181526020016000905b828210156103ea57838290600052602060002090600202016040518060400160405290816000820180546102c79061154b565b80601f01602080910402602001604051908101604052809291908181526020018280546102f39061154b565b80156103405780601f1061031557610100808354040283529160200191610340565b820191906000526020600020905b81548152906001019060200180831161032357829003601f168201915b505050505081526020016001820180546103599061154b565b80601f01602080910402602001604051908101604052809291908181526020018280546103859061154b565b80156103d25780601f106103a7576101008083540402835291602001916103d2565b820191906000526020600020905b8154815290600101906020018083116103b557829003601f168201915b50505050508152505081526020019060010190610294565b505050509050919050565b60606002826040516104079190611505565b9081526020016040518091039020805480602002602001604051908101604052809291908181526020016000905b828210156105035783829060005260206000209060020201604051806040016040529081600082015481526020016001820180546104729061154b565b80601f016020809104026020016040519081016040528092919081815260200182805461049e9061154b565b80156104eb5780601f106104c0576101008083540402835291602001916104eb565b820191906000526020600020905b8154815290600101906020018083116104ce57829003601f168201915b50505050508152505081526020019060010190610435565b505050509050919050565b60606001826040516105209190611505565b9081526020016040518091039020805480602002602001604051908101604052809291908181526020016000905b828210156105fa57838290600052602060002001805461056d9061154b565b80601f01602080910402602001604051908101604052809291908181526020018280546105999061154b565b80156105e65780601f106105bb576101008083540402835291602001916105e6565b820191906000526020600020905b8154815290600101906020018083116105c957829003601f168201915b50505050508152602001906001019061054e565b505050509050919050565b60606000826040516106179190611505565b908152602001604051809103902080548060200260200160405190810160405280929190818152602001828054801561066f57602002820191906000526020600020905b81548152602001906001019080831161065b575b50505050509050919050565b73__ValidationLib_________________________630cba4347826040518263ffffffff1660e01b81526004016106b291906115c6565b60006040518083038186803b1580156106ca57600080fd5b505af41580156106de573d6000803e3d6000fd5b505050506002836040516106f29190611505565b9081526020016040518091039020604051806040016040528084815260200183815250908060018154018082558091505060019003906000526020600020906002020160009091909190915060008201518160000155602082015181600101908161075d919061179e565b505050505050565b600480546107729061154b565b80601f016020809104026020016040519081016040528092919081815260200182805461079e9061154b565b80156107eb5780601f106107c0576101008083540402835291602001916107eb565b820191906000526020600020905b8154815290600101906020018083116107ce57829003601f168201915b505050505081565b73__ValidationLib_________________________63fb04d8ce826040518263ffffffff1660e01b815260040161082a91906115c6565b60006040518083038186803b15801561084257600080fd5b505af4158015610856573d6000803e3d6000fd5b5050505060038360405161086a9190611505565b9081526020016040518091039020604051806040016040528084815260200183815250908060018154018082558091505060019003906000526020600020906002020160009091909190915060008201518160000190816108cb919061179e565b5060208201518160010190816108e1919061179e565b505050505050565b828054828255906000526020600020908101928215610925579160200282015b82811115610924578251825591602001919060010190610909565b5b509050610932919061098f565b5090565b82805482825590600052602060002090810192821561097e579160200282015b8281111561097d57825182908161096d919061179e565b5091602001919060010190610956565b5b50905061098b91906109ac565b5090565b5b808211156109a8576000816000905550600101610990565b5090565b5b808211156109cc57600081816109c391906109d0565b506001016109ad565b5090565b5080546109dc9061154b565b6000825580601f106109ee5750610a0d565b601f016020900490600052602060002090810190610a0c9190610a10565b5b50565b5b80821115610a29576000816000905550600101610a11565b5090565b6000604051905090565b600080fd5b600080fd5b600080fd5b600080fd5b6000601f19601f8301169050919050565b7f4e487b7100000000000000000000000000000000000000000000000000000000600052604160045260246000fd5b610a9482610a4b565b810181811067ffffffffffffffff82111715610ab357610ab2610a5c565b5b80604052505050565b6000610ac6610a2d565b9050610ad28282610a8b565b919050565b600067ffffffffffffffff821115610af257610af1610a5c565b5b610afb82610a4b565b9050602081019050919050565b82818337600083830152505050565b6000610b2a610b2584610ad7565b610abc565b905082815260208101848484011115610b4657610b45610a46565b5b610b51848285610b08565b509392505050565b600082601f830112610b6e57610b6d610a41565b5b8135610b7e848260208601610b17565b91505092915050565b600067ffffffffffffffff821115610ba257610ba1610a5c565b5b602082029050602081019050919050565b600080fd5b6000819050919050565b610bcb81610bb8565b8114610bd657600080fd5b50565b600081359050610be881610bc2565b92915050565b6000610c01610bfc84610b87565b610abc565b90508083825260208201905060208402830185811115610c2457610c23610bb3565b5b835b81811015610c4d5780610c398882610bd9565b845260208401935050602081019050610c26565b5050509392505050565b600082601f830112610c6c57610c6b610a41565b5b8135610c7c848260208601610bee565b91505092915050565b60008060408385031215610c9c57610c9b610a37565b5b600083013567ffffffffffffffff811115610cba57610cb9610a3c565b5b610cc685828601610b59565b925050602083013567ffffffffffffffff811115610ce757610ce6610a3c565b5b610cf385828601610c57565b9150509250929050565b600067ffffffffffffffff821115610d1857610d17610a5c565b5b602082029050602081019050919050565b6000610d3c610d3784610cfd565b610abc565b90508083825260208201905060208402830185811115610d5f57610d5e610bb3565b5b835b81811015610da657803567ffffffffffffffff811115610d8457610d83610a41565b5b808601610d918982610b59565b85526020850194505050602081019050610d61565b5050509392505050565b600082601f830112610dc557610dc4610a41565b5b8135610dd5848260208601610d29565b91505092915050565b60008060408385031215610df557610df4610a37565b5b600083013567ffffffffffffffff811115610e1357610e12610a3c565b5b610e1f85828601610b59565b925050602083013567ffffffffffffffff811115610e4057610e3f610a3c565b5b610e4c85828601610db0565b9150509250929050565b600060208284031215610e6c57610e6b610a37565b5b600082013567ffffffffffffffff811115610e8a57610e89610a3c565b5b610e9684828501610b59565b91505092915050565b600081519050919050565b600082825260208201905092915050565b6000819050602082019050919050565b600081519050919050565b600082825260208201905092915050565b60005b83811015610f05578082015181840152602081019050610eea565b60008484015250505050565b6000610f1c82610ecb565b610f268185610ed6565b9350610f36818560208601610ee7565b610f3f81610a4b565b840191505092915050565b60006040830160008301518482036000860152610f678282610f11565b91505060208301518482036020860152610f818282610f11565b9150508091505092915050565b6000610f9a8383610f4a565b905092915050565b6000602082019050919050565b6000610fba82610e9f565b610fc48185610eaa565b935083602082028501610fd685610ebb565b8060005b858110156110125784840389528151610ff38582610f8e565b9450610ffe83610fa2565b925060208a01995050600181019050610fda565b50829750879550505050505092915050565b6000602082019050818103600083015261103e8184610faf565b905092915050565b600081519050919050565b600082825260208201905092915050565b6000819050602082019050919050565b61107b81610bb8565b82525050565b60006040830160008301516110996000860182611072565b50602083015184820360208601526110b18282610f11565b9150508091505092915050565b60006110ca8383611081565b905092915050565b6000602082019050919050565b60006110ea82611046565b6110f48185611051565b93508360208202850161110685611062565b8060005b85811015611142578484038952815161112385826110be565b945061112e836110d2565b925060208a0199505060018101905061110a565b50829750879550505050505092915050565b6000602082019050818103600083015261116e81846110df565b905092915050565b600081519050919050565b600082825260208201905092915050565b6000819050602082019050919050565b60006111ae8383610f11565b905092915050565b6000602082019050919050565b60006111ce82611176565b6111d88185611181565b9350836020820285016111ea85611192565b8060005b85811015611226578484038952815161120785826111a2565b9450611212836111b6565b925060208a019950506001810190506111ee565b50829750879550505050505092915050565b6000602082019050818103600083015261125281846111c3565b905092915050565b600081519050919050565b600082825260208201905092915050565b6000819050602082019050919050565b60006112928383611072565b60208301905092915050565b6000602082019050919050565b60006112b68261125a565b6112c08185611265565b93506112cb83611276565b8060005b838110156112fc5781516112e38882611286565b97506112ee8361129e565b9250506001810190506112cf565b5085935050505092915050565b6000602082019050818103600083015261132381846112ab565b905092915050565b60008060006060848603121561134457611343610a37565b5b600084013567ffffffffffffffff81111561136257611361610a3c565b5b61136e86828701610b59565b935050602061137f86828701610bd9565b925050604084013567ffffffffffffffff8111156113a05761139f610a3c565b5b6113ac86828701610b59565b9150509250925092565b600082825260208201905092915050565b60006113d282610ecb565b6113dc81856113b6565b93506113ec818560208601610ee7565b6113f581610a4b565b840191505092915050565b6000602082019050818103600083015261141a81846113c7565b905092915050565b60008060006060848603121561143b5761143a610a37565b5b600084013567ffffffffffffffff81111561145957611458610a3c565b5b61146586828701610b59565b935050602084013567ffffffffffffffff81111561148657611485610a3c565b5b61149286828701610b59565b925050604084013567ffffffffffffffff8111156114b3576114b2610a3c565b5b6114bf86828701610b59565b9150509250925092565b600081905092915050565b60006114df82610ecb565b6114e981856114c9565b93506114f9818560208601610ee7565b80840191505092915050565b600061151182846114d4565b915081905092915050565b7f4e487b7100000000000000000000000000000000000000000000000000000000600052602260045260246000fd5b6000600282049050600182168061156357607f821691505b6020821081036115765761157561151c565b5b50919050565b600082825260208201905092915050565b600061159882610ecb565b6115a2818561157c565b93506115b2818560208601610ee7565b6115bb81610a4b565b840191505092915050565b600060208201905081810360008301526115e0818461158d565b905092915050565b60008190508160005260206000209050919050565b60006020601f8301049050919050565b600082821b905092915050565b60006008830261164a7fffffffffffffffffffffffffffffffffffffffffffffffffffffffffffffffff8261160d565b611654868361160d565b95508019841693508086168417925050509392505050565b6000819050919050565b6000819050919050565b600061169b6116966116918461166c565b611676565b61166c565b9050919050565b6000819050919050565b6116b583611680565b6116c96116c1826116a2565b84845461161a565b825550505050565b600090565b6116de6116d1565b6116e98184846116ac565b505050565b5b8181101561170d576117026000826116d6565b6001810190506116ef565b5050565b601f82111561175257611723816115e8565b61172c846115fd565b8101602085101561173b578190505b61174f611747856115fd565b8301826116ee565b50505b505050565b600082821c905092915050565b600061177560001984600802611757565b1980831691505092915050565b600061178e8383611764565b9150826002028217905092915050565b6117a782610ecb565b67ffffffffffffffff8111156117c0576117bf610a5c565b5b6117ca825461154b565b6117d5828285611711565b600060209050601f83116001811461180857600084156117f6578287015190505b6118008582611782565b865550611868565b601f198416611816866115e8565b60005b8281101561183e57848901518255600182019150602085019450602081019050611819565b8683101561185b5784890151611857601f891682611764565b8355505b6001600288020188555050505b50505050505056fea2646970667358221220206cd99c3e009f65f8699f789debd2a92131dcb878162efea4fbb59f621ad1dc64736f6c6343000811003360806040526000600660006101000a81548160ff021916908360028111156200002d576200002c6200007e565b5b02179055503480156200003f57600080fd5b50604051620024f7380380620024f7833981810160405281019062000065919062000240565b8060049081620000769190620004dc565b5050620005c3565b7f4e487b7100000000000000000000000000000000000000000000000000000000600052602160045260246000fd5b6000604051905090565b600080fd5b600080fd5b600080fd5b600080fd5b6000601f19601f8301169050919050565b7f4e487b7100000000000000000000000000000000000000000000000000000000600052604160045260246000fd5b6200011682620000cb565b810181811067ffffffffffffffff82111715620001385762000137620000dc565b5b80604052505050565b60006200014d620000ad565b90506200015b82826200010b565b919050565b600067ffffffffffffffff8211156200017e576200017d620000dc565b5b6200018982620000cb565b9050602081019050919050565b60005b83811015620001b657808201518184015260208101905062000199565b60008484015250505050565b6000620001d9620001d38462000160565b62000141565b905082815260208101848484011115620001f857620001f7620000c6565b5b6200020584828562000196565b509392505050565b600082601f830112620002255762000224620000c1565b5b815162000237848260208601620001c2565b91505092915050565b600060208284031215620002595762000258620000b7565b5b600082015167ffffffffffffffff8111156200027a5762000279620000bc565b5b62000288848285016200020d565b91505092915050565b600081519050919050565b7f4e487b7100000000000000000000000000000000000000000000000000000000600052602260045260246000fd5b60006002820490506001821680620002e457607f821691505b602082108103620002fa57620002f96200029c565b5b50919050565b60008190508160005260206000209050919050565b60006020601f8301049050919050565b600082821b905092915050565b600060088302620003647fffffffffffffffffffffffffffffffffffffffffffffffffffffffffffffffff8262000325565b62000370868362000325565b95508019841693508086168417925050509392505050565b6000819050919050565b6000819050919050565b6000620003bd620003b7620003b18462000388565b62000392565b62000388565b9050919050565b6000819050919050565b620003d9836200039c565b620003f1620003e882620003c4565b84845462000332565b825550505050565b600090565b62000408620003f9565b62000415818484620003ce565b505050565b5b818110156200043d5762000431600082620003fe565b6001810190506200041b565b5050565b601f8211156200048c57620004568162000300565b620004618462000315565b8101602085101562000471578190505b62000489620004808562000315565b8301826200041a565b50505b505050565b600082821c905092915050565b6000620004b16000198460080262000491565b1980831691505092915050565b6000620004cc83836200049e565b9150826002028217905092915050565b620004e78262000291565b67ffffffffffffffff811115620005035762000502620000dc565b5b6200050f8254620002cb565b6200051c82828562000441565b600060209050601f8311600181146200055457600084156200053f578287015190505b6200054b8582620004be565b865550620005bb565b601f198416620005648662000300565b60005b828110156200058e5784890151825560018201915060208501945060208101905062000567565b86831015620005ae5784890151620005aa601f8916826200049e565b8355505b6001600288020188555050505b505050505050565b611f2480620005d36000396000f3fe608060405234801561001057600080fd5b50600436106101005760003560e01c8063682fead511610097578063af640d0f11610066578063af640d0f146102a9578063be9a6555146102c7578063df1cb17c146102d1578063e6dbf46c146102ed57610100565b8063682fead5146102115780638702a8481461024157806396a043d514610271578063a20612ec1461028d57610100565b8063405504fa116100d3578063405504fa146101655780634298b5c81461018157806357884749146101b15780635e9cbc54146101e157610100565b806307da68f51461010557806319d037621461010f5780633b45d0a81461012d5780633f5b5bcf14610149575b600080fd5b61010d61031d565b005b61011761034a565b6040516101249190610e9b565b60405180910390f35b6101476004803603810190610142919061110e565b610388565b005b610163600480360381019061015e9190611267565b6103bf565b005b61017f600480360381019061017a919061133d565b6103f6565b005b61019b6004803603810190610196919061136a565b610513565b6040516101a89190611538565b60405180910390f35b6101cb60048036038101906101c6919061133d565b6106b4565b6040516101d89190610e9b565b60405180910390f35b6101fb60048036038101906101f6919061136a565b6106ec565b6040516102089190611668565b60405180910390f35b61022b6004803603810190610226919061136a565b610805565b604051610238919061174c565b60405180910390f35b61025b6004803603810190610256919061136a565b6108fc565b604051610268919061181d565b60405180910390f35b61028b6004803603810190610286919061133d565b610972565b005b6102a760048036038101906102a2919061183f565b6109dd565b005b6102b1610ac7565b6040516102be9190611914565b60405180910390f35b6102cf610b55565b005b6102eb60048036038101906102e69190611936565b610b82565b005b6103076004803603810190610302919061133d565b610c78565b6040516103149190611a54565b60405180910390f35b6002600660006101000a81548160ff02191690836002811115610343576103426119dd565b5b0217905550565b6000600160028111156103605761035f6119dd565b5b600660009054906101000a900460ff166002811115610382576103816119dd565b5b14905090565b806000836040516103999190611aab565b908152602001604051809103902090805190602001906103ba929190610d3c565b505050565b806001836040516103d09190611aab565b908152602001604051809103902090805190602001906103f1929190610d89565b505050565b600280811115610409576104086119dd565b5b600560008373ffffffffffffffffffffffffffffffffffffffff1673ffffffffffffffffffffffffffffffffffffffff16815260200190815260200160002060009054906101000a900460ff166002811115610468576104676119dd565b5b146104a8576040517f08c379a000000000000000000000000000000000000000000000000000000000815260040161049f90611b0e565b60405180910390fd5b6001600560008373ffffffffffffffffffffffffffffffffffffffff1673ffffffffffffffffffffffffffffffffffffffff16815260200190815260200160002060006101000a81548160ff0219169083600281111561050b5761050a6119dd565b5b021790555050565b60606003826040516105259190611aab565b9081526020016040518091039020805480602002602001604051908101604052809291908181526020016000905b828210156106a9578382906000526020600020906002020160405180604001604052908160008201805461058690611b5d565b80601f01602080910402602001604051908101604052809291908181526020018280546105b290611b5d565b80156105ff5780601f106105d4576101008083540402835291602001916105ff565b820191906000526020600020905b8154815290600101906020018083116105e257829003601f168201915b5050505050815260200160018201805461061890611b5d565b80601f016020809104026020016040519081016040528092919081815260200182805461064490611b5d565b80156106915780601f1061066657610100808354040283529160200191610691565b820191906000526020600020905b81548152906001019060200180831161067457829003601f168201915b50505050508152505081526020019060010190610553565b505050509050919050565b60006002808111156106c9576106c86119dd565b5b6106d283610c78565b60028111156106e4576106e36119dd565b5b149050919050565b60606002826040516106fe9190611aab565b9081526020016040518091039020805480602002602001604051908101604052809291908181526020016000905b828210156107fa57838290600052602060002090600202016040518060400160405290816000820154815260200160018201805461076990611b5d565b80601f016020809104026020016040519081016040528092919081815260200182805461079590611b5d565b80156107e25780601f106107b7576101008083540402835291602001916107e2565b820191906000526020600020905b8154815290600101906020018083116107c557829003601f168201915b5050505050815250508152602001906001019061072c565b505050509050919050565b60606001826040516108179190611aab565b9081526020016040518091039020805480602002602001604051908101604052809291908181526020016000905b828210156108f157838290600052602060002001805461086490611b5d565b80601f016020809104026020016040519081016040528092919081815260200182805461089090611b5d565b80156108dd5780601f106108b2576101008083540402835291602001916108dd565b820191906000526020600020905b8154815290600101906020018083116108c057829003601f168201915b505050505081526020019060010190610845565b505050509050919050565b606060008260405161090e9190611aab565b908152602001604051809103902080548060200260200160405190810160405280929190818152602001828054801561096657602002820191906000526020600020905b815481526020019060010190808311610952575b50505050509050919050565b6002600560008373ffffffffffffffffffffffffffffffffffffffff1673ffffffffffffffffffffffffffffffffffffffff16815260200190815260200160002060006101000a81548160ff021916908360028111156109d5576109d46119dd565b5b021790555050565b73__ValidationLib_________________________630cba4347826040518263ffffffff1660e01b8152600401610a149190611bd8565b60006040518083038186803b158015610a2c57600080fd5b505af4158015610a40573d6000803e3d6000fd5b50505050600283604051610a549190611aab565b90815260200160405180910390206040518060400160405280848152602001838152509080600181540180825580915050600190039060005260206000209060020201600090919091909150600082015181600001556020820151816001019081610abf9190611db0565b505050505050565b60048054610ad490611b5d565b80601f0160208091040260200160405190810160405280929190818152602001828054610b0090611b5d565b8015610b4d5780601f10610b2257610100808354040283529160200191610b4d565b820191906000526020600020905b815481529060010190602001808311610b3057829003601f168201915b505050505081565b6001600660006101000a81548160ff02191690836002811115610b7b57610b7a6119dd565b5b0217905550565b73__ValidationLib_________________________63fb04d8ce826040518263ffffffff1660e01b8152600401610bb99190611bd8565b60006040518083038186803b158015610bd157600080fd5b505af4158015610be5573d6000803e3d6000fd5b50505050600383604051610bf99190611aab565b908152602001604051809103902060405180604001604052808481526020018381525090806001815401808255809150506001900390600052602060002090600202016000909190919091506000820151816000019081610c5a9190611db0565b506020820151816001019081610c709190611db0565b505050505050565b60008073ffffffffffffffffffffffffffffffffffffffff168273ffffffffffffffffffffffffffffffffffffffff1603610ce8576040517f08c379a0000000000000000000000000000000000000000000000000000000008152600401610cdf90611ece565b60405180910390fd5b600560008373ffffffffffffffffffffffffffffffffffffffff1673ffffffffffffffffffffffffffffffffffffffff16815260200190815260200160002060009054906101000a900460ff169050919050565b828054828255906000526020600020908101928215610d78579160200282015b82811115610d77578251825591602001919060010190610d5c565b5b509050610d859190610de2565b5090565b828054828255906000526020600020908101928215610dd1579160200282015b82811115610dd0578251829081610dc09190611db0565b5091602001919060010190610da9565b5b509050610dde9190610dff565b5090565b5b80821115610dfb576000816000905550600101610de3565b5090565b5b80821115610e1f5760008181610e169190610e23565b50600101610e00565b5090565b508054610e2f90611b5d565b6000825580601f10610e415750610e60565b601f016020900490600052602060002090810190610e5f9190610e63565b5b50565b5b80821115610e7c576000816000905550600101610e64565b5090565b60008115159050919050565b610e9581610e80565b82525050565b6000602082019050610eb06000830184610e8c565b92915050565b6000604051905090565b600080fd5b600080fd5b600080fd5b600080fd5b6000601f19601f8301169050919050565b7f4e487b7100000000000000000000000000000000000000000000000000000000600052604160045260246000fd5b610f1d82610ed4565b810181811067ffffffffffffffff82111715610f3c57610f3b610ee5565b5b80604052505050565b6000610f4f610eb6565b9050610f5b8282610f14565b919050565b600067ffffffffffffffff821115610f7b57610f7a610ee5565b5b610f8482610ed4565b9050602081019050919050565b82818337600083830152505050565b6000610fb3610fae84610f60565b610f45565b905082815260208101848484011115610fcf57610fce610ecf565b5b610fda848285610f91565b509392505050565b600082601f830112610ff757610ff6610eca565b5b8135611007848260208601610fa0565b91505092915050565b600067ffffffffffffffff82111561102b5761102a610ee5565b5b602082029050602081019050919050565b600080fd5b6000819050919050565b61105481611041565b811461105f57600080fd5b50565b6000813590506110718161104b565b92915050565b600061108a61108584611010565b610f45565b905080838252602082019050602084028301858111156110ad576110ac61103c565b5b835b818110156110d657806110c28882611062565b8452602084019350506020810190506110af565b5050509392505050565b600082601f8301126110f5576110f4610eca565b5b8135611105848260208601611077565b91505092915050565b6000806040838503121561112557611124610ec0565b5b600083013567ffffffffffffffff81111561114357611142610ec5565b5b61114f85828601610fe2565b925050602083013567ffffffffffffffff8111156111705761116f610ec5565b5b61117c858286016110e0565b9150509250929050565b600067ffffffffffffffff8211156111a1576111a0610ee5565b5b602082029050602081019050919050565b60006111c56111c084611186565b610f45565b905080838252602082019050602084028301858111156111e8576111e761103c565b5b835b8181101561122f57803567ffffffffffffffff81111561120d5761120c610eca565b5b80860161121a8982610fe2565b855260208501945050506020810190506111ea565b5050509392505050565b600082601f83011261124e5761124d610eca565b5b813561125e8482602086016111b2565b91505092915050565b6000806040838503121561127e5761127d610ec0565b5b600083013567ffffffffffffffff81111561129c5761129b610ec5565b5b6112a885828601610fe2565b925050602083013567ffffffffffffffff8111156112c9576112c8610ec5565b5b6112d585828601611239565b9150509250929050565b600073ffffffffffffffffffffffffffffffffffffffff82169050919050565b600061130a826112df565b9050919050565b61131a816112ff565b811461132557600080fd5b50565b60008135905061133781611311565b92915050565b60006020828403121561135357611352610ec0565b5b600061136184828501611328565b91505092915050565b6000602082840312156113805761137f610ec0565b5b600082013567ffffffffffffffff81111561139e5761139d610ec5565b5b6113aa84828501610fe2565b91505092915050565b600081519050919050565b600082825260208201905092915050565b6000819050602082019050919050565b600081519050919050565b600082825260208201905092915050565b60005b838110156114195780820151818401526020810190506113fe565b60008484015250505050565b6000611430826113df565b61143a81856113ea565b935061144a8185602086016113fb565b61145381610ed4565b840191505092915050565b6000604083016000830151848203600086015261147b8282611425565b915050602083015184820360208601526114958282611425565b9150508091505092915050565b60006114ae838361145e565b905092915050565b6000602082019050919050565b60006114ce826113b3565b6114d881856113be565b9350836020820285016114ea856113cf565b8060005b85811015611526578484038952815161150785826114a2565b9450611512836114b6565b925060208a019950506001810190506114ee565b50829750879550505050505092915050565b6000602082019050818103600083015261155281846114c3565b905092915050565b600081519050919050565b600082825260208201905092915050565b6000819050602082019050919050565b61158f81611041565b82525050565b60006040830160008301516115ad6000860182611586565b50602083015184820360208601526115c58282611425565b9150508091505092915050565b60006115de8383611595565b905092915050565b6000602082019050919050565b60006115fe8261155a565b6116088185611565565b93508360208202850161161a85611576565b8060005b85811015611656578484038952815161163785826115d2565b9450611642836115e6565b925060208a0199505060018101905061161e565b50829750879550505050505092915050565b6000602082019050818103600083015261168281846115f3565b905092915050565b600081519050919050565b600082825260208201905092915050565b6000819050602082019050919050565b60006116c28383611425565b905092915050565b6000602082019050919050565b60006116e28261168a565b6116ec8185611695565b9350836020820285016116fe856116a6565b8060005b8581101561173a578484038952815161171b85826116b6565b9450611726836116ca565b925060208a01995050600181019050611702565b50829750879550505050505092915050565b6000602082019050818103600083015261176681846116d7565b905092915050565b600081519050919050565b600082825260208201905092915050565b6000819050602082019050919050565b60006117a68383611586565b60208301905092915050565b6000602082019050919050565b60006117ca8261176e565b6117d48185611779565b93506117df8361178a565b8060005b838110156118105781516117f7888261179a565b9750611802836117b2565b9250506001810190506117e3565b5085935050505092915050565b6000602082019050818103600083015261183781846117bf565b905092915050565b60008060006060848603121561185857611857610ec0565b5b600084013567ffffffffffffffff81111561187657611875610ec5565b5b61188286828701610fe2565b935050602061189386828701611062565b925050604084013567ffffffffffffffff8111156118b4576118b3610ec5565b5b6118c086828701610fe2565b9150509250925092565b600082825260208201905092915050565b60006118e6826113df565b6118f081856118ca565b93506119008185602086016113fb565b61190981610ed4565b840191505092915050565b6000602082019050818103600083015261192e81846118db565b905092915050565b60008060006060848603121561194f5761194e610ec0565b5b600084013567ffffffffffffffff81111561196d5761196c610ec5565b5b61197986828701610fe2565b935050602084013567ffffffffffffffff81111561199a57611999610ec5565b5b6119a686828701610fe2565b925050604084013567ffffffffffffffff8111156119c7576119c6610ec5565b5b6119d386828701610fe2565b9150509250925092565b7f4e487b7100000000000000000000000000000000000000000000000000000000600052602160045260246000fd5b60038110611a1d57611a1c6119dd565b5b50565b6000819050611a2e82611a0c565b919050565b6000611a3e82611a20565b9050919050565b611a4e81611a33565b82525050565b6000602082019050611a696000830184611a45565b92915050565b600081905092915050565b6000611a85826113df565b611a8f8185611a6f565b9350611a9f8185602086016113fb565b80840191505092915050565b6000611ab78284611a7a565b915081905092915050565b7f506c61796572206e6f7420416374697665000000000000000000000000000000600082015250565b6000611af86011836118ca565b9150611b0382611ac2565b602082019050919050565b60006020820190508181036000830152611b2781611aeb565b9050919050565b7f4e487b7100000000000000000000000000000000000000000000000000000000600052602260045260246000fd5b60006002820490506001821680611b7557607f821691505b602082108103611b8857611b87611b2e565b5b50919050565b600082825260208201905092915050565b6000611baa826113df565b611bb48185611b8e565b9350611bc48185602086016113fb565b611bcd81610ed4565b840191505092915050565b60006020820190508181036000830152611bf28184611b9f565b905092915050565b60008190508160005260206000209050919050565b60006020601f8301049050919050565b600082821b905092915050565b600060088302611c5c7fffffffffffffffffffffffffffffffffffffffffffffffffffffffffffffffff82611c1f565b611c668683611c1f565b95508019841693508086168417925050509392505050565b6000819050919050565b6000819050919050565b6000611cad611ca8611ca384611c7e565b611c88565b611c7e565b9050919050565b6000819050919050565b611cc783611c92565b611cdb611cd382611cb4565b848454611c2c565b825550505050565b600090565b611cf0611ce3565b611cfb818484611cbe565b505050565b5b81811015611d1f57611d14600082611ce8565b600181019050611d01565b5050565b601f821115611d6457611d3581611bfa565b611d3e84611c0f565b81016020851015611d4d578190505b611d61611d5985611c0f565b830182611d00565b50505b505050565b600082821c905092915050565b6000611d8760001984600802611d69565b1980831691505092915050565b6000611da08383611d76565b9150826002028217905092915050565b611db9826113df565b67ffffffffffffffff811115611dd257611dd1610ee5565b5b611ddc8254611b5d565b611de7828285611d23565b600060209050601f831160018114611e1a5760008415611e08578287015190505b611e128582611d94565b865550611e7a565b601f198416611e2886611bfa565b60005b82811015611e5057848901518255600182019150602085019450602081019050611e2b565b86831015611e6d5784890151611e69601f891682611d76565b8355505b6001600288020188555050505b505050505050565b7f506c6179657220444e4500000000000000000000000000000000000000000000600082015250565b6000611eb8600a836118ca565b9150611ec382611e82565b602082019050919050565b60006020820190508181036000830152611ee781611eab565b905091905056fea264697066735822122027a993f5a3efc43225720c6de9db52ae86bd9bbf604163af7e5894c7e8b7e46664736f6c63430008110033a2646970667358221220f706dc7c5ce65d2961efabf699f1d96d60615dd1b86a738ce7fed030e16e0e5464736f6c63430008110033",
  "immutableReferences": {},
  "source": "// SPDX-License-Identifier: MIT\npragma solidity >=0.4.22 <0.9.0;\nimport \"./Session.sol\";\nimport \"./Player.sol\";\nimport \"./SessionHandler.sol\";\nimport \"./ValidationLib.sol\";\n\ncontract AntiCheat {\n    SessionHandler public session_handler;\n\n    constructor() {\n        session_handler = new SessionHandler();\n    }\n\n    function validate_and_update_session_int_data(\n        string memory session_id,\n        string memory key,\n        int[] memory data\n    ) public {\n        Session session = Session(session_handler.get_session(session_id));\n        if (!ValidationLib.validate_int(\n            session.get_int_validation_rules(key), data)\n        ) {\n            session.stop();\n            revert(\"Session flagged\");\n        }\n        session.update_int_data(key, data);\n    }\n\n    function validate_and_update_session_string_data(\n        string memory session_id,\n        string memory key,\n        string[] memory data\n    ) public {\n        Session session = Session(session_handler.get_session(session_id));\n        if (!ValidationLib.validate_string(\n            session.get_string_validation_rules(key), data)\n        ) {\n            session.stop();\n            revert(\"Session flagged\");\n        }\n        session.update_string_data(key, data);\n    }\n\n}\n",
  "sourcePath": "/mnt/d/documents/blockchain-testing/BC_Anticheat/contracts/AntiCheat.sol",
  "compiler": {
    "name": "solc",
    "version": "0.8.17+commit.8df45f5f.Emscripten.clang"
  },
  "schemaVersion": "3.4.11",
  "updatedAt": "2023-03-18T07:28:55.271Z",
  "networkType": "ethereum",
  "devdoc": {
    "kind": "dev",
    "methods": {},
    "version": 1
  },
  "userdoc": {
    "kind": "user",
    "methods": {},
    "version": 1
  }
}