{
  "contractName": "DataHandler",
  "abi": [
    {
      "inputs": [
        {
          "internalType": "string",
          "name": "key",
          "type": "string"
        },
        {
          "internalType": "int256[]",
          "name": "data",
          "type": "int256[]"
        }
      ],
      "name": "update_int_data",
      "outputs": [],
      "stateMutability": "nonpayable",
      "type": "function"
    },
    {
      "inputs": [
        {
          "internalType": "string",
          "name": "key",
          "type": "string"
        },
        {
          "internalType": "string[]",
          "name": "data",
          "type": "string[]"
        }
      ],
      "name": "update_string_data",
      "outputs": [],
      "stateMutability": "nonpayable",
      "type": "function"
    },
    {
      "inputs": [
        {
          "internalType": "string",
          "name": "key",
          "type": "string"
        },
        {
          "internalType": "int256",
          "name": "val",
          "type": "int256"
        },
        {
          "internalType": "string",
          "name": "operand",
          "type": "string"
        }
      ],
      "name": "add_int_validation_rule",
      "outputs": [],
      "stateMutability": "nonpayable",
      "type": "function"
    },
    {
      "inputs": [
        {
          "internalType": "string",
          "name": "key",
          "type": "string"
        },
        {
          "internalType": "string",
          "name": "val",
          "type": "string"
        },
        {
          "internalType": "string",
          "name": "operand",
          "type": "string"
        }
      ],
      "name": "add_string_validation_rule",
      "outputs": [],
      "stateMutability": "nonpayable",
      "type": "function"
    },
    {
      "inputs": [
        {
          "internalType": "string",
          "name": "key",
          "type": "string"
        }
      ],
      "name": "get_int_data",
      "outputs": [
        {
          "internalType": "int256[]",
          "name": "",
          "type": "int256[]"
        }
      ],
      "stateMutability": "view",
      "type": "function"
    },
    {
      "inputs": [
        {
          "internalType": "string",
          "name": "key",
          "type": "string"
        }
      ],
      "name": "get_string_data",
      "outputs": [
        {
          "internalType": "string[]",
          "name": "",
          "type": "string[]"
        }
      ],
      "stateMutability": "view",
      "type": "function"
    },
    {
      "inputs": [
        {
          "internalType": "string",
          "name": "key",
          "type": "string"
        }
      ],
      "name": "get_int_validation_rules",
      "outputs": [
        {
          "components": [
            {
              "internalType": "int256",
              "name": "val",
              "type": "int256"
            },
            {
              "internalType": "string",
              "name": "operand",
              "type": "string"
            }
          ],
          "internalType": "struct ValidationRulesLib.IntValidationRule[]",
          "name": "",
          "type": "tuple[]"
        }
      ],
      "stateMutability": "view",
      "type": "function"
    },
    {
      "inputs": [
        {
          "internalType": "string",
          "name": "key",
          "type": "string"
        }
      ],
      "name": "get_string_validation_rules",
      "outputs": [
        {
          "components": [
            {
              "internalType": "string",
              "name": "val",
              "type": "string"
            },
            {
              "internalType": "string",
              "name": "operand",
              "type": "string"
            }
          ],
          "internalType": "struct ValidationRulesLib.StringValidationRule[]",
          "name": "",
          "type": "tuple[]"
        }
      ],
      "stateMutability": "view",
      "type": "function"
    }
  ],
  "bytecode": "0x608060405234801561001057600080fd5b50611893806100206000396000f3fe608060405234801561001057600080fd5b50600436106100885760003560e01c8063682fead51161005b578063682fead5146101255780638702a84814610155578063a20612ec14610185578063df1cb17c146101a157610088565b80633b45d0a81461008d5780633f5b5bcf146100a95780634298b5c8146100c55780635e9cbc54146100f5575b600080fd5b6100a760048036038101906100a29190610c61565b6101bd565b005b6100c360048036038101906100be9190610dba565b6101f4565b005b6100df60048036038101906100da9190610e32565b61022b565b6040516100ec9190611000565b60405180910390f35b61010f600480360381019061010a9190610e32565b6103cc565b60405161011c9190611130565b60405180910390f35b61013f600480360381019061013a9190610e32565b6104e5565b60405161014c9190611214565b60405180910390f35b61016f600480360381019061016a9190610e32565b610626565b60405161017c91906112e5565b60405180910390f35b61019f600480360381019061019a9190611307565b6106e5565b005b6101bb60048036038101906101b69190611392565b6107cf565b005b806000836040516101ce9190611475565b908152602001604051809103902090805190602001906101ef9291906108c5565b505050565b806001836040516102059190611475565b90815260200160405180910390209080519060200190610226929190610912565b505050565b606060038260405161023d9190611475565b9081526020016040518091039020805480602002602001604051908101604052809291908181526020016000905b828210156103c1578382906000526020600020906002020160405180604001604052908160008201805461029e906114bb565b80601f01602080910402602001604051908101604052809291908181526020018280546102ca906114bb565b80156103175780601f106102ec57610100808354040283529160200191610317565b820191906000526020600020905b8154815290600101906020018083116102fa57829003601f168201915b50505050508152602001600182018054610330906114bb565b80601f016020809104026020016040519081016040528092919081815260200182805461035c906114bb565b80156103a95780601f1061037e576101008083540402835291602001916103a9565b820191906000526020600020905b81548152906001019060200180831161038c57829003601f168201915b5050505050815250508152602001906001019061026b565b505050509050919050565b60606002826040516103de9190611475565b9081526020016040518091039020805480602002602001604051908101604052809291908181526020016000905b828210156104da578382906000526020600020906002020160405180604001604052908160008201548152602001600182018054610449906114bb565b80601f0160208091040260200160405190810160405280929190818152602001828054610475906114bb565b80156104c25780601f10610497576101008083540402835291602001916104c2565b820191906000526020600020905b8154815290600101906020018083116104a557829003601f168201915b5050505050815250508152602001906001019061040c565b505050509050919050565b606060006001836040516104f99190611475565b9081526020016040518091039020805480602002602001604051908101604052809291908181526020016000905b828210156105d3578382906000526020600020018054610546906114bb565b80601f0160208091040260200160405190810160405280929190818152602001828054610572906114bb565b80156105bf5780601f10610594576101008083540402835291602001916105bf565b820191906000526020600020905b8154815290600101906020018083116105a257829003601f168201915b505050505081526020019060010190610527565b505050509050600081510361061d576040517f08c379a000000000000000000000000000000000000000000000000000000000815260040161061490611549565b60405180910390fd5b80915050919050565b6060600080836040516106399190611475565b908152602001604051809103902080548060200260200160405190810160405280929190818152602001828054801561069157602002820191906000526020600020905b81548152602001906001019080831161067d575b5050505050905060008151036106dc576040517f08c379a00000000000000000000000000000000000000000000000000000000081526004016106d390611549565b60405180910390fd5b80915050919050565b73__ValidationLib_________________________630cba4347826040518263ffffffff1660e01b815260040161071c91906115b3565b60006040518083038186803b15801561073457600080fd5b505af4158015610748573d6000803e3d6000fd5b5050505060028360405161075c9190611475565b908152602001604051809103902060405180604001604052808481526020018381525090806001815401808255809150506001900390600052602060002090600202016000909190919091506000820151816000015560208201518160010190816107c7919061178b565b505050505050565b73__ValidationLib_________________________63fb04d8ce826040518263ffffffff1660e01b815260040161080691906115b3565b60006040518083038186803b15801561081e57600080fd5b505af4158015610832573d6000803e3d6000fd5b505050506003836040516108469190611475565b9081526020016040518091039020604051806040016040528084815260200183815250908060018154018082558091505060019003906000526020600020906002020160009091909190915060008201518160000190816108a7919061178b565b5060208201518160010190816108bd919061178b565b505050505050565b828054828255906000526020600020908101928215610901579160200282015b828111156109005782518255916020019190600101906108e5565b5b50905061090e919061096b565b5090565b82805482825590600052602060002090810192821561095a579160200282015b82811115610959578251829081610949919061178b565b5091602001919060010190610932565b5b5090506109679190610988565b5090565b5b8082111561098457600081600090555060010161096c565b5090565b5b808211156109a8576000818161099f91906109ac565b50600101610989565b5090565b5080546109b8906114bb565b6000825580601f106109ca57506109e9565b601f0160209004906000526020600020908101906109e891906109ec565b5b50565b5b80821115610a055760008160009055506001016109ed565b5090565b6000604051905090565b600080fd5b600080fd5b600080fd5b600080fd5b6000601f19601f8301169050919050565b7f4e487b7100000000000000000000000000000000000000000000000000000000600052604160045260246000fd5b610a7082610a27565b810181811067ffffffffffffffff82111715610a8f57610a8e610a38565b5b80604052505050565b6000610aa2610a09565b9050610aae8282610a67565b919050565b600067ffffffffffffffff821115610ace57610acd610a38565b5b610ad782610a27565b9050602081019050919050565b82818337600083830152505050565b6000610b06610b0184610ab3565b610a98565b905082815260208101848484011115610b2257610b21610a22565b5b610b2d848285610ae4565b509392505050565b600082601f830112610b4a57610b49610a1d565b5b8135610b5a848260208601610af3565b91505092915050565b600067ffffffffffffffff821115610b7e57610b7d610a38565b5b602082029050602081019050919050565b600080fd5b6000819050919050565b610ba781610b94565b8114610bb257600080fd5b50565b600081359050610bc481610b9e565b92915050565b6000610bdd610bd884610b63565b610a98565b90508083825260208201905060208402830185811115610c0057610bff610b8f565b5b835b81811015610c295780610c158882610bb5565b845260208401935050602081019050610c02565b5050509392505050565b600082601f830112610c4857610c47610a1d565b5b8135610c58848260208601610bca565b91505092915050565b60008060408385031215610c7857610c77610a13565b5b600083013567ffffffffffffffff811115610c9657610c95610a18565b5b610ca285828601610b35565b925050602083013567ffffffffffffffff811115610cc357610cc2610a18565b5b610ccf85828601610c33565b9150509250929050565b600067ffffffffffffffff821115610cf457610cf3610a38565b5b602082029050602081019050919050565b6000610d18610d1384610cd9565b610a98565b90508083825260208201905060208402830185811115610d3b57610d3a610b8f565b5b835b81811015610d8257803567ffffffffffffffff811115610d6057610d5f610a1d565b5b808601610d6d8982610b35565b85526020850194505050602081019050610d3d565b5050509392505050565b600082601f830112610da157610da0610a1d565b5b8135610db1848260208601610d05565b91505092915050565b60008060408385031215610dd157610dd0610a13565b5b600083013567ffffffffffffffff811115610def57610dee610a18565b5b610dfb85828601610b35565b925050602083013567ffffffffffffffff811115610e1c57610e1b610a18565b5b610e2885828601610d8c565b9150509250929050565b600060208284031215610e4857610e47610a13565b5b600082013567ffffffffffffffff811115610e6657610e65610a18565b5b610e7284828501610b35565b91505092915050565b600081519050919050565b600082825260208201905092915050565b6000819050602082019050919050565b600081519050919050565b600082825260208201905092915050565b60005b83811015610ee1578082015181840152602081019050610ec6565b60008484015250505050565b6000610ef882610ea7565b610f028185610eb2565b9350610f12818560208601610ec3565b610f1b81610a27565b840191505092915050565b60006040830160008301518482036000860152610f438282610eed565b91505060208301518482036020860152610f5d8282610eed565b9150508091505092915050565b6000610f768383610f26565b905092915050565b6000602082019050919050565b6000610f9682610e7b565b610fa08185610e86565b935083602082028501610fb285610e97565b8060005b85811015610fee5784840389528151610fcf8582610f6a565b9450610fda83610f7e565b925060208a01995050600181019050610fb6565b50829750879550505050505092915050565b6000602082019050818103600083015261101a8184610f8b565b905092915050565b600081519050919050565b600082825260208201905092915050565b6000819050602082019050919050565b61105781610b94565b82525050565b6000604083016000830151611075600086018261104e565b506020830151848203602086015261108d8282610eed565b9150508091505092915050565b60006110a6838361105d565b905092915050565b6000602082019050919050565b60006110c682611022565b6110d0818561102d565b9350836020820285016110e28561103e565b8060005b8581101561111e57848403895281516110ff858261109a565b945061110a836110ae565b925060208a019950506001810190506110e6565b50829750879550505050505092915050565b6000602082019050818103600083015261114a81846110bb565b905092915050565b600081519050919050565b600082825260208201905092915050565b6000819050602082019050919050565b600061118a8383610eed565b905092915050565b6000602082019050919050565b60006111aa82611152565b6111b4818561115d565b9350836020820285016111c68561116e565b8060005b8581101561120257848403895281516111e3858261117e565b94506111ee83611192565b925060208a019950506001810190506111ca565b50829750879550505050505092915050565b6000602082019050818103600083015261122e818461119f565b905092915050565b600081519050919050565b600082825260208201905092915050565b6000819050602082019050919050565b600061126e838361104e565b60208301905092915050565b6000602082019050919050565b600061129282611236565b61129c8185611241565b93506112a783611252565b8060005b838110156112d85781516112bf8882611262565b97506112ca8361127a565b9250506001810190506112ab565b5085935050505092915050565b600060208201905081810360008301526112ff8184611287565b905092915050565b6000806000606084860312156113205761131f610a13565b5b600084013567ffffffffffffffff81111561133e5761133d610a18565b5b61134a86828701610b35565b935050602061135b86828701610bb5565b925050604084013567ffffffffffffffff81111561137c5761137b610a18565b5b61138886828701610b35565b9150509250925092565b6000806000606084860312156113ab576113aa610a13565b5b600084013567ffffffffffffffff8111156113c9576113c8610a18565b5b6113d586828701610b35565b935050602084013567ffffffffffffffff8111156113f6576113f5610a18565b5b61140286828701610b35565b925050604084013567ffffffffffffffff81111561142357611422610a18565b5b61142f86828701610b35565b9150509250925092565b600081905092915050565b600061144f82610ea7565b6114598185611439565b9350611469818560208601610ec3565b80840191505092915050565b60006114818284611444565b915081905092915050565b7f4e487b7100000000000000000000000000000000000000000000000000000000600052602260045260246000fd5b600060028204905060018216806114d357607f821691505b6020821081036114e6576114e561148c565b5b50919050565b600082825260208201905092915050565b7f4b657920444e4500000000000000000000000000000000000000000000000000600082015250565b60006115336007836114ec565b915061153e826114fd565b602082019050919050565b6000602082019050818103600083015261156281611526565b9050919050565b600082825260208201905092915050565b600061158582610ea7565b61158f8185611569565b935061159f818560208601610ec3565b6115a881610a27565b840191505092915050565b600060208201905081810360008301526115cd818461157a565b905092915050565b60008190508160005260206000209050919050565b60006020601f8301049050919050565b600082821b905092915050565b6000600883026116377fffffffffffffffffffffffffffffffffffffffffffffffffffffffffffffffff826115fa565b61164186836115fa565b95508019841693508086168417925050509392505050565b6000819050919050565b6000819050919050565b600061168861168361167e84611659565b611663565b611659565b9050919050565b6000819050919050565b6116a28361166d565b6116b66116ae8261168f565b848454611607565b825550505050565b600090565b6116cb6116be565b6116d6818484611699565b505050565b5b818110156116fa576116ef6000826116c3565b6001810190506116dc565b5050565b601f82111561173f57611710816115d5565b611719846115ea565b81016020851015611728578190505b61173c611734856115ea565b8301826116db565b50505b505050565b600082821c905092915050565b600061176260001984600802611744565b1980831691505092915050565b600061177b8383611751565b9150826002028217905092915050565b61179482610ea7565b67ffffffffffffffff8111156117ad576117ac610a38565b5b6117b782546114bb565b6117c28282856116fe565b600060209050601f8311600181146117f557600084156117e3578287015190505b6117ed858261176f565b865550611855565b601f198416611803866115d5565b60005b8281101561182b57848901518255600182019150602085019450602081019050611806565b868310156118485784890151611844601f891682611751565b8355505b6001600288020188555050505b50505050505056fea26469706673582212207087174a28a76df31217975282725b17a3fc4a9e920198efecf8d9d1bbd642b564736f6c63430008110033",
  "immutableReferences": {},
  "source": "// SPDX-License-Identifier: MIT\npragma solidity >=0.4.22 <0.9.0;\n\nimport \"./ValidationRulesLib.sol\";\nimport \"./ValidationLib.sol\";\n\ncontract DataHandler {\n    mapping(string => int[]) int_data;\n    mapping(string => string[]) string_data;\n    mapping(\n        string => ValidationRulesLib.IntValidationRule[]\n    ) int_validation_rules;\n    mapping(\n        string => ValidationRulesLib.StringValidationRule[]\n    ) string_validation_rules;\n\n    function update_int_data(string memory key, int[] memory data) public {\n        int_data[key] = data;\n    }\n    function update_string_data(string memory key, string[] memory data) public {\n        string_data[key] = data;\n    }\n    function add_int_validation_rule(string memory key, int val, string memory operand) public {\n        ValidationLib.validate_int_operand(operand);\n        int_validation_rules[key].push(\n            ValidationRulesLib.IntValidationRule({\n                val: val, operand: operand\n            })\n        );\n    }\n    function add_string_validation_rule(string memory key, string memory val, string memory operand) public {\n        ValidationLib.validate_string_operand(operand);\n        string_validation_rules[key].push(\n            ValidationRulesLib.StringValidationRule({\n                val: val, operand: operand\n            })\n        );\n    }\n\n    function get_int_data(string memory key) public view returns (int[] memory) {\n        int[] memory data = int_data[key];\n        if (data.length == 0) {\n            revert(\"Key DNE\");\n        }\n        return data;\n        // return int_data[key];\n    }\n    function get_string_data(string memory key) public view returns (string[] memory) {\n        string[] memory data = string_data[key];\n        if (data.length == 0) {\n            revert(\"Key DNE\");\n        }\n        return data;\n        // return string_data[key];\n    }\n    function get_int_validation_rules(string memory key) public view\n    returns (ValidationRulesLib.IntValidationRule[] memory) {\n        return int_validation_rules[key];\n    }\n    function get_string_validation_rules(string memory key) public view\n    returns (ValidationRulesLib.StringValidationRule[] memory) {\n        return string_validation_rules[key];\n    }\n}\n",
  "sourcePath": "/mnt/d/documents/blockchain-testing/BC_Anticheat/contracts/DataHandler.sol",
  "compiler": {
    "name": "solc",
    "version": "0.8.17+commit.8df45f5f.Emscripten.clang"
  },
  "schemaVersion": "3.4.11",
  "updatedAt": "2023-03-23T05:50:57.601Z",
  "networkType": "ethereum",
  "devdoc": {
    "kind": "dev",
    "methods": {},
    "version": 1
  },
  "userdoc": {
    "kind": "user",
    "methods": {},
    "version": 1
  }
}