{
  "contractName": "DataHandler",
  "abi": [
    {
      "inputs": [
        {
          "internalType": "string",
          "name": "key",
          "type": "string"
        },
        {
          "internalType": "int256[]",
          "name": "data",
          "type": "int256[]"
        }
      ],
      "name": "update_int_data",
      "outputs": [],
      "stateMutability": "nonpayable",
      "type": "function"
    },
    {
      "inputs": [
        {
          "internalType": "string",
          "name": "key",
          "type": "string"
        },
        {
          "internalType": "string[]",
          "name": "data",
          "type": "string[]"
        }
      ],
      "name": "update_string_data",
      "outputs": [],
      "stateMutability": "nonpayable",
      "type": "function"
    },
    {
      "inputs": [
        {
          "internalType": "string",
          "name": "key",
          "type": "string"
        },
        {
          "internalType": "int256",
          "name": "val",
          "type": "int256"
        },
        {
          "internalType": "string",
          "name": "operand",
          "type": "string"
        }
      ],
      "name": "add_int_validation_rule",
      "outputs": [],
      "stateMutability": "nonpayable",
      "type": "function"
    },
    {
      "inputs": [
        {
          "internalType": "string",
          "name": "key",
          "type": "string"
        },
        {
          "internalType": "string",
          "name": "val",
          "type": "string"
        },
        {
          "internalType": "string",
          "name": "operand",
          "type": "string"
        }
      ],
      "name": "add_string_validation_rule",
      "outputs": [],
      "stateMutability": "nonpayable",
      "type": "function"
    },
    {
      "inputs": [
        {
          "internalType": "string",
          "name": "key",
          "type": "string"
        }
      ],
      "name": "get_int_data",
      "outputs": [
        {
          "internalType": "int256[]",
          "name": "",
          "type": "int256[]"
        }
      ],
      "stateMutability": "view",
      "type": "function"
    },
    {
      "inputs": [
        {
          "internalType": "string",
          "name": "key",
          "type": "string"
        }
      ],
      "name": "get_string_data",
      "outputs": [
        {
          "internalType": "string[]",
          "name": "",
          "type": "string[]"
        }
      ],
      "stateMutability": "view",
      "type": "function"
    },
    {
      "inputs": [
        {
          "internalType": "string",
          "name": "key",
          "type": "string"
        }
      ],
      "name": "get_int_validation_rules",
      "outputs": [
        {
          "components": [
            {
              "internalType": "int256",
              "name": "val",
              "type": "int256"
            },
            {
              "internalType": "string",
              "name": "operand",
              "type": "string"
            }
          ],
          "internalType": "struct ValidationRulesLib.IntValidationRule[]",
          "name": "",
          "type": "tuple[]"
        }
      ],
      "stateMutability": "view",
      "type": "function"
    },
    {
      "inputs": [
        {
          "internalType": "string",
          "name": "key",
          "type": "string"
        }
      ],
      "name": "get_string_validation_rules",
      "outputs": [
        {
          "components": [
            {
              "internalType": "string",
              "name": "val",
              "type": "string"
            },
            {
              "internalType": "string",
              "name": "operand",
              "type": "string"
            }
          ],
          "internalType": "struct ValidationRulesLib.StringValidationRule[]",
          "name": "",
          "type": "tuple[]"
        }
      ],
      "stateMutability": "view",
      "type": "function"
    }
  ],
  "bytecode": "0x608060405234801561001057600080fd5b50611783806100206000396000f3fe608060405234801561001057600080fd5b50600436106100885760003560e01c8063682fead51161005b578063682fead5146101255780638702a84814610155578063a20612ec14610185578063df1cb17c146101a157610088565b80633b45d0a81461008d5780633f5b5bcf146100a95780634298b5c8146100c55780635e9cbc54146100f5575b600080fd5b6100a760048036038101906100a29190610bce565b6101bd565b005b6100c360048036038101906100be9190610d27565b6101f4565b005b6100df60048036038101906100da9190610d9f565b61022b565b6040516100ec9190610f6d565b60405180910390f35b61010f600480360381019061010a9190610d9f565b6103cc565b60405161011c919061109d565b60405180910390f35b61013f600480360381019061013a9190610d9f565b6104e5565b60405161014c9190611181565b60405180910390f35b61016f600480360381019061016a9190610d9f565b6105dc565b60405161017c9190611252565b60405180910390f35b61019f600480360381019061019a9190611274565b610652565b005b6101bb60048036038101906101b691906112ff565b61073c565b005b806000836040516101ce91906113e2565b908152602001604051809103902090805190602001906101ef929190610832565b505050565b8060018360405161020591906113e2565b9081526020016040518091039020908051906020019061022692919061087f565b505050565b606060038260405161023d91906113e2565b9081526020016040518091039020805480602002602001604051908101604052809291908181526020016000905b828210156103c1578382906000526020600020906002020160405180604001604052908160008201805461029e90611428565b80601f01602080910402602001604051908101604052809291908181526020018280546102ca90611428565b80156103175780601f106102ec57610100808354040283529160200191610317565b820191906000526020600020905b8154815290600101906020018083116102fa57829003601f168201915b5050505050815260200160018201805461033090611428565b80601f016020809104026020016040519081016040528092919081815260200182805461035c90611428565b80156103a95780601f1061037e576101008083540402835291602001916103a9565b820191906000526020600020905b81548152906001019060200180831161038c57829003601f168201915b5050505050815250508152602001906001019061026b565b505050509050919050565b60606002826040516103de91906113e2565b9081526020016040518091039020805480602002602001604051908101604052809291908181526020016000905b828210156104da57838290600052602060002090600202016040518060400160405290816000820154815260200160018201805461044990611428565b80601f016020809104026020016040519081016040528092919081815260200182805461047590611428565b80156104c25780601f10610497576101008083540402835291602001916104c2565b820191906000526020600020905b8154815290600101906020018083116104a557829003601f168201915b5050505050815250508152602001906001019061040c565b505050509050919050565b60606001826040516104f791906113e2565b9081526020016040518091039020805480602002602001604051908101604052809291908181526020016000905b828210156105d157838290600052602060002001805461054490611428565b80601f016020809104026020016040519081016040528092919081815260200182805461057090611428565b80156105bd5780601f10610592576101008083540402835291602001916105bd565b820191906000526020600020905b8154815290600101906020018083116105a057829003601f168201915b505050505081526020019060010190610525565b505050509050919050565b60606000826040516105ee91906113e2565b908152602001604051809103902080548060200260200160405190810160405280929190818152602001828054801561064657602002820191906000526020600020905b815481526020019060010190808311610632575b50505050509050919050565b73__ValidationLib_________________________630cba4347826040518263ffffffff1660e01b815260040161068991906114a3565b60006040518083038186803b1580156106a157600080fd5b505af41580156106b5573d6000803e3d6000fd5b505050506002836040516106c991906113e2565b90815260200160405180910390206040518060400160405280848152602001838152509080600181540180825580915050600190039060005260206000209060020201600090919091909150600082015181600001556020820151816001019081610734919061167b565b505050505050565b73__ValidationLib_________________________63fb04d8ce826040518263ffffffff1660e01b815260040161077391906114a3565b60006040518083038186803b15801561078b57600080fd5b505af415801561079f573d6000803e3d6000fd5b505050506003836040516107b391906113e2565b908152602001604051809103902060405180604001604052808481526020018381525090806001815401808255809150506001900390600052602060002090600202016000909190919091506000820151816000019081610814919061167b565b50602082015181600101908161082a919061167b565b505050505050565b82805482825590600052602060002090810192821561086e579160200282015b8281111561086d578251825591602001919060010190610852565b5b50905061087b91906108d8565b5090565b8280548282559060005260206000209081019282156108c7579160200282015b828111156108c65782518290816108b6919061167b565b509160200191906001019061089f565b5b5090506108d491906108f5565b5090565b5b808211156108f15760008160009055506001016108d9565b5090565b5b80821115610915576000818161090c9190610919565b506001016108f6565b5090565b50805461092590611428565b6000825580601f106109375750610956565b601f0160209004906000526020600020908101906109559190610959565b5b50565b5b8082111561097257600081600090555060010161095a565b5090565b6000604051905090565b600080fd5b600080fd5b600080fd5b600080fd5b6000601f19601f8301169050919050565b7f4e487b7100000000000000000000000000000000000000000000000000000000600052604160045260246000fd5b6109dd82610994565b810181811067ffffffffffffffff821117156109fc576109fb6109a5565b5b80604052505050565b6000610a0f610976565b9050610a1b82826109d4565b919050565b600067ffffffffffffffff821115610a3b57610a3a6109a5565b5b610a4482610994565b9050602081019050919050565b82818337600083830152505050565b6000610a73610a6e84610a20565b610a05565b905082815260208101848484011115610a8f57610a8e61098f565b5b610a9a848285610a51565b509392505050565b600082601f830112610ab757610ab661098a565b5b8135610ac7848260208601610a60565b91505092915050565b600067ffffffffffffffff821115610aeb57610aea6109a5565b5b602082029050602081019050919050565b600080fd5b6000819050919050565b610b1481610b01565b8114610b1f57600080fd5b50565b600081359050610b3181610b0b565b92915050565b6000610b4a610b4584610ad0565b610a05565b90508083825260208201905060208402830185811115610b6d57610b6c610afc565b5b835b81811015610b965780610b828882610b22565b845260208401935050602081019050610b6f565b5050509392505050565b600082601f830112610bb557610bb461098a565b5b8135610bc5848260208601610b37565b91505092915050565b60008060408385031215610be557610be4610980565b5b600083013567ffffffffffffffff811115610c0357610c02610985565b5b610c0f85828601610aa2565b925050602083013567ffffffffffffffff811115610c3057610c2f610985565b5b610c3c85828601610ba0565b9150509250929050565b600067ffffffffffffffff821115610c6157610c606109a5565b5b602082029050602081019050919050565b6000610c85610c8084610c46565b610a05565b90508083825260208201905060208402830185811115610ca857610ca7610afc565b5b835b81811015610cef57803567ffffffffffffffff811115610ccd57610ccc61098a565b5b808601610cda8982610aa2565b85526020850194505050602081019050610caa565b5050509392505050565b600082601f830112610d0e57610d0d61098a565b5b8135610d1e848260208601610c72565b91505092915050565b60008060408385031215610d3e57610d3d610980565b5b600083013567ffffffffffffffff811115610d5c57610d5b610985565b5b610d6885828601610aa2565b925050602083013567ffffffffffffffff811115610d8957610d88610985565b5b610d9585828601610cf9565b9150509250929050565b600060208284031215610db557610db4610980565b5b600082013567ffffffffffffffff811115610dd357610dd2610985565b5b610ddf84828501610aa2565b91505092915050565b600081519050919050565b600082825260208201905092915050565b6000819050602082019050919050565b600081519050919050565b600082825260208201905092915050565b60005b83811015610e4e578082015181840152602081019050610e33565b60008484015250505050565b6000610e6582610e14565b610e6f8185610e1f565b9350610e7f818560208601610e30565b610e8881610994565b840191505092915050565b60006040830160008301518482036000860152610eb08282610e5a565b91505060208301518482036020860152610eca8282610e5a565b9150508091505092915050565b6000610ee38383610e93565b905092915050565b6000602082019050919050565b6000610f0382610de8565b610f0d8185610df3565b935083602082028501610f1f85610e04565b8060005b85811015610f5b5784840389528151610f3c8582610ed7565b9450610f4783610eeb565b925060208a01995050600181019050610f23565b50829750879550505050505092915050565b60006020820190508181036000830152610f878184610ef8565b905092915050565b600081519050919050565b600082825260208201905092915050565b6000819050602082019050919050565b610fc481610b01565b82525050565b6000604083016000830151610fe26000860182610fbb565b5060208301518482036020860152610ffa8282610e5a565b9150508091505092915050565b60006110138383610fca565b905092915050565b6000602082019050919050565b600061103382610f8f565b61103d8185610f9a565b93508360208202850161104f85610fab565b8060005b8581101561108b578484038952815161106c8582611007565b94506110778361101b565b925060208a01995050600181019050611053565b50829750879550505050505092915050565b600060208201905081810360008301526110b78184611028565b905092915050565b600081519050919050565b600082825260208201905092915050565b6000819050602082019050919050565b60006110f78383610e5a565b905092915050565b6000602082019050919050565b6000611117826110bf565b61112181856110ca565b935083602082028501611133856110db565b8060005b8581101561116f578484038952815161115085826110eb565b945061115b836110ff565b925060208a01995050600181019050611137565b50829750879550505050505092915050565b6000602082019050818103600083015261119b818461110c565b905092915050565b600081519050919050565b600082825260208201905092915050565b6000819050602082019050919050565b60006111db8383610fbb565b60208301905092915050565b6000602082019050919050565b60006111ff826111a3565b61120981856111ae565b9350611214836111bf565b8060005b8381101561124557815161122c88826111cf565b9750611237836111e7565b925050600181019050611218565b5085935050505092915050565b6000602082019050818103600083015261126c81846111f4565b905092915050565b60008060006060848603121561128d5761128c610980565b5b600084013567ffffffffffffffff8111156112ab576112aa610985565b5b6112b786828701610aa2565b93505060206112c886828701610b22565b925050604084013567ffffffffffffffff8111156112e9576112e8610985565b5b6112f586828701610aa2565b9150509250925092565b60008060006060848603121561131857611317610980565b5b600084013567ffffffffffffffff81111561133657611335610985565b5b61134286828701610aa2565b935050602084013567ffffffffffffffff81111561136357611362610985565b5b61136f86828701610aa2565b925050604084013567ffffffffffffffff8111156113905761138f610985565b5b61139c86828701610aa2565b9150509250925092565b600081905092915050565b60006113bc82610e14565b6113c681856113a6565b93506113d6818560208601610e30565b80840191505092915050565b60006113ee82846113b1565b915081905092915050565b7f4e487b7100000000000000000000000000000000000000000000000000000000600052602260045260246000fd5b6000600282049050600182168061144057607f821691505b602082108103611453576114526113f9565b5b50919050565b600082825260208201905092915050565b600061147582610e14565b61147f8185611459565b935061148f818560208601610e30565b61149881610994565b840191505092915050565b600060208201905081810360008301526114bd818461146a565b905092915050565b60008190508160005260206000209050919050565b60006020601f8301049050919050565b600082821b905092915050565b6000600883026115277fffffffffffffffffffffffffffffffffffffffffffffffffffffffffffffffff826114ea565b61153186836114ea565b95508019841693508086168417925050509392505050565b6000819050919050565b6000819050919050565b600061157861157361156e84611549565b611553565b611549565b9050919050565b6000819050919050565b6115928361155d565b6115a661159e8261157f565b8484546114f7565b825550505050565b600090565b6115bb6115ae565b6115c6818484611589565b505050565b5b818110156115ea576115df6000826115b3565b6001810190506115cc565b5050565b601f82111561162f57611600816114c5565b611609846114da565b81016020851015611618578190505b61162c611624856114da565b8301826115cb565b50505b505050565b600082821c905092915050565b600061165260001984600802611634565b1980831691505092915050565b600061166b8383611641565b9150826002028217905092915050565b61168482610e14565b67ffffffffffffffff81111561169d5761169c6109a5565b5b6116a78254611428565b6116b28282856115ee565b600060209050601f8311600181146116e557600084156116d3578287015190505b6116dd858261165f565b865550611745565b601f1984166116f3866114c5565b60005b8281101561171b578489015182556001820191506020850194506020810190506116f6565b868310156117385784890151611734601f891682611641565b8355505b6001600288020188555050505b50505050505056fea2646970667358221220fd026b4fcf505313100f0b4e4d1790125beeb73fdafc717969453fb06decacce64736f6c63430008110033",
  "immutableReferences": {},
  "source": "// SPDX-License-Identifier: MIT\npragma solidity >=0.4.22 <0.9.0;\n\nimport \"./ValidationRulesLib.sol\";\nimport \"./ValidationLib.sol\";\n\ncontract DataHandler {\n    mapping(string => int[]) int_data;\n    mapping(string => string[]) string_data;\n    mapping(\n        string => ValidationRulesLib.IntValidationRule[]\n    ) int_validation_rules;\n    mapping(\n        string => ValidationRulesLib.StringValidationRule[]\n    ) string_validation_rules;\n\n    function update_int_data(string memory key, int[] memory data) public {\n        int_data[key] = data;\n    }\n    function update_string_data(string memory key, string[] memory data) public {\n        string_data[key] = data;\n    }\n    function add_int_validation_rule(string memory key, int val, string memory operand) public {\n        ValidationLib.validate_int_operand(operand);\n        int_validation_rules[key].push(\n            ValidationRulesLib.IntValidationRule({\n                val: val, operand: operand\n            })\n        );\n    }\n    function add_string_validation_rule(string memory key, string memory val, string memory operand) public {\n        ValidationLib.validate_string_operand(operand);\n        string_validation_rules[key].push(\n            ValidationRulesLib.StringValidationRule({\n                val: val, operand: operand\n            })\n        );\n    }\n\n    function get_int_data(string memory key) public view returns (int[] memory) {\n        // int[] memory data = int_data[key];\n        // if (data.length == 0) {\n        //     revert(\"Key DNE\");\n        // }\n        // return data;\n        return int_data[key];\n    }\n    function get_string_data(string memory key) public view returns (string[] memory) {\n        // string[] memory data = string_data[key];\n        // if (data.length == 0) {\n        //     revert(\"Key DNE\");\n        // }\n        // return data;\n        return string_data[key];\n    }\n    function get_int_validation_rules(string memory key) public view\n    returns (ValidationRulesLib.IntValidationRule[] memory) {\n        return int_validation_rules[key];\n    }\n    function get_string_validation_rules(string memory key) public view\n    returns (ValidationRulesLib.StringValidationRule[] memory) {\n        return string_validation_rules[key];\n    }\n}\n",
  "sourcePath": "/mnt/d/documents/blockchain-testing/BC_Anticheat/contracts/DataHandler.sol",
  "compiler": {
    "name": "solc",
    "version": "0.8.17+commit.8df45f5f.Emscripten.clang"
  },
  "schemaVersion": "3.4.11",
  "updatedAt": "2023-03-18T08:22:44.517Z",
  "networkType": "ethereum",
  "devdoc": {
    "kind": "dev",
    "methods": {},
    "version": 1
  },
  "userdoc": {
    "kind": "user",
    "methods": {},
    "version": 1
  }
}