{
  "contractName": "OperandsLib",
  "abi": [
    {
      "inputs": [
        {
          "internalType": "string",
          "name": "a",
          "type": "string"
        },
        {
          "internalType": "string",
          "name": "b",
          "type": "string"
        }
      ],
      "name": "compareStrings",
      "outputs": [
        {
          "internalType": "bool",
          "name": "",
          "type": "bool"
        }
      ],
      "stateMutability": "pure",
      "type": "function",
      "constant": true
    },
    {
      "inputs": [
        {
          "internalType": "string",
          "name": "op",
          "type": "string"
        }
      ],
      "name": "validate_operand",
      "outputs": [],
      "stateMutability": "pure",
      "type": "function",
      "constant": true
    },
    {
      "inputs": [
        {
          "internalType": "string",
          "name": "op",
          "type": "string"
        }
      ],
      "name": "validate_array_operand",
      "outputs": [],
      "stateMutability": "pure",
      "type": "function",
      "constant": true
    }
  ],
  "bytecode": "0x61074d610053600b82828239805160001a607314610046577f4e487b7100000000000000000000000000000000000000000000000000000000600052600060045260246000fd5b30600052607381538281f3fe730000000000000000000000000000000000000000301460806040526004361061004b5760003560e01c8063bed34bba14610050578063cf0f2c1014610080578063f5569e2a1461009c575b600080fd5b61006a6004803603810190610065919061051b565b6100b8565b60405161007791906105ae565b60405180910390f35b61009a600480360381019061009591906105c9565b610111565b005b6100b660048036038101906100b191906105c9565b6102f7565b005b6000816040516020016100cb9190610683565b60405160208183030381529060405280519060200120836040516020016100f29190610683565b6040516020818303038152906040528051906020012014905092915050565b610150816040518060400160405280600281526020017f65710000000000000000000000000000000000000000000000000000000000008152506100b8565b15806101985750610196816040518060400160405280600281526020017f6e650000000000000000000000000000000000000000000000000000000000008152506100b8565b155b806101df57506101dd816040518060400160405280600281526020017f6c740000000000000000000000000000000000000000000000000000000000008152506100b8565b155b806102265750610224816040518060400160405280600281526020017f67740000000000000000000000000000000000000000000000000000000000008152506100b8565b155b8061026d575061026b816040518060400160405280600381526020017f6c746500000000000000000000000000000000000000000000000000000000008152506100b8565b155b806102b457506102b2816040518060400160405280600381526020017f67746500000000000000000000000000000000000000000000000000000000008152506100b8565b155b156102f4576040517f08c379a00000000000000000000000000000000000000000000000000000000081526004016102eb906106f7565b60405180910390fd5b50565b610336816040518060400160405280600481526020017f6973696e000000000000000000000000000000000000000000000000000000008152506100b8565b158061037e575061037c816040518060400160405280600581526020017f6e6973696e0000000000000000000000000000000000000000000000000000008152506100b8565b155b156103be576040517f08c379a00000000000000000000000000000000000000000000000000000000081526004016103b5906106f7565b60405180910390fd5b50565b6000604051905090565b600080fd5b600080fd5b600080fd5b600080fd5b6000601f19601f8301169050919050565b7f4e487b7100000000000000000000000000000000000000000000000000000000600052604160045260246000fd5b610428826103df565b810181811067ffffffffffffffff82111715610447576104466103f0565b5b80604052505050565b600061045a6103c1565b9050610466828261041f565b919050565b600067ffffffffffffffff821115610486576104856103f0565b5b61048f826103df565b9050602081019050919050565b82818337600083830152505050565b60006104be6104b98461046b565b610450565b9050828152602081018484840111156104da576104d96103da565b5b6104e584828561049c565b509392505050565b600082601f830112610502576105016103d5565b5b81356105128482602086016104ab565b91505092915050565b60008060408385031215610532576105316103cb565b5b600083013567ffffffffffffffff8111156105505761054f6103d0565b5b61055c858286016104ed565b925050602083013567ffffffffffffffff81111561057d5761057c6103d0565b5b610589858286016104ed565b9150509250929050565b60008115159050919050565b6105a881610593565b82525050565b60006020820190506105c3600083018461059f565b92915050565b6000602082840312156105df576105de6103cb565b5b600082013567ffffffffffffffff8111156105fd576105fc6103d0565b5b610609848285016104ed565b91505092915050565b600081519050919050565b600081905092915050565b60005b8381101561064657808201518184015260208101905061062b565b60008484015250505050565b600061065d82610612565b610667818561061d565b9350610677818560208601610628565b80840191505092915050565b600061068f8284610652565b915081905092915050565b600082825260208201905092915050565b7f496e76616c6964206f706572616e642e00000000000000000000000000000000600082015250565b60006106e160108361069a565b91506106ec826106ab565b602082019050919050565b60006020820190508181036000830152610710816106d4565b905091905056fea26469706673582212204085d7ba156230165044b6968db245904f385421373e584edecfc6d571ac21f664736f6c63430008110033",
  "immutableReferences": {},
  "source": "// SPDX-License-Identifier: MIT\npragma solidity >=0.4.22 <0.9.0;\n\nlibrary OperandsLib {\n    function compareStrings(string memory a, string memory b) public pure returns (bool) {\n        return (keccak256(abi.encodePacked((a))) == keccak256(abi.encodePacked((b))));\n    }\n\n    function validate_operand(string memory op) public pure {\n        if (!compareStrings(op, \"eq\") ||\n            !compareStrings(op, \"ne\") ||\n            !compareStrings(op, \"lt\") ||\n            !compareStrings(op, \"gt\") ||\n            !compareStrings(op, \"lte\") ||\n            !compareStrings(op, \"gte\")\n        ) {\n            revert(\"Invalid operand.\");\n        }\n    }\n\n    function validate_array_operand(string memory op) public pure {\n        if (!compareStrings(op, \"isin\") ||\n            !compareStrings(op, \"nisin\")\n        ) {\n            revert(\"Invalid operand.\");\n        }\n    }\n}\n",
  "sourcePath": "/mnt/d/documents/blockchain-testing/BC_Anticheat/contracts/OperandsLib.sol",
  "compiler": {
    "name": "solc",
    "version": "0.8.17+commit.8df45f5f.Emscripten.clang"
  },
  "schemaVersion": "3.4.11",
  "updatedAt": "2023-03-14T07:08:53.100Z",
  "networkType": "ethereum",
  "devdoc": {
    "kind": "dev",
    "methods": {},
    "version": 1
  },
  "userdoc": {
    "kind": "user",
    "methods": {},
    "version": 1
  }
}