{
  "contractName": "Player",
  "abi": [
    {
      "inputs": [
        {
          "internalType": "string",
          "name": "assigned_id",
          "type": "string"
        }
      ],
      "stateMutability": "nonpayable",
      "type": "constructor"
    },
    {
      "inputs": [
        {
          "internalType": "string",
          "name": "key",
          "type": "string"
        },
        {
          "internalType": "int256",
          "name": "val",
          "type": "int256"
        },
        {
          "internalType": "string",
          "name": "operand",
          "type": "string"
        }
      ],
      "name": "add_int_validation_rule",
      "outputs": [],
      "stateMutability": "nonpayable",
      "type": "function"
    },
    {
      "inputs": [
        {
          "internalType": "string",
          "name": "key",
          "type": "string"
        },
        {
          "internalType": "string",
          "name": "val",
          "type": "string"
        },
        {
          "internalType": "string",
          "name": "operand",
          "type": "string"
        }
      ],
      "name": "add_string_validation_rule",
      "outputs": [],
      "stateMutability": "nonpayable",
      "type": "function"
    },
    {
      "inputs": [
        {
          "internalType": "string",
          "name": "key",
          "type": "string"
        }
      ],
      "name": "get_int_data",
      "outputs": [
        {
          "internalType": "int256[]",
          "name": "",
          "type": "int256[]"
        }
      ],
      "stateMutability": "view",
      "type": "function"
    },
    {
      "inputs": [
        {
          "internalType": "string",
          "name": "key",
          "type": "string"
        }
      ],
      "name": "get_int_validation_rules",
      "outputs": [
        {
          "components": [
            {
              "internalType": "int256",
              "name": "val",
              "type": "int256"
            },
            {
              "internalType": "string",
              "name": "operand",
              "type": "string"
            }
          ],
          "internalType": "struct ValidationRulesLib.IntValidationRule[]",
          "name": "",
          "type": "tuple[]"
        }
      ],
      "stateMutability": "view",
      "type": "function"
    },
    {
      "inputs": [
        {
          "internalType": "string",
          "name": "key",
          "type": "string"
        }
      ],
      "name": "get_string_data",
      "outputs": [
        {
          "internalType": "string[]",
          "name": "",
          "type": "string[]"
        }
      ],
      "stateMutability": "view",
      "type": "function"
    },
    {
      "inputs": [
        {
          "internalType": "string",
          "name": "key",
          "type": "string"
        }
      ],
      "name": "get_string_validation_rules",
      "outputs": [
        {
          "components": [
            {
              "internalType": "string",
              "name": "val",
              "type": "string"
            },
            {
              "internalType": "string",
              "name": "operand",
              "type": "string"
            }
          ],
          "internalType": "struct ValidationRulesLib.StringValidationRule[]",
          "name": "",
          "type": "tuple[]"
        }
      ],
      "stateMutability": "view",
      "type": "function"
    },
    {
      "inputs": [],
      "name": "id",
      "outputs": [
        {
          "internalType": "string",
          "name": "",
          "type": "string"
        }
      ],
      "stateMutability": "view",
      "type": "function"
    },
    {
      "inputs": [
        {
          "internalType": "string",
          "name": "key",
          "type": "string"
        },
        {
          "internalType": "int256[]",
          "name": "data",
          "type": "int256[]"
        }
      ],
      "name": "update_int_data",
      "outputs": [],
      "stateMutability": "nonpayable",
      "type": "function"
    },
    {
      "inputs": [
        {
          "internalType": "string",
          "name": "key",
          "type": "string"
        },
        {
          "internalType": "string[]",
          "name": "data",
          "type": "string[]"
        }
      ],
      "name": "update_string_data",
      "outputs": [],
      "stateMutability": "nonpayable",
      "type": "function"
    }
  ],
  "bytecode": "0x60806040523480156200001157600080fd5b5060405162001e1c38038062001e1c8339818101604052810190620000379190620001e3565b80600490816200004891906200047f565b505062000566565b6000604051905090565b600080fd5b600080fd5b600080fd5b600080fd5b6000601f19601f8301169050919050565b7f4e487b7100000000000000000000000000000000000000000000000000000000600052604160045260246000fd5b620000b9826200006e565b810181811067ffffffffffffffff82111715620000db57620000da6200007f565b5b80604052505050565b6000620000f062000050565b9050620000fe8282620000ae565b919050565b600067ffffffffffffffff8211156200012157620001206200007f565b5b6200012c826200006e565b9050602081019050919050565b60005b83811015620001595780820151818401526020810190506200013c565b60008484015250505050565b60006200017c620001768462000103565b620000e4565b9050828152602081018484840111156200019b576200019a62000069565b5b620001a884828562000139565b509392505050565b600082601f830112620001c857620001c762000064565b5b8151620001da84826020860162000165565b91505092915050565b600060208284031215620001fc57620001fb6200005a565b5b600082015167ffffffffffffffff8111156200021d576200021c6200005f565b5b6200022b84828501620001b0565b91505092915050565b600081519050919050565b7f4e487b7100000000000000000000000000000000000000000000000000000000600052602260045260246000fd5b600060028204905060018216806200028757607f821691505b6020821081036200029d576200029c6200023f565b5b50919050565b60008190508160005260206000209050919050565b60006020601f8301049050919050565b600082821b905092915050565b600060088302620003077fffffffffffffffffffffffffffffffffffffffffffffffffffffffffffffffff82620002c8565b620003138683620002c8565b95508019841693508086168417925050509392505050565b6000819050919050565b6000819050919050565b6000620003606200035a62000354846200032b565b62000335565b6200032b565b9050919050565b6000819050919050565b6200037c836200033f565b620003946200038b8262000367565b848454620002d5565b825550505050565b600090565b620003ab6200039c565b620003b881848462000371565b505050565b5b81811015620003e057620003d4600082620003a1565b600181019050620003be565b5050565b601f8211156200042f57620003f981620002a3565b6200040484620002b8565b8101602085101562000414578190505b6200042c6200042385620002b8565b830182620003bd565b50505b505050565b600082821c905092915050565b6000620004546000198460080262000434565b1980831691505092915050565b60006200046f838362000441565b9150826002028217905092915050565b6200048a8262000234565b67ffffffffffffffff811115620004a657620004a56200007f565b5b620004b282546200026e565b620004bf828285620003e4565b600060209050601f831160018114620004f75760008415620004e2578287015190505b620004ee858262000461565b8655506200055e565b601f1984166200050786620002a3565b60005b8281101562000531578489015182556001820191506020850194506020810190506200050a565b868310156200055157848901516200054d601f89168262000441565b8355505b6001600288020188555050505b505050505050565b6118a680620005766000396000f3fe608060405234801561001057600080fd5b50600436106100935760003560e01c8063682fead511610066578063682fead5146101305780638702a84814610160578063a20612ec14610190578063af640d0f146101ac578063df1cb17c146101ca57610093565b80633b45d0a8146100985780633f5b5bcf146100b45780634298b5c8146100d05780635e9cbc5414610100575b600080fd5b6100b260048036038101906100ad9190610c85565b6101e6565b005b6100ce60048036038101906100c99190610dde565b61021d565b005b6100ea60048036038101906100e59190610e56565b610254565b6040516100f79190611024565b60405180910390f35b61011a60048036038101906101159190610e56565b6103f5565b6040516101279190611154565b60405180910390f35b61014a60048036038101906101459190610e56565b61050e565b6040516101579190611238565b60405180910390f35b61017a60048036038101906101759190610e56565b610605565b6040516101879190611309565b60405180910390f35b6101aa60048036038101906101a5919061132b565b61067b565b005b6101b4610765565b6040516101c19190611400565b60405180910390f35b6101e460048036038101906101df9190611422565b6107f3565b005b806000836040516101f79190611505565b908152602001604051809103902090805190602001906102189291906108e9565b505050565b8060018360405161022e9190611505565b9081526020016040518091039020908051906020019061024f929190610936565b505050565b60606003826040516102669190611505565b9081526020016040518091039020805480602002602001604051908101604052809291908181526020016000905b828210156103ea57838290600052602060002090600202016040518060400160405290816000820180546102c79061154b565b80601f01602080910402602001604051908101604052809291908181526020018280546102f39061154b565b80156103405780601f1061031557610100808354040283529160200191610340565b820191906000526020600020905b81548152906001019060200180831161032357829003601f168201915b505050505081526020016001820180546103599061154b565b80601f01602080910402602001604051908101604052809291908181526020018280546103859061154b565b80156103d25780601f106103a7576101008083540402835291602001916103d2565b820191906000526020600020905b8154815290600101906020018083116103b557829003601f168201915b50505050508152505081526020019060010190610294565b505050509050919050565b60606002826040516104079190611505565b9081526020016040518091039020805480602002602001604051908101604052809291908181526020016000905b828210156105035783829060005260206000209060020201604051806040016040529081600082015481526020016001820180546104729061154b565b80601f016020809104026020016040519081016040528092919081815260200182805461049e9061154b565b80156104eb5780601f106104c0576101008083540402835291602001916104eb565b820191906000526020600020905b8154815290600101906020018083116104ce57829003601f168201915b50505050508152505081526020019060010190610435565b505050509050919050565b60606001826040516105209190611505565b9081526020016040518091039020805480602002602001604051908101604052809291908181526020016000905b828210156105fa57838290600052602060002001805461056d9061154b565b80601f01602080910402602001604051908101604052809291908181526020018280546105999061154b565b80156105e65780601f106105bb576101008083540402835291602001916105e6565b820191906000526020600020905b8154815290600101906020018083116105c957829003601f168201915b50505050508152602001906001019061054e565b505050509050919050565b60606000826040516106179190611505565b908152602001604051809103902080548060200260200160405190810160405280929190818152602001828054801561066f57602002820191906000526020600020905b81548152602001906001019080831161065b575b50505050509050919050565b73__ValidationLib_________________________630cba4347826040518263ffffffff1660e01b81526004016106b291906115c6565b60006040518083038186803b1580156106ca57600080fd5b505af41580156106de573d6000803e3d6000fd5b505050506002836040516106f29190611505565b9081526020016040518091039020604051806040016040528084815260200183815250908060018154018082558091505060019003906000526020600020906002020160009091909190915060008201518160000155602082015181600101908161075d919061179e565b505050505050565b600480546107729061154b565b80601f016020809104026020016040519081016040528092919081815260200182805461079e9061154b565b80156107eb5780601f106107c0576101008083540402835291602001916107eb565b820191906000526020600020905b8154815290600101906020018083116107ce57829003601f168201915b505050505081565b73__ValidationLib_________________________63fb04d8ce826040518263ffffffff1660e01b815260040161082a91906115c6565b60006040518083038186803b15801561084257600080fd5b505af4158015610856573d6000803e3d6000fd5b5050505060038360405161086a9190611505565b9081526020016040518091039020604051806040016040528084815260200183815250908060018154018082558091505060019003906000526020600020906002020160009091909190915060008201518160000190816108cb919061179e565b5060208201518160010190816108e1919061179e565b505050505050565b828054828255906000526020600020908101928215610925579160200282015b82811115610924578251825591602001919060010190610909565b5b509050610932919061098f565b5090565b82805482825590600052602060002090810192821561097e579160200282015b8281111561097d57825182908161096d919061179e565b5091602001919060010190610956565b5b50905061098b91906109ac565b5090565b5b808211156109a8576000816000905550600101610990565b5090565b5b808211156109cc57600081816109c391906109d0565b506001016109ad565b5090565b5080546109dc9061154b565b6000825580601f106109ee5750610a0d565b601f016020900490600052602060002090810190610a0c9190610a10565b5b50565b5b80821115610a29576000816000905550600101610a11565b5090565b6000604051905090565b600080fd5b600080fd5b600080fd5b600080fd5b6000601f19601f8301169050919050565b7f4e487b7100000000000000000000000000000000000000000000000000000000600052604160045260246000fd5b610a9482610a4b565b810181811067ffffffffffffffff82111715610ab357610ab2610a5c565b5b80604052505050565b6000610ac6610a2d565b9050610ad28282610a8b565b919050565b600067ffffffffffffffff821115610af257610af1610a5c565b5b610afb82610a4b565b9050602081019050919050565b82818337600083830152505050565b6000610b2a610b2584610ad7565b610abc565b905082815260208101848484011115610b4657610b45610a46565b5b610b51848285610b08565b509392505050565b600082601f830112610b6e57610b6d610a41565b5b8135610b7e848260208601610b17565b91505092915050565b600067ffffffffffffffff821115610ba257610ba1610a5c565b5b602082029050602081019050919050565b600080fd5b6000819050919050565b610bcb81610bb8565b8114610bd657600080fd5b50565b600081359050610be881610bc2565b92915050565b6000610c01610bfc84610b87565b610abc565b90508083825260208201905060208402830185811115610c2457610c23610bb3565b5b835b81811015610c4d5780610c398882610bd9565b845260208401935050602081019050610c26565b5050509392505050565b600082601f830112610c6c57610c6b610a41565b5b8135610c7c848260208601610bee565b91505092915050565b60008060408385031215610c9c57610c9b610a37565b5b600083013567ffffffffffffffff811115610cba57610cb9610a3c565b5b610cc685828601610b59565b925050602083013567ffffffffffffffff811115610ce757610ce6610a3c565b5b610cf385828601610c57565b9150509250929050565b600067ffffffffffffffff821115610d1857610d17610a5c565b5b602082029050602081019050919050565b6000610d3c610d3784610cfd565b610abc565b90508083825260208201905060208402830185811115610d5f57610d5e610bb3565b5b835b81811015610da657803567ffffffffffffffff811115610d8457610d83610a41565b5b808601610d918982610b59565b85526020850194505050602081019050610d61565b5050509392505050565b600082601f830112610dc557610dc4610a41565b5b8135610dd5848260208601610d29565b91505092915050565b60008060408385031215610df557610df4610a37565b5b600083013567ffffffffffffffff811115610e1357610e12610a3c565b5b610e1f85828601610b59565b925050602083013567ffffffffffffffff811115610e4057610e3f610a3c565b5b610e4c85828601610db0565b9150509250929050565b600060208284031215610e6c57610e6b610a37565b5b600082013567ffffffffffffffff811115610e8a57610e89610a3c565b5b610e9684828501610b59565b91505092915050565b600081519050919050565b600082825260208201905092915050565b6000819050602082019050919050565b600081519050919050565b600082825260208201905092915050565b60005b83811015610f05578082015181840152602081019050610eea565b60008484015250505050565b6000610f1c82610ecb565b610f268185610ed6565b9350610f36818560208601610ee7565b610f3f81610a4b565b840191505092915050565b60006040830160008301518482036000860152610f678282610f11565b91505060208301518482036020860152610f818282610f11565b9150508091505092915050565b6000610f9a8383610f4a565b905092915050565b6000602082019050919050565b6000610fba82610e9f565b610fc48185610eaa565b935083602082028501610fd685610ebb565b8060005b858110156110125784840389528151610ff38582610f8e565b9450610ffe83610fa2565b925060208a01995050600181019050610fda565b50829750879550505050505092915050565b6000602082019050818103600083015261103e8184610faf565b905092915050565b600081519050919050565b600082825260208201905092915050565b6000819050602082019050919050565b61107b81610bb8565b82525050565b60006040830160008301516110996000860182611072565b50602083015184820360208601526110b18282610f11565b9150508091505092915050565b60006110ca8383611081565b905092915050565b6000602082019050919050565b60006110ea82611046565b6110f48185611051565b93508360208202850161110685611062565b8060005b85811015611142578484038952815161112385826110be565b945061112e836110d2565b925060208a0199505060018101905061110a565b50829750879550505050505092915050565b6000602082019050818103600083015261116e81846110df565b905092915050565b600081519050919050565b600082825260208201905092915050565b6000819050602082019050919050565b60006111ae8383610f11565b905092915050565b6000602082019050919050565b60006111ce82611176565b6111d88185611181565b9350836020820285016111ea85611192565b8060005b85811015611226578484038952815161120785826111a2565b9450611212836111b6565b925060208a019950506001810190506111ee565b50829750879550505050505092915050565b6000602082019050818103600083015261125281846111c3565b905092915050565b600081519050919050565b600082825260208201905092915050565b6000819050602082019050919050565b60006112928383611072565b60208301905092915050565b6000602082019050919050565b60006112b68261125a565b6112c08185611265565b93506112cb83611276565b8060005b838110156112fc5781516112e38882611286565b97506112ee8361129e565b9250506001810190506112cf565b5085935050505092915050565b6000602082019050818103600083015261132381846112ab565b905092915050565b60008060006060848603121561134457611343610a37565b5b600084013567ffffffffffffffff81111561136257611361610a3c565b5b61136e86828701610b59565b935050602061137f86828701610bd9565b925050604084013567ffffffffffffffff8111156113a05761139f610a3c565b5b6113ac86828701610b59565b9150509250925092565b600082825260208201905092915050565b60006113d282610ecb565b6113dc81856113b6565b93506113ec818560208601610ee7565b6113f581610a4b565b840191505092915050565b6000602082019050818103600083015261141a81846113c7565b905092915050565b60008060006060848603121561143b5761143a610a37565b5b600084013567ffffffffffffffff81111561145957611458610a3c565b5b61146586828701610b59565b935050602084013567ffffffffffffffff81111561148657611485610a3c565b5b61149286828701610b59565b925050604084013567ffffffffffffffff8111156114b3576114b2610a3c565b5b6114bf86828701610b59565b9150509250925092565b600081905092915050565b60006114df82610ecb565b6114e981856114c9565b93506114f9818560208601610ee7565b80840191505092915050565b600061151182846114d4565b915081905092915050565b7f4e487b7100000000000000000000000000000000000000000000000000000000600052602260045260246000fd5b6000600282049050600182168061156357607f821691505b6020821081036115765761157561151c565b5b50919050565b600082825260208201905092915050565b600061159882610ecb565b6115a2818561157c565b93506115b2818560208601610ee7565b6115bb81610a4b565b840191505092915050565b600060208201905081810360008301526115e0818461158d565b905092915050565b60008190508160005260206000209050919050565b60006020601f8301049050919050565b600082821b905092915050565b60006008830261164a7fffffffffffffffffffffffffffffffffffffffffffffffffffffffffffffffff8261160d565b611654868361160d565b95508019841693508086168417925050509392505050565b6000819050919050565b6000819050919050565b600061169b6116966116918461166c565b611676565b61166c565b9050919050565b6000819050919050565b6116b583611680565b6116c96116c1826116a2565b84845461161a565b825550505050565b600090565b6116de6116d1565b6116e98184846116ac565b505050565b5b8181101561170d576117026000826116d6565b6001810190506116ef565b5050565b601f82111561175257611723816115e8565b61172c846115fd565b8101602085101561173b578190505b61174f611747856115fd565b8301826116ee565b50505b505050565b600082821c905092915050565b600061177560001984600802611757565b1980831691505092915050565b600061178e8383611764565b9150826002028217905092915050565b6117a782610ecb565b67ffffffffffffffff8111156117c0576117bf610a5c565b5b6117ca825461154b565b6117d5828285611711565b600060209050601f83116001811461180857600084156117f6578287015190505b6118008582611782565b865550611868565b601f198416611816866115e8565b60005b8281101561183e57848901518255600182019150602085019450602081019050611819565b8683101561185b5784890151611857601f891682611764565b8355505b6001600288020188555050505b50505050505056fea2646970667358221220206cd99c3e009f65f8699f789debd2a92131dcb878162efea4fbb59f621ad1dc64736f6c63430008110033",
  "immutableReferences": {},
  "source": "// SPDX-License-Identifier: MIT\npragma solidity >=0.4.22 <0.9.0;\n// import \"./Session.sol\";\nimport \"./DataHandler.sol\";\n\ncontract Player is DataHandler {\n\n    string public id;\n\n    constructor(string memory assigned_id) {\n        id = assigned_id;\n    }\n}\n",
  "sourcePath": "/mnt/d/documents/blockchain-testing/BC_Anticheat/contracts/Player.sol",
  "compiler": {
    "name": "solc",
    "version": "0.8.17+commit.8df45f5f.Emscripten.clang"
  },
  "schemaVersion": "3.4.11",
  "updatedAt": "2023-03-18T07:28:50.195Z",
  "devdoc": {
    "kind": "dev",
    "methods": {},
    "version": 1
  },
  "userdoc": {
    "kind": "user",
    "methods": {},
    "version": 1
  }
}