{
  "contractName": "Session",
  "abi": [
    {
      "inputs": [
        {
          "internalType": "string",
          "name": "assigned_id",
          "type": "string"
        }
      ],
      "stateMutability": "nonpayable",
      "type": "constructor"
    },
    {
      "inputs": [],
      "name": "id",
      "outputs": [
        {
          "internalType": "string",
          "name": "",
          "type": "string"
        }
      ],
      "stateMutability": "view",
      "type": "function"
    },
    {
      "inputs": [
        {
          "internalType": "address",
          "name": "player_addr",
          "type": "address"
        }
      ],
      "name": "add_player",
      "outputs": [],
      "stateMutability": "nonpayable",
      "type": "function"
    },
    {
      "inputs": [
        {
          "internalType": "string",
          "name": "key",
          "type": "string"
        }
      ],
      "name": "get_session_bool_data",
      "outputs": [
        {
          "internalType": "bool[]",
          "name": "",
          "type": "bool[]"
        }
      ],
      "stateMutability": "view",
      "type": "function"
    },
    {
      "inputs": [
        {
          "internalType": "string",
          "name": "key",
          "type": "string"
        }
      ],
      "name": "get_session_int_data",
      "outputs": [
        {
          "internalType": "int256[]",
          "name": "",
          "type": "int256[]"
        }
      ],
      "stateMutability": "view",
      "type": "function"
    },
    {
      "inputs": [
        {
          "internalType": "string",
          "name": "key",
          "type": "string"
        }
      ],
      "name": "get_session_string_data",
      "outputs": [
        {
          "internalType": "string[]",
          "name": "",
          "type": "string[]"
        }
      ],
      "stateMutability": "view",
      "type": "function"
    },
    {
      "inputs": [
        {
          "internalType": "string",
          "name": "int_key",
          "type": "string"
        },
        {
          "internalType": "string",
          "name": "bool_key",
          "type": "string"
        },
        {
          "internalType": "string",
          "name": "string_key",
          "type": "string"
        },
        {
          "internalType": "int256[]",
          "name": "int_data",
          "type": "int256[]"
        },
        {
          "internalType": "bool[]",
          "name": "bool_data",
          "type": "bool[]"
        },
        {
          "internalType": "string[]",
          "name": "string_data",
          "type": "string[]"
        }
      ],
      "name": "update_session_data",
      "outputs": [],
      "stateMutability": "nonpayable",
      "type": "function"
    },
    {
      "inputs": [
        {
          "internalType": "string",
          "name": "key",
          "type": "string"
        },
        {
          "internalType": "int256[]",
          "name": "data",
          "type": "int256[]"
        }
      ],
      "name": "update_session_int_data",
      "outputs": [],
      "stateMutability": "nonpayable",
      "type": "function"
    },
    {
      "inputs": [
        {
          "internalType": "string",
          "name": "key",
          "type": "string"
        },
        {
          "internalType": "bool[]",
          "name": "data",
          "type": "bool[]"
        }
      ],
      "name": "update_session_bool_data",
      "outputs": [],
      "stateMutability": "nonpayable",
      "type": "function"
    },
    {
      "inputs": [
        {
          "internalType": "string",
          "name": "key",
          "type": "string"
        },
        {
          "internalType": "string[]",
          "name": "data",
          "type": "string[]"
        }
      ],
      "name": "update_session_string_data",
      "outputs": [],
      "stateMutability": "nonpayable",
      "type": "function"
    },
    {
      "inputs": [
        {
          "internalType": "string",
          "name": "key",
          "type": "string"
        },
        {
          "internalType": "int256",
          "name": "val",
          "type": "int256"
        },
        {
          "internalType": "string",
          "name": "operand",
          "type": "string"
        }
      ],
      "name": "add_session_int_validation_rule",
      "outputs": [],
      "stateMutability": "nonpayable",
      "type": "function"
    },
    {
      "inputs": [
        {
          "internalType": "string",
          "name": "key",
          "type": "string"
        },
        {
          "internalType": "bool",
          "name": "val",
          "type": "bool"
        },
        {
          "internalType": "string",
          "name": "operand",
          "type": "string"
        }
      ],
      "name": "add_session_bool_validation_rule",
      "outputs": [],
      "stateMutability": "nonpayable",
      "type": "function"
    },
    {
      "inputs": [
        {
          "internalType": "string",
          "name": "key",
          "type": "string"
        },
        {
          "internalType": "string",
          "name": "val",
          "type": "string"
        },
        {
          "internalType": "string",
          "name": "operand",
          "type": "string"
        }
      ],
      "name": "add_session_string_validation_rule",
      "outputs": [],
      "stateMutability": "nonpayable",
      "type": "function"
    },
    {
      "inputs": [
        {
          "internalType": "string",
          "name": "key",
          "type": "string"
        }
      ],
      "name": "get_session_int_validation_rules",
      "outputs": [
        {
          "components": [
            {
              "internalType": "int256",
              "name": "val",
              "type": "int256"
            },
            {
              "internalType": "string",
              "name": "operand",
              "type": "string"
            }
          ],
          "internalType": "struct ValidationRulesLib.SessionIntValidationRule[]",
          "name": "",
          "type": "tuple[]"
        }
      ],
      "stateMutability": "view",
      "type": "function"
    },
    {
      "inputs": [
        {
          "internalType": "string",
          "name": "key",
          "type": "string"
        }
      ],
      "name": "get_session_bool_validation_rules",
      "outputs": [
        {
          "components": [
            {
              "internalType": "bool",
              "name": "val",
              "type": "bool"
            },
            {
              "internalType": "string",
              "name": "operand",
              "type": "string"
            }
          ],
          "internalType": "struct ValidationRulesLib.SessionBoolValidationRule[]",
          "name": "",
          "type": "tuple[]"
        }
      ],
      "stateMutability": "view",
      "type": "function"
    },
    {
      "inputs": [
        {
          "internalType": "string",
          "name": "key",
          "type": "string"
        }
      ],
      "name": "get_session_string_validation_rules",
      "outputs": [
        {
          "components": [
            {
              "internalType": "string",
              "name": "val",
              "type": "string"
            },
            {
              "internalType": "string",
              "name": "operand",
              "type": "string"
            }
          ],
          "internalType": "struct ValidationRulesLib.SessionStringValidationRule[]",
          "name": "",
          "type": "tuple[]"
        }
      ],
      "stateMutability": "view",
      "type": "function"
    },
    {
      "inputs": [
        {
          "internalType": "address",
          "name": "player_addr",
          "type": "address"
        }
      ],
      "name": "remove_player",
      "outputs": [],
      "stateMutability": "nonpayable",
      "type": "function"
    },
    {
      "inputs": [
        {
          "internalType": "address",
          "name": "player_addr",
          "type": "address"
        }
      ],
      "name": "get_player_state",
      "outputs": [
        {
          "internalType": "enum Session.PlayerState",
          "name": "",
          "type": "uint8"
        }
      ],
      "stateMutability": "view",
      "type": "function"
    },
    {
      "inputs": [],
      "name": "start",
      "outputs": [],
      "stateMutability": "nonpayable",
      "type": "function"
    },
    {
      "inputs": [],
      "name": "stop",
      "outputs": [],
      "stateMutability": "nonpayable",
      "type": "function"
    },
    {
      "inputs": [],
      "name": "isRunning",
      "outputs": [
        {
          "internalType": "bool",
          "name": "",
          "type": "bool"
        }
      ],
      "stateMutability": "view",
      "type": "function"
    }
  ],
  "bytecode": "0x60806040526000600260006101000a81548160ff021916908360028111156200002d576200002c6200007e565b5b02179055503480156200003f57600080fd5b5060405162002fa938038062002fa9833981810160405281019062000065919062000240565b8060009081620000769190620004dc565b5050620005c3565b7f4e487b7100000000000000000000000000000000000000000000000000000000600052602160045260246000fd5b6000604051905090565b600080fd5b600080fd5b600080fd5b600080fd5b6000601f19601f8301169050919050565b7f4e487b7100000000000000000000000000000000000000000000000000000000600052604160045260246000fd5b6200011682620000cb565b810181811067ffffffffffffffff82111715620001385762000137620000dc565b5b80604052505050565b60006200014d620000ad565b90506200015b82826200010b565b919050565b600067ffffffffffffffff8211156200017e576200017d620000dc565b5b6200018982620000cb565b9050602081019050919050565b60005b83811015620001b657808201518184015260208101905062000199565b60008484015250505050565b6000620001d9620001d38462000160565b62000141565b905082815260208101848484011115620001f857620001f7620000c6565b5b6200020584828562000196565b509392505050565b600082601f830112620002255762000224620000c1565b5b815162000237848260208601620001c2565b91505092915050565b600060208284031215620002595762000258620000b7565b5b600082015167ffffffffffffffff8111156200027a5762000279620000bc565b5b62000288848285016200020d565b91505092915050565b600081519050919050565b7f4e487b7100000000000000000000000000000000000000000000000000000000600052602260045260246000fd5b60006002820490506001821680620002e457607f821691505b602082108103620002fa57620002f96200029c565b5b50919050565b60008190508160005260206000209050919050565b60006020601f8301049050919050565b600082821b905092915050565b600060088302620003647fffffffffffffffffffffffffffffffffffffffffffffffffffffffffffffffff8262000325565b62000370868362000325565b95508019841693508086168417925050509392505050565b6000819050919050565b6000819050919050565b6000620003bd620003b7620003b18462000388565b62000392565b62000388565b9050919050565b6000819050919050565b620003d9836200039c565b620003f1620003e882620003c4565b84845462000332565b825550505050565b600090565b62000408620003f9565b62000415818484620003ce565b505050565b5b818110156200043d5762000431600082620003fe565b6001810190506200041b565b5050565b601f8211156200048c57620004568162000300565b620004618462000315565b8101602085101562000471578190505b62000489620004808562000315565b8301826200041a565b50505b505050565b600082821c905092915050565b6000620004b16000198460080262000491565b1980831691505092915050565b6000620004cc83836200049e565b9150826002028217905092915050565b620004e78262000291565b67ffffffffffffffff811115620005035762000502620000dc565b5b6200050f8254620002cb565b6200051c82828562000441565b600060209050601f8311600181146200055457600084156200053f578287015190505b6200054b8582620004be565b865550620005bb565b601f198416620005648662000300565b60005b828110156200058e5784890151825560018201915060208501945060208101905062000567565b86831015620005ae5784890151620005aa601f8916826200049e565b8355505b6001600288020188555050505b505050505050565b6129d680620005d36000396000f3fe608060405234801561001057600080fd5b506004361061012c5760003560e01c806382aa4866116100ad578063c8534a3311610071578063c8534a3314610319578063d925e94814610349578063d9ac7bb514610365578063df9f72e314610381578063e6dbf46c1461039d5761012c565b806382aa48661461027557806396a043d5146102a5578063af640d0f146102c1578063b3df77d9146102df578063be9a65551461030f5761012c565b80632b813633116100f45780632b813633146101c1578063405504fa146101dd57806345057e73146101f9578063552cf791146102155780637ba1a6ac146102455761012c565b806307da68f5146101315780630c882d681461013b578063104483ce1461016b57806319d2eb1d146101875780632014e5d1146101a3575b600080fd5b6101396103cd565b005b610155600480360381019061015091906114f8565b6103f9565b60405161016291906116c6565b60405180910390f35b61018560048036038101906101809190611720565b61059a565b005b6101a1600480360381019061019c9190611a4d565b61069c565b005b6101ab6106c2565b6040516101b89190611b91565b60405180910390f35b6101db60048036038101906101d69190611bac565b610700565b005b6101f760048036038101906101f29190611c82565b610737565b005b610213600480360381019061020e9190611caf565b610853565b005b61022f600480360381019061022a91906114f8565b61088a565b60405161023c9190611e35565b60405180910390f35b61025f600480360381019061025a91906114f8565b6109a3565b60405161026c9190611f65565b60405180910390f35b61028f600480360381019061028a91906114f8565b610acd565b60405161029c9190612036565b60405180910390f35b6102bf60048036038101906102ba9190611c82565b610b8d565b005b6102c9610bf8565b6040516102d691906120a2565b60405180910390f35b6102f960048036038101906102f491906114f8565b610c86565b6040516103069190612173565b60405180910390f35b610317610d6b565b005b610333600480360381019061032e91906114f8565b610d98565b6040516103409190612257565b60405180910390f35b610363600480360381019061035e9190612279565b610ed9565b005b61037f600480360381019061037a9190612320565b610fcf565b005b61039b60048036038101906103969190612398565b611006565b005b6103b760048036038101906103b29190611c82565b6110f0565b6040516103c4919061249a565b60405180910390f35b60028060006101000a81548160ff021916908360028111156103f2576103f1612423565b5b0217905550565b606060088260405161040b91906124f1565b9081526020016040518091039020805480602002602001604051908101604052809291908181526020016000905b8282101561058f578382906000526020600020906002020160405180604001604052908160008201805461046c90612537565b80601f016020809104026020016040519081016040528092919081815260200182805461049890612537565b80156104e55780601f106104ba576101008083540402835291602001916104e5565b820191906000526020600020905b8154815290600101906020018083116104c857829003601f168201915b505050505081526020016001820180546104fe90612537565b80601f016020809104026020016040519081016040528092919081815260200182805461052a90612537565b80156105775780601f1061054c57610100808354040283529160200191610577565b820191906000526020600020905b81548152906001019060200180831161055a57829003601f168201915b50505050508152505081526020019060010190610439565b505050509050919050565b73__ValidationLib_________________________63c464e37c826040518263ffffffff1660e01b81526004016105d191906125b2565b60006040518083038186803b1580156105e957600080fd5b505af41580156105fd573d6000803e3d6000fd5b5050505060078360405161061191906124f1565b90815260200160405180910390206040518060400160405280841515815260200183815250908060018154018082558091505060019003906000526020600020906002020160009091909190915060008201518160000160006101000a81548160ff0219169083151502179055506020820151816001019081610694919061278a565b505050505050565b6106a68684610700565b6106b08583610fcf565b6106ba8482610853565b505050505050565b6000600160028111156106d8576106d7612423565b5b600260009054906101000a900460ff1660028111156106fa576106f9612423565b5b14905090565b8060048360405161071191906124f1565b908152602001604051809103902090805190602001906107329291906111b4565b505050565b60028081111561074a57610749612423565b5b600160008373ffffffffffffffffffffffffffffffffffffffff1673ffffffffffffffffffffffffffffffffffffffff16815260200190815260200160002060009054906101000a900460ff1660028111156107a9576107a8612423565b5b146107e9576040517f08c379a00000000000000000000000000000000000000000000000000000000081526004016107e0906128a8565b60405180910390fd5b60018060008373ffffffffffffffffffffffffffffffffffffffff1673ffffffffffffffffffffffffffffffffffffffff16815260200190815260200160002060006101000a81548160ff0219169083600281111561084b5761084a612423565b5b021790555050565b8060058360405161086491906124f1565b90815260200160405180910390209080519060200190610885929190611201565b505050565b606060068260405161089c91906124f1565b9081526020016040518091039020805480602002602001604051908101604052809291908181526020016000905b8282101561099857838290600052602060002090600202016040518060400160405290816000820154815260200160018201805461090790612537565b80601f016020809104026020016040519081016040528092919081815260200182805461093390612537565b80156109805780601f1061095557610100808354040283529160200191610980565b820191906000526020600020905b81548152906001019060200180831161096357829003601f168201915b505050505081525050815260200190600101906108ca565b505050509050919050565b60606007826040516109b591906124f1565b9081526020016040518091039020805480602002602001604051908101604052809291908181526020016000905b82821015610ac257838290600052602060002090600202016040518060400160405290816000820160009054906101000a900460ff16151515158152602001600182018054610a3190612537565b80601f0160208091040260200160405190810160405280929190818152602001828054610a5d90612537565b8015610aaa5780601f10610a7f57610100808354040283529160200191610aaa565b820191906000526020600020905b815481529060010190602001808311610a8d57829003601f168201915b505050505081525050815260200190600101906109e3565b505050509050919050565b60606000600483604051610ae191906124f1565b9081526020016040518091039020805480602002602001604051908101604052809291908181526020018280548015610b3957602002820191906000526020600020905b815481526020019060010190808311610b25575b505050505090506000815103610b84576040517f08c379a0000000000000000000000000000000000000000000000000000000008152600401610b7b90612914565b60405180910390fd5b80915050919050565b6002600160008373ffffffffffffffffffffffffffffffffffffffff1673ffffffffffffffffffffffffffffffffffffffff16815260200190815260200160002060006101000a81548160ff02191690836002811115610bf057610bef612423565b5b021790555050565b60008054610c0590612537565b80601f0160208091040260200160405190810160405280929190818152602001828054610c3190612537565b8015610c7e5780601f10610c5357610100808354040283529160200191610c7e565b820191906000526020600020905b815481529060010190602001808311610c6157829003601f168201915b505050505081565b60606000600383604051610c9a91906124f1565b9081526020016040518091039020805480602002602001604051908101604052809291908181526020018280548015610d1757602002820191906000526020600020906000905b82829054906101000a900460ff16151581526020019060010190602082600001049283019260010382029150808411610ce15790505b505050505090506000815103610d62576040517f08c379a0000000000000000000000000000000000000000000000000000000008152600401610d5990612914565b60405180910390fd5b80915050919050565b6001600260006101000a81548160ff02191690836002811115610d9157610d90612423565b5b0217905550565b60606000600583604051610dac91906124f1565b9081526020016040518091039020805480602002602001604051908101604052809291908181526020016000905b82821015610e86578382906000526020600020018054610df990612537565b80601f0160208091040260200160405190810160405280929190818152602001828054610e2590612537565b8015610e725780601f10610e4757610100808354040283529160200191610e72565b820191906000526020600020905b815481529060010190602001808311610e5557829003601f168201915b505050505081526020019060010190610dda565b5050505090506000815103610ed0576040517f08c379a0000000000000000000000000000000000000000000000000000000008152600401610ec790612914565b60405180910390fd5b80915050919050565b73__ValidationLib_________________________63fb04d8ce826040518263ffffffff1660e01b8152600401610f1091906125b2565b60006040518083038186803b158015610f2857600080fd5b505af4158015610f3c573d6000803e3d6000fd5b50505050600883604051610f5091906124f1565b908152602001604051809103902060405180604001604052808481526020018381525090806001815401808255809150506001900390600052602060002090600202016000909190919091506000820151816000019081610fb1919061278a565b506020820151816001019081610fc7919061278a565b505050505050565b80600383604051610fe091906124f1565b9081526020016040518091039020908051906020019061100192919061125a565b505050565b73__ValidationLib_________________________630cba4347826040518263ffffffff1660e01b815260040161103d91906125b2565b60006040518083038186803b15801561105557600080fd5b505af4158015611069573d6000803e3d6000fd5b5050505060068360405161107d91906124f1565b908152602001604051809103902060405180604001604052808481526020018381525090806001815401808255809150506001900390600052602060002090600202016000909190919091506000820151816000015560208201518160010190816110e8919061278a565b505050505050565b60008073ffffffffffffffffffffffffffffffffffffffff168273ffffffffffffffffffffffffffffffffffffffff1614611160576040517f08c379a000000000000000000000000000000000000000000000000000000000815260040161115790612980565b60405180910390fd5b600160008373ffffffffffffffffffffffffffffffffffffffff1673ffffffffffffffffffffffffffffffffffffffff16815260200190815260200160002060009054906101000a900460ff169050919050565b8280548282559060005260206000209081019282156111f0579160200282015b828111156111ef5782518255916020019190600101906111d4565b5b5090506111fd9190611300565b5090565b828054828255906000526020600020908101928215611249579160200282015b82811115611248578251829081611238919061278a565b5091602001919060010190611221565b5b509050611256919061131d565b5090565b82805482825590600052602060002090601f016020900481019282156112ef5791602002820160005b838211156112c057835183826101000a81548160ff0219169083151502179055509260200192600101602081600001049283019260010302611283565b80156112ed5782816101000a81549060ff02191690556001016020816000010492830192600103026112c0565b505b5090506112fc9190611341565b5090565b5b80821115611319576000816000905550600101611301565b5090565b5b8082111561133d5760008181611334919061135e565b5060010161131e565b5090565b5b8082111561135a576000816000905550600101611342565b5090565b50805461136a90612537565b6000825580601f1061137c575061139b565b601f01602090049060005260206000209081019061139a9190611341565b5b50565b6000604051905090565b600080fd5b600080fd5b600080fd5b600080fd5b6000601f19601f8301169050919050565b7f4e487b7100000000000000000000000000000000000000000000000000000000600052604160045260246000fd5b611405826113bc565b810181811067ffffffffffffffff82111715611424576114236113cd565b5b80604052505050565b600061143761139e565b905061144382826113fc565b919050565b600067ffffffffffffffff821115611463576114626113cd565b5b61146c826113bc565b9050602081019050919050565b82818337600083830152505050565b600061149b61149684611448565b61142d565b9050828152602081018484840111156114b7576114b66113b7565b5b6114c2848285611479565b509392505050565b600082601f8301126114df576114de6113b2565b5b81356114ef848260208601611488565b91505092915050565b60006020828403121561150e5761150d6113a8565b5b600082013567ffffffffffffffff81111561152c5761152b6113ad565b5b611538848285016114ca565b91505092915050565b600081519050919050565b600082825260208201905092915050565b6000819050602082019050919050565b600081519050919050565b600082825260208201905092915050565b60005b838110156115a757808201518184015260208101905061158c565b60008484015250505050565b60006115be8261156d565b6115c88185611578565b93506115d8818560208601611589565b6115e1816113bc565b840191505092915050565b6000604083016000830151848203600086015261160982826115b3565b9150506020830151848203602086015261162382826115b3565b9150508091505092915050565b600061163c83836115ec565b905092915050565b6000602082019050919050565b600061165c82611541565b611666818561154c565b9350836020820285016116788561155d565b8060005b858110156116b457848403895281516116958582611630565b94506116a083611644565b925060208a0199505060018101905061167c565b50829750879550505050505092915050565b600060208201905081810360008301526116e08184611651565b905092915050565b60008115159050919050565b6116fd816116e8565b811461170857600080fd5b50565b60008135905061171a816116f4565b92915050565b600080600060608486031215611739576117386113a8565b5b600084013567ffffffffffffffff811115611757576117566113ad565b5b611763868287016114ca565b93505060206117748682870161170b565b925050604084013567ffffffffffffffff811115611795576117946113ad565b5b6117a1868287016114ca565b9150509250925092565b600067ffffffffffffffff8211156117c6576117c56113cd565b5b602082029050602081019050919050565b600080fd5b6000819050919050565b6117ef816117dc565b81146117fa57600080fd5b50565b60008135905061180c816117e6565b92915050565b6000611825611820846117ab565b61142d565b90508083825260208201905060208402830185811115611848576118476117d7565b5b835b81811015611871578061185d88826117fd565b84526020840193505060208101905061184a565b5050509392505050565b600082601f8301126118905761188f6113b2565b5b81356118a0848260208601611812565b91505092915050565b600067ffffffffffffffff8211156118c4576118c36113cd565b5b602082029050602081019050919050565b60006118e86118e3846118a9565b61142d565b9050808382526020820190506020840283018581111561190b5761190a6117d7565b5b835b818110156119345780611920888261170b565b84526020840193505060208101905061190d565b5050509392505050565b600082601f830112611953576119526113b2565b5b81356119638482602086016118d5565b91505092915050565b600067ffffffffffffffff821115611987576119866113cd565b5b602082029050602081019050919050565b60006119ab6119a68461196c565b61142d565b905080838252602082019050602084028301858111156119ce576119cd6117d7565b5b835b81811015611a1557803567ffffffffffffffff8111156119f3576119f26113b2565b5b808601611a0089826114ca565b855260208501945050506020810190506119d0565b5050509392505050565b600082601f830112611a3457611a336113b2565b5b8135611a44848260208601611998565b91505092915050565b60008060008060008060c08789031215611a6a57611a696113a8565b5b600087013567ffffffffffffffff811115611a8857611a876113ad565b5b611a9489828a016114ca565b965050602087013567ffffffffffffffff811115611ab557611ab46113ad565b5b611ac189828a016114ca565b955050604087013567ffffffffffffffff811115611ae257611ae16113ad565b5b611aee89828a016114ca565b945050606087013567ffffffffffffffff811115611b0f57611b0e6113ad565b5b611b1b89828a0161187b565b935050608087013567ffffffffffffffff811115611b3c57611b3b6113ad565b5b611b4889828a0161193e565b92505060a087013567ffffffffffffffff811115611b6957611b686113ad565b5b611b7589828a01611a1f565b9150509295509295509295565b611b8b816116e8565b82525050565b6000602082019050611ba66000830184611b82565b92915050565b60008060408385031215611bc357611bc26113a8565b5b600083013567ffffffffffffffff811115611be157611be06113ad565b5b611bed858286016114ca565b925050602083013567ffffffffffffffff811115611c0e57611c0d6113ad565b5b611c1a8582860161187b565b9150509250929050565b600073ffffffffffffffffffffffffffffffffffffffff82169050919050565b6000611c4f82611c24565b9050919050565b611c5f81611c44565b8114611c6a57600080fd5b50565b600081359050611c7c81611c56565b92915050565b600060208284031215611c9857611c976113a8565b5b6000611ca684828501611c6d565b91505092915050565b60008060408385031215611cc657611cc56113a8565b5b600083013567ffffffffffffffff811115611ce457611ce36113ad565b5b611cf0858286016114ca565b925050602083013567ffffffffffffffff811115611d1157611d106113ad565b5b611d1d85828601611a1f565b9150509250929050565b600081519050919050565b600082825260208201905092915050565b6000819050602082019050919050565b611d5c816117dc565b82525050565b6000604083016000830151611d7a6000860182611d53565b5060208301518482036020860152611d9282826115b3565b9150508091505092915050565b6000611dab8383611d62565b905092915050565b6000602082019050919050565b6000611dcb82611d27565b611dd58185611d32565b935083602082028501611de785611d43565b8060005b85811015611e235784840389528151611e048582611d9f565b9450611e0f83611db3565b925060208a01995050600181019050611deb565b50829750879550505050505092915050565b60006020820190508181036000830152611e4f8184611dc0565b905092915050565b600081519050919050565b600082825260208201905092915050565b6000819050602082019050919050565b611e8c816116e8565b82525050565b6000604083016000830151611eaa6000860182611e83565b5060208301518482036020860152611ec282826115b3565b9150508091505092915050565b6000611edb8383611e92565b905092915050565b6000602082019050919050565b6000611efb82611e57565b611f058185611e62565b935083602082028501611f1785611e73565b8060005b85811015611f535784840389528151611f348582611ecf565b9450611f3f83611ee3565b925060208a01995050600181019050611f1b565b50829750879550505050505092915050565b60006020820190508181036000830152611f7f8184611ef0565b905092915050565b600081519050919050565b600082825260208201905092915050565b6000819050602082019050919050565b6000611fbf8383611d53565b60208301905092915050565b6000602082019050919050565b6000611fe382611f87565b611fed8185611f92565b9350611ff883611fa3565b8060005b838110156120295781516120108882611fb3565b975061201b83611fcb565b925050600181019050611ffc565b5085935050505092915050565b600060208201905081810360008301526120508184611fd8565b905092915050565b600082825260208201905092915050565b60006120748261156d565b61207e8185612058565b935061208e818560208601611589565b612097816113bc565b840191505092915050565b600060208201905081810360008301526120bc8184612069565b905092915050565b600081519050919050565b600082825260208201905092915050565b6000819050602082019050919050565b60006120fc8383611e83565b60208301905092915050565b6000602082019050919050565b6000612120826120c4565b61212a81856120cf565b9350612135836120e0565b8060005b8381101561216657815161214d88826120f0565b975061215883612108565b925050600181019050612139565b5085935050505092915050565b6000602082019050818103600083015261218d8184612115565b905092915050565b600081519050919050565b600082825260208201905092915050565b6000819050602082019050919050565b60006121cd83836115b3565b905092915050565b6000602082019050919050565b60006121ed82612195565b6121f781856121a0565b935083602082028501612209856121b1565b8060005b85811015612245578484038952815161222685826121c1565b9450612231836121d5565b925060208a0199505060018101905061220d565b50829750879550505050505092915050565b6000602082019050818103600083015261227181846121e2565b905092915050565b600080600060608486031215612292576122916113a8565b5b600084013567ffffffffffffffff8111156122b0576122af6113ad565b5b6122bc868287016114ca565b935050602084013567ffffffffffffffff8111156122dd576122dc6113ad565b5b6122e9868287016114ca565b925050604084013567ffffffffffffffff81111561230a576123096113ad565b5b612316868287016114ca565b9150509250925092565b60008060408385031215612337576123366113a8565b5b600083013567ffffffffffffffff811115612355576123546113ad565b5b612361858286016114ca565b925050602083013567ffffffffffffffff811115612382576123816113ad565b5b61238e8582860161193e565b9150509250929050565b6000806000606084860312156123b1576123b06113a8565b5b600084013567ffffffffffffffff8111156123cf576123ce6113ad565b5b6123db868287016114ca565b93505060206123ec868287016117fd565b925050604084013567ffffffffffffffff81111561240d5761240c6113ad565b5b612419868287016114ca565b9150509250925092565b7f4e487b7100000000000000000000000000000000000000000000000000000000600052602160045260246000fd5b6003811061246357612462612423565b5b50565b600081905061247482612452565b919050565b600061248482612466565b9050919050565b61249481612479565b82525050565b60006020820190506124af600083018461248b565b92915050565b600081905092915050565b60006124cb8261156d565b6124d581856124b5565b93506124e5818560208601611589565b80840191505092915050565b60006124fd82846124c0565b915081905092915050565b7f4e487b7100000000000000000000000000000000000000000000000000000000600052602260045260246000fd5b6000600282049050600182168061254f57607f821691505b60208210810361256257612561612508565b5b50919050565b600082825260208201905092915050565b60006125848261156d565b61258e8185612568565b935061259e818560208601611589565b6125a7816113bc565b840191505092915050565b600060208201905081810360008301526125cc8184612579565b905092915050565b60008190508160005260206000209050919050565b60006020601f8301049050919050565b600082821b905092915050565b6000600883026126367fffffffffffffffffffffffffffffffffffffffffffffffffffffffffffffffff826125f9565b61264086836125f9565b95508019841693508086168417925050509392505050565b6000819050919050565b6000819050919050565b600061268761268261267d84612658565b612662565b612658565b9050919050565b6000819050919050565b6126a18361266c565b6126b56126ad8261268e565b848454612606565b825550505050565b600090565b6126ca6126bd565b6126d5818484612698565b505050565b5b818110156126f9576126ee6000826126c2565b6001810190506126db565b5050565b601f82111561273e5761270f816125d4565b612718846125e9565b81016020851015612727578190505b61273b612733856125e9565b8301826126da565b50505b505050565b600082821c905092915050565b600061276160001984600802612743565b1980831691505092915050565b600061277a8383612750565b9150826002028217905092915050565b6127938261156d565b67ffffffffffffffff8111156127ac576127ab6113cd565b5b6127b68254612537565b6127c18282856126fd565b600060209050601f8311600181146127f457600084156127e2578287015190505b6127ec858261276e565b865550612854565b601f198416612802866125d4565b60005b8281101561282a57848901518255600182019150602085019450602081019050612805565b868310156128475784890151612843601f891682612750565b8355505b6001600288020188555050505b505050505050565b7f506c61796572206973206e6f74204163746976652e0000000000000000000000600082015250565b6000612892601583612058565b915061289d8261285c565b602082019050919050565b600060208201905081810360008301526128c181612885565b9050919050565b7f526571756573746564206b657920646f6573206e6f742065786973742e000000600082015250565b60006128fe601d83612058565b9150612909826128c8565b602082019050919050565b6000602082019050818103600083015261292d816128f1565b9050919050565b7f506c61796572206164647265737320646f6573206e6f742065786973742e0000600082015250565b600061296a601e83612058565b915061297582612934565b602082019050919050565b600060208201905081810360008301526129998161295d565b905091905056fea26469706673582212209aa5cf8c2c9af618b273f86ca7b240a3cd3670dc160a7a3de52dbb29078c85b264736f6c63430008110033",
  "immutableReferences": {},
  "source": "// SPDX-License-Identifier: MIT\npragma solidity >=0.4.22 <0.9.0;\nimport \"./Player.sol\";\n// import \"./AntiCheat.sol\";\n// import \"./OperandsLib.sol\";\nimport \"./ValidationLib.sol\";\nimport \"./ValidationRulesLib.sol\";\n\n\ncontract Session {\n    enum PlayerState {Default, Removed, Active}\n    enum SessionState {Ready, Running, Stopped}\n\n    string public id;\n    mapping(address => PlayerState) player_states;\n    SessionState session_state = SessionState.Ready;\n    // AntiCheat owner_anticheat;\n    mapping(string => bool[]) session_bool_data;\n    mapping(string => int[]) session_int_data;\n    mapping(string => string[]) session_string_data;\n    mapping(\n        string => ValidationRulesLib.SessionIntValidationRule[]\n    ) session_int_validation_rules;\n    mapping(\n        string => ValidationRulesLib.SessionBoolValidationRule[]\n    ) session_bool_validation_rules;\n    mapping(\n        string => ValidationRulesLib.SessionStringValidationRule[]\n    ) session_string_validation_rules;\n    // mapping(\n    //     string => ValidationRulesLib.SessionIntArrayValidationRule[]\n    // ) session_int_array_validation_rules;\n    // mapping(\n    //     string => ValidationRulesLib.SessionBoolArrayValidationRule[]\n    // ) session_bool_array_validation_rules;\n    // mapping(\n    //     string => ValidationRulesLib.SessionStringArrayValidationRule[]\n    // ) session_string_array_validation_rules;\n\n    constructor(string memory assigned_id) {\n        id = assigned_id;\n        // owner_anticheat = AntiCheat(msg.sender);\n    }\n\n    // function add_player(string memory player_id) public {\n    function add_player(address player_addr) public {\n        // Query anticheat if player exists\n        // address player_addr = owner_anticheat.get_player(player_id);\n        // if (player_addr != address(0x0)) {\n        //     revert(\"Player address does not exist.\");\n        // }\n\n        player_states[player_addr] = PlayerState.Active;\n    }\n\n    function get_session_bool_data(string memory key) public view returns (bool[] memory) {\n        bool[] memory data = session_bool_data[key];\n        if (data.length == 0) {\n            revert(\"Requested key does not exist.\");\n        }\n        return data;\n    }\n    function get_session_int_data(string memory key) public view returns (int[] memory) {\n        int[] memory data = session_int_data[key];\n        if (data.length == 0) {\n            revert(\"Requested key does not exist.\");\n        }\n        return data;\n    }\n    function get_session_string_data(string memory key) public view returns (string[] memory) {\n        string[] memory data = session_string_data[key];\n        if (data.length == 0) {\n            revert(\"Requested key does not exist.\");\n        }\n        return data;\n    }\n    function update_session_data(\n        string memory int_key,\n        string memory bool_key,\n        string memory string_key,\n        int[] memory int_data,\n        bool[] memory bool_data,\n        string[] memory string_data\n    ) public {\n        update_session_int_data(int_key, int_data);\n        update_session_bool_data(bool_key, bool_data);\n        update_session_string_data(string_key, string_data);\n    }\n    function update_session_int_data(string memory key, int[] memory data) public {\n        session_int_data[key] = data;\n    }\n    function update_session_bool_data(string memory key, bool[] memory data) public {\n        session_bool_data[key] = data;\n    }\n    function update_session_string_data(string memory key, string[] memory data) public {\n        session_string_data[key] = data;\n    }\n\n    function add_session_int_validation_rule(string memory key, int val, string memory operand) public {\n        ValidationLib.validate_int_operand(operand);\n        session_int_validation_rules[key].push(\n            ValidationRulesLib.SessionIntValidationRule({\n                val: val, operand: operand\n            })\n        );\n    }\n    function add_session_bool_validation_rule(string memory key, bool val, string memory operand) public {\n        ValidationLib.validate_bool_operand(operand);\n        session_bool_validation_rules[key].push(\n            ValidationRulesLib.SessionBoolValidationRule({\n                val: val, operand: operand\n            })\n        );\n    }\n    function add_session_string_validation_rule(string memory key, string memory val, string memory operand) public {\n        ValidationLib.validate_string_operand(operand);\n        session_string_validation_rules[key].push(\n            ValidationRulesLib.SessionStringValidationRule({\n                val: val, operand: operand\n            })\n        );\n    }\n\n    function get_session_int_validation_rules(string memory key) public view\n    returns (ValidationRulesLib.SessionIntValidationRule[] memory) {\n        return session_int_validation_rules[key];\n    }\n    function get_session_bool_validation_rules(string memory key) public view\n    returns (ValidationRulesLib.SessionBoolValidationRule[] memory) {\n        return session_bool_validation_rules[key];\n    }\n    function get_session_string_validation_rules(string memory key) public view\n    returns (ValidationRulesLib.SessionStringValidationRule[] memory) {\n        return session_string_validation_rules[key];\n    }\n\n    // function remove_player(address player_id) public {\n    function remove_player(address player_addr) public {\n        // address player_addr = owner_anticheat.get_player_in_session(id, player_id);\n        // if (player_addr != address(0x0)) {\n        //     revert(\"Player address does not exist.\");\n        // }\n        if (player_states[player_addr] != PlayerState.Active) {\n            revert(\"Player is not Active.\");\n        }\n        player_states[player_addr] = PlayerState.Removed;\n    }\n\n    // function get_player_state(string memory player_id) public view returns (PlayerState) {\n    function get_player_state(address player_addr) public view returns (PlayerState) {\n        // address player_addr = owner_anticheat.get_player(player_id);\n        if (player_addr != address(0x0)) {\n            revert(\"Player address does not exist.\");\n        }\n        return player_states[player_addr];\n    }\n\n    function start() public {\n        session_state = SessionState.Running;\n    }\n\n    function stop() public {\n        session_state = SessionState.Stopped;\n    }\n\n    function isRunning() public view returns (bool) {\n        return session_state == SessionState.Running;\n    }\n}\n",
  "sourcePath": "/mnt/d/documents/blockchain-testing/BC_Anticheat/contracts/Session.sol",
  "compiler": {
    "name": "solc",
    "version": "0.8.17+commit.8df45f5f.Emscripten.clang"
  },
  "schemaVersion": "3.4.11",
  "updatedAt": "2023-03-15T06:32:55.929Z",
  "networkType": "ethereum",
  "devdoc": {
    "kind": "dev",
    "methods": {},
    "version": 1
  },
  "userdoc": {
    "kind": "user",
    "methods": {},
    "version": 1
  }
}