{
  "contractName": "SessionHandler",
  "abi": [
    {
      "inputs": [
        {
          "internalType": "string",
          "name": "session_id",
          "type": "string"
        }
      ],
      "name": "add_new_session",
      "outputs": [],
      "stateMutability": "nonpayable",
      "type": "function"
    },
    {
      "inputs": [
        {
          "internalType": "string",
          "name": "session_id",
          "type": "string"
        },
        {
          "internalType": "string",
          "name": "player_id",
          "type": "string"
        }
      ],
      "name": "add_new_player",
      "outputs": [],
      "stateMutability": "nonpayable",
      "type": "function"
    },
    {
      "inputs": [
        {
          "internalType": "string",
          "name": "player_id",
          "type": "string"
        }
      ],
      "name": "get_player",
      "outputs": [
        {
          "internalType": "address",
          "name": "",
          "type": "address"
        }
      ],
      "stateMutability": "view",
      "type": "function"
    },
    {
      "inputs": [
        {
          "internalType": "string",
          "name": "session_id",
          "type": "string"
        },
        {
          "internalType": "string",
          "name": "player_id",
          "type": "string"
        }
      ],
      "name": "get_player_in_session",
      "outputs": [
        {
          "internalType": "address",
          "name": "",
          "type": "address"
        }
      ],
      "stateMutability": "view",
      "type": "function"
    },
    {
      "inputs": [
        {
          "internalType": "string",
          "name": "session_id",
          "type": "string"
        }
      ],
      "name": "get_session",
      "outputs": [
        {
          "internalType": "address",
          "name": "",
          "type": "address"
        }
      ],
      "stateMutability": "view",
      "type": "function"
    }
  ],
  "bytecode": "0x608060405234801561001057600080fd5b50614fb2806100206000396000f3fe60806040523480156200001157600080fd5b50600436106200005e5760003560e01c80630fd9c1f814620000635780637cd5f0a5146200009957806386f4df5e14620000cf578063b53a900114620000ef578063ffaf79021462000125575b600080fd5b6200008160048036038101906200007b91906200082e565b62000145565b604051620000909190620008c4565b60405180910390f35b620000b76004803603810190620000b191906200082e565b62000206565b604051620000c69190620008c4565b60405180910390f35b620000ed6004803603810190620000e79190620008e1565b620002c7565b005b6200010d6004803603810190620001079190620008e1565b62000461565b6040516200011c9190620008c4565b60405180910390f35b6200014360048036038101906200013d91906200082e565b62000582565b005b6000806001836040516200015a9190620009df565b908152602001604051809103902060009054906101000a900473ffffffffffffffffffffffffffffffffffffffff169050600073ffffffffffffffffffffffffffffffffffffffff168173ffffffffffffffffffffffffffffffffffffffff1603620001fd576040517f08c379a0000000000000000000000000000000000000000000000000000000008152600401620001f49062000a59565b60405180910390fd5b80915050919050565b6000806000836040516200021b9190620009df565b908152602001604051809103902060009054906101000a900473ffffffffffffffffffffffffffffffffffffffff169050600073ffffffffffffffffffffffffffffffffffffffff168173ffffffffffffffffffffffffffffffffffffffff1603620002be576040517f08c379a0000000000000000000000000000000000000000000000000000000008152600401620002b59062000acb565b60405180910390fd5b80915050919050565b600073ffffffffffffffffffffffffffffffffffffffff16600182604051620002f19190620009df565b908152602001604051809103902060009054906101000a900473ffffffffffffffffffffffffffffffffffffffff1673ffffffffffffffffffffffffffffffffffffffff16146200034157600080fd5b60006200034e8362000206565b905060008260405162000361906200069c565b6200036d919062000b2e565b604051809103906000f0801580156200038a573d6000803e3d6000fd5b50905080600184604051620003a09190620009df565b908152602001604051809103902060006101000a81548173ffffffffffffffffffffffffffffffffffffffff021916908373ffffffffffffffffffffffffffffffffffffffff1602179055508173ffffffffffffffffffffffffffffffffffffffff166396a043d5826040518263ffffffff1660e01b8152600401620004279190620008c4565b600060405180830381600087803b1580156200044257600080fd5b505af115801562000457573d6000803e3d6000fd5b5050505050505050565b6000806200046f8462000206565b90506000600184604051620004859190620009df565b908152602001604051809103902060009054906101000a900473ffffffffffffffffffffffffffffffffffffffff1690508173ffffffffffffffffffffffffffffffffffffffff166357884749826040518263ffffffff1660e01b8152600401620004f19190620008c4565b602060405180830381865afa1580156200050f573d6000803e3d6000fd5b505050506040513d601f19601f8201168201806040525081019062000535919062000b8f565b62000577576040517f08c379a00000000000000000000000000000000000000000000000000000000081526004016200056e9062000c11565b60405180910390fd5b809250505092915050565b600073ffffffffffffffffffffffffffffffffffffffff16600082604051620005ac9190620009df565b908152602001604051809103902060009054906101000a900473ffffffffffffffffffffffffffffffffffffffff1673ffffffffffffffffffffffffffffffffffffffff1614620005fc57600080fd5b6000816040516200060d90620006aa565b62000619919062000b2e565b604051809103906000f08015801562000636573d6000803e3d6000fd5b509050806000836040516200064c9190620009df565b908152602001604051809103902060006101000a81548173ffffffffffffffffffffffffffffffffffffffff021916908373ffffffffffffffffffffffffffffffffffffffff1602179055505050565b611e1c8062000c3483390190565b61252d8062002a5083390190565b6000604051905090565b600080fd5b600080fd5b600080fd5b600080fd5b6000601f19601f8301169050919050565b7f4e487b7100000000000000000000000000000000000000000000000000000000600052604160045260246000fd5b6200072182620006d6565b810181811067ffffffffffffffff82111715620007435762000742620006e7565b5b80604052505050565b600062000758620006b8565b905062000766828262000716565b919050565b600067ffffffffffffffff821115620007895762000788620006e7565b5b6200079482620006d6565b9050602081019050919050565b82818337600083830152505050565b6000620007c7620007c1846200076b565b6200074c565b905082815260208101848484011115620007e657620007e5620006d1565b5b620007f3848285620007a1565b509392505050565b600082601f830112620008135762000812620006cc565b5b813562000825848260208601620007b0565b91505092915050565b600060208284031215620008475762000846620006c2565b5b600082013567ffffffffffffffff811115620008685762000867620006c7565b5b6200087684828501620007fb565b91505092915050565b600073ffffffffffffffffffffffffffffffffffffffff82169050919050565b6000620008ac826200087f565b9050919050565b620008be816200089f565b82525050565b6000602082019050620008db6000830184620008b3565b92915050565b60008060408385031215620008fb57620008fa620006c2565b5b600083013567ffffffffffffffff8111156200091c576200091b620006c7565b5b6200092a85828601620007fb565b925050602083013567ffffffffffffffff8111156200094e576200094d620006c7565b5b6200095c85828601620007fb565b9150509250929050565b600081519050919050565b600081905092915050565b60005b838110156200099c5780820151818401526020810190506200097f565b60008484015250505050565b6000620009b58262000966565b620009c1818562000971565b9350620009d38185602086016200097c565b80840191505092915050565b6000620009ed8284620009a8565b915081905092915050565b600082825260208201905092915050565b7f506c6179657220444e4500000000000000000000000000000000000000000000600082015250565b600062000a41600a83620009f8565b915062000a4e8262000a09565b602082019050919050565b6000602082019050818103600083015262000a748162000a32565b9050919050565b7f53657373696f6e20444e45000000000000000000000000000000000000000000600082015250565b600062000ab3600b83620009f8565b915062000ac08262000a7b565b602082019050919050565b6000602082019050818103600083015262000ae68162000aa4565b9050919050565b600062000afa8262000966565b62000b068185620009f8565b935062000b188185602086016200097c565b62000b2381620006d6565b840191505092915050565b6000602082019050818103600083015262000b4a818462000aed565b905092915050565b60008115159050919050565b62000b698162000b52565b811462000b7557600080fd5b50565b60008151905062000b898162000b5e565b92915050565b60006020828403121562000ba85762000ba7620006c2565b5b600062000bb88482850162000b78565b91505092915050565b7f506c61796572206e6f7420416374697665000000000000000000000000000000600082015250565b600062000bf9601183620009f8565b915062000c068262000bc1565b602082019050919050565b6000602082019050818103600083015262000c2c8162000bea565b905091905056fe60806040523480156200001157600080fd5b5060405162001e1c38038062001e1c8339818101604052810190620000379190620001e3565b80600490816200004891906200047f565b505062000566565b6000604051905090565b600080fd5b600080fd5b600080fd5b600080fd5b6000601f19601f8301169050919050565b7f4e487b7100000000000000000000000000000000000000000000000000000000600052604160045260246000fd5b620000b9826200006e565b810181811067ffffffffffffffff82111715620000db57620000da6200007f565b5b80604052505050565b6000620000f062000050565b9050620000fe8282620000ae565b919050565b600067ffffffffffffffff8211156200012157620001206200007f565b5b6200012c826200006e565b9050602081019050919050565b60005b83811015620001595780820151818401526020810190506200013c565b60008484015250505050565b60006200017c620001768462000103565b620000e4565b9050828152602081018484840111156200019b576200019a62000069565b5b620001a884828562000139565b509392505050565b600082601f830112620001c857620001c762000064565b5b8151620001da84826020860162000165565b91505092915050565b600060208284031215620001fc57620001fb6200005a565b5b600082015167ffffffffffffffff8111156200021d576200021c6200005f565b5b6200022b84828501620001b0565b91505092915050565b600081519050919050565b7f4e487b7100000000000000000000000000000000000000000000000000000000600052602260045260246000fd5b600060028204905060018216806200028757607f821691505b6020821081036200029d576200029c6200023f565b5b50919050565b60008190508160005260206000209050919050565b60006020601f8301049050919050565b600082821b905092915050565b600060088302620003077fffffffffffffffffffffffffffffffffffffffffffffffffffffffffffffffff82620002c8565b620003138683620002c8565b95508019841693508086168417925050509392505050565b6000819050919050565b6000819050919050565b6000620003606200035a62000354846200032b565b62000335565b6200032b565b9050919050565b6000819050919050565b6200037c836200033f565b620003946200038b8262000367565b848454620002d5565b825550505050565b600090565b620003ab6200039c565b620003b881848462000371565b505050565b5b81811015620003e057620003d4600082620003a1565b600181019050620003be565b5050565b601f8211156200042f57620003f981620002a3565b6200040484620002b8565b8101602085101562000414578190505b6200042c6200042385620002b8565b830182620003bd565b50505b505050565b600082821c905092915050565b6000620004546000198460080262000434565b1980831691505092915050565b60006200046f838362000441565b9150826002028217905092915050565b6200048a8262000234565b67ffffffffffffffff811115620004a657620004a56200007f565b5b620004b282546200026e565b620004bf828285620003e4565b600060209050601f831160018114620004f75760008415620004e2578287015190505b620004ee858262000461565b8655506200055e565b601f1984166200050786620002a3565b60005b8281101562000531578489015182556001820191506020850194506020810190506200050a565b868310156200055157848901516200054d601f89168262000441565b8355505b6001600288020188555050505b505050505050565b6118a680620005766000396000f3fe608060405234801561001057600080fd5b50600436106100935760003560e01c8063682fead511610066578063682fead5146101305780638702a84814610160578063a20612ec14610190578063af640d0f146101ac578063df1cb17c146101ca57610093565b80633b45d0a8146100985780633f5b5bcf146100b45780634298b5c8146100d05780635e9cbc5414610100575b600080fd5b6100b260048036038101906100ad9190610c85565b6101e6565b005b6100ce60048036038101906100c99190610dde565b61021d565b005b6100ea60048036038101906100e59190610e56565b610254565b6040516100f79190611024565b60405180910390f35b61011a60048036038101906101159190610e56565b6103f5565b6040516101279190611154565b60405180910390f35b61014a60048036038101906101459190610e56565b61050e565b6040516101579190611238565b60405180910390f35b61017a60048036038101906101759190610e56565b610605565b6040516101879190611309565b60405180910390f35b6101aa60048036038101906101a5919061132b565b61067b565b005b6101b4610765565b6040516101c19190611400565b60405180910390f35b6101e460048036038101906101df9190611422565b6107f3565b005b806000836040516101f79190611505565b908152602001604051809103902090805190602001906102189291906108e9565b505050565b8060018360405161022e9190611505565b9081526020016040518091039020908051906020019061024f929190610936565b505050565b60606003826040516102669190611505565b9081526020016040518091039020805480602002602001604051908101604052809291908181526020016000905b828210156103ea57838290600052602060002090600202016040518060400160405290816000820180546102c79061154b565b80601f01602080910402602001604051908101604052809291908181526020018280546102f39061154b565b80156103405780601f1061031557610100808354040283529160200191610340565b820191906000526020600020905b81548152906001019060200180831161032357829003601f168201915b505050505081526020016001820180546103599061154b565b80601f01602080910402602001604051908101604052809291908181526020018280546103859061154b565b80156103d25780601f106103a7576101008083540402835291602001916103d2565b820191906000526020600020905b8154815290600101906020018083116103b557829003601f168201915b50505050508152505081526020019060010190610294565b505050509050919050565b60606002826040516104079190611505565b9081526020016040518091039020805480602002602001604051908101604052809291908181526020016000905b828210156105035783829060005260206000209060020201604051806040016040529081600082015481526020016001820180546104729061154b565b80601f016020809104026020016040519081016040528092919081815260200182805461049e9061154b565b80156104eb5780601f106104c0576101008083540402835291602001916104eb565b820191906000526020600020905b8154815290600101906020018083116104ce57829003601f168201915b50505050508152505081526020019060010190610435565b505050509050919050565b60606001826040516105209190611505565b9081526020016040518091039020805480602002602001604051908101604052809291908181526020016000905b828210156105fa57838290600052602060002001805461056d9061154b565b80601f01602080910402602001604051908101604052809291908181526020018280546105999061154b565b80156105e65780601f106105bb576101008083540402835291602001916105e6565b820191906000526020600020905b8154815290600101906020018083116105c957829003601f168201915b50505050508152602001906001019061054e565b505050509050919050565b60606000826040516106179190611505565b908152602001604051809103902080548060200260200160405190810160405280929190818152602001828054801561066f57602002820191906000526020600020905b81548152602001906001019080831161065b575b50505050509050919050565b73__ValidationLib_________________________630cba4347826040518263ffffffff1660e01b81526004016106b291906115c6565b60006040518083038186803b1580156106ca57600080fd5b505af41580156106de573d6000803e3d6000fd5b505050506002836040516106f29190611505565b9081526020016040518091039020604051806040016040528084815260200183815250908060018154018082558091505060019003906000526020600020906002020160009091909190915060008201518160000155602082015181600101908161075d919061179e565b505050505050565b600480546107729061154b565b80601f016020809104026020016040519081016040528092919081815260200182805461079e9061154b565b80156107eb5780601f106107c0576101008083540402835291602001916107eb565b820191906000526020600020905b8154815290600101906020018083116107ce57829003601f168201915b505050505081565b73__ValidationLib_________________________63fb04d8ce826040518263ffffffff1660e01b815260040161082a91906115c6565b60006040518083038186803b15801561084257600080fd5b505af4158015610856573d6000803e3d6000fd5b5050505060038360405161086a9190611505565b9081526020016040518091039020604051806040016040528084815260200183815250908060018154018082558091505060019003906000526020600020906002020160009091909190915060008201518160000190816108cb919061179e565b5060208201518160010190816108e1919061179e565b505050505050565b828054828255906000526020600020908101928215610925579160200282015b82811115610924578251825591602001919060010190610909565b5b509050610932919061098f565b5090565b82805482825590600052602060002090810192821561097e579160200282015b8281111561097d57825182908161096d919061179e565b5091602001919060010190610956565b5b50905061098b91906109ac565b5090565b5b808211156109a8576000816000905550600101610990565b5090565b5b808211156109cc57600081816109c391906109d0565b506001016109ad565b5090565b5080546109dc9061154b565b6000825580601f106109ee5750610a0d565b601f016020900490600052602060002090810190610a0c9190610a10565b5b50565b5b80821115610a29576000816000905550600101610a11565b5090565b6000604051905090565b600080fd5b600080fd5b600080fd5b600080fd5b6000601f19601f8301169050919050565b7f4e487b7100000000000000000000000000000000000000000000000000000000600052604160045260246000fd5b610a9482610a4b565b810181811067ffffffffffffffff82111715610ab357610ab2610a5c565b5b80604052505050565b6000610ac6610a2d565b9050610ad28282610a8b565b919050565b600067ffffffffffffffff821115610af257610af1610a5c565b5b610afb82610a4b565b9050602081019050919050565b82818337600083830152505050565b6000610b2a610b2584610ad7565b610abc565b905082815260208101848484011115610b4657610b45610a46565b5b610b51848285610b08565b509392505050565b600082601f830112610b6e57610b6d610a41565b5b8135610b7e848260208601610b17565b91505092915050565b600067ffffffffffffffff821115610ba257610ba1610a5c565b5b602082029050602081019050919050565b600080fd5b6000819050919050565b610bcb81610bb8565b8114610bd657600080fd5b50565b600081359050610be881610bc2565b92915050565b6000610c01610bfc84610b87565b610abc565b90508083825260208201905060208402830185811115610c2457610c23610bb3565b5b835b81811015610c4d5780610c398882610bd9565b845260208401935050602081019050610c26565b5050509392505050565b600082601f830112610c6c57610c6b610a41565b5b8135610c7c848260208601610bee565b91505092915050565b60008060408385031215610c9c57610c9b610a37565b5b600083013567ffffffffffffffff811115610cba57610cb9610a3c565b5b610cc685828601610b59565b925050602083013567ffffffffffffffff811115610ce757610ce6610a3c565b5b610cf385828601610c57565b9150509250929050565b600067ffffffffffffffff821115610d1857610d17610a5c565b5b602082029050602081019050919050565b6000610d3c610d3784610cfd565b610abc565b90508083825260208201905060208402830185811115610d5f57610d5e610bb3565b5b835b81811015610da657803567ffffffffffffffff811115610d8457610d83610a41565b5b808601610d918982610b59565b85526020850194505050602081019050610d61565b5050509392505050565b600082601f830112610dc557610dc4610a41565b5b8135610dd5848260208601610d29565b91505092915050565b60008060408385031215610df557610df4610a37565b5b600083013567ffffffffffffffff811115610e1357610e12610a3c565b5b610e1f85828601610b59565b925050602083013567ffffffffffffffff811115610e4057610e3f610a3c565b5b610e4c85828601610db0565b9150509250929050565b600060208284031215610e6c57610e6b610a37565b5b600082013567ffffffffffffffff811115610e8a57610e89610a3c565b5b610e9684828501610b59565b91505092915050565b600081519050919050565b600082825260208201905092915050565b6000819050602082019050919050565b600081519050919050565b600082825260208201905092915050565b60005b83811015610f05578082015181840152602081019050610eea565b60008484015250505050565b6000610f1c82610ecb565b610f268185610ed6565b9350610f36818560208601610ee7565b610f3f81610a4b565b840191505092915050565b60006040830160008301518482036000860152610f678282610f11565b91505060208301518482036020860152610f818282610f11565b9150508091505092915050565b6000610f9a8383610f4a565b905092915050565b6000602082019050919050565b6000610fba82610e9f565b610fc48185610eaa565b935083602082028501610fd685610ebb565b8060005b858110156110125784840389528151610ff38582610f8e565b9450610ffe83610fa2565b925060208a01995050600181019050610fda565b50829750879550505050505092915050565b6000602082019050818103600083015261103e8184610faf565b905092915050565b600081519050919050565b600082825260208201905092915050565b6000819050602082019050919050565b61107b81610bb8565b82525050565b60006040830160008301516110996000860182611072565b50602083015184820360208601526110b18282610f11565b9150508091505092915050565b60006110ca8383611081565b905092915050565b6000602082019050919050565b60006110ea82611046565b6110f48185611051565b93508360208202850161110685611062565b8060005b85811015611142578484038952815161112385826110be565b945061112e836110d2565b925060208a0199505060018101905061110a565b50829750879550505050505092915050565b6000602082019050818103600083015261116e81846110df565b905092915050565b600081519050919050565b600082825260208201905092915050565b6000819050602082019050919050565b60006111ae8383610f11565b905092915050565b6000602082019050919050565b60006111ce82611176565b6111d88185611181565b9350836020820285016111ea85611192565b8060005b85811015611226578484038952815161120785826111a2565b9450611212836111b6565b925060208a019950506001810190506111ee565b50829750879550505050505092915050565b6000602082019050818103600083015261125281846111c3565b905092915050565b600081519050919050565b600082825260208201905092915050565b6000819050602082019050919050565b60006112928383611072565b60208301905092915050565b6000602082019050919050565b60006112b68261125a565b6112c08185611265565b93506112cb83611276565b8060005b838110156112fc5781516112e38882611286565b97506112ee8361129e565b9250506001810190506112cf565b5085935050505092915050565b6000602082019050818103600083015261132381846112ab565b905092915050565b60008060006060848603121561134457611343610a37565b5b600084013567ffffffffffffffff81111561136257611361610a3c565b5b61136e86828701610b59565b935050602061137f86828701610bd9565b925050604084013567ffffffffffffffff8111156113a05761139f610a3c565b5b6113ac86828701610b59565b9150509250925092565b600082825260208201905092915050565b60006113d282610ecb565b6113dc81856113b6565b93506113ec818560208601610ee7565b6113f581610a4b565b840191505092915050565b6000602082019050818103600083015261141a81846113c7565b905092915050565b60008060006060848603121561143b5761143a610a37565b5b600084013567ffffffffffffffff81111561145957611458610a3c565b5b61146586828701610b59565b935050602084013567ffffffffffffffff81111561148657611485610a3c565b5b61149286828701610b59565b925050604084013567ffffffffffffffff8111156114b3576114b2610a3c565b5b6114bf86828701610b59565b9150509250925092565b600081905092915050565b60006114df82610ecb565b6114e981856114c9565b93506114f9818560208601610ee7565b80840191505092915050565b600061151182846114d4565b915081905092915050565b7f4e487b7100000000000000000000000000000000000000000000000000000000600052602260045260246000fd5b6000600282049050600182168061156357607f821691505b6020821081036115765761157561151c565b5b50919050565b600082825260208201905092915050565b600061159882610ecb565b6115a2818561157c565b93506115b2818560208601610ee7565b6115bb81610a4b565b840191505092915050565b600060208201905081810360008301526115e0818461158d565b905092915050565b60008190508160005260206000209050919050565b60006020601f8301049050919050565b600082821b905092915050565b60006008830261164a7fffffffffffffffffffffffffffffffffffffffffffffffffffffffffffffffff8261160d565b611654868361160d565b95508019841693508086168417925050509392505050565b6000819050919050565b6000819050919050565b600061169b6116966116918461166c565b611676565b61166c565b9050919050565b6000819050919050565b6116b583611680565b6116c96116c1826116a2565b84845461161a565b825550505050565b600090565b6116de6116d1565b6116e98184846116ac565b505050565b5b8181101561170d576117026000826116d6565b6001810190506116ef565b5050565b601f82111561175257611723816115e8565b61172c846115fd565b8101602085101561173b578190505b61174f611747856115fd565b8301826116ee565b50505b505050565b600082821c905092915050565b600061177560001984600802611757565b1980831691505092915050565b600061178e8383611764565b9150826002028217905092915050565b6117a782610ecb565b67ffffffffffffffff8111156117c0576117bf610a5c565b5b6117ca825461154b565b6117d5828285611711565b600060209050601f83116001811461180857600084156117f6578287015190505b6118008582611782565b865550611868565b601f198416611816866115e8565b60005b8281101561183e57848901518255600182019150602085019450602081019050611819565b8683101561185b5784890151611857601f891682611764565b8355505b6001600288020188555050505b50505050505056fea2646970667358221220206cd99c3e009f65f8699f789debd2a92131dcb878162efea4fbb59f621ad1dc64736f6c6343000811003360806040526000600660006101000a81548160ff021916908360028111156200002d576200002c6200007e565b5b02179055503480156200003f57600080fd5b506040516200252d3803806200252d833981810160405281019062000065919062000240565b8060049081620000769190620004dc565b5050620005c3565b7f4e487b7100000000000000000000000000000000000000000000000000000000600052602160045260246000fd5b6000604051905090565b600080fd5b600080fd5b600080fd5b600080fd5b6000601f19601f8301169050919050565b7f4e487b7100000000000000000000000000000000000000000000000000000000600052604160045260246000fd5b6200011682620000cb565b810181811067ffffffffffffffff82111715620001385762000137620000dc565b5b80604052505050565b60006200014d620000ad565b90506200015b82826200010b565b919050565b600067ffffffffffffffff8211156200017e576200017d620000dc565b5b6200018982620000cb565b9050602081019050919050565b60005b83811015620001b657808201518184015260208101905062000199565b60008484015250505050565b6000620001d9620001d38462000160565b62000141565b905082815260208101848484011115620001f857620001f7620000c6565b5b6200020584828562000196565b509392505050565b600082601f830112620002255762000224620000c1565b5b815162000237848260208601620001c2565b91505092915050565b600060208284031215620002595762000258620000b7565b5b600082015167ffffffffffffffff8111156200027a5762000279620000bc565b5b62000288848285016200020d565b91505092915050565b600081519050919050565b7f4e487b7100000000000000000000000000000000000000000000000000000000600052602260045260246000fd5b60006002820490506001821680620002e457607f821691505b602082108103620002fa57620002f96200029c565b5b50919050565b60008190508160005260206000209050919050565b60006020601f8301049050919050565b600082821b905092915050565b600060088302620003647fffffffffffffffffffffffffffffffffffffffffffffffffffffffffffffffff8262000325565b62000370868362000325565b95508019841693508086168417925050509392505050565b6000819050919050565b6000819050919050565b6000620003bd620003b7620003b18462000388565b62000392565b62000388565b9050919050565b6000819050919050565b620003d9836200039c565b620003f1620003e882620003c4565b84845462000332565b825550505050565b600090565b62000408620003f9565b62000415818484620003ce565b505050565b5b818110156200043d5762000431600082620003fe565b6001810190506200041b565b5050565b601f8211156200048c57620004568162000300565b620004618462000315565b8101602085101562000471578190505b62000489620004808562000315565b8301826200041a565b50505b505050565b600082821c905092915050565b6000620004b16000198460080262000491565b1980831691505092915050565b6000620004cc83836200049e565b9150826002028217905092915050565b620004e78262000291565b67ffffffffffffffff811115620005035762000502620000dc565b5b6200050f8254620002cb565b6200051c82828562000441565b600060209050601f8311600181146200055457600084156200053f578287015190505b6200054b8582620004be565b865550620005bb565b601f198416620005648662000300565b60005b828110156200058e5784890151825560018201915060208501945060208101905062000567565b86831015620005ae5784890151620005aa601f8916826200049e565b8355505b6001600288020188555050505b505050505050565b611f5a80620005d36000396000f3fe608060405234801561001057600080fd5b50600436106101005760003560e01c8063682fead511610097578063af640d0f11610066578063af640d0f146102a9578063be9a6555146102c7578063df1cb17c146102d1578063e6dbf46c146102ed57610100565b8063682fead5146102115780638702a8481461024157806396a043d514610271578063a20612ec1461028d57610100565b8063405504fa116100d3578063405504fa146101655780634298b5c81461018157806357884749146101b15780635e9cbc54146101e157610100565b806307da68f51461010557806319d037621461010f5780633b45d0a81461012d5780633f5b5bcf14610149575b600080fd5b61010d61031d565b005b61011761034a565b6040516101249190610ed1565b60405180910390f35b61014760048036038101906101429190611144565b610388565b005b610163600480360381019061015e919061129d565b6103bf565b005b61017f600480360381019061017a9190611373565b6103f6565b005b61019b600480360381019061019691906113a0565b610513565b6040516101a8919061156e565b60405180910390f35b6101cb60048036038101906101c69190611373565b6106b4565b6040516101d89190610ed1565b60405180910390f35b6101fb60048036038101906101f691906113a0565b610722565b604051610208919061169e565b60405180910390f35b61022b600480360381019061022691906113a0565b61083b565b6040516102389190611782565b60405180910390f35b61025b600480360381019061025691906113a0565b610932565b6040516102689190611853565b60405180910390f35b61028b60048036038101906102869190611373565b6109a8565b005b6102a760048036038101906102a29190611875565b610a13565b005b6102b1610afd565b6040516102be919061194a565b60405180910390f35b6102cf610b8b565b005b6102eb60048036038101906102e6919061196c565b610bb8565b005b61030760048036038101906103029190611373565b610cae565b6040516103149190611a8a565b60405180910390f35b6002600660006101000a81548160ff0219169083600281111561034357610342611a13565b5b0217905550565b6000600160028111156103605761035f611a13565b5b600660009054906101000a900460ff16600281111561038257610381611a13565b5b14905090565b806000836040516103999190611ae1565b908152602001604051809103902090805190602001906103ba929190610d72565b505050565b806001836040516103d09190611ae1565b908152602001604051809103902090805190602001906103f1929190610dbf565b505050565b60028081111561040957610408611a13565b5b600560008373ffffffffffffffffffffffffffffffffffffffff1673ffffffffffffffffffffffffffffffffffffffff16815260200190815260200160002060009054906101000a900460ff16600281111561046857610467611a13565b5b146104a8576040517f08c379a000000000000000000000000000000000000000000000000000000000815260040161049f90611b44565b60405180910390fd5b6001600560008373ffffffffffffffffffffffffffffffffffffffff1673ffffffffffffffffffffffffffffffffffffffff16815260200190815260200160002060006101000a81548160ff0219169083600281111561050b5761050a611a13565b5b021790555050565b60606003826040516105259190611ae1565b9081526020016040518091039020805480602002602001604051908101604052809291908181526020016000905b828210156106a9578382906000526020600020906002020160405180604001604052908160008201805461058690611b93565b80601f01602080910402602001604051908101604052809291908181526020018280546105b290611b93565b80156105ff5780601f106105d4576101008083540402835291602001916105ff565b820191906000526020600020905b8154815290600101906020018083116105e257829003601f168201915b5050505050815260200160018201805461061890611b93565b80601f016020809104026020016040519081016040528092919081815260200182805461064490611b93565b80156106915780601f1061066657610100808354040283529160200191610691565b820191906000526020600020905b81548152906001019060200180831161067457829003601f168201915b50505050508152505081526020019060010190610553565b505050509050919050565b6000806106c083610cae565b90506002808111156106d5576106d4611a13565b5b8160028111156106e8576106e7611a13565b5b14801561071a57506000600281111561070457610703611a13565b5b81600281111561071757610716611a13565b5b14155b915050919050565b60606002826040516107349190611ae1565b9081526020016040518091039020805480602002602001604051908101604052809291908181526020016000905b8282101561083057838290600052602060002090600202016040518060400160405290816000820154815260200160018201805461079f90611b93565b80601f01602080910402602001604051908101604052809291908181526020018280546107cb90611b93565b80156108185780601f106107ed57610100808354040283529160200191610818565b820191906000526020600020905b8154815290600101906020018083116107fb57829003601f168201915b50505050508152505081526020019060010190610762565b505050509050919050565b606060018260405161084d9190611ae1565b9081526020016040518091039020805480602002602001604051908101604052809291908181526020016000905b8282101561092757838290600052602060002001805461089a90611b93565b80601f01602080910402602001604051908101604052809291908181526020018280546108c690611b93565b80156109135780601f106108e857610100808354040283529160200191610913565b820191906000526020600020905b8154815290600101906020018083116108f657829003601f168201915b50505050508152602001906001019061087b565b505050509050919050565b60606000826040516109449190611ae1565b908152602001604051809103902080548060200260200160405190810160405280929190818152602001828054801561099c57602002820191906000526020600020905b815481526020019060010190808311610988575b50505050509050919050565b6002600560008373ffffffffffffffffffffffffffffffffffffffff1673ffffffffffffffffffffffffffffffffffffffff16815260200190815260200160002060006101000a81548160ff02191690836002811115610a0b57610a0a611a13565b5b021790555050565b73__ValidationLib_________________________630cba4347826040518263ffffffff1660e01b8152600401610a4a9190611c0e565b60006040518083038186803b158015610a6257600080fd5b505af4158015610a76573d6000803e3d6000fd5b50505050600283604051610a8a9190611ae1565b90815260200160405180910390206040518060400160405280848152602001838152509080600181540180825580915050600190039060005260206000209060020201600090919091909150600082015181600001556020820151816001019081610af59190611de6565b505050505050565b60048054610b0a90611b93565b80601f0160208091040260200160405190810160405280929190818152602001828054610b3690611b93565b8015610b835780601f10610b5857610100808354040283529160200191610b83565b820191906000526020600020905b815481529060010190602001808311610b6657829003601f168201915b505050505081565b6001600660006101000a81548160ff02191690836002811115610bb157610bb0611a13565b5b0217905550565b73__ValidationLib_________________________63fb04d8ce826040518263ffffffff1660e01b8152600401610bef9190611c0e565b60006040518083038186803b158015610c0757600080fd5b505af4158015610c1b573d6000803e3d6000fd5b50505050600383604051610c2f9190611ae1565b908152602001604051809103902060405180604001604052808481526020018381525090806001815401808255809150506001900390600052602060002090600202016000909190919091506000820151816000019081610c909190611de6565b506020820151816001019081610ca69190611de6565b505050505050565b60008073ffffffffffffffffffffffffffffffffffffffff168273ffffffffffffffffffffffffffffffffffffffff1603610d1e576040517f08c379a0000000000000000000000000000000000000000000000000000000008152600401610d1590611f04565b60405180910390fd5b600560008373ffffffffffffffffffffffffffffffffffffffff1673ffffffffffffffffffffffffffffffffffffffff16815260200190815260200160002060009054906101000a900460ff169050919050565b828054828255906000526020600020908101928215610dae579160200282015b82811115610dad578251825591602001919060010190610d92565b5b509050610dbb9190610e18565b5090565b828054828255906000526020600020908101928215610e07579160200282015b82811115610e06578251829081610df69190611de6565b5091602001919060010190610ddf565b5b509050610e149190610e35565b5090565b5b80821115610e31576000816000905550600101610e19565b5090565b5b80821115610e555760008181610e4c9190610e59565b50600101610e36565b5090565b508054610e6590611b93565b6000825580601f10610e775750610e96565b601f016020900490600052602060002090810190610e959190610e99565b5b50565b5b80821115610eb2576000816000905550600101610e9a565b5090565b60008115159050919050565b610ecb81610eb6565b82525050565b6000602082019050610ee66000830184610ec2565b92915050565b6000604051905090565b600080fd5b600080fd5b600080fd5b600080fd5b6000601f19601f8301169050919050565b7f4e487b7100000000000000000000000000000000000000000000000000000000600052604160045260246000fd5b610f5382610f0a565b810181811067ffffffffffffffff82111715610f7257610f71610f1b565b5b80604052505050565b6000610f85610eec565b9050610f918282610f4a565b919050565b600067ffffffffffffffff821115610fb157610fb0610f1b565b5b610fba82610f0a565b9050602081019050919050565b82818337600083830152505050565b6000610fe9610fe484610f96565b610f7b565b90508281526020810184848401111561100557611004610f05565b5b611010848285610fc7565b509392505050565b600082601f83011261102d5761102c610f00565b5b813561103d848260208601610fd6565b91505092915050565b600067ffffffffffffffff82111561106157611060610f1b565b5b602082029050602081019050919050565b600080fd5b6000819050919050565b61108a81611077565b811461109557600080fd5b50565b6000813590506110a781611081565b92915050565b60006110c06110bb84611046565b610f7b565b905080838252602082019050602084028301858111156110e3576110e2611072565b5b835b8181101561110c57806110f88882611098565b8452602084019350506020810190506110e5565b5050509392505050565b600082601f83011261112b5761112a610f00565b5b813561113b8482602086016110ad565b91505092915050565b6000806040838503121561115b5761115a610ef6565b5b600083013567ffffffffffffffff81111561117957611178610efb565b5b61118585828601611018565b925050602083013567ffffffffffffffff8111156111a6576111a5610efb565b5b6111b285828601611116565b9150509250929050565b600067ffffffffffffffff8211156111d7576111d6610f1b565b5b602082029050602081019050919050565b60006111fb6111f6846111bc565b610f7b565b9050808382526020820190506020840283018581111561121e5761121d611072565b5b835b8181101561126557803567ffffffffffffffff81111561124357611242610f00565b5b8086016112508982611018565b85526020850194505050602081019050611220565b5050509392505050565b600082601f83011261128457611283610f00565b5b81356112948482602086016111e8565b91505092915050565b600080604083850312156112b4576112b3610ef6565b5b600083013567ffffffffffffffff8111156112d2576112d1610efb565b5b6112de85828601611018565b925050602083013567ffffffffffffffff8111156112ff576112fe610efb565b5b61130b8582860161126f565b9150509250929050565b600073ffffffffffffffffffffffffffffffffffffffff82169050919050565b600061134082611315565b9050919050565b61135081611335565b811461135b57600080fd5b50565b60008135905061136d81611347565b92915050565b60006020828403121561138957611388610ef6565b5b60006113978482850161135e565b91505092915050565b6000602082840312156113b6576113b5610ef6565b5b600082013567ffffffffffffffff8111156113d4576113d3610efb565b5b6113e084828501611018565b91505092915050565b600081519050919050565b600082825260208201905092915050565b6000819050602082019050919050565b600081519050919050565b600082825260208201905092915050565b60005b8381101561144f578082015181840152602081019050611434565b60008484015250505050565b600061146682611415565b6114708185611420565b9350611480818560208601611431565b61148981610f0a565b840191505092915050565b600060408301600083015184820360008601526114b1828261145b565b915050602083015184820360208601526114cb828261145b565b9150508091505092915050565b60006114e48383611494565b905092915050565b6000602082019050919050565b6000611504826113e9565b61150e81856113f4565b93508360208202850161152085611405565b8060005b8581101561155c578484038952815161153d85826114d8565b9450611548836114ec565b925060208a01995050600181019050611524565b50829750879550505050505092915050565b6000602082019050818103600083015261158881846114f9565b905092915050565b600081519050919050565b600082825260208201905092915050565b6000819050602082019050919050565b6115c581611077565b82525050565b60006040830160008301516115e360008601826115bc565b50602083015184820360208601526115fb828261145b565b9150508091505092915050565b600061161483836115cb565b905092915050565b6000602082019050919050565b600061163482611590565b61163e818561159b565b935083602082028501611650856115ac565b8060005b8581101561168c578484038952815161166d8582611608565b94506116788361161c565b925060208a01995050600181019050611654565b50829750879550505050505092915050565b600060208201905081810360008301526116b88184611629565b905092915050565b600081519050919050565b600082825260208201905092915050565b6000819050602082019050919050565b60006116f8838361145b565b905092915050565b6000602082019050919050565b6000611718826116c0565b61172281856116cb565b935083602082028501611734856116dc565b8060005b85811015611770578484038952815161175185826116ec565b945061175c83611700565b925060208a01995050600181019050611738565b50829750879550505050505092915050565b6000602082019050818103600083015261179c818461170d565b905092915050565b600081519050919050565b600082825260208201905092915050565b6000819050602082019050919050565b60006117dc83836115bc565b60208301905092915050565b6000602082019050919050565b6000611800826117a4565b61180a81856117af565b9350611815836117c0565b8060005b8381101561184657815161182d88826117d0565b9750611838836117e8565b925050600181019050611819565b5085935050505092915050565b6000602082019050818103600083015261186d81846117f5565b905092915050565b60008060006060848603121561188e5761188d610ef6565b5b600084013567ffffffffffffffff8111156118ac576118ab610efb565b5b6118b886828701611018565b93505060206118c986828701611098565b925050604084013567ffffffffffffffff8111156118ea576118e9610efb565b5b6118f686828701611018565b9150509250925092565b600082825260208201905092915050565b600061191c82611415565b6119268185611900565b9350611936818560208601611431565b61193f81610f0a565b840191505092915050565b600060208201905081810360008301526119648184611911565b905092915050565b60008060006060848603121561198557611984610ef6565b5b600084013567ffffffffffffffff8111156119a3576119a2610efb565b5b6119af86828701611018565b935050602084013567ffffffffffffffff8111156119d0576119cf610efb565b5b6119dc86828701611018565b925050604084013567ffffffffffffffff8111156119fd576119fc610efb565b5b611a0986828701611018565b9150509250925092565b7f4e487b7100000000000000000000000000000000000000000000000000000000600052602160045260246000fd5b60038110611a5357611a52611a13565b5b50565b6000819050611a6482611a42565b919050565b6000611a7482611a56565b9050919050565b611a8481611a69565b82525050565b6000602082019050611a9f6000830184611a7b565b92915050565b600081905092915050565b6000611abb82611415565b611ac58185611aa5565b9350611ad5818560208601611431565b80840191505092915050565b6000611aed8284611ab0565b915081905092915050565b7f506c61796572206e6f7420416374697665000000000000000000000000000000600082015250565b6000611b2e601183611900565b9150611b3982611af8565b602082019050919050565b60006020820190508181036000830152611b5d81611b21565b9050919050565b7f4e487b7100000000000000000000000000000000000000000000000000000000600052602260045260246000fd5b60006002820490506001821680611bab57607f821691505b602082108103611bbe57611bbd611b64565b5b50919050565b600082825260208201905092915050565b6000611be082611415565b611bea8185611bc4565b9350611bfa818560208601611431565b611c0381610f0a565b840191505092915050565b60006020820190508181036000830152611c288184611bd5565b905092915050565b60008190508160005260206000209050919050565b60006020601f8301049050919050565b600082821b905092915050565b600060088302611c927fffffffffffffffffffffffffffffffffffffffffffffffffffffffffffffffff82611c55565b611c9c8683611c55565b95508019841693508086168417925050509392505050565b6000819050919050565b6000819050919050565b6000611ce3611cde611cd984611cb4565b611cbe565b611cb4565b9050919050565b6000819050919050565b611cfd83611cc8565b611d11611d0982611cea565b848454611c62565b825550505050565b600090565b611d26611d19565b611d31818484611cf4565b505050565b5b81811015611d5557611d4a600082611d1e565b600181019050611d37565b5050565b601f821115611d9a57611d6b81611c30565b611d7484611c45565b81016020851015611d83578190505b611d97611d8f85611c45565b830182611d36565b50505b505050565b600082821c905092915050565b6000611dbd60001984600802611d9f565b1980831691505092915050565b6000611dd68383611dac565b9150826002028217905092915050565b611def82611415565b67ffffffffffffffff811115611e0857611e07610f1b565b5b611e128254611b93565b611e1d828285611d59565b600060209050601f831160018114611e505760008415611e3e578287015190505b611e488582611dca565b865550611eb0565b601f198416611e5e86611c30565b60005b82811015611e8657848901518255600182019150602085019450602081019050611e61565b86831015611ea35784890151611e9f601f891682611dac565b8355505b6001600288020188555050505b505050505050565b7f506c6179657220444e4500000000000000000000000000000000000000000000600082015250565b6000611eee600a83611900565b9150611ef982611eb8565b602082019050919050565b60006020820190508181036000830152611f1d81611ee1565b905091905056fea2646970667358221220d43349df04164a9dd95086084f8aaab663abd84018a29f60175824ad625db7d664736f6c63430008110033a264697066735822122003141476cfe5f817cfaee9b43f83272f8993d8a67b33232ccf9545fc778f6af764736f6c63430008110033",
  "immutableReferences": {},
  "source": "// SPDX-License-Identifier: MIT\npragma solidity >=0.4.22 <0.9.0;\n\nimport \"./Session.sol\";\nimport \"./Player.sol\";\n\ncontract SessionHandler {\n    mapping(string => address) game_sessions;\n    mapping(string => address) players;\n\n    function add_new_session(string memory session_id) public {\n        // Check for duplicates\n        require(game_sessions[session_id] == address(0x0));\n\n        Session new_session = new Session(session_id);\n        game_sessions[session_id] = address(new_session);\n    }\n\n    function add_new_player(string memory session_id, string memory player_id) public {\n        // Check for duplicates\n        require(players[player_id] == address(0x0));\n\n        Session session = Session(get_session(session_id));\n        Player new_player = new Player(player_id);\n        players[player_id] = address(new_player);\n        session.add_player(address(new_player));\n    }\n\n    function get_player(string memory player_id) public view returns (address) {\n        address player_addr = players[player_id];\n        if (player_addr == address(0x0)) {\n            revert(\"Player DNE\");\n        }\n        return player_addr;\n    }\n\n    function get_player_in_session(string memory session_id, string memory player_id) public view returns (address) {\n        Session session = Session(get_session(session_id));\n        address player_addr = players[player_id];\n        if (!session.is_player_active(player_addr)) {\n            revert(\"Player not Active\");\n        }\n        return player_addr;\n    }\n\n    function get_session(string memory session_id) public view returns (address) {\n        address session_addr = game_sessions[session_id];\n        if (session_addr == address(0x0)) {\n            revert(\"Session DNE\");\n        }\n        return session_addr;\n    }\n}\n",
  "sourcePath": "/mnt/d/documents/blockchain-testing/BC_Anticheat/contracts/SessionHandler.sol",
  "compiler": {
    "name": "solc",
    "version": "0.8.17+commit.8df45f5f.Emscripten.clang"
  },
  "schemaVersion": "3.4.11",
  "updatedAt": "2023-03-18T08:22:38.707Z",
  "devdoc": {
    "kind": "dev",
    "methods": {},
    "version": 1
  },
  "userdoc": {
    "kind": "user",
    "methods": {},
    "version": 1
  }
}