{
  "contractName": "Session",
  "abi": [
    {
      "inputs": [
        {
          "internalType": "string",
          "name": "assigned_id",
          "type": "string"
        }
      ],
      "stateMutability": "nonpayable",
      "type": "constructor"
    },
    {
      "inputs": [
        {
          "internalType": "string",
          "name": "key",
          "type": "string"
        },
        {
          "internalType": "int256",
          "name": "val",
          "type": "int256"
        },
        {
          "internalType": "string",
          "name": "operand",
          "type": "string"
        }
      ],
      "name": "add_int_validation_rule",
      "outputs": [],
      "stateMutability": "nonpayable",
      "type": "function"
    },
    {
      "inputs": [
        {
          "internalType": "string",
          "name": "key",
          "type": "string"
        },
        {
          "internalType": "string",
          "name": "val",
          "type": "string"
        },
        {
          "internalType": "string",
          "name": "operand",
          "type": "string"
        }
      ],
      "name": "add_string_validation_rule",
      "outputs": [],
      "stateMutability": "nonpayable",
      "type": "function"
    },
    {
      "inputs": [
        {
          "internalType": "string",
          "name": "key",
          "type": "string"
        }
      ],
      "name": "get_int_data",
      "outputs": [
        {
          "internalType": "int256[]",
          "name": "",
          "type": "int256[]"
        }
      ],
      "stateMutability": "view",
      "type": "function"
    },
    {
      "inputs": [
        {
          "internalType": "string",
          "name": "key",
          "type": "string"
        }
      ],
      "name": "get_int_validation_rules",
      "outputs": [
        {
          "components": [
            {
              "internalType": "int256",
              "name": "val",
              "type": "int256"
            },
            {
              "internalType": "string",
              "name": "operand",
              "type": "string"
            }
          ],
          "internalType": "struct ValidationRulesLib.IntValidationRule[]",
          "name": "",
          "type": "tuple[]"
        }
      ],
      "stateMutability": "view",
      "type": "function"
    },
    {
      "inputs": [
        {
          "internalType": "string",
          "name": "key",
          "type": "string"
        }
      ],
      "name": "get_string_data",
      "outputs": [
        {
          "internalType": "string[]",
          "name": "",
          "type": "string[]"
        }
      ],
      "stateMutability": "view",
      "type": "function"
    },
    {
      "inputs": [
        {
          "internalType": "string",
          "name": "key",
          "type": "string"
        }
      ],
      "name": "get_string_validation_rules",
      "outputs": [
        {
          "components": [
            {
              "internalType": "string",
              "name": "val",
              "type": "string"
            },
            {
              "internalType": "string",
              "name": "operand",
              "type": "string"
            }
          ],
          "internalType": "struct ValidationRulesLib.StringValidationRule[]",
          "name": "",
          "type": "tuple[]"
        }
      ],
      "stateMutability": "view",
      "type": "function"
    },
    {
      "inputs": [],
      "name": "id",
      "outputs": [
        {
          "internalType": "string",
          "name": "",
          "type": "string"
        }
      ],
      "stateMutability": "view",
      "type": "function"
    },
    {
      "inputs": [
        {
          "internalType": "string",
          "name": "key",
          "type": "string"
        },
        {
          "internalType": "int256[]",
          "name": "data",
          "type": "int256[]"
        }
      ],
      "name": "update_int_data",
      "outputs": [],
      "stateMutability": "nonpayable",
      "type": "function"
    },
    {
      "inputs": [
        {
          "internalType": "string",
          "name": "key",
          "type": "string"
        },
        {
          "internalType": "string[]",
          "name": "data",
          "type": "string[]"
        }
      ],
      "name": "update_string_data",
      "outputs": [],
      "stateMutability": "nonpayable",
      "type": "function"
    },
    {
      "inputs": [
        {
          "internalType": "address",
          "name": "player_addr",
          "type": "address"
        }
      ],
      "name": "add_player",
      "outputs": [],
      "stateMutability": "nonpayable",
      "type": "function"
    },
    {
      "inputs": [
        {
          "internalType": "address",
          "name": "player_addr",
          "type": "address"
        }
      ],
      "name": "remove_player",
      "outputs": [],
      "stateMutability": "nonpayable",
      "type": "function"
    },
    {
      "inputs": [
        {
          "internalType": "address",
          "name": "player_addr",
          "type": "address"
        }
      ],
      "name": "get_player_state",
      "outputs": [
        {
          "internalType": "enum Session.PlayerState",
          "name": "",
          "type": "uint8"
        }
      ],
      "stateMutability": "view",
      "type": "function"
    },
    {
      "inputs": [
        {
          "internalType": "address",
          "name": "player_addr",
          "type": "address"
        }
      ],
      "name": "is_player_active",
      "outputs": [
        {
          "internalType": "bool",
          "name": "",
          "type": "bool"
        }
      ],
      "stateMutability": "view",
      "type": "function"
    },
    {
      "inputs": [],
      "name": "start",
      "outputs": [],
      "stateMutability": "nonpayable",
      "type": "function"
    },
    {
      "inputs": [],
      "name": "stop",
      "outputs": [],
      "stateMutability": "nonpayable",
      "type": "function"
    },
    {
      "inputs": [],
      "name": "is_running",
      "outputs": [
        {
          "internalType": "bool",
          "name": "",
          "type": "bool"
        }
      ],
      "stateMutability": "view",
      "type": "function"
    }
  ],
  "bytecode": "0x60806040526000600660006101000a81548160ff021916908360028111156200002d576200002c6200007e565b5b02179055503480156200003f57600080fd5b506040516200262c3803806200262c833981810160405281019062000065919062000240565b8060049081620000769190620004dc565b5050620005c3565b7f4e487b7100000000000000000000000000000000000000000000000000000000600052602160045260246000fd5b6000604051905090565b600080fd5b600080fd5b600080fd5b600080fd5b6000601f19601f8301169050919050565b7f4e487b7100000000000000000000000000000000000000000000000000000000600052604160045260246000fd5b6200011682620000cb565b810181811067ffffffffffffffff82111715620001385762000137620000dc565b5b80604052505050565b60006200014d620000ad565b90506200015b82826200010b565b919050565b600067ffffffffffffffff8211156200017e576200017d620000dc565b5b6200018982620000cb565b9050602081019050919050565b60005b83811015620001b657808201518184015260208101905062000199565b60008484015250505050565b6000620001d9620001d38462000160565b62000141565b905082815260208101848484011115620001f857620001f7620000c6565b5b6200020584828562000196565b509392505050565b600082601f830112620002255762000224620000c1565b5b815162000237848260208601620001c2565b91505092915050565b600060208284031215620002595762000258620000b7565b5b600082015167ffffffffffffffff8111156200027a5762000279620000bc565b5b62000288848285016200020d565b91505092915050565b600081519050919050565b7f4e487b7100000000000000000000000000000000000000000000000000000000600052602260045260246000fd5b60006002820490506001821680620002e457607f821691505b602082108103620002fa57620002f96200029c565b5b50919050565b60008190508160005260206000209050919050565b60006020601f8301049050919050565b600082821b905092915050565b600060088302620003647fffffffffffffffffffffffffffffffffffffffffffffffffffffffffffffffff8262000325565b62000370868362000325565b95508019841693508086168417925050509392505050565b6000819050919050565b6000819050919050565b6000620003bd620003b7620003b18462000388565b62000392565b62000388565b9050919050565b6000819050919050565b620003d9836200039c565b620003f1620003e882620003c4565b84845462000332565b825550505050565b600090565b62000408620003f9565b62000415818484620003ce565b505050565b5b818110156200043d5762000431600082620003fe565b6001810190506200041b565b5050565b601f8211156200048c57620004568162000300565b620004618462000315565b8101602085101562000471578190505b62000489620004808562000315565b8301826200041a565b50505b505050565b600082821c905092915050565b6000620004b16000198460080262000491565b1980831691505092915050565b6000620004cc83836200049e565b9150826002028217905092915050565b620004e78262000291565b67ffffffffffffffff811115620005035762000502620000dc565b5b6200050f8254620002cb565b6200051c82828562000441565b600060209050601f8311600181146200055457600084156200053f578287015190505b6200054b8582620004be565b865550620005bb565b601f198416620005648662000300565b60005b828110156200058e5784890151825560018201915060208501945060208101905062000567565b86831015620005ae5784890151620005aa601f8916826200049e565b8355505b6001600288020188555050505b505050505050565b61205980620005d36000396000f3fe608060405234801561001057600080fd5b50600436106101005760003560e01c8063682fead511610097578063af640d0f11610066578063af640d0f146102a9578063be9a6555146102c7578063df1cb17c146102d1578063e6dbf46c146102ed57610100565b8063682fead5146102115780638702a8481461024157806396a043d514610271578063a20612ec1461028d57610100565b8063405504fa116100d3578063405504fa146101655780634298b5c81461018157806357884749146101b15780635e9cbc54146101e157610100565b806307da68f51461010557806319d037621461010f5780633b45d0a81461012d5780633f5b5bcf14610149575b600080fd5b61010d61031d565b005b61011761034a565b6040516101249190610f64565b60405180910390f35b610147600480360381019061014291906111d7565b610388565b005b610163600480360381019061015e9190611330565b6103bf565b005b61017f600480360381019061017a9190611406565b6103f6565b005b61019b60048036038101906101969190611433565b610513565b6040516101a89190611601565b60405180910390f35b6101cb60048036038101906101c69190611406565b6106b4565b6040516101d89190610f64565b60405180910390f35b6101fb60048036038101906101f69190611433565b610722565b6040516102089190611731565b60405180910390f35b61022b60048036038101906102269190611433565b61083b565b6040516102389190611815565b60405180910390f35b61025b60048036038101906102569190611433565b61097c565b60405161026891906118e6565b60405180910390f35b61028b60048036038101906102869190611406565b610a3b565b005b6102a760048036038101906102a29190611908565b610aa6565b005b6102b1610b90565b6040516102be91906119dd565b60405180910390f35b6102cf610c1e565b005b6102eb60048036038101906102e691906119ff565b610c4b565b005b61030760048036038101906103029190611406565b610d41565b6040516103149190611b1d565b60405180910390f35b6002600660006101000a81548160ff0219169083600281111561034357610342611aa6565b5b0217905550565b6000600160028111156103605761035f611aa6565b5b600660009054906101000a900460ff16600281111561038257610381611aa6565b5b14905090565b806000836040516103999190611b74565b908152602001604051809103902090805190602001906103ba929190610e05565b505050565b806001836040516103d09190611b74565b908152602001604051809103902090805190602001906103f1929190610e52565b505050565b60028081111561040957610408611aa6565b5b600560008373ffffffffffffffffffffffffffffffffffffffff1673ffffffffffffffffffffffffffffffffffffffff16815260200190815260200160002060009054906101000a900460ff16600281111561046857610467611aa6565b5b146104a8576040517f08c379a000000000000000000000000000000000000000000000000000000000815260040161049f90611bd7565b60405180910390fd5b6001600560008373ffffffffffffffffffffffffffffffffffffffff1673ffffffffffffffffffffffffffffffffffffffff16815260200190815260200160002060006101000a81548160ff0219169083600281111561050b5761050a611aa6565b5b021790555050565b60606003826040516105259190611b74565b9081526020016040518091039020805480602002602001604051908101604052809291908181526020016000905b828210156106a9578382906000526020600020906002020160405180604001604052908160008201805461058690611c26565b80601f01602080910402602001604051908101604052809291908181526020018280546105b290611c26565b80156105ff5780601f106105d4576101008083540402835291602001916105ff565b820191906000526020600020905b8154815290600101906020018083116105e257829003601f168201915b5050505050815260200160018201805461061890611c26565b80601f016020809104026020016040519081016040528092919081815260200182805461064490611c26565b80156106915780601f1061066657610100808354040283529160200191610691565b820191906000526020600020905b81548152906001019060200180831161067457829003601f168201915b50505050508152505081526020019060010190610553565b505050509050919050565b6000806106c083610d41565b90506002808111156106d5576106d4611aa6565b5b8160028111156106e8576106e7611aa6565b5b14801561071a57506000600281111561070457610703611aa6565b5b81600281111561071757610716611aa6565b5b14155b915050919050565b60606002826040516107349190611b74565b9081526020016040518091039020805480602002602001604051908101604052809291908181526020016000905b8282101561083057838290600052602060002090600202016040518060400160405290816000820154815260200160018201805461079f90611c26565b80601f01602080910402602001604051908101604052809291908181526020018280546107cb90611c26565b80156108185780601f106107ed57610100808354040283529160200191610818565b820191906000526020600020905b8154815290600101906020018083116107fb57829003601f168201915b50505050508152505081526020019060010190610762565b505050509050919050565b6060600060018360405161084f9190611b74565b9081526020016040518091039020805480602002602001604051908101604052809291908181526020016000905b8282101561092957838290600052602060002001805461089c90611c26565b80601f01602080910402602001604051908101604052809291908181526020018280546108c890611c26565b80156109155780601f106108ea57610100808354040283529160200191610915565b820191906000526020600020905b8154815290600101906020018083116108f857829003601f168201915b50505050508152602001906001019061087d565b5050505090506000815103610973576040517f08c379a000000000000000000000000000000000000000000000000000000000815260040161096a90611ca3565b60405180910390fd5b80915050919050565b60606000808360405161098f9190611b74565b90815260200160405180910390208054806020026020016040519081016040528092919081815260200182805480156109e757602002820191906000526020600020905b8154815260200190600101908083116109d3575b505050505090506000815103610a32576040517f08c379a0000000000000000000000000000000000000000000000000000000008152600401610a2990611ca3565b60405180910390fd5b80915050919050565b6002600560008373ffffffffffffffffffffffffffffffffffffffff1673ffffffffffffffffffffffffffffffffffffffff16815260200190815260200160002060006101000a81548160ff02191690836002811115610a9e57610a9d611aa6565b5b021790555050565b73__ValidationLib_________________________630cba4347826040518263ffffffff1660e01b8152600401610add9190611d0d565b60006040518083038186803b158015610af557600080fd5b505af4158015610b09573d6000803e3d6000fd5b50505050600283604051610b1d9190611b74565b90815260200160405180910390206040518060400160405280848152602001838152509080600181540180825580915050600190039060005260206000209060020201600090919091909150600082015181600001556020820151816001019081610b889190611ee5565b505050505050565b60048054610b9d90611c26565b80601f0160208091040260200160405190810160405280929190818152602001828054610bc990611c26565b8015610c165780601f10610beb57610100808354040283529160200191610c16565b820191906000526020600020905b815481529060010190602001808311610bf957829003601f168201915b505050505081565b6001600660006101000a81548160ff02191690836002811115610c4457610c43611aa6565b5b0217905550565b73__ValidationLib_________________________63fb04d8ce826040518263ffffffff1660e01b8152600401610c829190611d0d565b60006040518083038186803b158015610c9a57600080fd5b505af4158015610cae573d6000803e3d6000fd5b50505050600383604051610cc29190611b74565b908152602001604051809103902060405180604001604052808481526020018381525090806001815401808255809150506001900390600052602060002090600202016000909190919091506000820151816000019081610d239190611ee5565b506020820151816001019081610d399190611ee5565b505050505050565b60008073ffffffffffffffffffffffffffffffffffffffff168273ffffffffffffffffffffffffffffffffffffffff1603610db1576040517f08c379a0000000000000000000000000000000000000000000000000000000008152600401610da890612003565b60405180910390fd5b600560008373ffffffffffffffffffffffffffffffffffffffff1673ffffffffffffffffffffffffffffffffffffffff16815260200190815260200160002060009054906101000a900460ff169050919050565b828054828255906000526020600020908101928215610e41579160200282015b82811115610e40578251825591602001919060010190610e25565b5b509050610e4e9190610eab565b5090565b828054828255906000526020600020908101928215610e9a579160200282015b82811115610e99578251829081610e899190611ee5565b5091602001919060010190610e72565b5b509050610ea79190610ec8565b5090565b5b80821115610ec4576000816000905550600101610eac565b5090565b5b80821115610ee85760008181610edf9190610eec565b50600101610ec9565b5090565b508054610ef890611c26565b6000825580601f10610f0a5750610f29565b601f016020900490600052602060002090810190610f289190610f2c565b5b50565b5b80821115610f45576000816000905550600101610f2d565b5090565b60008115159050919050565b610f5e81610f49565b82525050565b6000602082019050610f796000830184610f55565b92915050565b6000604051905090565b600080fd5b600080fd5b600080fd5b600080fd5b6000601f19601f8301169050919050565b7f4e487b7100000000000000000000000000000000000000000000000000000000600052604160045260246000fd5b610fe682610f9d565b810181811067ffffffffffffffff8211171561100557611004610fae565b5b80604052505050565b6000611018610f7f565b90506110248282610fdd565b919050565b600067ffffffffffffffff82111561104457611043610fae565b5b61104d82610f9d565b9050602081019050919050565b82818337600083830152505050565b600061107c61107784611029565b61100e565b90508281526020810184848401111561109857611097610f98565b5b6110a384828561105a565b509392505050565b600082601f8301126110c0576110bf610f93565b5b81356110d0848260208601611069565b91505092915050565b600067ffffffffffffffff8211156110f4576110f3610fae565b5b602082029050602081019050919050565b600080fd5b6000819050919050565b61111d8161110a565b811461112857600080fd5b50565b60008135905061113a81611114565b92915050565b600061115361114e846110d9565b61100e565b9050808382526020820190506020840283018581111561117657611175611105565b5b835b8181101561119f578061118b888261112b565b845260208401935050602081019050611178565b5050509392505050565b600082601f8301126111be576111bd610f93565b5b81356111ce848260208601611140565b91505092915050565b600080604083850312156111ee576111ed610f89565b5b600083013567ffffffffffffffff81111561120c5761120b610f8e565b5b611218858286016110ab565b925050602083013567ffffffffffffffff81111561123957611238610f8e565b5b611245858286016111a9565b9150509250929050565b600067ffffffffffffffff82111561126a57611269610fae565b5b602082029050602081019050919050565b600061128e6112898461124f565b61100e565b905080838252602082019050602084028301858111156112b1576112b0611105565b5b835b818110156112f857803567ffffffffffffffff8111156112d6576112d5610f93565b5b8086016112e389826110ab565b855260208501945050506020810190506112b3565b5050509392505050565b600082601f83011261131757611316610f93565b5b813561132784826020860161127b565b91505092915050565b6000806040838503121561134757611346610f89565b5b600083013567ffffffffffffffff81111561136557611364610f8e565b5b611371858286016110ab565b925050602083013567ffffffffffffffff81111561139257611391610f8e565b5b61139e85828601611302565b9150509250929050565b600073ffffffffffffffffffffffffffffffffffffffff82169050919050565b60006113d3826113a8565b9050919050565b6113e3816113c8565b81146113ee57600080fd5b50565b600081359050611400816113da565b92915050565b60006020828403121561141c5761141b610f89565b5b600061142a848285016113f1565b91505092915050565b60006020828403121561144957611448610f89565b5b600082013567ffffffffffffffff81111561146757611466610f8e565b5b611473848285016110ab565b91505092915050565b600081519050919050565b600082825260208201905092915050565b6000819050602082019050919050565b600081519050919050565b600082825260208201905092915050565b60005b838110156114e25780820151818401526020810190506114c7565b60008484015250505050565b60006114f9826114a8565b61150381856114b3565b93506115138185602086016114c4565b61151c81610f9d565b840191505092915050565b6000604083016000830151848203600086015261154482826114ee565b9150506020830151848203602086015261155e82826114ee565b9150508091505092915050565b60006115778383611527565b905092915050565b6000602082019050919050565b60006115978261147c565b6115a18185611487565b9350836020820285016115b385611498565b8060005b858110156115ef57848403895281516115d0858261156b565b94506115db8361157f565b925060208a019950506001810190506115b7565b50829750879550505050505092915050565b6000602082019050818103600083015261161b818461158c565b905092915050565b600081519050919050565b600082825260208201905092915050565b6000819050602082019050919050565b6116588161110a565b82525050565b6000604083016000830151611676600086018261164f565b506020830151848203602086015261168e82826114ee565b9150508091505092915050565b60006116a7838361165e565b905092915050565b6000602082019050919050565b60006116c782611623565b6116d1818561162e565b9350836020820285016116e38561163f565b8060005b8581101561171f5784840389528151611700858261169b565b945061170b836116af565b925060208a019950506001810190506116e7565b50829750879550505050505092915050565b6000602082019050818103600083015261174b81846116bc565b905092915050565b600081519050919050565b600082825260208201905092915050565b6000819050602082019050919050565b600061178b83836114ee565b905092915050565b6000602082019050919050565b60006117ab82611753565b6117b5818561175e565b9350836020820285016117c78561176f565b8060005b8581101561180357848403895281516117e4858261177f565b94506117ef83611793565b925060208a019950506001810190506117cb565b50829750879550505050505092915050565b6000602082019050818103600083015261182f81846117a0565b905092915050565b600081519050919050565b600082825260208201905092915050565b6000819050602082019050919050565b600061186f838361164f565b60208301905092915050565b6000602082019050919050565b600061189382611837565b61189d8185611842565b93506118a883611853565b8060005b838110156118d95781516118c08882611863565b97506118cb8361187b565b9250506001810190506118ac565b5085935050505092915050565b600060208201905081810360008301526119008184611888565b905092915050565b60008060006060848603121561192157611920610f89565b5b600084013567ffffffffffffffff81111561193f5761193e610f8e565b5b61194b868287016110ab565b935050602061195c8682870161112b565b925050604084013567ffffffffffffffff81111561197d5761197c610f8e565b5b611989868287016110ab565b9150509250925092565b600082825260208201905092915050565b60006119af826114a8565b6119b98185611993565b93506119c98185602086016114c4565b6119d281610f9d565b840191505092915050565b600060208201905081810360008301526119f781846119a4565b905092915050565b600080600060608486031215611a1857611a17610f89565b5b600084013567ffffffffffffffff811115611a3657611a35610f8e565b5b611a42868287016110ab565b935050602084013567ffffffffffffffff811115611a6357611a62610f8e565b5b611a6f868287016110ab565b925050604084013567ffffffffffffffff811115611a9057611a8f610f8e565b5b611a9c868287016110ab565b9150509250925092565b7f4e487b7100000000000000000000000000000000000000000000000000000000600052602160045260246000fd5b60038110611ae657611ae5611aa6565b5b50565b6000819050611af782611ad5565b919050565b6000611b0782611ae9565b9050919050565b611b1781611afc565b82525050565b6000602082019050611b326000830184611b0e565b92915050565b600081905092915050565b6000611b4e826114a8565b611b588185611b38565b9350611b688185602086016114c4565b80840191505092915050565b6000611b808284611b43565b915081905092915050565b7f506c61796572206e6f7420416374697665000000000000000000000000000000600082015250565b6000611bc1601183611993565b9150611bcc82611b8b565b602082019050919050565b60006020820190508181036000830152611bf081611bb4565b9050919050565b7f4e487b7100000000000000000000000000000000000000000000000000000000600052602260045260246000fd5b60006002820490506001821680611c3e57607f821691505b602082108103611c5157611c50611bf7565b5b50919050565b7f4b657920444e4500000000000000000000000000000000000000000000000000600082015250565b6000611c8d600783611993565b9150611c9882611c57565b602082019050919050565b60006020820190508181036000830152611cbc81611c80565b9050919050565b600082825260208201905092915050565b6000611cdf826114a8565b611ce98185611cc3565b9350611cf98185602086016114c4565b611d0281610f9d565b840191505092915050565b60006020820190508181036000830152611d278184611cd4565b905092915050565b60008190508160005260206000209050919050565b60006020601f8301049050919050565b600082821b905092915050565b600060088302611d917fffffffffffffffffffffffffffffffffffffffffffffffffffffffffffffffff82611d54565b611d9b8683611d54565b95508019841693508086168417925050509392505050565b6000819050919050565b6000819050919050565b6000611de2611ddd611dd884611db3565b611dbd565b611db3565b9050919050565b6000819050919050565b611dfc83611dc7565b611e10611e0882611de9565b848454611d61565b825550505050565b600090565b611e25611e18565b611e30818484611df3565b505050565b5b81811015611e5457611e49600082611e1d565b600181019050611e36565b5050565b601f821115611e9957611e6a81611d2f565b611e7384611d44565b81016020851015611e82578190505b611e96611e8e85611d44565b830182611e35565b50505b505050565b600082821c905092915050565b6000611ebc60001984600802611e9e565b1980831691505092915050565b6000611ed58383611eab565b9150826002028217905092915050565b611eee826114a8565b67ffffffffffffffff811115611f0757611f06610fae565b5b611f118254611c26565b611f1c828285611e58565b600060209050601f831160018114611f4f5760008415611f3d578287015190505b611f478582611ec9565b865550611faf565b601f198416611f5d86611d2f565b60005b82811015611f8557848901518255600182019150602085019450602081019050611f60565b86831015611fa25784890151611f9e601f891682611eab565b8355505b6001600288020188555050505b505050505050565b7f506c6179657220444e4500000000000000000000000000000000000000000000600082015250565b6000611fed600a83611993565b9150611ff882611fb7565b602082019050919050565b6000602082019050818103600083015261201c81611fe0565b905091905056fea26469706673582212203233f589f369a991e31de671e45563dff3a97dad7252270c90e3d7b213e29d3964736f6c63430008110033",
  "immutableReferences": {},
  "source": "// SPDX-License-Identifier: MIT\npragma solidity >=0.4.22 <0.9.0;\n// import \"./Player.sol\";\nimport \"./DataHandler.sol\";\n// import \"./ValidationLib.sol\";\n// import \"./ValidationRulesLib.sol\";\n\nenum SessionState {Ready, Running, Stopped}\ncontract Session is DataHandler {\n    enum PlayerState {Default, Removed, Active}\n\n    string public id;\n    mapping(address => PlayerState) player_states;\n    SessionState session_state = SessionState.Ready;\n\n    constructor(string memory assigned_id) {\n        id = assigned_id;\n    }\n\n    // function add_player(string memory player_id) public {\n    function add_player(address player_addr) public {\n        // Query anticheat if player exists\n        // address player_addr = owner_anticheat.get_player(player_id);\n        // if (player_addr != address(0x0)) {\n        //     revert(\"Player address does not exist.\");\n        // }\n\n        player_states[player_addr] = PlayerState.Active;\n    }\n\n    // function remove_player(address player_id) public {\n    function remove_player(address player_addr) public {\n        // address player_addr = owner_anticheat.get_player_in_session(id, player_id);\n        // if (player_addr != address(0x0)) {\n        //     revert(\"Player address does not exist.\");\n        // }\n        if (player_states[player_addr] != PlayerState.Active) {\n            revert(\"Player not Active\");\n        }\n        player_states[player_addr] = PlayerState.Removed;\n    }\n\n    function get_player_state(address player_addr) public view returns (PlayerState) {\n        if (player_addr == address(0x0)) {\n            revert(\"Player DNE\");\n        }\n        return player_states[player_addr];\n    }\n\n    function is_player_active(address player_addr) public view returns(bool) {\n        PlayerState state = get_player_state(player_addr);\n        return state == PlayerState.Active && state != PlayerState.Default;\n    }\n\n    function start() public {\n        session_state = SessionState.Running;\n    }\n\n    function stop() public {\n        session_state = SessionState.Stopped;\n    }\n\n    function is_running() public view returns (bool) {\n        return session_state == SessionState.Running;\n    }\n}\n",
  "sourcePath": "/mnt/d/documents/blockchain-testing/BC_Anticheat/contracts/Session.sol",
  "compiler": {
    "name": "solc",
    "version": "0.8.17+commit.8df45f5f.Emscripten.clang"
  },
  "schemaVersion": "3.4.11",
  "updatedAt": "2023-03-18T22:04:07.002Z",
  "networkType": "ethereum",
  "devdoc": {
    "kind": "dev",
    "methods": {},
    "version": 1
  },
  "userdoc": {
    "kind": "user",
    "methods": {},
    "version": 1
  }
}