{
  "contractName": "ValidationLib",
  "abi": [
    {
      "inputs": [
        {
          "components": [
            {
              "internalType": "int256",
              "name": "val",
              "type": "int256"
            },
            {
              "internalType": "string",
              "name": "operand",
              "type": "string"
            }
          ],
          "internalType": "struct ValidationRulesLib.SessionIntValidationRule[]",
          "name": "rules",
          "type": "tuple[]"
        },
        {
          "internalType": "int256[]",
          "name": "data",
          "type": "int256[]"
        }
      ],
      "name": "validate_int",
      "outputs": [
        {
          "internalType": "bool",
          "name": "",
          "type": "bool"
        }
      ],
      "stateMutability": "pure",
      "type": "function",
      "constant": true
    },
    {
      "inputs": [
        {
          "components": [
            {
              "internalType": "bool",
              "name": "val",
              "type": "bool"
            },
            {
              "internalType": "string",
              "name": "operand",
              "type": "string"
            }
          ],
          "internalType": "struct ValidationRulesLib.SessionBoolValidationRule[]",
          "name": "rules",
          "type": "tuple[]"
        },
        {
          "internalType": "bool[]",
          "name": "data",
          "type": "bool[]"
        }
      ],
      "name": "validate_bool",
      "outputs": [
        {
          "internalType": "bool",
          "name": "",
          "type": "bool"
        }
      ],
      "stateMutability": "pure",
      "type": "function",
      "constant": true
    },
    {
      "inputs": [
        {
          "components": [
            {
              "internalType": "string",
              "name": "val",
              "type": "string"
            },
            {
              "internalType": "string",
              "name": "operand",
              "type": "string"
            }
          ],
          "internalType": "struct ValidationRulesLib.SessionStringValidationRule[]",
          "name": "rules",
          "type": "tuple[]"
        },
        {
          "internalType": "string[]",
          "name": "data",
          "type": "string[]"
        }
      ],
      "name": "validate_string",
      "outputs": [
        {
          "internalType": "bool",
          "name": "",
          "type": "bool"
        }
      ],
      "stateMutability": "pure",
      "type": "function",
      "constant": true
    },
    {
      "inputs": [
        {
          "internalType": "string",
          "name": "op",
          "type": "string"
        }
      ],
      "name": "validate_int_operand",
      "outputs": [],
      "stateMutability": "pure",
      "type": "function",
      "constant": true
    },
    {
      "inputs": [
        {
          "internalType": "string",
          "name": "op",
          "type": "string"
        }
      ],
      "name": "validate_bool_operand",
      "outputs": [],
      "stateMutability": "pure",
      "type": "function",
      "constant": true
    },
    {
      "inputs": [
        {
          "internalType": "string",
          "name": "op",
          "type": "string"
        }
      ],
      "name": "validate_string_operand",
      "outputs": [],
      "stateMutability": "pure",
      "type": "function",
      "constant": true
    },
    {
      "inputs": [
        {
          "internalType": "string",
          "name": "a",
          "type": "string"
        },
        {
          "internalType": "string",
          "name": "b",
          "type": "string"
        }
      ],
      "name": "compareStrings",
      "outputs": [
        {
          "internalType": "bool",
          "name": "",
          "type": "bool"
        }
      ],
      "stateMutability": "pure",
      "type": "function",
      "constant": true
    }
  ],
  "bytecode": "0x611d18610053600b82828239805160001a607314610046577f4e487b7100000000000000000000000000000000000000000000000000000000600052600060045260246000fd5b30600052607381538281f3fe73000000000000000000000000000000000000000030146080604052600436106100875760003560e01c8063a74f91a811610065578063a74f91a814610108578063bed34bba14610138578063c464e37c14610168578063fb04d8ce1461018457610087565b80630cba43471461008c578063236dbbb5146100a8578063a1ba9eee146100d8575b600080fd5b6100a660048036038101906100a191906111f3565b6101a0565b005b6100c260048036038101906100bd9190611495565b61041b565b6040516100cf9190611528565b60405180910390f35b6100f260048036038101906100ed919061177f565b6106b4565b6040516100ff9190611528565b60405180910390f35b610122600480360381019061011d9190611a3d565b610943565b60405161012f9190611528565b60405180910390f35b610152600480360381019061014d9190611ab5565b610d8a565b60405161015f9190611528565b60405180910390f35b610182600480360381019061017d91906111f3565b610de3565b005b61019e600480360381019061019991906111f3565b610f3e565b005b6101df816040518060400160405280600281526020017f6571000000000000000000000000000000000000000000000000000000000000815250610d8a565b1580156102285750610226816040518060400160405280600281526020017f6e65000000000000000000000000000000000000000000000000000000000000815250610d8a565b155b8015610270575061026e816040518060400160405280600281526020017f6c74000000000000000000000000000000000000000000000000000000000000815250610d8a565b155b80156102b857506102b6816040518060400160405280600281526020017f6774000000000000000000000000000000000000000000000000000000000000815250610d8a565b155b801561030057506102fe816040518060400160405280600381526020017f6c74650000000000000000000000000000000000000000000000000000000000815250610d8a565b155b80156103485750610346816040518060400160405280600381526020017f6774650000000000000000000000000000000000000000000000000000000000815250610d8a565b155b8015610390575061038e816040518060400160405280600281526020017f696e000000000000000000000000000000000000000000000000000000000000815250610d8a565b155b80156103d857506103d6816040518060400160405280600381526020017f6e696e0000000000000000000000000000000000000000000000000000000000815250610d8a565b155b15610418576040517f08c379a000000000000000000000000000000000000000000000000000000000815260040161040f90611b8a565b60405180910390fd5b50565b6000806000905060005b84518110156106a757600085828151811061044357610442611baa565b5b60200260200101519050600061049282602001516040518060400160405280600381526020017f6e696e0000000000000000000000000000000000000000000000000000000000815250610d8a565b90506104d782602001516040518060400160405280600281526020017f696e000000000000000000000000000000000000000000000000000000000000815250610d8a565b806104df5750805b15610571576000805b875181101561053a5761051988828151811061050757610506611baa565b5b60200260200101518560000151610d8a565b15610527576001915061053a565b808061053290611c12565b9150506104e8565b50818015610546575080155b806105585750811580156105575750805b5b1561056b576000955050505050506106ae565b50610692565b60005b8651811015610690576105c083602001516040518060400160405280600281526020017f6571000000000000000000000000000000000000000000000000000000000000815250610d8a565b156105f4576105ed8782815181106105db576105da611baa565b5b60200260200101518460000151610d8a565b9450610669565b61063783602001516040518060400160405280600281526020017f6e65000000000000000000000000000000000000000000000000000000000000815250610d8a565b156106685761066487828151811061065257610651611baa565b5b60200260200101518460000151610d8a565b1594505b5b841561067d576000955050505050506106ae565b808061068890611c12565b915050610574565b505b5050808061069f90611c12565b915050610425565b5060019150505b92915050565b6000806000905060005b84518110156109365760008582815181106106dc576106db611baa565b5b60200260200101519050600061072b82602001516040518060400160405280600381526020017f6e696e0000000000000000000000000000000000000000000000000000000000815250610d8a565b905061077082602001516040518060400160405280600281526020017f696e000000000000000000000000000000000000000000000000000000000000815250610d8a565b806107785750805b15610806576000805b87518110156107cf57836000015115158882815181106107a4576107a3611baa565b5b60200260200101511515036107bc57600191506107cf565b80806107c790611c12565b915050610781565b508180156107db575080155b806107ed5750811580156107ec5750805b5b156108005760009550505050505061093d565b50610921565b60005b865181101561091f5761085583602001516040518060400160405280600281526020017f6571000000000000000000000000000000000000000000000000000000000000815250610d8a565b15610886578260000151151587828151811061087457610873611baa565b5b602002602001015115151494506108f8565b6108c983602001516040518060400160405280600281526020017f6e65000000000000000000000000000000000000000000000000000000000000815250610d8a565b156108f757826000015115158782815181106108e8576108e7611baa565b5b60200260200101511515141594505b5b841561090c5760009550505050505061093d565b808061091790611c12565b915050610809565b505b5050808061092e90611c12565b9150506106be565b5060019150505b92915050565b600080600090505b8351811015610d7e57600084828151811061096957610968611baa565b5b6020026020010151905060006109b882602001516040518060400160405280600381526020017f6e696e0000000000000000000000000000000000000000000000000000000000815250610d8a565b90506109fd82602001516040518060400160405280600281526020017f696e000000000000000000000000000000000000000000000000000000000000815250610d8a565b80610a055750805b15610a8e576000805b8651811015610a58578360000151878281518110610a2f57610a2e611baa565b5b602002602001015103610a455760019150610a58565b8080610a5090611c12565b915050610a0e565b50818015610a64575080155b80610a76575081158015610a755750805b5b15610a88576000945050505050610d84565b50610d69565b6000805b8651811015610d6657610ade84602001516040518060400160405280600281526020017f6774000000000000000000000000000000000000000000000000000000000000815250610d8a565b15610b0b578360000151878281518110610afb57610afa611baa565b5b6020026020010151139150610d3f565b610b4e84602001516040518060400160405280600281526020017f6c74000000000000000000000000000000000000000000000000000000000000815250610d8a565b15610b7b578360000151878281518110610b6b57610b6a611baa565b5b6020026020010151129150610d3e565b610bbe84602001516040518060400160405280600381526020017f6774650000000000000000000000000000000000000000000000000000000000815250610d8a565b15610bec578360000151878281518110610bdb57610bda611baa565b5b602002602001015112159150610d3d565b610c2f84602001516040518060400160405280600381526020017f6c74650000000000000000000000000000000000000000000000000000000000815250610d8a565b15610c5d578360000151878281518110610c4c57610c4b611baa565b5b602002602001015113159150610d3c565b610ca084602001516040518060400160405280600281526020017f6571000000000000000000000000000000000000000000000000000000000000815250610d8a565b15610ccd578360000151878281518110610cbd57610cbc611baa565b5b6020026020010151149150610d3b565b610d1084602001516040518060400160405280600281526020017f6e65000000000000000000000000000000000000000000000000000000000000815250610d8a565b15610d3a578360000151878281518110610d2d57610d2c611baa565b5b6020026020010151141591505b5b5b5b5b5b8115610d5357600095505050505050610d84565b8080610d5e90611c12565b915050610a92565b50505b50508080610d7690611c12565b91505061094b565b50600190505b92915050565b600081604051602001610d9d9190611ccb565b6040516020818303038152906040528051906020012083604051602001610dc49190611ccb565b6040516020818303038152906040528051906020012014905092915050565b610e22816040518060400160405280600281526020017f6571000000000000000000000000000000000000000000000000000000000000815250610d8a565b158015610e6b5750610e69816040518060400160405280600281526020017f6e65000000000000000000000000000000000000000000000000000000000000815250610d8a565b155b8015610eb35750610eb1816040518060400160405280600281526020017f696e000000000000000000000000000000000000000000000000000000000000815250610d8a565b155b8015610efb5750610ef9816040518060400160405280600381526020017f6e696e0000000000000000000000000000000000000000000000000000000000815250610d8a565b155b15610f3b576040517f08c379a0000000000000000000000000000000000000000000000000000000008152600401610f3290611b8a565b60405180910390fd5b50565b610f7d816040518060400160405280600281526020017f6571000000000000000000000000000000000000000000000000000000000000815250610d8a565b158015610fc65750610fc4816040518060400160405280600281526020017f6e65000000000000000000000000000000000000000000000000000000000000815250610d8a565b155b801561100e575061100c816040518060400160405280600281526020017f696e000000000000000000000000000000000000000000000000000000000000815250610d8a565b155b80156110565750611054816040518060400160405280600381526020017f6e696e0000000000000000000000000000000000000000000000000000000000815250610d8a565b155b15611096576040517f08c379a000000000000000000000000000000000000000000000000000000000815260040161108d90611b8a565b60405180910390fd5b50565b6000604051905090565b600080fd5b600080fd5b600080fd5b600080fd5b6000601f19601f8301169050919050565b7f4e487b7100000000000000000000000000000000000000000000000000000000600052604160045260246000fd5b611100826110b7565b810181811067ffffffffffffffff8211171561111f5761111e6110c8565b5b80604052505050565b6000611132611099565b905061113e82826110f7565b919050565b600067ffffffffffffffff82111561115e5761115d6110c8565b5b611167826110b7565b9050602081019050919050565b82818337600083830152505050565b600061119661119184611143565b611128565b9050828152602081018484840111156111b2576111b16110b2565b5b6111bd848285611174565b509392505050565b600082601f8301126111da576111d96110ad565b5b81356111ea848260208601611183565b91505092915050565b600060208284031215611209576112086110a3565b5b600082013567ffffffffffffffff811115611227576112266110a8565b5b611233848285016111c5565b91505092915050565b600067ffffffffffffffff821115611257576112566110c8565b5b602082029050602081019050919050565b600080fd5b600080fd5b600080fd5b60006040828403121561128d5761128c61126d565b5b6112976040611128565b9050600082013567ffffffffffffffff8111156112b7576112b6611272565b5b6112c3848285016111c5565b600083015250602082013567ffffffffffffffff8111156112e7576112e6611272565b5b6112f3848285016111c5565b60208301525092915050565b600061131261130d8461123c565b611128565b9050808382526020820190506020840283018581111561133557611334611268565b5b835b8181101561137c57803567ffffffffffffffff81111561135a576113596110ad565b5b8086016113678982611277565b85526020850194505050602081019050611337565b5050509392505050565b600082601f83011261139b5761139a6110ad565b5b81356113ab8482602086016112ff565b91505092915050565b600067ffffffffffffffff8211156113cf576113ce6110c8565b5b602082029050602081019050919050565b60006113f36113ee846113b4565b611128565b9050808382526020820190506020840283018581111561141657611415611268565b5b835b8181101561145d57803567ffffffffffffffff81111561143b5761143a6110ad565b5b80860161144889826111c5565b85526020850194505050602081019050611418565b5050509392505050565b600082601f83011261147c5761147b6110ad565b5b813561148c8482602086016113e0565b91505092915050565b600080604083850312156114ac576114ab6110a3565b5b600083013567ffffffffffffffff8111156114ca576114c96110a8565b5b6114d685828601611386565b925050602083013567ffffffffffffffff8111156114f7576114f66110a8565b5b61150385828601611467565b9150509250929050565b60008115159050919050565b6115228161150d565b82525050565b600060208201905061153d6000830184611519565b92915050565b600067ffffffffffffffff82111561155e5761155d6110c8565b5b602082029050602081019050919050565b6115788161150d565b811461158357600080fd5b50565b6000813590506115958161156f565b92915050565b6000604082840312156115b1576115b061126d565b5b6115bb6040611128565b905060006115cb84828501611586565b600083015250602082013567ffffffffffffffff8111156115ef576115ee611272565b5b6115fb848285016111c5565b60208301525092915050565b600061161a61161584611543565b611128565b9050808382526020820190506020840283018581111561163d5761163c611268565b5b835b8181101561168457803567ffffffffffffffff811115611662576116616110ad565b5b80860161166f898261159b565b8552602085019450505060208101905061163f565b5050509392505050565b600082601f8301126116a3576116a26110ad565b5b81356116b3848260208601611607565b91505092915050565b600067ffffffffffffffff8211156116d7576116d66110c8565b5b602082029050602081019050919050565b60006116fb6116f6846116bc565b611128565b9050808382526020820190506020840283018581111561171e5761171d611268565b5b835b8181101561174757806117338882611586565b845260208401935050602081019050611720565b5050509392505050565b600082601f830112611766576117656110ad565b5b81356117768482602086016116e8565b91505092915050565b60008060408385031215611796576117956110a3565b5b600083013567ffffffffffffffff8111156117b4576117b36110a8565b5b6117c08582860161168e565b925050602083013567ffffffffffffffff8111156117e1576117e06110a8565b5b6117ed85828601611751565b9150509250929050565b600067ffffffffffffffff821115611812576118116110c8565b5b602082029050602081019050919050565b6000819050919050565b61183681611823565b811461184157600080fd5b50565b6000813590506118538161182d565b92915050565b60006040828403121561186f5761186e61126d565b5b6118796040611128565b9050600061188984828501611844565b600083015250602082013567ffffffffffffffff8111156118ad576118ac611272565b5b6118b9848285016111c5565b60208301525092915050565b60006118d86118d3846117f7565b611128565b905080838252602082019050602084028301858111156118fb576118fa611268565b5b835b8181101561194257803567ffffffffffffffff8111156119205761191f6110ad565b5b80860161192d8982611859565b855260208501945050506020810190506118fd565b5050509392505050565b600082601f830112611961576119606110ad565b5b81356119718482602086016118c5565b91505092915050565b600067ffffffffffffffff821115611995576119946110c8565b5b602082029050602081019050919050565b60006119b96119b48461197a565b611128565b905080838252602082019050602084028301858111156119dc576119db611268565b5b835b81811015611a0557806119f18882611844565b8452602084019350506020810190506119de565b5050509392505050565b600082601f830112611a2457611a236110ad565b5b8135611a348482602086016119a6565b91505092915050565b60008060408385031215611a5457611a536110a3565b5b600083013567ffffffffffffffff811115611a7257611a716110a8565b5b611a7e8582860161194c565b925050602083013567ffffffffffffffff811115611a9f57611a9e6110a8565b5b611aab85828601611a0f565b9150509250929050565b60008060408385031215611acc57611acb6110a3565b5b600083013567ffffffffffffffff811115611aea57611ae96110a8565b5b611af6858286016111c5565b925050602083013567ffffffffffffffff811115611b1757611b166110a8565b5b611b23858286016111c5565b9150509250929050565b600082825260208201905092915050565b7f496e76616c6964206f706572616e642e00000000000000000000000000000000600082015250565b6000611b74601083611b2d565b9150611b7f82611b3e565b602082019050919050565b60006020820190508181036000830152611ba381611b67565b9050919050565b7f4e487b7100000000000000000000000000000000000000000000000000000000600052603260045260246000fd5b7f4e487b7100000000000000000000000000000000000000000000000000000000600052601160045260246000fd5b6000819050919050565b6000611c1d82611c08565b91507fffffffffffffffffffffffffffffffffffffffffffffffffffffffffffffffff8203611c4f57611c4e611bd9565b5b600182019050919050565b600081519050919050565b600081905092915050565b60005b83811015611c8e578082015181840152602081019050611c73565b60008484015250505050565b6000611ca582611c5a565b611caf8185611c65565b9350611cbf818560208601611c70565b80840191505092915050565b6000611cd78284611c9a565b91508190509291505056fea2646970667358221220d9dbbae28ba48985979e4179709192ad3bd76d059824e72b46b5be288cd0557364736f6c63430008110033",
  "immutableReferences": {},
  "source": "// SPDX-License-Identifier: MIT\npragma solidity >=0.4.22 <0.9.0;\n\nimport \"./ValidationRulesLib.sol\";\n\nlibrary ValidationLib {\n    function validate_int(\n        ValidationRulesLib.SessionIntValidationRule[] memory rules,\n        int[] memory data\n    ) public pure returns (bool) {\n        for (uint i=0; i < rules.length; i++) {\n            ValidationRulesLib.SessionIntValidationRule memory rule = rules[i];\n            bool op_nin = compareStrings(rule.operand, \"nin\");\n            if (compareStrings(rule.operand, \"in\") || op_nin) {\n                bool is_in = false;\n                for (uint j=0; j < data.length; j++) {\n                    if (data[j] == rule.val) {\n                        is_in = true;\n                        break;\n                    }\n                }\n                if ((op_nin && !is_in) || (!op_nin && is_in)) {\n                    return false;\n                }\n            }\n            else {\n                bool is_flagged = false;\n                for (uint j=0; j < data.length; j++) {\n                    if (compareStrings(rule.operand, \"gt\")) {\n                        is_flagged = data[j] > rule.val;\n                    }\n                    else if (compareStrings(rule.operand, \"lt\")) {\n                        is_flagged = data[j] < rule.val;\n                    }\n                    else if (compareStrings(rule.operand, \"gte\")) {\n                        is_flagged = data[j] >= rule.val;\n                    }\n                    else if (compareStrings(rule.operand, \"lte\")) {\n                        is_flagged = data[j] <= rule.val;\n                    }\n                    else if (compareStrings(rule.operand, \"eq\")) {\n                        is_flagged = data[j] == rule.val;\n                    }\n                    else if (compareStrings(rule.operand, \"ne\")) {\n                        is_flagged = data[j] != rule.val;\n                    }\n                    if (is_flagged) {\n                        return false;\n                    }\n                }\n            }\n        }\n        return true;\n    }\n\n    function validate_bool(\n        ValidationRulesLib.SessionBoolValidationRule[] memory rules,\n        bool[] memory data\n    ) public pure returns (bool) {\n        bool is_flagged = false;\n        for (uint i=0; i < rules.length; i++) {\n            ValidationRulesLib.SessionBoolValidationRule memory rule = rules[i];\n            bool op_nin = compareStrings(rule.operand, \"nin\");\n            if (compareStrings(rule.operand, \"in\") || op_nin) {\n                bool is_in = false;\n                for (uint j=0; j < data.length; j++) {\n                    if (data[j] == rule.val) {\n                        is_in = true;\n                        break;\n                    }\n                }\n                if ((op_nin && !is_in) || (!op_nin && is_in)) {\n                    return false;\n                }\n            }\n            else {\n                for (uint j=0; j < data.length; j++) {\n                    if (compareStrings(rule.operand, \"eq\")) {\n                        is_flagged = data[j] == rule.val;\n                    }\n                    else if (compareStrings(rule.operand, \"ne\")) {\n                        is_flagged = data[j] != rule.val;\n                    }\n                    if (is_flagged) {\n                        return false;\n                    }\n                }\n            }\n        }\n        return true;\n    }\n\n    function validate_string(\n        ValidationRulesLib.SessionStringValidationRule[] memory rules,\n        string[] memory data\n    ) public pure returns (bool) {\n        bool is_flagged = false;\n        for (uint i=0; i < rules.length; i++) {\n            ValidationRulesLib.SessionStringValidationRule memory rule = rules[i];\n            bool op_nin = compareStrings(rule.operand, \"nin\");\n            if (compareStrings(rule.operand, \"in\") || op_nin) {\n                bool is_in = false;\n                for (uint j=0; j < data.length; j++) {\n                    if (compareStrings(data[j], rule.val)) {\n                        is_in = true;\n                        break;\n                    }\n                }\n                if ((op_nin && !is_in) || (!op_nin && is_in)) {\n                    return false;\n                }\n            }\n            else {\n                for (uint j=0; j < data.length; j++) {\n                    if (compareStrings(rule.operand, \"eq\")) {\n                        is_flagged = compareStrings(data[j], rule.val);\n                    }\n                    else if (compareStrings(rule.operand, \"ne\")) {\n                        is_flagged = !compareStrings(data[j], rule.val);\n                    }\n                    if (is_flagged) {\n                        return false;\n                    }\n                }\n            }\n        }\n        return true;\n    }\n\n    function validate_int_operand(string memory op) public pure {\n        if (!compareStrings(op, \"eq\") &&\n            !compareStrings(op, \"ne\") &&\n            !compareStrings(op, \"lt\") &&\n            !compareStrings(op, \"gt\") &&\n            !compareStrings(op, \"lte\") &&\n            !compareStrings(op, \"gte\") &&\n            !compareStrings(op, \"in\") &&\n            !compareStrings(op, \"nin\")\n        ) {\n            revert(\"Invalid operand.\");\n        }\n    }\n\n    function validate_bool_operand(string memory op) public pure {\n        if (!compareStrings(op, \"eq\") &&\n            !compareStrings(op, \"ne\") &&\n            !compareStrings(op, \"in\") &&\n            !compareStrings(op, \"nin\")\n        ) {\n            revert(\"Invalid operand.\");\n        }\n    }\n\n    function validate_string_operand(string memory op) public pure {\n        if (!compareStrings(op, \"eq\") &&\n            !compareStrings(op, \"ne\") &&\n            !compareStrings(op, \"in\") &&\n            !compareStrings(op, \"nin\")\n        ) {\n            revert(\"Invalid operand.\");\n        }\n    }\n\n    function compareStrings(string memory a, string memory b) public pure returns (bool) {\n        return (keccak256(abi.encodePacked((a))) == keccak256(abi.encodePacked((b))));\n    }\n}\n",
  "sourcePath": "/mnt/d/documents/blockchain-testing/BC_Anticheat/contracts/ValidationLib.sol",
  "compiler": {
    "name": "solc",
    "version": "0.8.17+commit.8df45f5f.Emscripten.clang"
  },
  "schemaVersion": "3.4.11",
  "updatedAt": "2023-03-15T06:32:55.966Z",
  "networkType": "ethereum",
  "devdoc": {
    "kind": "dev",
    "methods": {},
    "version": 1
  },
  "userdoc": {
    "kind": "user",
    "methods": {},
    "version": 1
  }
}