{
  "contractName": "ValidationLib",
  "abi": [
    {
      "inputs": [
        {
          "components": [
            {
              "internalType": "int256",
              "name": "val",
              "type": "int256"
            },
            {
              "internalType": "string",
              "name": "operand",
              "type": "string"
            }
          ],
          "internalType": "struct ValidationRulesLib.IntValidationRule[]",
          "name": "rules",
          "type": "tuple[]"
        },
        {
          "internalType": "int256[]",
          "name": "data",
          "type": "int256[]"
        }
      ],
      "name": "validate_int",
      "outputs": [
        {
          "internalType": "bool",
          "name": "",
          "type": "bool"
        }
      ],
      "stateMutability": "pure",
      "type": "function",
      "constant": true
    },
    {
      "inputs": [
        {
          "components": [
            {
              "internalType": "string",
              "name": "val",
              "type": "string"
            },
            {
              "internalType": "string",
              "name": "operand",
              "type": "string"
            }
          ],
          "internalType": "struct ValidationRulesLib.StringValidationRule[]",
          "name": "rules",
          "type": "tuple[]"
        },
        {
          "internalType": "string[]",
          "name": "data",
          "type": "string[]"
        }
      ],
      "name": "validate_string",
      "outputs": [
        {
          "internalType": "bool",
          "name": "",
          "type": "bool"
        }
      ],
      "stateMutability": "pure",
      "type": "function",
      "constant": true
    },
    {
      "inputs": [
        {
          "internalType": "string",
          "name": "op",
          "type": "string"
        }
      ],
      "name": "validate_int_operand",
      "outputs": [],
      "stateMutability": "pure",
      "type": "function",
      "constant": true
    },
    {
      "inputs": [
        {
          "internalType": "string",
          "name": "op",
          "type": "string"
        }
      ],
      "name": "validate_string_operand",
      "outputs": [],
      "stateMutability": "pure",
      "type": "function",
      "constant": true
    },
    {
      "inputs": [
        {
          "internalType": "string",
          "name": "a",
          "type": "string"
        },
        {
          "internalType": "string",
          "name": "b",
          "type": "string"
        }
      ],
      "name": "compareStrings",
      "outputs": [
        {
          "internalType": "bool",
          "name": "",
          "type": "bool"
        }
      ],
      "stateMutability": "pure",
      "type": "function",
      "constant": true
    }
  ],
  "bytecode": "0x611608610053600b82828239805160001a607314610046577f4e487b7100000000000000000000000000000000000000000000000000000000600052600060045260246000fd5b30600052607381538281f3fe73000000000000000000000000000000000000000030146080604052600436106100615760003560e01c80630cba434714610066578063171728021461008257806347f8be80146100b2578063bed34bba146100e2578063fb04d8ce14610112575b600080fd5b610080600480360381019061007b9190610d97565b61012e565b005b61009c60048036038101906100979190611035565b6103a9565b6040516100a991906110c8565b60405180910390f35b6100cc60048036038101906100c7919061132d565b6107f0565b6040516100d991906110c8565b60405180910390f35b6100fc60048036038101906100f791906113a5565b610a89565b60405161010991906110c8565b60405180910390f35b61012c60048036038101906101279190610d97565b610ae2565b005b61016d816040518060400160405280600281526020017f6571000000000000000000000000000000000000000000000000000000000000815250610a89565b1580156101b657506101b4816040518060400160405280600281526020017f6e65000000000000000000000000000000000000000000000000000000000000815250610a89565b155b80156101fe57506101fc816040518060400160405280600281526020017f6c74000000000000000000000000000000000000000000000000000000000000815250610a89565b155b80156102465750610244816040518060400160405280600281526020017f6774000000000000000000000000000000000000000000000000000000000000815250610a89565b155b801561028e575061028c816040518060400160405280600381526020017f6c74650000000000000000000000000000000000000000000000000000000000815250610a89565b155b80156102d657506102d4816040518060400160405280600381526020017f6774650000000000000000000000000000000000000000000000000000000000815250610a89565b155b801561031e575061031c816040518060400160405280600281526020017f696e000000000000000000000000000000000000000000000000000000000000815250610a89565b155b80156103665750610364816040518060400160405280600381526020017f6e696e0000000000000000000000000000000000000000000000000000000000815250610a89565b155b156103a6576040517f08c379a000000000000000000000000000000000000000000000000000000000815260040161039d9061147a565b60405180910390fd5b50565b600080600090505b83518110156107e45760008482815181106103cf576103ce61149a565b5b60200260200101519050600061041e82602001516040518060400160405280600381526020017f6e696e0000000000000000000000000000000000000000000000000000000000815250610a89565b905061046382602001516040518060400160405280600281526020017f696e000000000000000000000000000000000000000000000000000000000000815250610a89565b8061046b5750805b156104f4576000805b86518110156104be5783600001518782815181106104955761049461149a565b5b6020026020010151036104ab57600191506104be565b80806104b690611502565b915050610474565b508180156104ca575080155b806104dc5750811580156104db5750805b5b156104ee5760009450505050506107ea565b506107cf565b6000805b86518110156107cc5761054484602001516040518060400160405280600281526020017f6774000000000000000000000000000000000000000000000000000000000000815250610a89565b156105715783600001518782815181106105615761056061149a565b5b60200260200101511391506107a5565b6105b484602001516040518060400160405280600281526020017f6c74000000000000000000000000000000000000000000000000000000000000815250610a89565b156105e15783600001518782815181106105d1576105d061149a565b5b60200260200101511291506107a4565b61062484602001516040518060400160405280600381526020017f6774650000000000000000000000000000000000000000000000000000000000815250610a89565b156106525783600001518782815181106106415761064061149a565b5b6020026020010151121591506107a3565b61069584602001516040518060400160405280600381526020017f6c74650000000000000000000000000000000000000000000000000000000000815250610a89565b156106c35783600001518782815181106106b2576106b161149a565b5b6020026020010151131591506107a2565b61070684602001516040518060400160405280600281526020017f6571000000000000000000000000000000000000000000000000000000000000815250610a89565b156107335783600001518782815181106107235761072261149a565b5b60200260200101511491506107a1565b61077684602001516040518060400160405280600281526020017f6e65000000000000000000000000000000000000000000000000000000000000815250610a89565b156107a05783600001518782815181106107935761079261149a565b5b6020026020010151141591505b5b5b5b5b5b81156107b9576000955050505050506107ea565b80806107c490611502565b9150506104f8565b50505b505080806107dc90611502565b9150506103b1565b50600190505b92915050565b6000806000905060005b8451811015610a7c5760008582815181106108185761081761149a565b5b60200260200101519050600061086782602001516040518060400160405280600381526020017f6e696e0000000000000000000000000000000000000000000000000000000000815250610a89565b90506108ac82602001516040518060400160405280600281526020017f696e000000000000000000000000000000000000000000000000000000000000815250610a89565b806108b45750805b15610946576000805b875181101561090f576108ee8882815181106108dc576108db61149a565b5b60200260200101518560000151610a89565b156108fc576001915061090f565b808061090790611502565b9150506108bd565b5081801561091b575080155b8061092d57508115801561092c5750805b5b1561094057600095505050505050610a83565b50610a67565b60005b8651811015610a655761099583602001516040518060400160405280600281526020017f6571000000000000000000000000000000000000000000000000000000000000815250610a89565b156109c9576109c28782815181106109b0576109af61149a565b5b60200260200101518460000151610a89565b9450610a3e565b610a0c83602001516040518060400160405280600281526020017f6e65000000000000000000000000000000000000000000000000000000000000815250610a89565b15610a3d57610a39878281518110610a2757610a2661149a565b5b60200260200101518460000151610a89565b1594505b5b8415610a5257600095505050505050610a83565b8080610a5d90611502565b915050610949565b505b50508080610a7490611502565b9150506107fa565b5060019150505b92915050565b600081604051602001610a9c91906115bb565b6040516020818303038152906040528051906020012083604051602001610ac391906115bb565b6040516020818303038152906040528051906020012014905092915050565b610b21816040518060400160405280600281526020017f6571000000000000000000000000000000000000000000000000000000000000815250610a89565b158015610b6a5750610b68816040518060400160405280600281526020017f6e65000000000000000000000000000000000000000000000000000000000000815250610a89565b155b8015610bb25750610bb0816040518060400160405280600281526020017f696e000000000000000000000000000000000000000000000000000000000000815250610a89565b155b8015610bfa5750610bf8816040518060400160405280600381526020017f6e696e0000000000000000000000000000000000000000000000000000000000815250610a89565b155b15610c3a576040517f08c379a0000000000000000000000000000000000000000000000000000000008152600401610c319061147a565b60405180910390fd5b50565b6000604051905090565b600080fd5b600080fd5b600080fd5b600080fd5b6000601f19601f8301169050919050565b7f4e487b7100000000000000000000000000000000000000000000000000000000600052604160045260246000fd5b610ca482610c5b565b810181811067ffffffffffffffff82111715610cc357610cc2610c6c565b5b80604052505050565b6000610cd6610c3d565b9050610ce28282610c9b565b919050565b600067ffffffffffffffff821115610d0257610d01610c6c565b5b610d0b82610c5b565b9050602081019050919050565b82818337600083830152505050565b6000610d3a610d3584610ce7565b610ccc565b905082815260208101848484011115610d5657610d55610c56565b5b610d61848285610d18565b509392505050565b600082601f830112610d7e57610d7d610c51565b5b8135610d8e848260208601610d27565b91505092915050565b600060208284031215610dad57610dac610c47565b5b600082013567ffffffffffffffff811115610dcb57610dca610c4c565b5b610dd784828501610d69565b91505092915050565b600067ffffffffffffffff821115610dfb57610dfa610c6c565b5b602082029050602081019050919050565b600080fd5b600080fd5b600080fd5b6000819050919050565b610e2e81610e1b565b8114610e3957600080fd5b50565b600081359050610e4b81610e25565b92915050565b600060408284031215610e6757610e66610e11565b5b610e716040610ccc565b90506000610e8184828501610e3c565b600083015250602082013567ffffffffffffffff811115610ea557610ea4610e16565b5b610eb184828501610d69565b60208301525092915050565b6000610ed0610ecb84610de0565b610ccc565b90508083825260208201905060208402830185811115610ef357610ef2610e0c565b5b835b81811015610f3a57803567ffffffffffffffff811115610f1857610f17610c51565b5b808601610f258982610e51565b85526020850194505050602081019050610ef5565b5050509392505050565b600082601f830112610f5957610f58610c51565b5b8135610f69848260208601610ebd565b91505092915050565b600067ffffffffffffffff821115610f8d57610f8c610c6c565b5b602082029050602081019050919050565b6000610fb1610fac84610f72565b610ccc565b90508083825260208201905060208402830185811115610fd457610fd3610e0c565b5b835b81811015610ffd5780610fe98882610e3c565b845260208401935050602081019050610fd6565b5050509392505050565b600082601f83011261101c5761101b610c51565b5b813561102c848260208601610f9e565b91505092915050565b6000806040838503121561104c5761104b610c47565b5b600083013567ffffffffffffffff81111561106a57611069610c4c565b5b61107685828601610f44565b925050602083013567ffffffffffffffff81111561109757611096610c4c565b5b6110a385828601611007565b9150509250929050565b60008115159050919050565b6110c2816110ad565b82525050565b60006020820190506110dd60008301846110b9565b92915050565b600067ffffffffffffffff8211156110fe576110fd610c6c565b5b602082029050602081019050919050565b60006040828403121561112557611124610e11565b5b61112f6040610ccc565b9050600082013567ffffffffffffffff81111561114f5761114e610e16565b5b61115b84828501610d69565b600083015250602082013567ffffffffffffffff81111561117f5761117e610e16565b5b61118b84828501610d69565b60208301525092915050565b60006111aa6111a5846110e3565b610ccc565b905080838252602082019050602084028301858111156111cd576111cc610e0c565b5b835b8181101561121457803567ffffffffffffffff8111156111f2576111f1610c51565b5b8086016111ff898261110f565b855260208501945050506020810190506111cf565b5050509392505050565b600082601f83011261123357611232610c51565b5b8135611243848260208601611197565b91505092915050565b600067ffffffffffffffff82111561126757611266610c6c565b5b602082029050602081019050919050565b600061128b6112868461124c565b610ccc565b905080838252602082019050602084028301858111156112ae576112ad610e0c565b5b835b818110156112f557803567ffffffffffffffff8111156112d3576112d2610c51565b5b8086016112e08982610d69565b855260208501945050506020810190506112b0565b5050509392505050565b600082601f83011261131457611313610c51565b5b8135611324848260208601611278565b91505092915050565b6000806040838503121561134457611343610c47565b5b600083013567ffffffffffffffff81111561136257611361610c4c565b5b61136e8582860161121e565b925050602083013567ffffffffffffffff81111561138f5761138e610c4c565b5b61139b858286016112ff565b9150509250929050565b600080604083850312156113bc576113bb610c47565b5b600083013567ffffffffffffffff8111156113da576113d9610c4c565b5b6113e685828601610d69565b925050602083013567ffffffffffffffff81111561140757611406610c4c565b5b61141385828601610d69565b9150509250929050565b600082825260208201905092915050565b7f496e76616c6964206f706572616e642e00000000000000000000000000000000600082015250565b600061146460108361141d565b915061146f8261142e565b602082019050919050565b6000602082019050818103600083015261149381611457565b9050919050565b7f4e487b7100000000000000000000000000000000000000000000000000000000600052603260045260246000fd5b7f4e487b7100000000000000000000000000000000000000000000000000000000600052601160045260246000fd5b6000819050919050565b600061150d826114f8565b91507fffffffffffffffffffffffffffffffffffffffffffffffffffffffffffffffff820361153f5761153e6114c9565b5b600182019050919050565b600081519050919050565b600081905092915050565b60005b8381101561157e578082015181840152602081019050611563565b60008484015250505050565b60006115958261154a565b61159f8185611555565b93506115af818560208601611560565b80840191505092915050565b60006115c7828461158a565b91508190509291505056fea264697066735822122025e5439b5737b747ef781c25b94b978237546501154b6d0a47d6532688dc536664736f6c63430008110033",
  "immutableReferences": {},
  "source": "// SPDX-License-Identifier: MIT\npragma solidity >=0.4.22 <0.9.0;\n\nimport \"./ValidationRulesLib.sol\";\n\nlibrary ValidationLib {\n    function validate_int(\n        ValidationRulesLib.IntValidationRule[] memory rules,\n        int[] memory data\n    ) public pure returns (bool) {\n        for (uint i=0; i < rules.length; i++) {\n            ValidationRulesLib.IntValidationRule memory rule = rules[i];\n            bool op_nin = compareStrings(rule.operand, \"nin\");\n            if (compareStrings(rule.operand, \"in\") || op_nin) {\n                bool is_in = false;\n                for (uint j=0; j < data.length; j++) {\n                    if (data[j] == rule.val) {\n                        is_in = true;\n                        break;\n                    }\n                }\n                if ((op_nin && !is_in) || (!op_nin && is_in)) {\n                    return false;\n                }\n            }\n            else {\n                bool is_flagged = false;\n                for (uint j=0; j < data.length; j++) {\n                    if (compareStrings(rule.operand, \"gt\")) {\n                        is_flagged = data[j] > rule.val;\n                    }\n                    else if (compareStrings(rule.operand, \"lt\")) {\n                        is_flagged = data[j] < rule.val;\n                    }\n                    else if (compareStrings(rule.operand, \"gte\")) {\n                        is_flagged = data[j] >= rule.val;\n                    }\n                    else if (compareStrings(rule.operand, \"lte\")) {\n                        is_flagged = data[j] <= rule.val;\n                    }\n                    else if (compareStrings(rule.operand, \"eq\")) {\n                        is_flagged = data[j] == rule.val;\n                    }\n                    else if (compareStrings(rule.operand, \"ne\")) {\n                        is_flagged = data[j] != rule.val;\n                    }\n                    if (is_flagged) {\n                        return false;\n                    }\n                }\n            }\n        }\n        return true;\n    }\n\n    function validate_string(\n        ValidationRulesLib.StringValidationRule[] memory rules,\n        string[] memory data\n    ) public pure returns (bool) {\n        bool is_flagged = false;\n        for (uint i=0; i < rules.length; i++) {\n            ValidationRulesLib.StringValidationRule memory rule = rules[i];\n            bool op_nin = compareStrings(rule.operand, \"nin\");\n            if (compareStrings(rule.operand, \"in\") || op_nin) {\n                bool is_in = false;\n                for (uint j=0; j < data.length; j++) {\n                    if (compareStrings(data[j], rule.val)) {\n                        is_in = true;\n                        break;\n                    }\n                }\n                if ((op_nin && !is_in) || (!op_nin && is_in)) {\n                    return false;\n                }\n            }\n            else {\n                for (uint j=0; j < data.length; j++) {\n                    if (compareStrings(rule.operand, \"eq\")) {\n                        is_flagged = compareStrings(data[j], rule.val);\n                    }\n                    else if (compareStrings(rule.operand, \"ne\")) {\n                        is_flagged = !compareStrings(data[j], rule.val);\n                    }\n                    if (is_flagged) {\n                        return false;\n                    }\n                }\n            }\n        }\n        return true;\n    }\n\n    function validate_int_operand(string memory op) public pure {\n        if (!compareStrings(op, \"eq\") &&\n            !compareStrings(op, \"ne\") &&\n            !compareStrings(op, \"lt\") &&\n            !compareStrings(op, \"gt\") &&\n            !compareStrings(op, \"lte\") &&\n            !compareStrings(op, \"gte\") &&\n            !compareStrings(op, \"in\") &&\n            !compareStrings(op, \"nin\")\n        ) {\n            revert(\"Invalid operand.\");\n        }\n    }\n\n    function validate_string_operand(string memory op) public pure {\n        if (!compareStrings(op, \"eq\") &&\n            !compareStrings(op, \"ne\") &&\n            !compareStrings(op, \"in\") &&\n            !compareStrings(op, \"nin\")\n        ) {\n            revert(\"Invalid operand.\");\n        }\n    }\n\n    function compareStrings(string memory a, string memory b) public pure returns (bool) {\n        return (keccak256(abi.encodePacked((a))) == keccak256(abi.encodePacked((b))));\n    }\n}\n",
  "sourcePath": "/mnt/d/documents/blockchain-testing/BC_Anticheat/contracts/ValidationLib.sol",
  "compiler": {
    "name": "solc",
    "version": "0.8.17+commit.8df45f5f.Emscripten.clang"
  },
  "schemaVersion": "3.4.11",
  "updatedAt": "2023-03-23T05:50:57.637Z",
  "networkType": "ethereum",
  "devdoc": {
    "kind": "dev",
    "methods": {},
    "version": 1
  },
  "userdoc": {
    "kind": "user",
    "methods": {},
    "version": 1
  }
}