{
  "contractName": "Player",
  "abi": [
    {
      "inputs": [
        {
          "internalType": "string",
          "name": "assigned_id",
          "type": "string"
        }
      ],
      "stateMutability": "nonpayable",
      "type": "constructor"
    },
    {
      "inputs": [],
      "name": "id",
      "outputs": [
        {
          "internalType": "string",
          "name": "",
          "type": "string"
        }
      ],
      "stateMutability": "view",
      "type": "function"
    },
    {
      "inputs": [
        {
          "internalType": "string",
          "name": "key",
          "type": "string"
        }
      ],
      "name": "get_player_bool_data",
      "outputs": [
        {
          "internalType": "bool",
          "name": "",
          "type": "bool"
        }
      ],
      "stateMutability": "view",
      "type": "function"
    },
    {
      "inputs": [
        {
          "internalType": "string",
          "name": "key",
          "type": "string"
        },
        {
          "internalType": "bool",
          "name": "data",
          "type": "bool"
        }
      ],
      "name": "update_player_bool_data",
      "outputs": [],
      "stateMutability": "nonpayable",
      "type": "function"
    },
    {
      "inputs": [
        {
          "internalType": "string",
          "name": "key",
          "type": "string"
        },
        {
          "internalType": "int256",
          "name": "data",
          "type": "int256"
        }
      ],
      "name": "get_player_int_data",
      "outputs": [],
      "stateMutability": "nonpayable",
      "type": "function"
    },
    {
      "inputs": [
        {
          "internalType": "string",
          "name": "key",
          "type": "string"
        }
      ],
      "name": "get_player_int_data",
      "outputs": [
        {
          "internalType": "int256",
          "name": "",
          "type": "int256"
        }
      ],
      "stateMutability": "view",
      "type": "function"
    }
  ],
  "bytecode": "0x60806040523480156200001157600080fd5b5060405162000c7b38038062000c7b8339818101604052810190620000379190620001e3565b80600090816200004891906200047f565b505062000566565b6000604051905090565b600080fd5b600080fd5b600080fd5b600080fd5b6000601f19601f8301169050919050565b7f4e487b7100000000000000000000000000000000000000000000000000000000600052604160045260246000fd5b620000b9826200006e565b810181811067ffffffffffffffff82111715620000db57620000da6200007f565b5b80604052505050565b6000620000f062000050565b9050620000fe8282620000ae565b919050565b600067ffffffffffffffff8211156200012157620001206200007f565b5b6200012c826200006e565b9050602081019050919050565b60005b83811015620001595780820151818401526020810190506200013c565b60008484015250505050565b60006200017c620001768462000103565b620000e4565b9050828152602081018484840111156200019b576200019a62000069565b5b620001a884828562000139565b509392505050565b600082601f830112620001c857620001c762000064565b5b8151620001da84826020860162000165565b91505092915050565b600060208284031215620001fc57620001fb6200005a565b5b600082015167ffffffffffffffff8111156200021d576200021c6200005f565b5b6200022b84828501620001b0565b91505092915050565b600081519050919050565b7f4e487b7100000000000000000000000000000000000000000000000000000000600052602260045260246000fd5b600060028204905060018216806200028757607f821691505b6020821081036200029d576200029c6200023f565b5b50919050565b60008190508160005260206000209050919050565b60006020601f8301049050919050565b600082821b905092915050565b600060088302620003077fffffffffffffffffffffffffffffffffffffffffffffffffffffffffffffffff82620002c8565b620003138683620002c8565b95508019841693508086168417925050509392505050565b6000819050919050565b6000819050919050565b6000620003606200035a62000354846200032b565b62000335565b6200032b565b9050919050565b6000819050919050565b6200037c836200033f565b620003946200038b8262000367565b848454620002d5565b825550505050565b600090565b620003ab6200039c565b620003b881848462000371565b505050565b5b81811015620003e057620003d4600082620003a1565b600181019050620003be565b5050565b601f8211156200042f57620003f981620002a3565b6200040484620002b8565b8101602085101562000414578190505b6200042c6200042385620002b8565b830182620003bd565b50505b505050565b600082821c905092915050565b6000620004546000198460080262000434565b1980831691505092915050565b60006200046f838362000441565b9150826002028217905092915050565b6200048a8262000234565b67ffffffffffffffff811115620004a657620004a56200007f565b5b620004b282546200026e565b620004bf828285620003e4565b600060209050601f831160018114620004f75760008415620004e2578287015190505b620004ee858262000461565b8655506200055e565b601f1984166200050786620002a3565b60005b8281101562000531578489015182556001820191506020850194506020810190506200050a565b868310156200055157848901516200054d601f89168262000441565b8355505b6001600288020188555050505b505050505050565b61070580620005766000396000f3fe608060405234801561001057600080fd5b50600436106100575760003560e01c80632441d9da1461005c578063724ced2a14610078578063a840db69146100a8578063af640d0f146100c4578063b7a9e200146100e2575b600080fd5b610076600480360381019061007191906103ee565b610112565b005b610092600480360381019061008d919061044a565b610139565b60405161009f91906104ae565b60405180910390f35b6100c260048036038101906100bd91906104f5565b61016e565b005b6100cc6101a8565b6040516100d991906105d0565b60405180910390f35b6100fc60048036038101906100f7919061044a565b610236565b6040516101099190610601565b60405180910390f35b806002836040516101239190610658565b9081526020016040518091039020819055505050565b600060018260405161014b9190610658565b908152602001604051809103902060009054906101000a900460ff169050919050565b8060018360405161017f9190610658565b908152602001604051809103902060006101000a81548160ff0219169083151502179055505050565b600080546101b59061069e565b80601f01602080910402602001604051908101604052809291908181526020018280546101e19061069e565b801561022e5780601f106102035761010080835404028352916020019161022e565b820191906000526020600020905b81548152906001019060200180831161021157829003601f168201915b505050505081565b60006002826040516102489190610658565b9081526020016040518091039020549050919050565b6000604051905090565b600080fd5b600080fd5b600080fd5b600080fd5b6000601f19601f8301169050919050565b7f4e487b7100000000000000000000000000000000000000000000000000000000600052604160045260246000fd5b6102c58261027c565b810181811067ffffffffffffffff821117156102e4576102e361028d565b5b80604052505050565b60006102f761025e565b905061030382826102bc565b919050565b600067ffffffffffffffff8211156103235761032261028d565b5b61032c8261027c565b9050602081019050919050565b82818337600083830152505050565b600061035b61035684610308565b6102ed565b90508281526020810184848401111561037757610376610277565b5b610382848285610339565b509392505050565b600082601f83011261039f5761039e610272565b5b81356103af848260208601610348565b91505092915050565b6000819050919050565b6103cb816103b8565b81146103d657600080fd5b50565b6000813590506103e8816103c2565b92915050565b6000806040838503121561040557610404610268565b5b600083013567ffffffffffffffff8111156104235761042261026d565b5b61042f8582860161038a565b9250506020610440858286016103d9565b9150509250929050565b6000602082840312156104605761045f610268565b5b600082013567ffffffffffffffff81111561047e5761047d61026d565b5b61048a8482850161038a565b91505092915050565b60008115159050919050565b6104a881610493565b82525050565b60006020820190506104c3600083018461049f565b92915050565b6104d281610493565b81146104dd57600080fd5b50565b6000813590506104ef816104c9565b92915050565b6000806040838503121561050c5761050b610268565b5b600083013567ffffffffffffffff81111561052a5761052961026d565b5b6105368582860161038a565b9250506020610547858286016104e0565b9150509250929050565b600081519050919050565b600082825260208201905092915050565b60005b8381101561058b578082015181840152602081019050610570565b60008484015250505050565b60006105a282610551565b6105ac818561055c565b93506105bc81856020860161056d565b6105c58161027c565b840191505092915050565b600060208201905081810360008301526105ea8184610597565b905092915050565b6105fb816103b8565b82525050565b600060208201905061061660008301846105f2565b92915050565b600081905092915050565b600061063282610551565b61063c818561061c565b935061064c81856020860161056d565b80840191505092915050565b60006106648284610627565b915081905092915050565b7f4e487b7100000000000000000000000000000000000000000000000000000000600052602260045260246000fd5b600060028204905060018216806106b657607f821691505b6020821081036106c9576106c861066f565b5b5091905056fea26469706673582212206e5899ae94b6c16307d7323641c905fefe15f905ed7c2077e485aa480d568a9264736f6c63430008110033",
  "immutableReferences": {},
  "source": "// SPDX-License-Identifier: MIT\npragma solidity >=0.4.22 <0.9.0;\nimport \"./Session.sol\";\n\n// struct Coordinates {\n//     int x;\n//     int y;\n//     int z;\n// }\n\ncontract Player {\n\n    string public id;\n    // Coordinates public coordinates;\n    mapping(string => bool) player_bool_data;\n    mapping(string => int) player_int_data;\n\n    constructor(string memory assigned_id) {\n        id = assigned_id;\n        // coordinates.x = 0;\n        // coordinates.y = 0;\n        // coordinates.z = 0;\n    }\n\n    // function get_position() public view returns (Coordinates memory) {\n    //     return coordinates;\n    // }\n    // function get_x() public view returns (int) {\n    //     return coordinates.x;\n    // }\n    // function get_y() public view returns (int) {\n    //     return coordinates.y;\n    // }\n    // function get_z() public view returns (int) {\n    //     return coordinates.z;\n    // }\n    function get_player_bool_data(string memory key) public view returns (bool) {\n        return player_bool_data[key];\n    }\n    function get_player_int_data(string memory key) public view returns (int) {\n        return player_int_data[key];\n    }\n    function update_player_bool_data(string memory key, bool data) public {\n        player_bool_data[key] = data;\n    }\n    function get_player_int_data(string memory key, int data) public {\n        player_int_data[key] = data;\n    }\n    // function update_position(Coordinates memory c) public {\n    //     coordinates = c;\n    // }\n    // function update_x(int x) public {\n    //     coordinates.x = x;\n    // }\n    // function update_y(int y) public {\n    //     coordinates.y = y;\n    // }\n    // function update_z(int z) public {\n    //     coordinates.z = z;\n    // }\n}\n",
  "sourcePath": "/mnt/d/documents/blockchain-testing/BC_Anticheat/contracts/Player.sol",
  "compiler": {
    "name": "solc",
    "version": "0.8.17+commit.8df45f5f.Emscripten.clang"
  },
  "schemaVersion": "3.4.11",
  "updatedAt": "2023-03-15T06:32:49.837Z",
  "devdoc": {
    "kind": "dev",
    "methods": {},
    "version": 1
  },
  "userdoc": {
    "kind": "user",
    "methods": {},
    "version": 1
  }
}